{
  "_format": "hh-sol-artifact-1",
  "contractName": "StackUp",
  "sourceName": "contracts/Stackup.sol",
  "abi": [
    {
      "inputs": [],
      "stateMutability": "nonpayable",
      "type": "constructor"
    },
    {
      "inputs": [],
      "name": "admin",
      "outputs": [
        {
          "internalType": "address",
          "name": "",
          "type": "address"
        }
      ],
      "stateMutability": "view",
      "type": "function"
    },
    {
      "inputs": [
        {
          "internalType": "string",
          "name": "title_",
          "type": "string"
        },
        {
          "internalType": "uint8",
          "name": "reward_",
          "type": "uint8"
        },
        {
          "internalType": "uint256",
          "name": "numberOfRewards_",
          "type": "uint256"
        }
      ],
      "name": "createQuest",
      "outputs": [],
      "stateMutability": "nonpayable",
      "type": "function"
    },
    {
      "inputs": [
        {
          "internalType": "uint256",
          "name": "questId",
          "type": "uint256"
        }
      ],
      "name": "joinQuest",
      "outputs": [],
      "stateMutability": "nonpayable",
      "type": "function"
    },
    {
      "inputs": [],
      "name": "nextQuestId",
      "outputs": [
        {
          "internalType": "uint256",
          "name": "",
          "type": "uint256"
        }
      ],
      "stateMutability": "view",
      "type": "function"
    },
    {
      "inputs": [
        {
          "internalType": "address",
          "name": "",
          "type": "address"
        },
        {
          "internalType": "uint256",
          "name": "",
          "type": "uint256"
        }
      ],
      "name": "playerQuestStatuses",
      "outputs": [
        {
          "internalType": "enum StackUp.playerQuestStatus",
          "name": "",
          "type": "uint8"
        }
      ],
      "stateMutability": "view",
      "type": "function"
    },
    {
      "inputs": [
        {
          "internalType": "uint256",
          "name": "",
          "type": "uint256"
        }
      ],
      "name": "quests",
      "outputs": [
        {
          "internalType": "uint256",
          "name": "questId",
          "type": "uint256"
        },
        {
          "internalType": "uint256",
          "name": "numberOfPlayers",
          "type": "uint256"
        },
        {
          "internalType": "string",
          "name": "title",
          "type": "string"
        },
        {
          "internalType": "uint8",
          "name": "reward",
          "type": "uint8"
        },
        {
          "internalType": "uint256",
          "name": "numberOfRewards",
          "type": "uint256"
        }
      ],
      "stateMutability": "view",
      "type": "function"
    },
    {
      "inputs": [
        {
          "internalType": "uint256",
          "name": "questId",
          "type": "uint256"
        }
      ],
      "name": "submitQuest",
      "outputs": [],
      "stateMutability": "nonpayable",
      "type": "function"
    }
  ],
  "bytecode": "0x608060405234801561001057600080fd5b50336000806101000a81548173ffffffffffffffffffffffffffffffffffffffff021916908373ffffffffffffffffffffffffffffffffffffffff1602179055506110f8806100606000396000f3fe608060405234801561001057600080fd5b506004361061007d5760003560e01c8063ad1c8a241161005b578063ad1c8a24146100ea578063d638c98314610106578063e085f98014610124578063f851a440146101585761007d565b80632d96e8f21461008257806378ff2bda1461009e57806399f7358c146100ba575b600080fd5b61009c60048036038101906100979190610841565b610176565b005b6100b860048036038101906100b391906108b5565b6102b7565b005b6100d460048036038101906100cf9190610940565b610494565b6040516100e191906109f7565b60405180910390f35b61010460048036038101906100ff91906108b5565b6104c3565b005b61010e61066e565b60405161011b9190610a21565b60405180910390f35b61013e600480360381019061013991906108b5565b610674565b60405161014f959493929190610adb565b60405180910390f35b61016061073f565b60405161016d9190610b44565b60405180910390f35b60008054906101000a900473ffffffffffffffffffffffffffffffffffffffff1673ffffffffffffffffffffffffffffffffffffffff163373ffffffffffffffffffffffffffffffffffffffff1614610204576040517f08c379a00000000000000000000000000000000000000000000000000000000081526004016101fb90610bab565b60405180910390fd5b600154600260006001548152602001908152602001600020600001819055508383600260006001548152602001908152602001600020600201918261024a929190610e11565b508160026000600154815260200190815260200160002060030160006101000a81548160ff021916908360ff1602179055508060026000600154815260200190815260200160002060040181905550600160008154809291906102ac90610f10565b919050555050505050565b8060006002600083815260200190815260200160002060030160009054906101000a900460ff1660ff1603610321576040517f08c379a000000000000000000000000000000000000000000000000000000000815260040161031890610fa4565b60405180910390fd5b6000600281111561033557610334610980565b5b600360003373ffffffffffffffffffffffffffffffffffffffff1673ffffffffffffffffffffffffffffffffffffffff168152602001908152602001600020600084815260200190815260200160002060009054906101000a900460ff1660028111156103a5576103a4610980565b5b146103e5576040517f08c379a00000000000000000000000000000000000000000000000000000000081526004016103dc90611036565b60405180910390fd5b6001600360003373ffffffffffffffffffffffffffffffffffffffff1673ffffffffffffffffffffffffffffffffffffffff168152602001908152602001600020600084815260200190815260200160002060006101000a81548160ff0219169083600281111561045957610458610980565b5b0217905550600060026000848152602001908152602001600020905080600101600081548092919061048a90610f10565b9190505550505050565b60036020528160005260406000206020528060005260406000206000915091509054906101000a900460ff1681565b8060006002600083815260200190815260200160002060030160009054906101000a900460ff1660ff160361052d576040517f08c379a000000000000000000000000000000000000000000000000000000000815260040161052490610fa4565b60405180910390fd5b6001600281111561054157610540610980565b5b600360003373ffffffffffffffffffffffffffffffffffffffff1673ffffffffffffffffffffffffffffffffffffffff168152602001908152602001600020600084815260200190815260200160002060009054906101000a900460ff1660028111156105b1576105b0610980565b5b146105f1576040517f08c379a00000000000000000000000000000000000000000000000000000000081526004016105e8906110a2565b60405180910390fd5b6002600360003373ffffffffffffffffffffffffffffffffffffffff1673ffffffffffffffffffffffffffffffffffffffff168152602001908152602001600020600084815260200190815260200160002060006101000a81548160ff0219169083600281111561066557610664610980565b5b02179055505050565b60015481565b60026020528060005260406000206000915090508060000154908060010154908060020180546106a390610c34565b80601f01602080910402602001604051908101604052809291908181526020018280546106cf90610c34565b801561071c5780601f106106f15761010080835404028352916020019161071c565b820191906000526020600020905b8154815290600101906020018083116106ff57829003601f168201915b5050505050908060030160009054906101000a900460ff16908060040154905085565b60008054906101000a900473ffffffffffffffffffffffffffffffffffffffff1681565b600080fd5b600080fd5b600080fd5b600080fd5b600080fd5b60008083601f8401126107925761079161076d565b5b8235905067ffffffffffffffff8111156107af576107ae610772565b5b6020830191508360018202830111156107cb576107ca610777565b5b9250929050565b600060ff82169050919050565b6107e8816107d2565b81146107f357600080fd5b50565b600081359050610805816107df565b92915050565b6000819050919050565b61081e8161080b565b811461082957600080fd5b50565b60008135905061083b81610815565b92915050565b6000806000806060858703121561085b5761085a610763565b5b600085013567ffffffffffffffff81111561087957610878610768565b5b6108858782880161077c565b94509450506020610898878288016107f6565b92505060406108a98782880161082c565b91505092959194509250565b6000602082840312156108cb576108ca610763565b5b60006108d98482850161082c565b91505092915050565b600073ffffffffffffffffffffffffffffffffffffffff82169050919050565b600061090d826108e2565b9050919050565b61091d81610902565b811461092857600080fd5b50565b60008135905061093a81610914565b92915050565b6000806040838503121561095757610956610763565b5b60006109658582860161092b565b92505060206109768582860161082c565b9150509250929050565b7f4e487b7100000000000000000000000000000000000000000000000000000000600052602160045260246000fd5b600381106109c0576109bf610980565b5b50565b60008190506109d1826109af565b919050565b60006109e1826109c3565b9050919050565b6109f1816109d6565b82525050565b6000602082019050610a0c60008301846109e8565b92915050565b610a1b8161080b565b82525050565b6000602082019050610a366000830184610a12565b92915050565b600081519050919050565b600082825260208201905092915050565b60005b83811015610a76578082015181840152602081019050610a5b565b60008484015250505050565b6000601f19601f8301169050919050565b6000610a9e82610a3c565b610aa88185610a47565b9350610ab8818560208601610a58565b610ac181610a82565b840191505092915050565b610ad5816107d2565b82525050565b600060a082019050610af06000830188610a12565b610afd6020830187610a12565b8181036040830152610b0f8186610a93565b9050610b1e6060830185610acc565b610b2b6080830184610a12565b9695505050505050565b610b3e81610902565b82525050565b6000602082019050610b596000830184610b35565b92915050565b7f4f6e6c79207468652061646d696e2063616e2063726561746520717565737473600082015250565b6000610b95602083610a47565b9150610ba082610b5f565b602082019050919050565b60006020820190508181036000830152610bc481610b88565b9050919050565b600082905092915050565b7f4e487b7100000000000000000000000000000000000000000000000000000000600052604160045260246000fd5b7f4e487b7100000000000000000000000000000000000000000000000000000000600052602260045260246000fd5b60006002820490506001821680610c4c57607f821691505b602082108103610c5f57610c5e610c05565b5b50919050565b60008190508160005260206000209050919050565b60006020601f8301049050919050565b600082821b905092915050565b600060088302610cc77fffffffffffffffffffffffffffffffffffffffffffffffffffffffffffffffff82610c8a565b610cd18683610c8a565b95508019841693508086168417925050509392505050565b6000819050919050565b6000610d0e610d09610d048461080b565b610ce9565b61080b565b9050919050565b6000819050919050565b610d2883610cf3565b610d3c610d3482610d15565b848454610c97565b825550505050565b600090565b610d51610d44565b610d5c818484610d1f565b505050565b5b81811015610d8057610d75600082610d49565b600181019050610d62565b5050565b601f821115610dc557610d9681610c65565b610d9f84610c7a565b81016020851015610dae578190505b610dc2610dba85610c7a565b830182610d61565b50505b505050565b600082821c905092915050565b6000610de860001984600802610dca565b1980831691505092915050565b6000610e018383610dd7565b9150826002028217905092915050565b610e1b8383610bcb565b67ffffffffffffffff811115610e3457610e33610bd6565b5b610e3e8254610c34565b610e49828285610d84565b6000601f831160018114610e785760008415610e66578287013590505b610e708582610df5565b865550610ed8565b601f198416610e8686610c65565b60005b82811015610eae57848901358255600182019150602085019450602081019050610e89565b86831015610ecb5784890135610ec7601f891682610dd7565b8355505b6001600288020188555050505b50505050505050565b7f4e487b7100000000000000000000000000000000000000000000000000000000600052601160045260246000fd5b6000610f1b8261080b565b91507fffffffffffffffffffffffffffffffffffffffffffffffffffffffffffffffff8203610f4d57610f4c610ee1565b5b600182019050919050565b7f517565737420646f6573206e6f74206578697374000000000000000000000000600082015250565b6000610f8e601483610a47565b9150610f9982610f58565b602082019050919050565b60006020820190508181036000830152610fbd81610f81565b9050919050565b7f506c617965722068617320616c7265616479206a6f696e65642f7375626d697460008201527f7465642074686973207175657374000000000000000000000000000000000000602082015250565b6000611020602e83610a47565b915061102b82610fc4565b604082019050919050565b6000602082019050818103600083015261104f81611013565b9050919050565b7f506c61796572206d757374206669727374206a6f696e20746865207175657374600082015250565b600061108c602083610a47565b915061109782611056565b602082019050919050565b600060208201905081810360008301526110bb8161107f565b905091905056fea2646970667358221220961d19823e2d7a1a6a8ff8f196cc3928c19b06dba193f1565d251cb1b40a1cf464736f6c63430008110033",
  "linkReferences": {},
  "deployedLinkReferences": {}
}