{
  "_format": "hh-sol-artifact-1",
  "contractName": "ButterflyToken",
  "sourceName": "contracts/ButterflyToken.sol",
  "abi": [
    {
      "inputs": [],
      "stateMutability": "nonpayable",
      "type": "constructor"
    },
    {
      "anonymous": false,
      "inputs": [
        {
          "indexed": true,
          "internalType": "address",
          "name": "owner",
          "type": "address"
        },
        {
          "indexed": true,
          "internalType": "address",
          "name": "approved",
          "type": "address"
        },
        {
          "indexed": true,
          "internalType": "uint256",
          "name": "tokenId",
          "type": "uint256"
        }
      ],
      "name": "Approval",
      "type": "event"
    },
    {
      "anonymous": false,
      "inputs": [
        {
          "indexed": true,
          "internalType": "address",
          "name": "owner",
          "type": "address"
        },
        {
          "indexed": true,
          "internalType": "address",
          "name": "operator",
          "type": "address"
        },
        {
          "indexed": false,
          "internalType": "bool",
          "name": "approved",
          "type": "bool"
        }
      ],
      "name": "ApprovalForAll",
      "type": "event"
    },
    {
      "anonymous": false,
      "inputs": [
        {
          "indexed": true,
          "internalType": "address",
          "name": "from",
          "type": "address"
        },
        {
          "indexed": true,
          "internalType": "address",
          "name": "to",
          "type": "address"
        },
        {
          "indexed": true,
          "internalType": "uint256",
          "name": "tokenId",
          "type": "uint256"
        }
      ],
      "name": "Transfer",
      "type": "event"
    },
    {
      "inputs": [],
      "name": "MAX_TOKENS",
      "outputs": [
        {
          "internalType": "uint256",
          "name": "",
          "type": "uint256"
        }
      ],
      "stateMutability": "view",
      "type": "function"
    },
    {
      "inputs": [
        {
          "internalType": "address",
          "name": "to",
          "type": "address"
        },
        {
          "internalType": "uint256",
          "name": "tokenId",
          "type": "uint256"
        }
      ],
      "name": "approve",
      "outputs": [],
      "stateMutability": "nonpayable",
      "type": "function"
    },
    {
      "inputs": [
        {
          "internalType": "address",
          "name": "owner",
          "type": "address"
        }
      ],
      "name": "balanceOf",
      "outputs": [
        {
          "internalType": "uint256",
          "name": "",
          "type": "uint256"
        }
      ],
      "stateMutability": "view",
      "type": "function"
    },
    {
      "inputs": [
        {
          "internalType": "uint256",
          "name": "tokenId",
          "type": "uint256"
        }
      ],
      "name": "getApproved",
      "outputs": [
        {
          "internalType": "address",
          "name": "",
          "type": "address"
        }
      ],
      "stateMutability": "view",
      "type": "function"
    },
    {
      "inputs": [
        {
          "internalType": "address",
          "name": "owner",
          "type": "address"
        },
        {
          "internalType": "address",
          "name": "operator",
          "type": "address"
        }
      ],
      "name": "isApprovedForAll",
      "outputs": [
        {
          "internalType": "bool",
          "name": "",
          "type": "bool"
        }
      ],
      "stateMutability": "view",
      "type": "function"
    },
    {
      "inputs": [
        {
          "internalType": "string",
          "name": "_tokenUri",
          "type": "string"
        }
      ],
      "name": "mint",
      "outputs": [],
      "stateMutability": "payable",
      "type": "function"
    },
    {
      "inputs": [],
      "name": "name",
      "outputs": [
        {
          "internalType": "string",
          "name": "",
          "type": "string"
        }
      ],
      "stateMutability": "view",
      "type": "function"
    },
    {
      "inputs": [
        {
          "internalType": "uint256",
          "name": "tokenId",
          "type": "uint256"
        }
      ],
      "name": "ownerOf",
      "outputs": [
        {
          "internalType": "address",
          "name": "",
          "type": "address"
        }
      ],
      "stateMutability": "view",
      "type": "function"
    },
    {
      "inputs": [
        {
          "internalType": "address",
          "name": "from",
          "type": "address"
        },
        {
          "internalType": "address",
          "name": "to",
          "type": "address"
        },
        {
          "internalType": "uint256",
          "name": "tokenId",
          "type": "uint256"
        }
      ],
      "name": "safeTransferFrom",
      "outputs": [],
      "stateMutability": "nonpayable",
      "type": "function"
    },
    {
      "inputs": [
        {
          "internalType": "address",
          "name": "from",
          "type": "address"
        },
        {
          "internalType": "address",
          "name": "to",
          "type": "address"
        },
        {
          "internalType": "uint256",
          "name": "tokenId",
          "type": "uint256"
        },
        {
          "internalType": "bytes",
          "name": "data",
          "type": "bytes"
        }
      ],
      "name": "safeTransferFrom",
      "outputs": [],
      "stateMutability": "nonpayable",
      "type": "function"
    },
    {
      "inputs": [
        {
          "internalType": "address",
          "name": "operator",
          "type": "address"
        },
        {
          "internalType": "bool",
          "name": "approved",
          "type": "bool"
        }
      ],
      "name": "setApprovalForAll",
      "outputs": [],
      "stateMutability": "nonpayable",
      "type": "function"
    },
    {
      "inputs": [
        {
          "internalType": "bytes4",
          "name": "interfaceId",
          "type": "bytes4"
        }
      ],
      "name": "supportsInterface",
      "outputs": [
        {
          "internalType": "bool",
          "name": "",
          "type": "bool"
        }
      ],
      "stateMutability": "view",
      "type": "function"
    },
    {
      "inputs": [],
      "name": "symbol",
      "outputs": [
        {
          "internalType": "string",
          "name": "",
          "type": "string"
        }
      ],
      "stateMutability": "view",
      "type": "function"
    },
    {
      "inputs": [],
      "name": "tokenCounter",
      "outputs": [
        {
          "internalType": "uint256",
          "name": "",
          "type": "uint256"
        }
      ],
      "stateMutability": "view",
      "type": "function"
    },
    {
      "inputs": [
        {
          "internalType": "uint256",
          "name": "tokenId",
          "type": "uint256"
        }
      ],
      "name": "tokenURI",
      "outputs": [
        {
          "internalType": "string",
          "name": "",
          "type": "string"
        }
      ],
      "stateMutability": "view",
      "type": "function"
    },
    {
      "inputs": [
        {
          "internalType": "address",
          "name": "from",
          "type": "address"
        },
        {
          "internalType": "address",
          "name": "to",
          "type": "address"
        },
        {
          "internalType": "uint256",
          "name": "tokenId",
          "type": "uint256"
        }
      ],
      "name": "transferFrom",
      "outputs": [],
      "stateMutability": "nonpayable",
      "type": "function"
    }
  ],
  "bytecode": "0x60806040526103e86008553480156200001757600080fd5b506040518060400160405280600981526020017f427574746572666c7900000000000000000000000000000000000000000000008152506040518060400160405280600581526020017f4254464c59000000000000000000000000000000000000000000000000000000815250816000908162000095919062000332565b508060019081620000a7919062000332565b505050600060078190555062000419565b600081519050919050565b7f4e487b7100000000000000000000000000000000000000000000000000000000600052604160045260246000fd5b7f4e487b7100000000000000000000000000000000000000000000000000000000600052602260045260246000fd5b600060028204905060018216806200013a57607f821691505b60208210810362000150576200014f620000f2565b5b50919050565b60008190508160005260206000209050919050565b60006020601f8301049050919050565b600082821b905092915050565b600060088302620001ba7fffffffffffffffffffffffffffffffffffffffffffffffffffffffffffffffff826200017b565b620001c686836200017b565b95508019841693508086168417925050509392505050565b6000819050919050565b6000819050919050565b6000620002136200020d6200020784620001de565b620001e8565b620001de565b9050919050565b6000819050919050565b6200022f83620001f2565b620002476200023e826200021a565b84845462000188565b825550505050565b600090565b6200025e6200024f565b6200026b81848462000224565b505050565b5b8181101562000293576200028760008262000254565b60018101905062000271565b5050565b601f821115620002e257620002ac8162000156565b620002b7846200016b565b81016020851015620002c7578190505b620002df620002d6856200016b565b83018262000270565b50505b505050565b600082821c905092915050565b60006200030760001984600802620002e7565b1980831691505092915050565b6000620003228383620002f4565b9150826002028217905092915050565b6200033d82620000b8565b67ffffffffffffffff811115620003595762000358620000c3565b5b62000365825462000121565b6200037282828562000297565b600060209050601f831160018114620003aa576000841562000395578287015190505b620003a1858262000314565b86555062000411565b601f198416620003ba8662000156565b60005b82811015620003e457848901518255600182019150602085019450602081019050620003bd565b8683101562000404578489015162000400601f891682620002f4565b8355505b6001600288020188555050505b505050505050565b612c2380620004296000396000f3fe6080604052600436106100f35760003560e01c806395d89b411161008a578063d082e38111610059578063d082e3811461034c578063d85d3d2714610377578063e985e9c514610393578063f47c84c5146103d0576100f3565b806395d89b4114610292578063a22cb465146102bd578063b88d4fde146102e6578063c87b56dd1461030f576100f3565b806323b872dd116100c657806323b872dd146101c657806342842e0e146101ef5780636352211e1461021857806370a0823114610255576100f3565b806301ffc9a7146100f857806306fdde0314610135578063081812fc14610160578063095ea7b31461019d575b600080fd5b34801561010457600080fd5b5061011f600480360381019061011a9190611949565b6103fb565b60405161012c9190611991565b60405180910390f35b34801561014157600080fd5b5061014a6104dd565b6040516101579190611a3c565b60405180910390f35b34801561016c57600080fd5b5061018760048036038101906101829190611a94565b61056f565b6040516101949190611b02565b60405180910390f35b3480156101a957600080fd5b506101c460048036038101906101bf9190611b49565b6105b5565b005b3480156101d257600080fd5b506101ed60048036038101906101e89190611b89565b6106cc565b005b3480156101fb57600080fd5b5061021660048036038101906102119190611b89565b61072c565b005b34801561022457600080fd5b5061023f600480360381019061023a9190611a94565b61074c565b60405161024c9190611b02565b60405180910390f35b34801561026157600080fd5b5061027c60048036038101906102779190611bdc565b6107fd565b6040516102899190611c18565b60405180910390f35b34801561029e57600080fd5b506102a76108b4565b6040516102b49190611a3c565b60405180910390f35b3480156102c957600080fd5b506102e460048036038101906102df9190611c5f565b610946565b005b3480156102f257600080fd5b5061030d60048036038101906103089190611dd4565b61095c565b005b34801561031b57600080fd5b5061033660048036038101906103319190611a94565b6109be565b6040516103439190611a3c565b60405180910390f35b34801561035857600080fd5b50610361610ad0565b60405161036e9190611c18565b60405180910390f35b610391600480360381019061038c9190611ef8565b610ad6565b005b34801561039f57600080fd5b506103ba60048036038101906103b59190611f41565b610b4c565b6040516103c79190611991565b60405180910390f35b3480156103dc57600080fd5b506103e5610be0565b6040516103f29190611c18565b60405180910390f35b60007f80ac58cd000000000000000000000000000000000000000000000000000000007bffffffffffffffffffffffffffffffffffffffffffffffffffffffff1916827bffffffffffffffffffffffffffffffffffffffffffffffffffffffff191614806104c657507f5b5e139f000000000000000000000000000000000000000000000000000000007bffffffffffffffffffffffffffffffffffffffffffffffffffffffff1916827bffffffffffffffffffffffffffffffffffffffffffffffffffffffff1916145b806104d657506104d582610be6565b5b9050919050565b6060600080546104ec90611fb0565b80601f016020809104026020016040519081016040528092919081815260200182805461051890611fb0565b80156105655780601f1061053a57610100808354040283529160200191610565565b820191906000526020600020905b81548152906001019060200180831161054857829003601f168201915b5050505050905090565b600061057a82610c50565b6004600083815260200190815260200160002060009054906101000a900473ffffffffffffffffffffffffffffffffffffffff169050919050565b60006105c08261074c565b90508073ffffffffffffffffffffffffffffffffffffffff168373ffffffffffffffffffffffffffffffffffffffff1603610630576040517f08c379a000000000000000000000000000000000000000000000000000000000815260040161062790612053565b60405180910390fd5b8073ffffffffffffffffffffffffffffffffffffffff1661064f610c9b565b73ffffffffffffffffffffffffffffffffffffffff16148061067e575061067d81610678610c9b565b610b4c565b5b6106bd576040517f08c379a00000000000000000000000000000000000000000000000000000000081526004016106b4906120e5565b60405180910390fd5b6106c78383610ca3565b505050565b6106dd6106d7610c9b565b82610d5c565b61071c576040517f08c379a000000000000000000000000000000000000000000000000000000000815260040161071390612177565b60405180910390fd5b610727838383610df1565b505050565b6107478383836040518060200160405280600081525061095c565b505050565b6000806002600084815260200190815260200160002060009054906101000a900473ffffffffffffffffffffffffffffffffffffffff169050600073ffffffffffffffffffffffffffffffffffffffff168173ffffffffffffffffffffffffffffffffffffffff16036107f4576040517f08c379a00000000000000000000000000000000000000000000000000000000081526004016107eb906121e3565b60405180910390fd5b80915050919050565b60008073ffffffffffffffffffffffffffffffffffffffff168273ffffffffffffffffffffffffffffffffffffffff160361086d576040517f08c379a000000000000000000000000000000000000000000000000000000000815260040161086490612275565b60405180910390fd5b600360008373ffffffffffffffffffffffffffffffffffffffff1673ffffffffffffffffffffffffffffffffffffffff168152602001908152602001600020549050919050565b6060600180546108c390611fb0565b80601f01602080910402602001604051908101604052809291908181526020018280546108ef90611fb0565b801561093c5780601f106109115761010080835404028352916020019161093c565b820191906000526020600020905b81548152906001019060200180831161091f57829003601f168201915b5050505050905090565b610958610951610c9b565b8383611057565b5050565b61096d610967610c9b565b83610d5c565b6109ac576040517f08c379a00000000000000000000000000000000000000000000000000000000081526004016109a390612177565b60405180910390fd5b6109b8848484846111c3565b50505050565b60606109c982610c50565b60006006600084815260200190815260200160002080546109e990611fb0565b80601f0160208091040260200160405190810160405280929190818152602001828054610a1590611fb0565b8015610a625780601f10610a3757610100808354040283529160200191610a62565b820191906000526020600020905b815481529060010190602001808311610a4557829003601f168201915b505050505090506000610a7361121f565b90506000815103610a88578192505050610acb565b600082511115610abd578082604051602001610aa59291906122d1565b60405160208183030381529060405292505050610acb565b610ac684611236565b925050505b919050565b60075481565b60085460075410610b1c576040517f08c379a0000000000000000000000000000000000000000000000000000000008152600401610b1390612341565b60405180910390fd5b610b283360075461129e565b610b34600754826112bc565b6001600754610b439190612390565b60078190555050565b6000600560008473ffffffffffffffffffffffffffffffffffffffff1673ffffffffffffffffffffffffffffffffffffffff16815260200190815260200160002060008373ffffffffffffffffffffffffffffffffffffffff1673ffffffffffffffffffffffffffffffffffffffff16815260200190815260200160002060009054906101000a900460ff16905092915050565b60085481565b60007f01ffc9a7000000000000000000000000000000000000000000000000000000007bffffffffffffffffffffffffffffffffffffffffffffffffffffffff1916827bffffffffffffffffffffffffffffffffffffffffffffffffffffffff1916149050919050565b610c5981611329565b610c98576040517f08c379a0000000000000000000000000000000000000000000000000000000008152600401610c8f906121e3565b60405180910390fd5b50565b600033905090565b816004600083815260200190815260200160002060006101000a81548173ffffffffffffffffffffffffffffffffffffffff021916908373ffffffffffffffffffffffffffffffffffffffff160217905550808273ffffffffffffffffffffffffffffffffffffffff16610d168361074c565b73ffffffffffffffffffffffffffffffffffffffff167f8c5be1e5ebec7d5bd14f71427d1e84f3dd0314c0f7b2291e5b200ac8c7c3b92560405160405180910390a45050565b600080610d688361074c565b90508073ffffffffffffffffffffffffffffffffffffffff168473ffffffffffffffffffffffffffffffffffffffff161480610daa5750610da98185610b4c565b5b80610de857508373ffffffffffffffffffffffffffffffffffffffff16610dd08461056f565b73ffffffffffffffffffffffffffffffffffffffff16145b91505092915050565b8273ffffffffffffffffffffffffffffffffffffffff16610e118261074c565b73ffffffffffffffffffffffffffffffffffffffff1614610e67576040517f08c379a0000000000000000000000000000000000000000000000000000000008152600401610e5e90612436565b60405180910390fd5b600073ffffffffffffffffffffffffffffffffffffffff168273ffffffffffffffffffffffffffffffffffffffff1603610ed6576040517f08c379a0000000000000000000000000000000000000000000000000000000008152600401610ecd906124c8565b60405180910390fd5b610ee1838383611395565b610eec600082610ca3565b6001600360008573ffffffffffffffffffffffffffffffffffffffff1673ffffffffffffffffffffffffffffffffffffffff1681526020019081526020016000206000828254610f3c91906124e8565b925050819055506001600360008473ffffffffffffffffffffffffffffffffffffffff1673ffffffffffffffffffffffffffffffffffffffff1681526020019081526020016000206000828254610f939190612390565b92505081905550816002600083815260200190815260200160002060006101000a81548173ffffffffffffffffffffffffffffffffffffffff021916908373ffffffffffffffffffffffffffffffffffffffff160217905550808273ffffffffffffffffffffffffffffffffffffffff168473ffffffffffffffffffffffffffffffffffffffff167fddf252ad1be2c89b69c2b068fc378daa952ba7f163c4a11628f55a4df523b3ef60405160405180910390a461105283838361139a565b505050565b8173ffffffffffffffffffffffffffffffffffffffff168373ffffffffffffffffffffffffffffffffffffffff16036110c5576040517f08c379a00000000000000000000000000000000000000000000000000000000081526004016110bc90612568565b60405180910390fd5b80600560008573ffffffffffffffffffffffffffffffffffffffff1673ffffffffffffffffffffffffffffffffffffffff16815260200190815260200160002060008473ffffffffffffffffffffffffffffffffffffffff1673ffffffffffffffffffffffffffffffffffffffff16815260200190815260200160002060006101000a81548160ff0219169083151502179055508173ffffffffffffffffffffffffffffffffffffffff168373ffffffffffffffffffffffffffffffffffffffff167f17307eab39ab6107e8899845ad3d59bd9653f200f220920489ca2b5937696c31836040516111b69190611991565b60405180910390a3505050565b6111ce848484610df1565b6111da8484848461139f565b611219576040517f08c379a0000000000000000000000000000000000000000000000000000000008152600401611210906125fa565b60405180910390fd5b50505050565b606060405180602001604052806000815250905090565b606061124182610c50565b600061124b61121f565b9050600081511161126b5760405180602001604052806000815250611296565b8061127584611526565b6040516020016112869291906122d1565b6040516020818303038152906040525b915050919050565b6112b8828260405180602001604052806000815250611686565b5050565b6112c582611329565b611304576040517f08c379a00000000000000000000000000000000000000000000000000000000081526004016112fb9061268c565b60405180910390fd5b806006600084815260200190815260200160002090816113249190612858565b505050565b60008073ffffffffffffffffffffffffffffffffffffffff166002600084815260200190815260200160002060009054906101000a900473ffffffffffffffffffffffffffffffffffffffff1673ffffffffffffffffffffffffffffffffffffffff1614159050919050565b505050565b505050565b60006113c08473ffffffffffffffffffffffffffffffffffffffff166116e1565b15611519578373ffffffffffffffffffffffffffffffffffffffff1663150b7a026113e9610c9b565b8786866040518563ffffffff1660e01b815260040161140b949392919061297f565b6020604051808303816000875af192505050801561144757506040513d601f19601f8201168201806040525081019061144491906129e0565b60015b6114c9573d8060008114611477576040519150601f19603f3d011682016040523d82523d6000602084013e61147c565b606091505b5060008151036114c1576040517f08c379a00000000000000000000000000000000000000000000000000000000081526004016114b8906125fa565b60405180910390fd5b805181602001fd5b63150b7a0260e01b7bffffffffffffffffffffffffffffffffffffffffffffffffffffffff1916817bffffffffffffffffffffffffffffffffffffffffffffffffffffffff19161491505061151e565b600190505b949350505050565b60606000820361156d576040518060400160405280600181526020017f30000000000000000000000000000000000000000000000000000000000000008152509050611681565b600082905060005b6000821461159f57808061158890612a0d565b915050600a826115989190612a84565b9150611575565b60008167ffffffffffffffff8111156115bb576115ba611ca9565b5b6040519080825280601f01601f1916602001820160405280156115ed5781602001600182028036833780820191505090505b5090505b6000851461167a5760018261160691906124e8565b9150600a856116159190612ab5565b60306116219190612390565b60f81b81838151811061163757611636612ae6565b5b60200101907effffffffffffffffffffffffffffffffffffffffffffffffffffffffffffff1916908160001a905350600a856116739190612a84565b94506115f1565b8093505050505b919050565b6116908383611704565b61169d600084848461139f565b6116dc576040517f08c379a00000000000000000000000000000000000000000000000000000000081526004016116d3906125fa565b60405180910390fd5b505050565b6000808273ffffffffffffffffffffffffffffffffffffffff163b119050919050565b600073ffffffffffffffffffffffffffffffffffffffff168273ffffffffffffffffffffffffffffffffffffffff1603611773576040517f08c379a000000000000000000000000000000000000000000000000000000000815260040161176a90612b61565b60405180910390fd5b61177c81611329565b156117bc576040517f08c379a00000000000000000000000000000000000000000000000000000000081526004016117b390612bcd565b60405180910390fd5b6117c860008383611395565b6001600360008473ffffffffffffffffffffffffffffffffffffffff1673ffffffffffffffffffffffffffffffffffffffff16815260200190815260200160002060008282546118189190612390565b92505081905550816002600083815260200190815260200160002060006101000a81548173ffffffffffffffffffffffffffffffffffffffff021916908373ffffffffffffffffffffffffffffffffffffffff160217905550808273ffffffffffffffffffffffffffffffffffffffff16600073ffffffffffffffffffffffffffffffffffffffff167fddf252ad1be2c89b69c2b068fc378daa952ba7f163c4a11628f55a4df523b3ef60405160405180910390a46118d96000838361139a565b5050565b6000604051905090565b600080fd5b600080fd5b60007fffffffff0000000000000000000000000000000000000000000000000000000082169050919050565b611926816118f1565b811461193157600080fd5b50565b6000813590506119438161191d565b92915050565b60006020828403121561195f5761195e6118e7565b5b600061196d84828501611934565b91505092915050565b60008115159050919050565b61198b81611976565b82525050565b60006020820190506119a66000830184611982565b92915050565b600081519050919050565b600082825260208201905092915050565b60005b838110156119e65780820151818401526020810190506119cb565b60008484015250505050565b6000601f19601f8301169050919050565b6000611a0e826119ac565b611a1881856119b7565b9350611a288185602086016119c8565b611a31816119f2565b840191505092915050565b60006020820190508181036000830152611a568184611a03565b905092915050565b6000819050919050565b611a7181611a5e565b8114611a7c57600080fd5b50565b600081359050611a8e81611a68565b92915050565b600060208284031215611aaa57611aa96118e7565b5b6000611ab884828501611a7f565b91505092915050565b600073ffffffffffffffffffffffffffffffffffffffff82169050919050565b6000611aec82611ac1565b9050919050565b611afc81611ae1565b82525050565b6000602082019050611b176000830184611af3565b92915050565b611b2681611ae1565b8114611b3157600080fd5b50565b600081359050611b4381611b1d565b92915050565b60008060408385031215611b6057611b5f6118e7565b5b6000611b6e85828601611b34565b9250506020611b7f85828601611a7f565b9150509250929050565b600080600060608486031215611ba257611ba16118e7565b5b6000611bb086828701611b34565b9350506020611bc186828701611b34565b9250506040611bd286828701611a7f565b9150509250925092565b600060208284031215611bf257611bf16118e7565b5b6000611c0084828501611b34565b91505092915050565b611c1281611a5e565b82525050565b6000602082019050611c2d6000830184611c09565b92915050565b611c3c81611976565b8114611c4757600080fd5b50565b600081359050611c5981611c33565b92915050565b60008060408385031215611c7657611c756118e7565b5b6000611c8485828601611b34565b9250506020611c9585828601611c4a565b9150509250929050565b600080fd5b600080fd5b7f4e487b7100000000000000000000000000000000000000000000000000000000600052604160045260246000fd5b611ce1826119f2565b810181811067ffffffffffffffff82111715611d0057611cff611ca9565b5b80604052505050565b6000611d136118dd565b9050611d1f8282611cd8565b919050565b600067ffffffffffffffff821115611d3f57611d3e611ca9565b5b611d48826119f2565b9050602081019050919050565b82818337600083830152505050565b6000611d77611d7284611d24565b611d09565b905082815260208101848484011115611d9357611d92611ca4565b5b611d9e848285611d55565b509392505050565b600082601f830112611dbb57611dba611c9f565b5b8135611dcb848260208601611d64565b91505092915050565b60008060008060808587031215611dee57611ded6118e7565b5b6000611dfc87828801611b34565b9450506020611e0d87828801611b34565b9350506040611e1e87828801611a7f565b925050606085013567ffffffffffffffff811115611e3f57611e3e6118ec565b5b611e4b87828801611da6565b91505092959194509250565b600067ffffffffffffffff821115611e7257611e71611ca9565b5b611e7b826119f2565b9050602081019050919050565b6000611e9b611e9684611e57565b611d09565b905082815260208101848484011115611eb757611eb6611ca4565b5b611ec2848285611d55565b509392505050565b600082601f830112611edf57611ede611c9f565b5b8135611eef848260208601611e88565b91505092915050565b600060208284031215611f0e57611f0d6118e7565b5b600082013567ffffffffffffffff811115611f2c57611f2b6118ec565b5b611f3884828501611eca565b91505092915050565b60008060408385031215611f5857611f576118e7565b5b6000611f6685828601611b34565b9250506020611f7785828601611b34565b9150509250929050565b7f4e487b7100000000000000000000000000000000000000000000000000000000600052602260045260246000fd5b60006002820490506001821680611fc857607f821691505b602082108103611fdb57611fda611f81565b5b50919050565b7f4552433732313a20617070726f76616c20746f2063757272656e74206f776e6560008201527f7200000000000000000000000000000000000000000000000000000000000000602082015250565b600061203d6021836119b7565b915061204882611fe1565b604082019050919050565b6000602082019050818103600083015261206c81612030565b9050919050565b7f4552433732313a20617070726f76652063616c6c6572206973206e6f7420746f60008201527f6b656e206f776e6572206e6f7220617070726f76656420666f7220616c6c0000602082015250565b60006120cf603e836119b7565b91506120da82612073565b604082019050919050565b600060208201905081810360008301526120fe816120c2565b9050919050565b7f4552433732313a2063616c6c6572206973206e6f7420746f6b656e206f776e6560008201527f72206e6f7220617070726f766564000000000000000000000000000000000000602082015250565b6000612161602e836119b7565b915061216c82612105565b604082019050919050565b6000602082019050818103600083015261219081612154565b9050919050565b7f4552433732313a20696e76616c696420746f6b656e2049440000000000000000600082015250565b60006121cd6018836119b7565b91506121d882612197565b602082019050919050565b600060208201905081810360008301526121fc816121c0565b9050919050565b7f4552433732313a2061646472657373207a65726f206973206e6f74206120766160008201527f6c6964206f776e65720000000000000000000000000000000000000000000000602082015250565b600061225f6029836119b7565b915061226a82612203565b604082019050919050565b6000602082019050818103600083015261228e81612252565b9050919050565b600081905092915050565b60006122ab826119ac565b6122b58185612295565b93506122c58185602086016119c8565b80840191505092915050565b60006122dd82856122a0565b91506122e982846122a0565b91508190509392505050565b7f4552433732313a204d617820737570706c790000000000000000000000000000600082015250565b600061232b6012836119b7565b9150612336826122f5565b602082019050919050565b6000602082019050818103600083015261235a8161231e565b9050919050565b7f4e487b7100000000000000000000000000000000000000000000000000000000600052601160045260246000fd5b600061239b82611a5e565b91506123a683611a5e565b92508282019050808211156123be576123bd612361565b5b92915050565b7f4552433732313a207472616e736665722066726f6d20696e636f72726563742060008201527f6f776e6572000000000000000000000000000000000000000000000000000000602082015250565b60006124206025836119b7565b915061242b826123c4565b604082019050919050565b6000602082019050818103600083015261244f81612413565b9050919050565b7f4552433732313a207472616e7366657220746f20746865207a65726f2061646460008201527f7265737300000000000000000000000000000000000000000000000000000000602082015250565b60006124b26024836119b7565b91506124bd82612456565b604082019050919050565b600060208201905081810360008301526124e1816124a5565b9050919050565b60006124f382611a5e565b91506124fe83611a5e565b925082820390508181111561251657612515612361565b5b92915050565b7f4552433732313a20617070726f766520746f2063616c6c657200000000000000600082015250565b60006125526019836119b7565b915061255d8261251c565b602082019050919050565b6000602082019050818103600083015261258181612545565b9050919050565b7f4552433732313a207472616e7366657220746f206e6f6e20455243373231526560008201527f63656976657220696d706c656d656e7465720000000000000000000000000000602082015250565b60006125e46032836119b7565b91506125ef82612588565b604082019050919050565b60006020820190508181036000830152612613816125d7565b9050919050565b7f45524337323155524953746f726167653a2055524920736574206f66206e6f6e60008201527f6578697374656e7420746f6b656e000000000000000000000000000000000000602082015250565b6000612676602e836119b7565b91506126818261261a565b604082019050919050565b600060208201905081810360008301526126a581612669565b9050919050565b60008190508160005260206000209050919050565b60006020601f8301049050919050565b600082821b905092915050565b60006008830261270e7fffffffffffffffffffffffffffffffffffffffffffffffffffffffffffffffff826126d1565b61271886836126d1565b95508019841693508086168417925050509392505050565b6000819050919050565b600061275561275061274b84611a5e565b612730565b611a5e565b9050919050565b6000819050919050565b61276f8361273a565b61278361277b8261275c565b8484546126de565b825550505050565b600090565b61279861278b565b6127a3818484612766565b505050565b5b818110156127c7576127bc600082612790565b6001810190506127a9565b5050565b601f82111561280c576127dd816126ac565b6127e6846126c1565b810160208510156127f5578190505b612809612801856126c1565b8301826127a8565b50505b505050565b600082821c905092915050565b600061282f60001984600802612811565b1980831691505092915050565b6000612848838361281e565b9150826002028217905092915050565b612861826119ac565b67ffffffffffffffff81111561287a57612879611ca9565b5b6128848254611fb0565b61288f8282856127cb565b600060209050601f8311600181146128c257600084156128b0578287015190505b6128ba858261283c565b865550612922565b601f1984166128d0866126ac565b60005b828110156128f8578489015182556001820191506020850194506020810190506128d3565b868310156129155784890151612911601f89168261281e565b8355505b6001600288020188555050505b505050505050565b600081519050919050565b600082825260208201905092915050565b60006129518261292a565b61295b8185612935565b935061296b8185602086016119c8565b612974816119f2565b840191505092915050565b60006080820190506129946000830187611af3565b6129a16020830186611af3565b6129ae6040830185611c09565b81810360608301526129c08184612946565b905095945050505050565b6000815190506129da8161191d565b92915050565b6000602082840312156129f6576129f56118e7565b5b6000612a04848285016129cb565b91505092915050565b6000612a1882611a5e565b91507fffffffffffffffffffffffffffffffffffffffffffffffffffffffffffffffff8203612a4a57612a49612361565b5b600182019050919050565b7f4e487b7100000000000000000000000000000000000000000000000000000000600052601260045260246000fd5b6000612a8f82611a5e565b9150612a9a83611a5e565b925082612aaa57612aa9612a55565b5b828204905092915050565b6000612ac082611a5e565b9150612acb83611a5e565b925082612adb57612ada612a55565b5b828206905092915050565b7f4e487b7100000000000000000000000000000000000000000000000000000000600052603260045260246000fd5b7f4552433732313a206d696e7420746f20746865207a65726f2061646472657373600082015250565b6000612b4b6020836119b7565b9150612b5682612b15565b602082019050919050565b60006020820190508181036000830152612b7a81612b3e565b9050919050565b7f4552433732313a20746f6b656e20616c7265616479206d696e74656400000000600082015250565b6000612bb7601c836119b7565b9150612bc282612b81565b602082019050919050565b60006020820190508181036000830152612be681612baa565b905091905056fea2646970667358221220d474a8ecb70a49b7f80f371e3f8635d56230d3dae8ce9549f3f1dd0c69f3b47064736f6c63430008110033",
  "linkReferences": {},
  "deployedLinkReferences": {}
}