{
	"capstone_swap.sol": {
		"TokenSwap": {
			"abi": [
				{
					"inputs": [
						{
							"internalType": "address",
							"name": "_sdt",
							"type": "address"
						},
						{
							"internalType": "address",
							"name": "_skt",
							"type": "address"
						}
					],
					"stateMutability": "nonpayable",
					"type": "constructor"
				},
				{
					"anonymous": false,
					"inputs": [
						{
							"indexed": false,
							"internalType": "address",
							"name": "provider",
							"type": "address"
						},
						{
							"indexed": false,
							"internalType": "uint256",
							"name": "sdtAmount",
							"type": "uint256"
						},
						{
							"indexed": false,
							"internalType": "uint256",
							"name": "sktAmount",
							"type": "uint256"
						},
						{
							"indexed": false,
							"internalType": "uint256",
							"name": "liquidityMinted",
							"type": "uint256"
						}
					],
					"name": "LiquidityAdded",
					"type": "event"
				},
				{
					"anonymous": false,
					"inputs": [
						{
							"indexed": false,
							"internalType": "address",
							"name": "provider",
							"type": "address"
						},
						{
							"indexed": false,
							"internalType": "uint256",
							"name": "sdtAmount",
							"type": "uint256"
						},
						{
							"indexed": false,
							"internalType": "uint256",
							"name": "sktAmount",
							"type": "uint256"
						},
						{
							"indexed": false,
							"internalType": "uint256",
							"name": "liquidityBurned",
							"type": "uint256"
						}
					],
					"name": "LiquidityRemoved",
					"type": "event"
				},
				{
					"anonymous": false,
					"inputs": [
						{
							"indexed": false,
							"internalType": "address",
							"name": "trader",
							"type": "address"
						},
						{
							"indexed": false,
							"internalType": "address",
							"name": "input",
							"type": "address"
						},
						{
							"indexed": false,
							"internalType": "address",
							"name": "output",
							"type": "address"
						},
						{
							"indexed": false,
							"internalType": "uint256",
							"name": "inputAmount",
							"type": "uint256"
						},
						{
							"indexed": false,
							"internalType": "uint256",
							"name": "outputAmount",
							"type": "uint256"
						}
					],
					"name": "TokensSwapped",
					"type": "event"
				},
				{
					"inputs": [],
					"name": "FEE",
					"outputs": [
						{
							"internalType": "uint256",
							"name": "",
							"type": "uint256"
						}
					],
					"stateMutability": "view",
					"type": "function"
				},
				{
					"inputs": [
						{
							"internalType": "uint256",
							"name": "_sdtAmount",
							"type": "uint256"
						},
						{
							"internalType": "uint256",
							"name": "_sktAmount",
							"type": "uint256"
						}
					],
					"name": "addLiquidity",
					"outputs": [],
					"stateMutability": "payable",
					"type": "function"
				},
				{
					"inputs": [],
					"name": "admin",
					"outputs": [
						{
							"internalType": "address",
							"name": "",
							"type": "address"
						}
					],
					"stateMutability": "view",
					"type": "function"
				},
				{
					"inputs": [
						{
							"internalType": "uint256",
							"name": "_inputAmount",
							"type": "uint256"
						},
						{
							"internalType": "address",
							"name": "_inputToken",
							"type": "address"
						},
						{
							"internalType": "address",
							"name": "_outputToken",
							"type": "address"
						}
					],
					"name": "getSwapAmount",
					"outputs": [
						{
							"internalType": "uint256",
							"name": "",
							"type": "uint256"
						}
					],
					"stateMutability": "view",
					"type": "function"
				},
				{
					"inputs": [
						{
							"internalType": "address",
							"name": "",
							"type": "address"
						}
					],
					"name": "liquidityProviderBalance",
					"outputs": [
						{
							"internalType": "uint256",
							"name": "",
							"type": "uint256"
						}
					],
					"stateMutability": "view",
					"type": "function"
				},
				{
					"inputs": [],
					"name": "removeLiquidity",
					"outputs": [],
					"stateMutability": "nonpayable",
					"type": "function"
				},
				{
					"inputs": [],
					"name": "sdt",
					"outputs": [
						{
							"internalType": "contract IERC20",
							"name": "",
							"type": "address"
						}
					],
					"stateMutability": "view",
					"type": "function"
				},
				{
					"inputs": [],
					"name": "sdtFeePool",
					"outputs": [
						{
							"internalType": "uint256",
							"name": "",
							"type": "uint256"
						}
					],
					"stateMutability": "view",
					"type": "function"
				},
				{
					"inputs": [],
					"name": "sdtReserve",
					"outputs": [
						{
							"internalType": "uint256",
							"name": "",
							"type": "uint256"
						}
					],
					"stateMutability": "view",
					"type": "function"
				},
				{
					"inputs": [],
					"name": "skt",
					"outputs": [
						{
							"internalType": "contract IERC20",
							"name": "",
							"type": "address"
						}
					],
					"stateMutability": "view",
					"type": "function"
				},
				{
					"inputs": [],
					"name": "sktFeePool",
					"outputs": [
						{
							"internalType": "uint256",
							"name": "",
							"type": "uint256"
						}
					],
					"stateMutability": "view",
					"type": "function"
				},
				{
					"inputs": [],
					"name": "sktReserve",
					"outputs": [
						{
							"internalType": "uint256",
							"name": "",
							"type": "uint256"
						}
					],
					"stateMutability": "view",
					"type": "function"
				},
				{
					"inputs": [
						{
							"internalType": "uint256",
							"name": "_amount",
							"type": "uint256"
						},
						{
							"internalType": "address",
							"name": "_input",
							"type": "address"
						},
						{
							"internalType": "address",
							"name": "_output",
							"type": "address"
						}
					],
					"name": "swapTokens",
					"outputs": [],
					"stateMutability": "nonpayable",
					"type": "function"
				},
				{
					"inputs": [],
					"name": "totalLiquidity",
					"outputs": [
						{
							"internalType": "uint256",
							"name": "",
							"type": "uint256"
						}
					],
					"stateMutability": "view",
					"type": "function"
				}
			],
			"devdoc": {
				"kind": "dev",
				"methods": {},
				"version": 1
			},
			"evm": {
				"assembly": "    /* \"capstone_swap.sol\":87:5592  contract TokenSwap {... */\n  mstore(0x40, 0x80)\n    /* \"capstone_swap.sol\":229:230  0 */\n  0x00\n    /* \"capstone_swap.sol\":201:230  uint256 public sdtReserve = 0 */\n  0x02\n  sstore\n    /* \"capstone_swap.sol\":367:368  0 */\n  0x00\n    /* \"capstone_swap.sol\":339:368  uint256 public sktReserve = 0 */\n  0x03\n  sstore\n    /* \"capstone_swap.sol\":1054:1175  constructor(address _sdt, address _skt) {... */\n  callvalue\n  dup1\n  iszero\n  tag_1\n  jumpi\n  0x00\n  dup1\n  revert\ntag_1:\n  pop\n  mload(0x40)\n  sub(codesize, bytecodeSize)\n  dup1\n  bytecodeSize\n  dup4\n  codecopy\n  dup2\n  dup2\n  add\n  0x40\n  mstore\n  dup2\n  add\n  swap1\n  tag_2\n  swap2\n  swap1\n  tag_3\n  jump\t// in\ntag_2:\n    /* \"capstone_swap.sol\":1114:1118  _sdt */\n  dup2\n    /* \"capstone_swap.sol\":1101:1104  sdt */\n  0x00\n  dup1\n    /* \"capstone_swap.sol\":1101:1119  sdt = IERC20(_sdt) */\n  0x0100\n  exp\n  dup2\n  sload\n  dup2\n  0xffffffffffffffffffffffffffffffffffffffff\n  mul\n  not\n  and\n  swap1\n  dup4\n  0xffffffffffffffffffffffffffffffffffffffff\n  and\n  mul\n  or\n  swap1\n  sstore\n  pop\n    /* \"capstone_swap.sol\":1139:1143  _skt */\n  dup1\n    /* \"capstone_swap.sol\":1126:1129  skt */\n  0x01\n  0x00\n    /* \"capstone_swap.sol\":1126:1144  skt = IERC20(_skt) */\n  0x0100\n  exp\n  dup2\n  sload\n  dup2\n  0xffffffffffffffffffffffffffffffffffffffff\n  mul\n  not\n  and\n  swap1\n  dup4\n  0xffffffffffffffffffffffffffffffffffffffff\n  and\n  mul\n  or\n  swap1\n  sstore\n  pop\n    /* \"capstone_swap.sol\":1159:1169  msg.sender */\n  caller\n    /* \"capstone_swap.sol\":1151:1156  admin */\n  0x06\n  0x00\n    /* \"capstone_swap.sol\":1151:1169  admin = msg.sender */\n  0x0100\n  exp\n  dup2\n  sload\n  dup2\n  0xffffffffffffffffffffffffffffffffffffffff\n  mul\n  not\n  and\n  swap1\n  dup4\n  0xffffffffffffffffffffffffffffffffffffffff\n  and\n  mul\n  or\n  swap1\n  sstore\n  pop\n    /* \"capstone_swap.sol\":1054:1175  constructor(address _sdt, address _skt) {... */\n  pop\n  pop\n    /* \"capstone_swap.sol\":87:5592  contract TokenSwap {... */\n  jump(tag_6)\n    /* \"#utility.yul\":88:205   */\ntag_8:\n    /* \"#utility.yul\":197:198   */\n  0x00\n    /* \"#utility.yul\":194:195   */\n  dup1\n    /* \"#utility.yul\":187:199   */\n  revert\n    /* \"#utility.yul\":334:460   */\ntag_10:\n    /* \"#utility.yul\":371:378   */\n  0x00\n    /* \"#utility.yul\":411:453   */\n  0xffffffffffffffffffffffffffffffffffffffff\n    /* \"#utility.yul\":404:409   */\n  dup3\n    /* \"#utility.yul\":400:454   */\n  and\n    /* \"#utility.yul\":389:454   */\n  swap1\n  pop\n    /* \"#utility.yul\":334:460   */\n  swap2\n  swap1\n  pop\n  jump\t// out\n    /* \"#utility.yul\":466:562   */\ntag_11:\n    /* \"#utility.yul\":503:510   */\n  0x00\n    /* \"#utility.yul\":532:556   */\n  tag_20\n    /* \"#utility.yul\":550:555   */\n  dup3\n    /* \"#utility.yul\":532:556   */\n  tag_10\n  jump\t// in\ntag_20:\n    /* \"#utility.yul\":521:556   */\n  swap1\n  pop\n    /* \"#utility.yul\":466:562   */\n  swap2\n  swap1\n  pop\n  jump\t// out\n    /* \"#utility.yul\":568:690   */\ntag_12:\n    /* \"#utility.yul\":641:665   */\n  tag_22\n    /* \"#utility.yul\":659:664   */\n  dup2\n    /* \"#utility.yul\":641:665   */\n  tag_11\n  jump\t// in\ntag_22:\n    /* \"#utility.yul\":634:639   */\n  dup2\n    /* \"#utility.yul\":631:666   */\n  eq\n    /* \"#utility.yul\":621:684   */\n  tag_23\n  jumpi\n    /* \"#utility.yul\":680:681   */\n  0x00\n    /* \"#utility.yul\":677:678   */\n  dup1\n    /* \"#utility.yul\":670:682   */\n  revert\n    /* \"#utility.yul\":621:684   */\ntag_23:\n    /* \"#utility.yul\":568:690   */\n  pop\n  jump\t// out\n    /* \"#utility.yul\":696:839   */\ntag_13:\n    /* \"#utility.yul\":753:758   */\n  0x00\n    /* \"#utility.yul\":784:790   */\n  dup2\n    /* \"#utility.yul\":778:791   */\n  mload\n    /* \"#utility.yul\":769:791   */\n  swap1\n  pop\n    /* \"#utility.yul\":800:833   */\n  tag_25\n    /* \"#utility.yul\":827:832   */\n  dup2\n    /* \"#utility.yul\":800:833   */\n  tag_12\n  jump\t// in\ntag_25:\n    /* \"#utility.yul\":696:839   */\n  swap3\n  swap2\n  pop\n  pop\n  jump\t// out\n    /* \"#utility.yul\":845:1352   */\ntag_3:\n    /* \"#utility.yul\":924:930   */\n  0x00\n    /* \"#utility.yul\":932:938   */\n  dup1\n    /* \"#utility.yul\":981:983   */\n  0x40\n    /* \"#utility.yul\":969:978   */\n  dup4\n    /* \"#utility.yul\":960:967   */\n  dup6\n    /* \"#utility.yul\":956:979   */\n  sub\n    /* \"#utility.yul\":952:984   */\n  slt\n    /* \"#utility.yul\":949:1068   */\n  iszero\n  tag_27\n  jumpi\n    /* \"#utility.yul\":987:1066   */\n  tag_28\n  tag_8\n  jump\t// in\ntag_28:\n    /* \"#utility.yul\":949:1068   */\ntag_27:\n    /* \"#utility.yul\":1107:1108   */\n  0x00\n    /* \"#utility.yul\":1132:1196   */\n  tag_29\n    /* \"#utility.yul\":1188:1195   */\n  dup6\n    /* \"#utility.yul\":1179:1185   */\n  dup3\n    /* \"#utility.yul\":1168:1177   */\n  dup7\n    /* \"#utility.yul\":1164:1186   */\n  add\n    /* \"#utility.yul\":1132:1196   */\n  tag_13\n  jump\t// in\ntag_29:\n    /* \"#utility.yul\":1122:1196   */\n  swap3\n  pop\n    /* \"#utility.yul\":1078:1206   */\n  pop\n    /* \"#utility.yul\":1245:1247   */\n  0x20\n    /* \"#utility.yul\":1271:1335   */\n  tag_30\n    /* \"#utility.yul\":1327:1334   */\n  dup6\n    /* \"#utility.yul\":1318:1324   */\n  dup3\n    /* \"#utility.yul\":1307:1316   */\n  dup7\n    /* \"#utility.yul\":1303:1325   */\n  add\n    /* \"#utility.yul\":1271:1335   */\n  tag_13\n  jump\t// in\ntag_30:\n    /* \"#utility.yul\":1261:1335   */\n  swap2\n  pop\n    /* \"#utility.yul\":1216:1345   */\n  pop\n    /* \"#utility.yul\":845:1352   */\n  swap3\n  pop\n  swap3\n  swap1\n  pop\n  jump\t// out\n    /* \"capstone_swap.sol\":87:5592  contract TokenSwap {... */\ntag_6:\n  dataSize(sub_0)\n  dup1\n  dataOffset(sub_0)\n  0x00\n  codecopy\n  0x00\n  return\nstop\n\nsub_0: assembly {\n        /* \"capstone_swap.sol\":87:5592  contract TokenSwap {... */\n      mstore(0x40, 0x80)\n      jumpi(tag_1, lt(calldatasize, 0x04))\n      shr(0xe0, calldataload(0x00))\n      dup1\n      0x9cd441da\n      gt\n      tag_16\n      jumpi\n      dup1\n      0xc5c056e0\n      gt\n      tag_17\n      jumpi\n      dup1\n      0xc5c056e0\n      eq\n      tag_12\n      jumpi\n      dup1\n      0xcccbc740\n      eq\n      tag_13\n      jumpi\n      dup1\n      0xf70d1d98\n      eq\n      tag_14\n      jumpi\n      dup1\n      0xf851a440\n      eq\n      tag_15\n      jumpi\n      jump(tag_1)\n    tag_17:\n      dup1\n      0x9cd441da\n      eq\n      tag_9\n      jumpi\n      dup1\n      0xa4520f5c\n      eq\n      tag_10\n      jumpi\n      dup1\n      0xc57981b5\n      eq\n      tag_11\n      jumpi\n      jump(tag_1)\n    tag_16:\n      dup1\n      0x578a8812\n      gt\n      tag_18\n      jumpi\n      dup1\n      0x578a8812\n      eq\n      tag_5\n      jumpi\n      dup1\n      0x58261cf8\n      eq\n      tag_6\n      jumpi\n      dup1\n      0x67b9a286\n      eq\n      tag_7\n      jumpi\n      dup1\n      0x6d3a1137\n      eq\n      tag_8\n      jumpi\n      jump(tag_1)\n    tag_18:\n      dup1\n      0x15770f92\n      eq\n      tag_2\n      jumpi\n      dup1\n      0x474e8cd6\n      eq\n      tag_3\n      jumpi\n      dup1\n      0x4cae8434\n      eq\n      tag_4\n      jumpi\n    tag_1:\n      0x00\n      dup1\n      revert\n        /* \"capstone_swap.sol\":540:569  uint256 public totalLiquidity */\n    tag_2:\n      callvalue\n      dup1\n      iszero\n      tag_19\n      jumpi\n      0x00\n      dup1\n      revert\n    tag_19:\n      pop\n      tag_20\n      tag_21\n      jump\t// in\n    tag_20:\n      mload(0x40)\n      tag_22\n      swap2\n      swap1\n      tag_23\n      jump\t// in\n    tag_22:\n      mload(0x40)\n      dup1\n      swap2\n      sub\n      swap1\n      return\n        /* \"capstone_swap.sol\":133:150  IERC20 public skt */\n    tag_3:\n      callvalue\n      dup1\n      iszero\n      tag_24\n      jumpi\n      0x00\n      dup1\n      revert\n    tag_24:\n      pop\n      tag_25\n      tag_26\n      jump\t// in\n    tag_25:\n      mload(0x40)\n      tag_27\n      swap2\n      swap1\n      tag_28\n      jump\t// in\n    tag_27:\n      mload(0x40)\n      dup1\n      swap2\n      sub\n      swap1\n      return\n        /* \"capstone_swap.sol\":453:478  uint256 public sktFeePool */\n    tag_4:\n      callvalue\n      dup1\n      iszero\n      tag_29\n      jumpi\n      0x00\n      dup1\n      revert\n    tag_29:\n      pop\n      tag_30\n      tag_31\n      jump\t// in\n    tag_30:\n      mload(0x40)\n      tag_32\n      swap2\n      swap1\n      tag_23\n      jump\t// in\n    tag_32:\n      mload(0x40)\n      dup1\n      swap2\n      sub\n      swap1\n      return\n        /* \"capstone_swap.sol\":395:420  uint256 public sdtFeePool */\n    tag_5:\n      callvalue\n      dup1\n      iszero\n      tag_33\n      jumpi\n      0x00\n      dup1\n      revert\n    tag_33:\n      pop\n      tag_34\n      tag_35\n      jump\t// in\n    tag_34:\n      mload(0x40)\n      tag_36\n      swap2\n      swap1\n      tag_23\n      jump\t// in\n    tag_36:\n      mload(0x40)\n      dup1\n      swap2\n      sub\n      swap1\n      return\n        /* \"capstone_swap.sol\":3650:4216  function getSwapAmount(... */\n    tag_6:\n      callvalue\n      dup1\n      iszero\n      tag_37\n      jumpi\n      0x00\n      dup1\n      revert\n    tag_37:\n      pop\n      tag_38\n      0x04\n      dup1\n      calldatasize\n      sub\n      dup2\n      add\n      swap1\n      tag_39\n      swap2\n      swap1\n      tag_40\n      jump\t// in\n    tag_39:\n      tag_41\n      jump\t// in\n    tag_38:\n      mload(0x40)\n      tag_42\n      swap2\n      swap1\n      tag_23\n      jump\t// in\n    tag_42:\n      mload(0x40)\n      dup1\n      swap2\n      sub\n      swap1\n      return\n        /* \"capstone_swap.sol\":2471:3644  function removeLiquidity() external {... */\n    tag_7:\n      callvalue\n      dup1\n      iszero\n      tag_43\n      jumpi\n      0x00\n      dup1\n      revert\n    tag_43:\n      pop\n      tag_44\n      tag_45\n      jump\t// in\n    tag_44:\n      stop\n        /* \"capstone_swap.sol\":201:230  uint256 public sdtReserve = 0 */\n    tag_8:\n      callvalue\n      dup1\n      iszero\n      tag_46\n      jumpi\n      0x00\n      dup1\n      revert\n    tag_46:\n      pop\n      tag_47\n      tag_48\n      jump\t// in\n    tag_47:\n      mload(0x40)\n      tag_49\n      swap2\n      swap1\n      tag_23\n      jump\t// in\n    tag_49:\n      mload(0x40)\n      dup1\n      swap2\n      sub\n      swap1\n      return\n        /* \"capstone_swap.sol\":1181:2465  function addLiquidity(uint256 _sdtAmount, uint256 _sktAmount) external payable {... */\n    tag_9:\n      tag_50\n      0x04\n      dup1\n      calldatasize\n      sub\n      dup2\n      add\n      swap1\n      tag_51\n      swap2\n      swap1\n      tag_52\n      jump\t// in\n    tag_51:\n      tag_53\n      jump\t// in\n    tag_50:\n      stop\n        /* \"capstone_swap.sol\":111:128  IERC20 public sdt */\n    tag_10:\n      callvalue\n      dup1\n      iszero\n      tag_54\n      jumpi\n      0x00\n      dup1\n      revert\n    tag_54:\n      pop\n      tag_55\n      tag_56\n      jump\t// in\n    tag_55:\n      mload(0x40)\n      tag_57\n      swap2\n      swap1\n      tag_28\n      jump\t// in\n    tag_57:\n      mload(0x40)\n      dup1\n      swap2\n      sub\n      swap1\n      return\n        /* \"capstone_swap.sol\":157:188  uint256 public constant FEE = 3 */\n    tag_11:\n      callvalue\n      dup1\n      iszero\n      tag_58\n      jumpi\n      0x00\n      dup1\n      revert\n    tag_58:\n      pop\n      tag_59\n      tag_60\n      jump\t// in\n    tag_59:\n      mload(0x40)\n      tag_61\n      swap2\n      swap1\n      tag_23\n      jump\t// in\n    tag_61:\n      mload(0x40)\n      dup1\n      swap2\n      sub\n      swap1\n      return\n        /* \"capstone_swap.sol\":574:633  mapping(address => uint256) public liquidityProviderBalance */\n    tag_12:\n      callvalue\n      dup1\n      iszero\n      tag_62\n      jumpi\n      0x00\n      dup1\n      revert\n    tag_62:\n      pop\n      tag_63\n      0x04\n      dup1\n      calldatasize\n      sub\n      dup2\n      add\n      swap1\n      tag_64\n      swap2\n      swap1\n      tag_65\n      jump\t// in\n    tag_64:\n      tag_66\n      jump\t// in\n    tag_63:\n      mload(0x40)\n      tag_67\n      swap2\n      swap1\n      tag_23\n      jump\t// in\n    tag_67:\n      mload(0x40)\n      dup1\n      swap2\n      sub\n      swap1\n      return\n        /* \"capstone_swap.sol\":339:368  uint256 public sktReserve = 0 */\n    tag_13:\n      callvalue\n      dup1\n      iszero\n      tag_68\n      jumpi\n      0x00\n      dup1\n      revert\n    tag_68:\n      pop\n      tag_69\n      tag_70\n      jump\t// in\n    tag_69:\n      mload(0x40)\n      tag_71\n      swap2\n      swap1\n      tag_23\n      jump\t// in\n    tag_71:\n      mload(0x40)\n      dup1\n      swap2\n      sub\n      swap1\n      return\n        /* \"capstone_swap.sol\":4222:5589  function swapTokens(... */\n    tag_14:\n      callvalue\n      dup1\n      iszero\n      tag_72\n      jumpi\n      0x00\n      dup1\n      revert\n    tag_72:\n      pop\n      tag_73\n      0x04\n      dup1\n      calldatasize\n      sub\n      dup2\n      add\n      swap1\n      tag_74\n      swap2\n      swap1\n      tag_40\n      jump\t// in\n    tag_74:\n      tag_75\n      jump\t// in\n    tag_73:\n      stop\n        /* \"capstone_swap.sol\":513:533  address public admin */\n    tag_15:\n      callvalue\n      dup1\n      iszero\n      tag_76\n      jumpi\n      0x00\n      dup1\n      revert\n    tag_76:\n      pop\n      tag_77\n      tag_78\n      jump\t// in\n    tag_77:\n      mload(0x40)\n      tag_79\n      swap2\n      swap1\n      tag_80\n      jump\t// in\n    tag_79:\n      mload(0x40)\n      dup1\n      swap2\n      sub\n      swap1\n      return\n        /* \"capstone_swap.sol\":540:569  uint256 public totalLiquidity */\n    tag_21:\n      sload(0x07)\n      dup2\n      jump\t// out\n        /* \"capstone_swap.sol\":133:150  IERC20 public skt */\n    tag_26:\n      0x01\n      0x00\n      swap1\n      sload\n      swap1\n      0x0100\n      exp\n      swap1\n      div\n      0xffffffffffffffffffffffffffffffffffffffff\n      and\n      dup2\n      jump\t// out\n        /* \"capstone_swap.sol\":453:478  uint256 public sktFeePool */\n    tag_31:\n      sload(0x05)\n      dup2\n      jump\t// out\n        /* \"capstone_swap.sol\":395:420  uint256 public sdtFeePool */\n    tag_35:\n      sload(0x04)\n      dup2\n      jump\t// out\n        /* \"capstone_swap.sol\":3650:4216  function getSwapAmount(... */\n    tag_41:\n        /* \"capstone_swap.sol\":3779:3786  uint256 */\n      0x00\n        /* \"capstone_swap.sol\":3848:3868  uint256 reserveInput */\n      dup1\n        /* \"capstone_swap.sol\":3894:3897  sdt */\n      0x00\n      dup1\n      sload\n      swap1\n      0x0100\n      exp\n      swap1\n      div\n      0xffffffffffffffffffffffffffffffffffffffff\n      and\n        /* \"capstone_swap.sol\":3871:3898  _inputToken == address(sdt) */\n      0xffffffffffffffffffffffffffffffffffffffff\n      and\n        /* \"capstone_swap.sol\":3871:3882  _inputToken */\n      dup5\n        /* \"capstone_swap.sol\":3871:3898  _inputToken == address(sdt) */\n      0xffffffffffffffffffffffffffffffffffffffff\n      and\n      eq\n        /* \"capstone_swap.sol\":3871:3938  _inputToken == address(sdt)... */\n      tag_82\n      jumpi\n        /* \"capstone_swap.sol\":3928:3938  sktReserve */\n      sload(0x03)\n        /* \"capstone_swap.sol\":3871:3938  _inputToken == address(sdt)... */\n      jump(tag_83)\n    tag_82:\n        /* \"capstone_swap.sol\":3908:3918  sdtReserve */\n      sload(0x02)\n        /* \"capstone_swap.sol\":3871:3938  _inputToken == address(sdt)... */\n    tag_83:\n        /* \"capstone_swap.sol\":3848:3938  uint256 reserveInput = _inputToken == address(sdt)... */\n      swap1\n      pop\n        /* \"capstone_swap.sol\":3945:3966  uint256 reserveOutput */\n      0x00\n        /* \"capstone_swap.sol\":3993:3996  sdt */\n      dup1\n      0x00\n      swap1\n      sload\n      swap1\n      0x0100\n      exp\n      swap1\n      div\n      0xffffffffffffffffffffffffffffffffffffffff\n      and\n        /* \"capstone_swap.sol\":3969:3997  _outputToken == address(sdt) */\n      0xffffffffffffffffffffffffffffffffffffffff\n      and\n        /* \"capstone_swap.sol\":3969:3981  _outputToken */\n      dup5\n        /* \"capstone_swap.sol\":3969:3997  _outputToken == address(sdt) */\n      0xffffffffffffffffffffffffffffffffffffffff\n      and\n      eq\n        /* \"capstone_swap.sol\":3969:4037  _outputToken == address(sdt)... */\n      tag_84\n      jumpi\n        /* \"capstone_swap.sol\":4027:4037  sktReserve */\n      sload(0x03)\n        /* \"capstone_swap.sol\":3969:4037  _outputToken == address(sdt)... */\n      jump(tag_85)\n    tag_84:\n        /* \"capstone_swap.sol\":4007:4017  sdtReserve */\n      sload(0x02)\n        /* \"capstone_swap.sol\":3969:4037  _outputToken == address(sdt)... */\n    tag_85:\n        /* \"capstone_swap.sol\":3945:4037  uint256 reserveOutput = _outputToken == address(sdt)... */\n      swap1\n      pop\n        /* \"capstone_swap.sol\":4046:4063  uint256 numerator */\n      0x00\n        /* \"capstone_swap.sol\":4097:4100  997 */\n      0x03e5\n        /* \"capstone_swap.sol\":4082:4094  _inputAmount */\n      dup8\n        /* \"capstone_swap.sol\":4066:4079  reserveOutput */\n      dup4\n        /* \"capstone_swap.sol\":4066:4094  reserveOutput * _inputAmount */\n      tag_86\n      swap2\n      swap1\n      tag_87\n      jump\t// in\n    tag_86:\n        /* \"capstone_swap.sol\":4066:4100  reserveOutput * _inputAmount * 997 */\n      tag_88\n      swap2\n      swap1\n      tag_87\n      jump\t// in\n    tag_88:\n        /* \"capstone_swap.sol\":4046:4100  uint256 numerator = reserveOutput * _inputAmount * 997 */\n      swap1\n      pop\n        /* \"capstone_swap.sol\":4107:4126  uint256 denominator */\n      0x00\n        /* \"capstone_swap.sol\":4169:4172  997 */\n      0x03e5\n        /* \"capstone_swap.sol\":4154:4166  _inputAmount */\n      dup9\n        /* \"capstone_swap.sol\":4154:4172  _inputAmount * 997 */\n      tag_89\n      swap2\n      swap1\n      tag_87\n      jump\t// in\n    tag_89:\n        /* \"capstone_swap.sol\":4145:4149  1000 */\n      0x03e8\n        /* \"capstone_swap.sol\":4130:4142  reserveInput */\n      dup6\n        /* \"capstone_swap.sol\":4130:4149  reserveInput * 1000 */\n      tag_90\n      swap2\n      swap1\n      tag_87\n      jump\t// in\n    tag_90:\n        /* \"capstone_swap.sol\":4129:4173  (reserveInput * 1000) + (_inputAmount * 997) */\n      tag_91\n      swap2\n      swap1\n      tag_92\n      jump\t// in\n    tag_91:\n        /* \"capstone_swap.sol\":4107:4173  uint256 denominator = (reserveInput * 1000) + (_inputAmount * 997) */\n      swap1\n      pop\n        /* \"capstone_swap.sol\":4199:4210  denominator */\n      dup1\n        /* \"capstone_swap.sol\":4187:4196  numerator */\n      dup3\n        /* \"capstone_swap.sol\":4187:4210  numerator / denominator */\n      tag_93\n      swap2\n      swap1\n      tag_94\n      jump\t// in\n    tag_93:\n        /* \"capstone_swap.sol\":4180:4210  return numerator / denominator */\n      swap5\n      pop\n      pop\n      pop\n      pop\n      pop\n        /* \"capstone_swap.sol\":3650:4216  function getSwapAmount(... */\n      swap4\n      swap3\n      pop\n      pop\n      pop\n      jump\t// out\n        /* \"capstone_swap.sol\":2471:3644  function removeLiquidity() external {... */\n    tag_45:\n        /* \"capstone_swap.sol\":2560:2581  uint256 senderBalance */\n      0x00\n        /* \"capstone_swap.sol\":2584:2608  liquidityProviderBalance */\n      0x08\n        /* \"capstone_swap.sol\":2584:2620  liquidityProviderBalance[msg.sender] */\n      0x00\n        /* \"capstone_swap.sol\":2609:2619  msg.sender */\n      caller\n        /* \"capstone_swap.sol\":2584:2620  liquidityProviderBalance[msg.sender] */\n      0xffffffffffffffffffffffffffffffffffffffff\n      and\n      0xffffffffffffffffffffffffffffffffffffffff\n      and\n      dup2\n      mstore\n      0x20\n      add\n      swap1\n      dup2\n      mstore\n      0x20\n      add\n      0x00\n      keccak256\n      sload\n        /* \"capstone_swap.sol\":2560:2620  uint256 senderBalance = liquidityProviderBalance[msg.sender] */\n      swap1\n      pop\n        /* \"capstone_swap.sol\":2652:2653  0 */\n      0x00\n        /* \"capstone_swap.sol\":2635:2649  totalLiquidity */\n      sload(0x07)\n        /* \"capstone_swap.sol\":2635:2653  totalLiquidity > 0 */\n      gt\n        /* \"capstone_swap.sol\":2627:2680  require(totalLiquidity > 0, \"No liquidity to remove\") */\n      tag_96\n      jumpi\n      mload(0x40)\n      0x08c379a000000000000000000000000000000000000000000000000000000000\n      dup2\n      mstore\n      0x04\n      add\n      tag_97\n      swap1\n      tag_98\n      jump\t// in\n    tag_97:\n      mload(0x40)\n      dup1\n      swap2\n      sub\n      swap1\n      revert\n    tag_96:\n        /* \"capstone_swap.sol\":2737:2754  uint256 sdtAmount */\n      0x00\n        /* \"capstone_swap.sol\":2788:2802  totalLiquidity */\n      sload(0x07)\n        /* \"capstone_swap.sol\":2771:2784  senderBalance */\n      dup3\n        /* \"capstone_swap.sol\":2758:2768  sdtReserve */\n      sload(0x02)\n        /* \"capstone_swap.sol\":2758:2784  sdtReserve * senderBalance */\n      tag_99\n      swap2\n      swap1\n      tag_87\n      jump\t// in\n    tag_99:\n        /* \"capstone_swap.sol\":2757:2802  (sdtReserve * senderBalance) / totalLiquidity */\n      tag_100\n      swap2\n      swap1\n      tag_94\n      jump\t// in\n    tag_100:\n        /* \"capstone_swap.sol\":2737:2802  uint256 sdtAmount = (sdtReserve * senderBalance) / totalLiquidity */\n      swap1\n      pop\n        /* \"capstone_swap.sol\":2809:2826  uint256 sktAmount */\n      0x00\n        /* \"capstone_swap.sol\":2860:2874  totalLiquidity */\n      sload(0x07)\n        /* \"capstone_swap.sol\":2843:2856  senderBalance */\n      dup4\n        /* \"capstone_swap.sol\":2830:2840  sktReserve */\n      sload(0x03)\n        /* \"capstone_swap.sol\":2830:2856  sktReserve * senderBalance */\n      tag_101\n      swap2\n      swap1\n      tag_87\n      jump\t// in\n    tag_101:\n        /* \"capstone_swap.sol\":2829:2874  (sktReserve * senderBalance) / totalLiquidity */\n      tag_102\n      swap2\n      swap1\n      tag_94\n      jump\t// in\n    tag_102:\n        /* \"capstone_swap.sol\":2809:2874  uint256 sktAmount = (sktReserve * senderBalance) / totalLiquidity */\n      swap1\n      pop\n        /* \"capstone_swap.sol\":2971:2990  uint256 sdtFeeShare */\n      0x00\n        /* \"capstone_swap.sol\":3024:3038  totalLiquidity */\n      sload(0x07)\n        /* \"capstone_swap.sol\":3007:3020  senderBalance */\n      dup5\n        /* \"capstone_swap.sol\":2994:3004  sdtFeePool */\n      sload(0x04)\n        /* \"capstone_swap.sol\":2994:3020  sdtFeePool * senderBalance */\n      tag_103\n      swap2\n      swap1\n      tag_87\n      jump\t// in\n    tag_103:\n        /* \"capstone_swap.sol\":2993:3038  (sdtFeePool * senderBalance) / totalLiquidity */\n      tag_104\n      swap2\n      swap1\n      tag_94\n      jump\t// in\n    tag_104:\n        /* \"capstone_swap.sol\":2971:3038  uint256 sdtFeeShare = (sdtFeePool * senderBalance) / totalLiquidity */\n      swap1\n      pop\n        /* \"capstone_swap.sol\":3045:3064  uint256 sktFeeShare */\n      0x00\n        /* \"capstone_swap.sol\":3098:3112  totalLiquidity */\n      sload(0x07)\n        /* \"capstone_swap.sol\":3081:3094  senderBalance */\n      dup6\n        /* \"capstone_swap.sol\":3068:3078  sktFeePool */\n      sload(0x05)\n        /* \"capstone_swap.sol\":3068:3094  sktFeePool * senderBalance */\n      tag_105\n      swap2\n      swap1\n      tag_87\n      jump\t// in\n    tag_105:\n        /* \"capstone_swap.sol\":3067:3112  (sktFeePool * senderBalance) / totalLiquidity */\n      tag_106\n      swap2\n      swap1\n      tag_94\n      jump\t// in\n    tag_106:\n        /* \"capstone_swap.sol\":3045:3112  uint256 sktFeeShare = (sktFeePool * senderBalance) / totalLiquidity */\n      swap1\n      pop\n        /* \"capstone_swap.sol\":3135:3146  sdtFeeShare */\n      dup2\n        /* \"capstone_swap.sol\":3121:3131  sdtFeePool */\n      0x04\n      0x00\n        /* \"capstone_swap.sol\":3121:3146  sdtFeePool -= sdtFeeShare */\n      dup3\n      dup3\n      sload\n      tag_107\n      swap2\n      swap1\n      tag_108\n      jump\t// in\n    tag_107:\n      swap3\n      pop\n      pop\n      dup2\n      swap1\n      sstore\n      pop\n        /* \"capstone_swap.sol\":3167:3178  sktFeeShare */\n      dup1\n        /* \"capstone_swap.sol\":3153:3163  sktFeePool */\n      0x05\n      0x00\n        /* \"capstone_swap.sol\":3153:3178  sktFeePool -= sktFeeShare */\n      dup3\n      dup3\n      sload\n      tag_109\n      swap2\n      swap1\n      tag_108\n      jump\t// in\n    tag_109:\n      swap3\n      pop\n      pop\n      dup2\n      swap1\n      sstore\n      pop\n        /* \"capstone_swap.sol\":3230:3233  sdt */\n      0x00\n      dup1\n      sload\n      swap1\n      0x0100\n      exp\n      swap1\n      div\n      0xffffffffffffffffffffffffffffffffffffffff\n      and\n        /* \"capstone_swap.sol\":3230:3242  sdt.transfer */\n      0xffffffffffffffffffffffffffffffffffffffff\n      and\n      0xa9059cbb\n        /* \"capstone_swap.sol\":3243:3253  msg.sender */\n      caller\n        /* \"capstone_swap.sol\":3267:3278  sdtFeeShare */\n      dup5\n        /* \"capstone_swap.sol\":3255:3264  sdtAmount */\n      dup8\n        /* \"capstone_swap.sol\":3255:3278  sdtAmount + sdtFeeShare */\n      tag_110\n      swap2\n      swap1\n      tag_92\n      jump\t// in\n    tag_110:\n        /* \"capstone_swap.sol\":3230:3279  sdt.transfer(msg.sender, sdtAmount + sdtFeeShare) */\n      mload(0x40)\n      dup4\n      0xffffffff\n      and\n      0xe0\n      shl\n      dup2\n      mstore\n      0x04\n      add\n      tag_111\n      swap3\n      swap2\n      swap1\n      tag_112\n      jump\t// in\n    tag_111:\n      0x20\n      mload(0x40)\n      dup1\n      dup4\n      sub\n      dup2\n      0x00\n      dup8\n      gas\n      call\n      iszero\n      dup1\n      iszero\n      tag_114\n      jumpi\n      returndatasize\n      0x00\n      dup1\n      returndatacopy\n      revert(0x00, returndatasize)\n    tag_114:\n      pop\n      pop\n      pop\n      pop\n      mload(0x40)\n      returndatasize\n      not(0x1f)\n      0x1f\n      dup3\n      add\n      and\n      dup3\n      add\n      dup1\n      0x40\n      mstore\n      pop\n      dup2\n      add\n      swap1\n      tag_115\n      swap2\n      swap1\n      tag_116\n      jump\t// in\n    tag_115:\n      pop\n        /* \"capstone_swap.sol\":3286:3289  skt */\n      0x01\n      0x00\n      swap1\n      sload\n      swap1\n      0x0100\n      exp\n      swap1\n      div\n      0xffffffffffffffffffffffffffffffffffffffff\n      and\n        /* \"capstone_swap.sol\":3286:3298  skt.transfer */\n      0xffffffffffffffffffffffffffffffffffffffff\n      and\n      0xa9059cbb\n        /* \"capstone_swap.sol\":3299:3309  msg.sender */\n      caller\n        /* \"capstone_swap.sol\":3323:3334  sktFeeShare */\n      dup4\n        /* \"capstone_swap.sol\":3311:3320  sktAmount */\n      dup7\n        /* \"capstone_swap.sol\":3311:3334  sktAmount + sktFeeShare */\n      tag_117\n      swap2\n      swap1\n      tag_92\n      jump\t// in\n    tag_117:\n        /* \"capstone_swap.sol\":3286:3335  skt.transfer(msg.sender, sktAmount + sktFeeShare) */\n      mload(0x40)\n      dup4\n      0xffffffff\n      and\n      0xe0\n      shl\n      dup2\n      mstore\n      0x04\n      add\n      tag_118\n      swap3\n      swap2\n      swap1\n      tag_112\n      jump\t// in\n    tag_118:\n      0x20\n      mload(0x40)\n      dup1\n      dup4\n      sub\n      dup2\n      0x00\n      dup8\n      gas\n      call\n      iszero\n      dup1\n      iszero\n      tag_120\n      jumpi\n      returndatasize\n      0x00\n      dup1\n      returndatacopy\n      revert(0x00, returndatasize)\n    tag_120:\n      pop\n      pop\n      pop\n      pop\n      mload(0x40)\n      returndatasize\n      not(0x1f)\n      0x1f\n      dup3\n      add\n      and\n      dup3\n      add\n      dup1\n      0x40\n      mstore\n      pop\n      dup2\n      add\n      swap1\n      tag_121\n      swap2\n      swap1\n      tag_116\n      jump\t// in\n    tag_121:\n      pop\n        /* \"capstone_swap.sol\":3382:3391  sdtAmount */\n      dup4\n        /* \"capstone_swap.sol\":3368:3378  sdtReserve */\n      0x02\n      0x00\n        /* \"capstone_swap.sol\":3368:3391  sdtReserve -= sdtAmount */\n      dup3\n      dup3\n      sload\n      tag_122\n      swap2\n      swap1\n      tag_108\n      jump\t// in\n    tag_122:\n      swap3\n      pop\n      pop\n      dup2\n      swap1\n      sstore\n      pop\n        /* \"capstone_swap.sol\":3412:3421  sktAmount */\n      dup3\n        /* \"capstone_swap.sol\":3398:3408  sktReserve */\n      0x03\n      0x00\n        /* \"capstone_swap.sol\":3398:3421  sktReserve -= sktAmount */\n      dup3\n      dup3\n      sload\n      tag_123\n      swap2\n      swap1\n      tag_108\n      jump\t// in\n    tag_123:\n      swap3\n      pop\n      pop\n      dup2\n      swap1\n      sstore\n      pop\n        /* \"capstone_swap.sol\":3480:3493  senderBalance */\n      dup5\n        /* \"capstone_swap.sol\":3462:3476  totalLiquidity */\n      0x07\n      0x00\n        /* \"capstone_swap.sol\":3462:3493  totalLiquidity -= senderBalance */\n      dup3\n      dup3\n      sload\n      tag_124\n      swap2\n      swap1\n      tag_108\n      jump\t// in\n    tag_124:\n      swap3\n      pop\n      pop\n      dup2\n      swap1\n      sstore\n      pop\n        /* \"capstone_swap.sol\":3539:3540  0 */\n      0x00\n        /* \"capstone_swap.sol\":3500:3524  liquidityProviderBalance */\n      0x08\n        /* \"capstone_swap.sol\":3500:3536  liquidityProviderBalance[msg.sender] */\n      0x00\n        /* \"capstone_swap.sol\":3525:3535  msg.sender */\n      caller\n        /* \"capstone_swap.sol\":3500:3536  liquidityProviderBalance[msg.sender] */\n      0xffffffffffffffffffffffffffffffffffffffff\n      and\n      0xffffffffffffffffffffffffffffffffffffffff\n      and\n      dup2\n      mstore\n      0x20\n      add\n      swap1\n      dup2\n      mstore\n      0x20\n      add\n      0x00\n      keccak256\n        /* \"capstone_swap.sol\":3500:3540  liquidityProviderBalance[msg.sender] = 0 */\n      dup2\n      swap1\n      sstore\n      pop\n        /* \"capstone_swap.sol\":3573:3638  LiquidityRemoved(msg.sender, sdtAmount, sktAmount, senderBalance) */\n      0x1dc8bb69df2b8e91fbdcbfcf93d951b3f0000f085a95fe3f7946d6161439245d\n        /* \"capstone_swap.sol\":3590:3600  msg.sender */\n      caller\n        /* \"capstone_swap.sol\":3602:3611  sdtAmount */\n      dup6\n        /* \"capstone_swap.sol\":3613:3622  sktAmount */\n      dup6\n        /* \"capstone_swap.sol\":3624:3637  senderBalance */\n      dup9\n        /* \"capstone_swap.sol\":3573:3638  LiquidityRemoved(msg.sender, sdtAmount, sktAmount, senderBalance) */\n      mload(0x40)\n      tag_125\n      swap5\n      swap4\n      swap3\n      swap2\n      swap1\n      tag_126\n      jump\t// in\n    tag_125:\n      mload(0x40)\n      dup1\n      swap2\n      sub\n      swap1\n      log1\n        /* \"capstone_swap.sol\":2507:3644  {... */\n      pop\n      pop\n      pop\n      pop\n      pop\n        /* \"capstone_swap.sol\":2471:3644  function removeLiquidity() external {... */\n      jump\t// out\n        /* \"capstone_swap.sol\":201:230  uint256 public sdtReserve = 0 */\n    tag_48:\n      sload(0x02)\n      dup2\n      jump\t// out\n        /* \"capstone_swap.sol\":1181:2465  function addLiquidity(uint256 _sdtAmount, uint256 _sktAmount) external payable {... */\n    tag_53:\n        /* \"capstone_swap.sol\":1296:1297  0 */\n      0x00\n        /* \"capstone_swap.sol\":1283:1293  _sdtAmount */\n      dup3\n        /* \"capstone_swap.sol\":1283:1297  _sdtAmount > 0 */\n      gt\n        /* \"capstone_swap.sol\":1283:1315  _sdtAmount > 0 && _sktAmount > 0 */\n      dup1\n      iszero\n      tag_128\n      jumpi\n      pop\n        /* \"capstone_swap.sol\":1314:1315  0 */\n      0x00\n        /* \"capstone_swap.sol\":1301:1311  _sktAmount */\n      dup2\n        /* \"capstone_swap.sol\":1301:1315  _sktAmount > 0 */\n      gt\n        /* \"capstone_swap.sol\":1283:1315  _sdtAmount > 0 && _sktAmount > 0 */\n    tag_128:\n        /* \"capstone_swap.sol\":1267:1369  require(... */\n      tag_129\n      jumpi\n      mload(0x40)\n      0x08c379a000000000000000000000000000000000000000000000000000000000\n      dup2\n      mstore\n      0x04\n      add\n      tag_130\n      swap1\n      tag_131\n      jump\t// in\n    tag_130:\n      mload(0x40)\n      dup1\n      swap2\n      sub\n      swap1\n      revert\n    tag_129:\n        /* \"capstone_swap.sol\":1485:1495  _sdtAmount */\n      dup2\n        /* \"capstone_swap.sol\":1456:1459  sdt */\n      0x00\n      dup1\n      sload\n      swap1\n      0x0100\n      exp\n      swap1\n      div\n      0xffffffffffffffffffffffffffffffffffffffff\n      and\n        /* \"capstone_swap.sol\":1456:1469  sdt.balanceOf */\n      0xffffffffffffffffffffffffffffffffffffffff\n      and\n      0x70a08231\n        /* \"capstone_swap.sol\":1470:1480  msg.sender */\n      caller\n        /* \"capstone_swap.sol\":1456:1481  sdt.balanceOf(msg.sender) */\n      mload(0x40)\n      dup3\n      0xffffffff\n      and\n      0xe0\n      shl\n      dup2\n      mstore\n      0x04\n      add\n      tag_132\n      swap2\n      swap1\n      tag_80\n      jump\t// in\n    tag_132:\n      0x20\n      mload(0x40)\n      dup1\n      dup4\n      sub\n      dup2\n      dup7\n      gas\n      staticcall\n      iszero\n      dup1\n      iszero\n      tag_134\n      jumpi\n      returndatasize\n      0x00\n      dup1\n      returndatacopy\n      revert(0x00, returndatasize)\n    tag_134:\n      pop\n      pop\n      pop\n      pop\n      mload(0x40)\n      returndatasize\n      not(0x1f)\n      0x1f\n      dup3\n      add\n      and\n      dup3\n      add\n      dup1\n      0x40\n      mstore\n      pop\n      dup2\n      add\n      swap1\n      tag_135\n      swap2\n      swap1\n      tag_136\n      jump\t// in\n    tag_135:\n        /* \"capstone_swap.sol\":1456:1495  sdt.balanceOf(msg.sender) >= _sdtAmount */\n      lt\n      iszero\n        /* \"capstone_swap.sol\":1440:1537  require(... */\n      tag_137\n      jumpi\n      mload(0x40)\n      0x08c379a000000000000000000000000000000000000000000000000000000000\n      dup2\n      mstore\n      0x04\n      add\n      tag_138\n      swap1\n      tag_139\n      jump\t// in\n    tag_138:\n      mload(0x40)\n      dup1\n      swap2\n      sub\n      swap1\n      revert\n    tag_137:\n        /* \"capstone_swap.sol\":1589:1599  _sktAmount */\n      dup1\n        /* \"capstone_swap.sol\":1560:1563  skt */\n      0x01\n      0x00\n      swap1\n      sload\n      swap1\n      0x0100\n      exp\n      swap1\n      div\n      0xffffffffffffffffffffffffffffffffffffffff\n      and\n        /* \"capstone_swap.sol\":1560:1573  skt.balanceOf */\n      0xffffffffffffffffffffffffffffffffffffffff\n      and\n      0x70a08231\n        /* \"capstone_swap.sol\":1574:1584  msg.sender */\n      caller\n        /* \"capstone_swap.sol\":1560:1585  skt.balanceOf(msg.sender) */\n      mload(0x40)\n      dup3\n      0xffffffff\n      and\n      0xe0\n      shl\n      dup2\n      mstore\n      0x04\n      add\n      tag_140\n      swap2\n      swap1\n      tag_80\n      jump\t// in\n    tag_140:\n      0x20\n      mload(0x40)\n      dup1\n      dup4\n      sub\n      dup2\n      dup7\n      gas\n      staticcall\n      iszero\n      dup1\n      iszero\n      tag_142\n      jumpi\n      returndatasize\n      0x00\n      dup1\n      returndatacopy\n      revert(0x00, returndatasize)\n    tag_142:\n      pop\n      pop\n      pop\n      pop\n      mload(0x40)\n      returndatasize\n      not(0x1f)\n      0x1f\n      dup3\n      add\n      and\n      dup3\n      add\n      dup1\n      0x40\n      mstore\n      pop\n      dup2\n      add\n      swap1\n      tag_143\n      swap2\n      swap1\n      tag_136\n      jump\t// in\n    tag_143:\n        /* \"capstone_swap.sol\":1560:1599  skt.balanceOf(msg.sender) >= _sktAmount */\n      lt\n      iszero\n        /* \"capstone_swap.sol\":1544:1641  require(... */\n      tag_144\n      jumpi\n      mload(0x40)\n      0x08c379a000000000000000000000000000000000000000000000000000000000\n      dup2\n      mstore\n      0x04\n      add\n      tag_145\n      swap1\n      tag_146\n      jump\t// in\n    tag_145:\n      mload(0x40)\n      dup1\n      swap2\n      sub\n      swap1\n      revert\n    tag_144:\n        /* \"capstone_swap.sol\":1650:1673  uint256 liquidityMinted */\n      0x00\n        /* \"capstone_swap.sol\":1766:1767  0 */\n      dup1\n        /* \"capstone_swap.sol\":1748:1762  totalLiquidity */\n      sload(0x07)\n        /* \"capstone_swap.sol\":1748:1767  totalLiquidity == 0 */\n      sub\n        /* \"capstone_swap.sol\":1744:1996  if (totalLiquidity == 0) {... */\n      tag_147\n      jumpi\n        /* \"capstone_swap.sol\":1791:1801  _sdtAmount */\n      dup3\n        /* \"capstone_swap.sol\":1778:1788  sdtReserve */\n      0x02\n        /* \"capstone_swap.sol\":1778:1801  sdtReserve = _sdtAmount */\n      dup2\n      swap1\n      sstore\n      pop\n        /* \"capstone_swap.sol\":1823:1833  _sktAmount */\n      dup2\n        /* \"capstone_swap.sol\":1810:1820  sktReserve */\n      0x03\n        /* \"capstone_swap.sol\":1810:1833  sktReserve = _sktAmount */\n      dup2\n      swap1\n      sstore\n      pop\n        /* \"capstone_swap.sol\":1860:1864  1e18 */\n      0x0de0b6b3a7640000\n        /* \"capstone_swap.sol\":1842:1864  liquidityMinted = 1e18 */\n      swap1\n      pop\n        /* \"capstone_swap.sol\":1744:1996  if (totalLiquidity == 0) {... */\n      jump(tag_148)\n    tag_147:\n        /* \"capstone_swap.sol\":1978:1988  sdtReserve */\n      sload(0x02)\n        /* \"capstone_swap.sol\":1960:1974  totalLiquidity */\n      sload(0x07)\n        /* \"capstone_swap.sol\":1953:1957  1e18 */\n      0x0de0b6b3a7640000\n        /* \"capstone_swap.sol\":1941:1951  _sdtAmount */\n      dup6\n        /* \"capstone_swap.sol\":1941:1957  _sdtAmount *1e18 */\n      tag_149\n      swap2\n      swap1\n      tag_87\n      jump\t// in\n    tag_149:\n        /* \"capstone_swap.sol\":1940:1974  (_sdtAmount *1e18)* totalLiquidity */\n      tag_150\n      swap2\n      swap1\n      tag_87\n      jump\t// in\n    tag_150:\n        /* \"capstone_swap.sol\":1939:1988  ((_sdtAmount *1e18)* totalLiquidity) / sdtReserve */\n      tag_151\n      swap2\n      swap1\n      tag_94\n      jump\t// in\n    tag_151:\n        /* \"capstone_swap.sol\":1921:1988  liquidityMinted = ((_sdtAmount *1e18)* totalLiquidity) / sdtReserve */\n      swap1\n      pop\n        /* \"capstone_swap.sol\":1744:1996  if (totalLiquidity == 0) {... */\n    tag_148:\n        /* \"capstone_swap.sol\":2049:2052  sdt */\n      0x00\n      dup1\n      sload\n      swap1\n      0x0100\n      exp\n      swap1\n      div\n      0xffffffffffffffffffffffffffffffffffffffff\n      and\n        /* \"capstone_swap.sol\":2049:2065  sdt.transferFrom */\n      0xffffffffffffffffffffffffffffffffffffffff\n      and\n      0x23b872dd\n        /* \"capstone_swap.sol\":2066:2076  msg.sender */\n      caller\n        /* \"capstone_swap.sol\":2086:2090  this */\n      address\n        /* \"capstone_swap.sol\":2093:2103  _sdtAmount */\n      dup7\n        /* \"capstone_swap.sol\":2049:2104  sdt.transferFrom(msg.sender, address(this), _sdtAmount) */\n      mload(0x40)\n      dup5\n      0xffffffff\n      and\n      0xe0\n      shl\n      dup2\n      mstore\n      0x04\n      add\n      tag_152\n      swap4\n      swap3\n      swap2\n      swap1\n      tag_153\n      jump\t// in\n    tag_152:\n      0x20\n      mload(0x40)\n      dup1\n      dup4\n      sub\n      dup2\n      0x00\n      dup8\n      gas\n      call\n      iszero\n      dup1\n      iszero\n      tag_155\n      jumpi\n      returndatasize\n      0x00\n      dup1\n      returndatacopy\n      revert(0x00, returndatasize)\n    tag_155:\n      pop\n      pop\n      pop\n      pop\n      mload(0x40)\n      returndatasize\n      not(0x1f)\n      0x1f\n      dup3\n      add\n      and\n      dup3\n      add\n      dup1\n      0x40\n      mstore\n      pop\n      dup2\n      add\n      swap1\n      tag_156\n      swap2\n      swap1\n      tag_116\n      jump\t// in\n    tag_156:\n      pop\n        /* \"capstone_swap.sol\":2111:2114  skt */\n      0x01\n      0x00\n      swap1\n      sload\n      swap1\n      0x0100\n      exp\n      swap1\n      div\n      0xffffffffffffffffffffffffffffffffffffffff\n      and\n        /* \"capstone_swap.sol\":2111:2127  skt.transferFrom */\n      0xffffffffffffffffffffffffffffffffffffffff\n      and\n      0x23b872dd\n        /* \"capstone_swap.sol\":2128:2138  msg.sender */\n      caller\n        /* \"capstone_swap.sol\":2148:2152  this */\n      address\n        /* \"capstone_swap.sol\":2155:2165  _sktAmount */\n      dup6\n        /* \"capstone_swap.sol\":2111:2166  skt.transferFrom(msg.sender, address(this), _sktAmount) */\n      mload(0x40)\n      dup5\n      0xffffffff\n      and\n      0xe0\n      shl\n      dup2\n      mstore\n      0x04\n      add\n      tag_157\n      swap4\n      swap3\n      swap2\n      swap1\n      tag_153\n      jump\t// in\n    tag_157:\n      0x20\n      mload(0x40)\n      dup1\n      dup4\n      sub\n      dup2\n      0x00\n      dup8\n      gas\n      call\n      iszero\n      dup1\n      iszero\n      tag_159\n      jumpi\n      returndatasize\n      0x00\n      dup1\n      returndatacopy\n      revert(0x00, returndatasize)\n    tag_159:\n      pop\n      pop\n      pop\n      pop\n      mload(0x40)\n      returndatasize\n      not(0x1f)\n      0x1f\n      dup3\n      add\n      and\n      dup3\n      add\n      dup1\n      0x40\n      mstore\n      pop\n      dup2\n      add\n      swap1\n      tag_160\n      swap2\n      swap1\n      tag_116\n      jump\t// in\n    tag_160:\n      pop\n        /* \"capstone_swap.sol\":2267:2282  liquidityMinted */\n      dup1\n        /* \"capstone_swap.sol\":2227:2251  liquidityProviderBalance */\n      0x08\n        /* \"capstone_swap.sol\":2227:2263  liquidityProviderBalance[msg.sender] */\n      0x00\n        /* \"capstone_swap.sol\":2252:2262  msg.sender */\n      caller\n        /* \"capstone_swap.sol\":2227:2263  liquidityProviderBalance[msg.sender] */\n      0xffffffffffffffffffffffffffffffffffffffff\n      and\n      0xffffffffffffffffffffffffffffffffffffffff\n      and\n      dup2\n      mstore\n      0x20\n      add\n      swap1\n      dup2\n      mstore\n      0x20\n      add\n      0x00\n      keccak256\n      0x00\n        /* \"capstone_swap.sol\":2227:2282  liquidityProviderBalance[msg.sender] += liquidityMinted */\n      dup3\n      dup3\n      sload\n      tag_161\n      swap2\n      swap1\n      tag_92\n      jump\t// in\n    tag_161:\n      swap3\n      pop\n      pop\n      dup2\n      swap1\n      sstore\n      pop\n        /* \"capstone_swap.sol\":2309:2324  liquidityMinted */\n      dup1\n        /* \"capstone_swap.sol\":2291:2305  totalLiquidity */\n      0x07\n      0x00\n        /* \"capstone_swap.sol\":2291:2324  totalLiquidity += liquidityMinted */\n      dup3\n      dup3\n      sload\n      tag_162\n      swap2\n      swap1\n      tag_92\n      jump\t// in\n    tag_162:\n      swap3\n      pop\n      pop\n      dup2\n      swap1\n      sstore\n      pop\n        /* \"capstone_swap.sol\":2357:2459  LiquidityAdded(... */\n      0x64b83944e79c3ce8d4c297411de637c3e102d064677aac0c163976ebdcd6f50e\n        /* \"capstone_swap.sol\":2380:2390  msg.sender */\n      caller\n        /* \"capstone_swap.sol\":2399:2409  _sdtAmount */\n      dup5\n        /* \"capstone_swap.sol\":2418:2428  _sktAmount */\n      dup5\n        /* \"capstone_swap.sol\":2437:2452  liquidityMinted */\n      dup5\n        /* \"capstone_swap.sol\":2357:2459  LiquidityAdded(... */\n      mload(0x40)\n      tag_163\n      swap5\n      swap4\n      swap3\n      swap2\n      swap1\n      tag_126\n      jump\t// in\n    tag_163:\n      mload(0x40)\n      dup1\n      swap2\n      sub\n      swap1\n      log1\n        /* \"capstone_swap.sol\":1260:2465  {... */\n      pop\n        /* \"capstone_swap.sol\":1181:2465  function addLiquidity(uint256 _sdtAmount, uint256 _sktAmount) external payable {... */\n      pop\n      pop\n      jump\t// out\n        /* \"capstone_swap.sol\":111:128  IERC20 public sdt */\n    tag_56:\n      0x00\n      dup1\n      sload\n      swap1\n      0x0100\n      exp\n      swap1\n      div\n      0xffffffffffffffffffffffffffffffffffffffff\n      and\n      dup2\n      jump\t// out\n        /* \"capstone_swap.sol\":157:188  uint256 public constant FEE = 3 */\n    tag_60:\n        /* \"capstone_swap.sol\":187:188  3 */\n      0x03\n        /* \"capstone_swap.sol\":157:188  uint256 public constant FEE = 3 */\n      dup2\n      jump\t// out\n        /* \"capstone_swap.sol\":574:633  mapping(address => uint256) public liquidityProviderBalance */\n    tag_66:\n      mstore(0x20, 0x08)\n      dup1\n      0x00\n      mstore\n      keccak256(0x00, 0x40)\n      0x00\n      swap2\n      pop\n      swap1\n      pop\n      sload\n      dup2\n      jump\t// out\n        /* \"capstone_swap.sol\":339:368  uint256 public sktReserve = 0 */\n    tag_70:\n      sload(0x03)\n      dup2\n      jump\t// out\n        /* \"capstone_swap.sol\":4222:5589  function swapTokens(... */\n    tag_75:\n        /* \"capstone_swap.sol\":4346:4347  0 */\n      0x00\n        /* \"capstone_swap.sol\":4336:4343  _amount */\n      dup4\n        /* \"capstone_swap.sol\":4336:4347  _amount > 0 */\n      gt\n        /* \"capstone_swap.sol\":4328:4381  require(_amount > 0, \"Amount must be greater than 0\") */\n      tag_165\n      jumpi\n      mload(0x40)\n      0x08c379a000000000000000000000000000000000000000000000000000000000\n      dup2\n      mstore\n      0x04\n      add\n      tag_166\n      swap1\n      tag_167\n      jump\t// in\n    tag_166:\n      mload(0x40)\n      dup1\n      swap2\n      sub\n      swap1\n      revert\n    tag_165:\n        /* \"capstone_swap.sol\":4418:4438  uint256 outputAmount */\n      0x00\n        /* \"capstone_swap.sol\":4441:4480  getSwapAmount(_amount, _input, _output) */\n      tag_168\n        /* \"capstone_swap.sol\":4455:4462  _amount */\n      dup5\n        /* \"capstone_swap.sol\":4464:4470  _input */\n      dup5\n        /* \"capstone_swap.sol\":4472:4479  _output */\n      dup5\n        /* \"capstone_swap.sol\":4441:4454  getSwapAmount */\n      tag_41\n        /* \"capstone_swap.sol\":4441:4480  getSwapAmount(_amount, _input, _output) */\n      jump\t// in\n    tag_168:\n        /* \"capstone_swap.sol\":4418:4480  uint256 outputAmount = getSwapAmount(_amount, _input, _output) */\n      swap1\n      pop\n        /* \"capstone_swap.sol\":4567:4570  sdt */\n      0x00\n      dup1\n      sload\n      swap1\n      0x0100\n      exp\n      swap1\n      div\n      0xffffffffffffffffffffffffffffffffffffffff\n      and\n        /* \"capstone_swap.sol\":4549:4571  _input == address(sdt) */\n      0xffffffffffffffffffffffffffffffffffffffff\n      and\n        /* \"capstone_swap.sol\":4549:4555  _input */\n      dup4\n        /* \"capstone_swap.sol\":4549:4571  _input == address(sdt) */\n      0xffffffffffffffffffffffffffffffffffffffff\n      and\n      sub\n        /* \"capstone_swap.sol\":4545:4777  if (_input == address(sdt)) {... */\n      tag_169\n      jumpi\n        /* \"capstone_swap.sol\":4596:4603  _amount */\n      dup4\n        /* \"capstone_swap.sol\":4582:4592  sdtReserve */\n      0x02\n      0x00\n        /* \"capstone_swap.sol\":4582:4603  sdtReserve += _amount */\n      dup3\n      dup3\n      sload\n      tag_170\n      swap2\n      swap1\n      tag_92\n      jump\t// in\n    tag_170:\n      swap3\n      pop\n      pop\n      dup2\n      swap1\n      sstore\n      pop\n        /* \"capstone_swap.sol\":4612:4615  sdt */\n      0x00\n      dup1\n      sload\n      swap1\n      0x0100\n      exp\n      swap1\n      div\n      0xffffffffffffffffffffffffffffffffffffffff\n      and\n        /* \"capstone_swap.sol\":4612:4628  sdt.transferFrom */\n      0xffffffffffffffffffffffffffffffffffffffff\n      and\n      0x23b872dd\n        /* \"capstone_swap.sol\":4629:4639  msg.sender */\n      caller\n        /* \"capstone_swap.sol\":4649:4653  this */\n      address\n        /* \"capstone_swap.sol\":4656:4663  _amount */\n      dup8\n        /* \"capstone_swap.sol\":4612:4664  sdt.transferFrom(msg.sender, address(this), _amount) */\n      mload(0x40)\n      dup5\n      0xffffffff\n      and\n      0xe0\n      shl\n      dup2\n      mstore\n      0x04\n      add\n      tag_171\n      swap4\n      swap3\n      swap2\n      swap1\n      tag_153\n      jump\t// in\n    tag_171:\n      0x20\n      mload(0x40)\n      dup1\n      dup4\n      sub\n      dup2\n      0x00\n      dup8\n      gas\n      call\n      iszero\n      dup1\n      iszero\n      tag_173\n      jumpi\n      returndatasize\n      0x00\n      dup1\n      returndatacopy\n      revert(0x00, returndatasize)\n    tag_173:\n      pop\n      pop\n      pop\n      pop\n      mload(0x40)\n      returndatasize\n      not(0x1f)\n      0x1f\n      dup3\n      add\n      and\n      dup3\n      add\n      dup1\n      0x40\n      mstore\n      pop\n      dup2\n      add\n      swap1\n      tag_174\n      swap2\n      swap1\n      tag_116\n      jump\t// in\n    tag_174:\n      pop\n        /* \"capstone_swap.sol\":4545:4777  if (_input == address(sdt)) {... */\n      jump(tag_175)\n    tag_169:\n        /* \"capstone_swap.sol\":4701:4708  _amount */\n      dup4\n        /* \"capstone_swap.sol\":4687:4697  sktReserve */\n      0x03\n      0x00\n        /* \"capstone_swap.sol\":4687:4708  sktReserve += _amount */\n      dup3\n      dup3\n      sload\n      tag_176\n      swap2\n      swap1\n      tag_92\n      jump\t// in\n    tag_176:\n      swap3\n      pop\n      pop\n      dup2\n      swap1\n      sstore\n      pop\n        /* \"capstone_swap.sol\":4717:4720  skt */\n      0x01\n      0x00\n      swap1\n      sload\n      swap1\n      0x0100\n      exp\n      swap1\n      div\n      0xffffffffffffffffffffffffffffffffffffffff\n      and\n        /* \"capstone_swap.sol\":4717:4733  skt.transferFrom */\n      0xffffffffffffffffffffffffffffffffffffffff\n      and\n      0x23b872dd\n        /* \"capstone_swap.sol\":4734:4744  msg.sender */\n      caller\n        /* \"capstone_swap.sol\":4754:4758  this */\n      address\n        /* \"capstone_swap.sol\":4761:4768  _amount */\n      dup8\n        /* \"capstone_swap.sol\":4717:4769  skt.transferFrom(msg.sender, address(this), _amount) */\n      mload(0x40)\n      dup5\n      0xffffffff\n      and\n      0xe0\n      shl\n      dup2\n      mstore\n      0x04\n      add\n      tag_177\n      swap4\n      swap3\n      swap2\n      swap1\n      tag_153\n      jump\t// in\n    tag_177:\n      0x20\n      mload(0x40)\n      dup1\n      dup4\n      sub\n      dup2\n      0x00\n      dup8\n      gas\n      call\n      iszero\n      dup1\n      iszero\n      tag_179\n      jumpi\n      returndatasize\n      0x00\n      dup1\n      returndatacopy\n      revert(0x00, returndatasize)\n    tag_179:\n      pop\n      pop\n      pop\n      pop\n      mload(0x40)\n      returndatasize\n      not(0x1f)\n      0x1f\n      dup3\n      add\n      and\n      dup3\n      add\n      dup1\n      0x40\n      mstore\n      pop\n      dup2\n      add\n      swap1\n      tag_180\n      swap2\n      swap1\n      tag_116\n      jump\t// in\n    tag_180:\n      pop\n        /* \"capstone_swap.sol\":4545:4777  if (_input == address(sdt)) {... */\n    tag_175:\n        /* \"capstone_swap.sol\":4853:4856  sdt */\n      0x00\n      dup1\n      sload\n      swap1\n      0x0100\n      exp\n      swap1\n      div\n      0xffffffffffffffffffffffffffffffffffffffff\n      and\n        /* \"capstone_swap.sol\":4834:4857  _output == address(sdt) */\n      0xffffffffffffffffffffffffffffffffffffffff\n      and\n        /* \"capstone_swap.sol\":4834:4841  _output */\n      dup3\n        /* \"capstone_swap.sol\":4834:4857  _output == address(sdt) */\n      0xffffffffffffffffffffffffffffffffffffffff\n      and\n      sub\n        /* \"capstone_swap.sol\":4830:5045  if (_output == address(sdt)) {... */\n      tag_181\n      jumpi\n        /* \"capstone_swap.sol\":4868:4871  sdt */\n      0x00\n      dup1\n      sload\n      swap1\n      0x0100\n      exp\n      swap1\n      div\n      0xffffffffffffffffffffffffffffffffffffffff\n      and\n        /* \"capstone_swap.sol\":4868:4880  sdt.transfer */\n      0xffffffffffffffffffffffffffffffffffffffff\n      and\n      0xa9059cbb\n        /* \"capstone_swap.sol\":4881:4891  msg.sender */\n      caller\n        /* \"capstone_swap.sol\":4893:4905  outputAmount */\n      dup4\n        /* \"capstone_swap.sol\":4868:4906  sdt.transfer(msg.sender, outputAmount) */\n      mload(0x40)\n      dup4\n      0xffffffff\n      and\n      0xe0\n      shl\n      dup2\n      mstore\n      0x04\n      add\n      tag_182\n      swap3\n      swap2\n      swap1\n      tag_112\n      jump\t// in\n    tag_182:\n      0x20\n      mload(0x40)\n      dup1\n      dup4\n      sub\n      dup2\n      0x00\n      dup8\n      gas\n      call\n      iszero\n      dup1\n      iszero\n      tag_184\n      jumpi\n      returndatasize\n      0x00\n      dup1\n      returndatacopy\n      revert(0x00, returndatasize)\n    tag_184:\n      pop\n      pop\n      pop\n      pop\n      mload(0x40)\n      returndatasize\n      not(0x1f)\n      0x1f\n      dup3\n      add\n      and\n      dup3\n      add\n      dup1\n      0x40\n      mstore\n      pop\n      dup2\n      add\n      swap1\n      tag_185\n      swap2\n      swap1\n      tag_116\n      jump\t// in\n    tag_185:\n      pop\n        /* \"capstone_swap.sol\":4929:4941  outputAmount */\n      dup1\n        /* \"capstone_swap.sol\":4915:4925  sdtReserve */\n      0x02\n      0x00\n        /* \"capstone_swap.sol\":4915:4941  sdtReserve -= outputAmount */\n      dup3\n      dup3\n      sload\n      tag_186\n      swap2\n      swap1\n      tag_108\n      jump\t// in\n    tag_186:\n      swap3\n      pop\n      pop\n      dup2\n      swap1\n      sstore\n      pop\n        /* \"capstone_swap.sol\":4830:5045  if (_output == address(sdt)) {... */\n      jump(tag_187)\n    tag_181:\n        /* \"capstone_swap.sol\":4964:4967  skt */\n      0x01\n      0x00\n      swap1\n      sload\n      swap1\n      0x0100\n      exp\n      swap1\n      div\n      0xffffffffffffffffffffffffffffffffffffffff\n      and\n        /* \"capstone_swap.sol\":4964:4976  skt.transfer */\n      0xffffffffffffffffffffffffffffffffffffffff\n      and\n      0xa9059cbb\n        /* \"capstone_swap.sol\":4977:4987  msg.sender */\n      caller\n        /* \"capstone_swap.sol\":4989:5001  outputAmount */\n      dup4\n        /* \"capstone_swap.sol\":4964:5002  skt.transfer(msg.sender, outputAmount) */\n      mload(0x40)\n      dup4\n      0xffffffff\n      and\n      0xe0\n      shl\n      dup2\n      mstore\n      0x04\n      add\n      tag_188\n      swap3\n      swap2\n      swap1\n      tag_112\n      jump\t// in\n    tag_188:\n      0x20\n      mload(0x40)\n      dup1\n      dup4\n      sub\n      dup2\n      0x00\n      dup8\n      gas\n      call\n      iszero\n      dup1\n      iszero\n      tag_190\n      jumpi\n      returndatasize\n      0x00\n      dup1\n      returndatacopy\n      revert(0x00, returndatasize)\n    tag_190:\n      pop\n      pop\n      pop\n      pop\n      mload(0x40)\n      returndatasize\n      not(0x1f)\n      0x1f\n      dup3\n      add\n      and\n      dup3\n      add\n      dup1\n      0x40\n      mstore\n      pop\n      dup2\n      add\n      swap1\n      tag_191\n      swap2\n      swap1\n      tag_116\n      jump\t// in\n    tag_191:\n      pop\n        /* \"capstone_swap.sol\":5025:5037  outputAmount */\n      dup1\n        /* \"capstone_swap.sol\":5011:5021  sktReserve */\n      0x03\n      0x00\n        /* \"capstone_swap.sol\":5011:5037  sktReserve -= outputAmount */\n      dup3\n      dup3\n      sload\n      tag_192\n      swap2\n      swap1\n      tag_108\n      jump\t// in\n    tag_192:\n      swap3\n      pop\n      pop\n      dup2\n      swap1\n      sstore\n      pop\n        /* \"capstone_swap.sol\":4830:5045  if (_output == address(sdt)) {... */\n    tag_187:\n        /* \"capstone_swap.sol\":5072:5083  uint256 fee */\n      0x00\n        /* \"capstone_swap.sol\":5104:5107  100 */\n      0x64\n        /* \"capstone_swap.sol\":187:188  3 */\n      0x03\n        /* \"capstone_swap.sol\":5087:5094  _amount */\n      dup7\n        /* \"capstone_swap.sol\":5087:5100  _amount * FEE */\n      tag_193\n      swap2\n      swap1\n      tag_87\n      jump\t// in\n    tag_193:\n        /* \"capstone_swap.sol\":5086:5107  (_amount * FEE) / 100 */\n      tag_194\n      swap2\n      swap1\n      tag_94\n      jump\t// in\n    tag_194:\n        /* \"capstone_swap.sol\":5072:5107  uint256 fee = (_amount * FEE) / 100 */\n      swap1\n      pop\n        /* \"capstone_swap.sol\":5176:5192  uint256 adminFee */\n      0x00\n        /* \"capstone_swap.sol\":5201:5202  2 */\n      0x02\n        /* \"capstone_swap.sol\":5195:5198  fee */\n      dup3\n        /* \"capstone_swap.sol\":5195:5202  fee / 2 */\n      tag_195\n      swap2\n      swap1\n      tag_94\n      jump\t// in\n    tag_195:\n        /* \"capstone_swap.sol\":5176:5202  uint256 adminFee = fee / 2 */\n      swap1\n      pop\n        /* \"capstone_swap.sol\":5209:5224  uint256 poolFee */\n      0x00\n        /* \"capstone_swap.sol\":5233:5241  adminFee */\n      dup2\n        /* \"capstone_swap.sol\":5227:5230  fee */\n      dup4\n        /* \"capstone_swap.sol\":5227:5241  fee - adminFee */\n      tag_196\n      swap2\n      swap1\n      tag_108\n      jump\t// in\n    tag_196:\n        /* \"capstone_swap.sol\":5209:5241  uint256 poolFee = fee - adminFee */\n      swap1\n      pop\n        /* \"capstone_swap.sol\":5272:5275  sdt */\n      0x00\n      dup1\n      sload\n      swap1\n      0x0100\n      exp\n      swap1\n      div\n      0xffffffffffffffffffffffffffffffffffffffff\n      and\n        /* \"capstone_swap.sol\":5254:5276  _input == address(sdt) */\n      0xffffffffffffffffffffffffffffffffffffffff\n      and\n        /* \"capstone_swap.sol\":5254:5260  _input */\n      dup7\n        /* \"capstone_swap.sol\":5254:5276  _input == address(sdt) */\n      0xffffffffffffffffffffffffffffffffffffffff\n      and\n      sub\n        /* \"capstone_swap.sol\":5250:5488  if (_input == address(sdt)) {... */\n      tag_197\n      jumpi\n        /* \"capstone_swap.sol\":5301:5304  fee */\n      dup3\n        /* \"capstone_swap.sol\":5287:5297  sdtReserve */\n      0x02\n      0x00\n        /* \"capstone_swap.sol\":5287:5304  sdtReserve -= fee */\n      dup3\n      dup3\n      sload\n      tag_198\n      swap2\n      swap1\n      tag_108\n      jump\t// in\n    tag_198:\n      swap3\n      pop\n      pop\n      dup2\n      swap1\n      sstore\n      pop\n        /* \"capstone_swap.sol\":5313:5316  sdt */\n      0x00\n      dup1\n      sload\n      swap1\n      0x0100\n      exp\n      swap1\n      div\n      0xffffffffffffffffffffffffffffffffffffffff\n      and\n        /* \"capstone_swap.sol\":5313:5325  sdt.transfer */\n      0xffffffffffffffffffffffffffffffffffffffff\n      and\n      0xa9059cbb\n        /* \"capstone_swap.sol\":5326:5331  admin */\n      0x06\n      0x00\n      swap1\n      sload\n      swap1\n      0x0100\n      exp\n      swap1\n      div\n      0xffffffffffffffffffffffffffffffffffffffff\n      and\n        /* \"capstone_swap.sol\":5333:5341  adminFee */\n      dup5\n        /* \"capstone_swap.sol\":5313:5342  sdt.transfer(admin, adminFee) */\n      mload(0x40)\n      dup4\n      0xffffffff\n      and\n      0xe0\n      shl\n      dup2\n      mstore\n      0x04\n      add\n      tag_199\n      swap3\n      swap2\n      swap1\n      tag_112\n      jump\t// in\n    tag_199:\n      0x20\n      mload(0x40)\n      dup1\n      dup4\n      sub\n      dup2\n      0x00\n      dup8\n      gas\n      call\n      iszero\n      dup1\n      iszero\n      tag_201\n      jumpi\n      returndatasize\n      0x00\n      dup1\n      returndatacopy\n      revert(0x00, returndatasize)\n    tag_201:\n      pop\n      pop\n      pop\n      pop\n      mload(0x40)\n      returndatasize\n      not(0x1f)\n      0x1f\n      dup3\n      add\n      and\n      dup3\n      add\n      dup1\n      0x40\n      mstore\n      pop\n      dup2\n      add\n      swap1\n      tag_202\n      swap2\n      swap1\n      tag_116\n      jump\t// in\n    tag_202:\n      pop\n        /* \"capstone_swap.sol\":5365:5372  poolFee */\n      dup1\n        /* \"capstone_swap.sol\":5351:5361  sdtFeePool */\n      0x04\n      0x00\n        /* \"capstone_swap.sol\":5351:5372  sdtFeePool += poolFee */\n      dup3\n      dup3\n      sload\n      tag_203\n      swap2\n      swap1\n      tag_92\n      jump\t// in\n    tag_203:\n      swap3\n      pop\n      pop\n      dup2\n      swap1\n      sstore\n      pop\n        /* \"capstone_swap.sol\":5250:5488  if (_input == address(sdt)) {... */\n      jump(tag_204)\n    tag_197:\n        /* \"capstone_swap.sol\":5409:5412  fee */\n      dup3\n        /* \"capstone_swap.sol\":5395:5405  sktReserve */\n      0x03\n      0x00\n        /* \"capstone_swap.sol\":5395:5412  sktReserve -= fee */\n      dup3\n      dup3\n      sload\n      tag_205\n      swap2\n      swap1\n      tag_108\n      jump\t// in\n    tag_205:\n      swap3\n      pop\n      pop\n      dup2\n      swap1\n      sstore\n      pop\n        /* \"capstone_swap.sol\":5421:5424  skt */\n      0x01\n      0x00\n      swap1\n      sload\n      swap1\n      0x0100\n      exp\n      swap1\n      div\n      0xffffffffffffffffffffffffffffffffffffffff\n      and\n        /* \"capstone_swap.sol\":5421:5433  skt.transfer */\n      0xffffffffffffffffffffffffffffffffffffffff\n      and\n      0xa9059cbb\n        /* \"capstone_swap.sol\":5434:5439  admin */\n      0x06\n      0x00\n      swap1\n      sload\n      swap1\n      0x0100\n      exp\n      swap1\n      div\n      0xffffffffffffffffffffffffffffffffffffffff\n      and\n        /* \"capstone_swap.sol\":5441:5449  adminFee */\n      dup5\n        /* \"capstone_swap.sol\":5421:5450  skt.transfer(admin, adminFee) */\n      mload(0x40)\n      dup4\n      0xffffffff\n      and\n      0xe0\n      shl\n      dup2\n      mstore\n      0x04\n      add\n      tag_206\n      swap3\n      swap2\n      swap1\n      tag_112\n      jump\t// in\n    tag_206:\n      0x20\n      mload(0x40)\n      dup1\n      dup4\n      sub\n      dup2\n      0x00\n      dup8\n      gas\n      call\n      iszero\n      dup1\n      iszero\n      tag_208\n      jumpi\n      returndatasize\n      0x00\n      dup1\n      returndatacopy\n      revert(0x00, returndatasize)\n    tag_208:\n      pop\n      pop\n      pop\n      pop\n      mload(0x40)\n      returndatasize\n      not(0x1f)\n      0x1f\n      dup3\n      add\n      and\n      dup3\n      add\n      dup1\n      0x40\n      mstore\n      pop\n      dup2\n      add\n      swap1\n      tag_209\n      swap2\n      swap1\n      tag_116\n      jump\t// in\n    tag_209:\n      pop\n        /* \"capstone_swap.sol\":5473:5480  poolFee */\n      dup1\n        /* \"capstone_swap.sol\":5459:5469  sktFeePool */\n      0x05\n      0x00\n        /* \"capstone_swap.sol\":5459:5480  sktFeePool += poolFee */\n      dup3\n      dup3\n      sload\n      tag_210\n      swap2\n      swap1\n      tag_92\n      jump\t// in\n    tag_210:\n      swap3\n      pop\n      pop\n      dup2\n      swap1\n      sstore\n      pop\n        /* \"capstone_swap.sol\":5250:5488  if (_input == address(sdt)) {... */\n    tag_204:\n        /* \"capstone_swap.sol\":5518:5583  TokensSwapped(msg.sender, _input, _output, _amount, outputAmount) */\n      0xad56699d0f375866eb895ed27203058a36a713382aaded78eb6b67da266d4332\n        /* \"capstone_swap.sol\":5532:5542  msg.sender */\n      caller\n        /* \"capstone_swap.sol\":5544:5550  _input */\n      dup8\n        /* \"capstone_swap.sol\":5552:5559  _output */\n      dup8\n        /* \"capstone_swap.sol\":5561:5568  _amount */\n      dup11\n        /* \"capstone_swap.sol\":5570:5582  outputAmount */\n      dup9\n        /* \"capstone_swap.sol\":5518:5583  TokensSwapped(msg.sender, _input, _output, _amount, outputAmount) */\n      mload(0x40)\n      tag_211\n      swap6\n      swap5\n      swap4\n      swap3\n      swap2\n      swap1\n      tag_212\n      jump\t// in\n    tag_211:\n      mload(0x40)\n      dup1\n      swap2\n      sub\n      swap1\n      log1\n        /* \"capstone_swap.sol\":4321:5589  {... */\n      pop\n      pop\n      pop\n      pop\n        /* \"capstone_swap.sol\":4222:5589  function swapTokens(... */\n      pop\n      pop\n      pop\n      jump\t// out\n        /* \"capstone_swap.sol\":513:533  address public admin */\n    tag_78:\n      0x06\n      0x00\n      swap1\n      sload\n      swap1\n      0x0100\n      exp\n      swap1\n      div\n      0xffffffffffffffffffffffffffffffffffffffff\n      and\n      dup2\n      jump\t// out\n        /* \"#utility.yul\":7:84   */\n    tag_213:\n        /* \"#utility.yul\":44:51   */\n      0x00\n        /* \"#utility.yul\":73:78   */\n      dup2\n        /* \"#utility.yul\":62:78   */\n      swap1\n      pop\n        /* \"#utility.yul\":7:84   */\n      swap2\n      swap1\n      pop\n      jump\t// out\n        /* \"#utility.yul\":90:208   */\n    tag_214:\n        /* \"#utility.yul\":177:201   */\n      tag_250\n        /* \"#utility.yul\":195:200   */\n      dup2\n        /* \"#utility.yul\":177:201   */\n      tag_213\n      jump\t// in\n    tag_250:\n        /* \"#utility.yul\":172:175   */\n      dup3\n        /* \"#utility.yul\":165:202   */\n      mstore\n        /* \"#utility.yul\":90:208   */\n      pop\n      pop\n      jump\t// out\n        /* \"#utility.yul\":214:436   */\n    tag_23:\n        /* \"#utility.yul\":307:311   */\n      0x00\n        /* \"#utility.yul\":345:347   */\n      0x20\n        /* \"#utility.yul\":334:343   */\n      dup3\n        /* \"#utility.yul\":330:348   */\n      add\n        /* \"#utility.yul\":322:348   */\n      swap1\n      pop\n        /* \"#utility.yul\":358:429   */\n      tag_252\n        /* \"#utility.yul\":426:427   */\n      0x00\n        /* \"#utility.yul\":415:424   */\n      dup4\n        /* \"#utility.yul\":411:428   */\n      add\n        /* \"#utility.yul\":402:408   */\n      dup5\n        /* \"#utility.yul\":358:429   */\n      tag_214\n      jump\t// in\n    tag_252:\n        /* \"#utility.yul\":214:436   */\n      swap3\n      swap2\n      pop\n      pop\n      jump\t// out\n        /* \"#utility.yul\":442:568   */\n    tag_215:\n        /* \"#utility.yul\":479:486   */\n      0x00\n        /* \"#utility.yul\":519:561   */\n      0xffffffffffffffffffffffffffffffffffffffff\n        /* \"#utility.yul\":512:517   */\n      dup3\n        /* \"#utility.yul\":508:562   */\n      and\n        /* \"#utility.yul\":497:562   */\n      swap1\n      pop\n        /* \"#utility.yul\":442:568   */\n      swap2\n      swap1\n      pop\n      jump\t// out\n        /* \"#utility.yul\":574:634   */\n    tag_216:\n        /* \"#utility.yul\":602:605   */\n      0x00\n        /* \"#utility.yul\":623:628   */\n      dup2\n        /* \"#utility.yul\":616:628   */\n      swap1\n      pop\n        /* \"#utility.yul\":574:634   */\n      swap2\n      swap1\n      pop\n      jump\t// out\n        /* \"#utility.yul\":640:782   */\n    tag_217:\n        /* \"#utility.yul\":690:699   */\n      0x00\n        /* \"#utility.yul\":723:776   */\n      tag_256\n        /* \"#utility.yul\":741:775   */\n      tag_257\n        /* \"#utility.yul\":750:774   */\n      tag_258\n        /* \"#utility.yul\":768:773   */\n      dup5\n        /* \"#utility.yul\":750:774   */\n      tag_215\n      jump\t// in\n    tag_258:\n        /* \"#utility.yul\":741:775   */\n      tag_216\n      jump\t// in\n    tag_257:\n        /* \"#utility.yul\":723:776   */\n      tag_215\n      jump\t// in\n    tag_256:\n        /* \"#utility.yul\":710:776   */\n      swap1\n      pop\n        /* \"#utility.yul\":640:782   */\n      swap2\n      swap1\n      pop\n      jump\t// out\n        /* \"#utility.yul\":788:914   */\n    tag_218:\n        /* \"#utility.yul\":838:847   */\n      0x00\n        /* \"#utility.yul\":871:908   */\n      tag_260\n        /* \"#utility.yul\":902:907   */\n      dup3\n        /* \"#utility.yul\":871:908   */\n      tag_217\n      jump\t// in\n    tag_260:\n        /* \"#utility.yul\":858:908   */\n      swap1\n      pop\n        /* \"#utility.yul\":788:914   */\n      swap2\n      swap1\n      pop\n      jump\t// out\n        /* \"#utility.yul\":920:1059   */\n    tag_219:\n        /* \"#utility.yul\":983:992   */\n      0x00\n        /* \"#utility.yul\":1016:1053   */\n      tag_262\n        /* \"#utility.yul\":1047:1052   */\n      dup3\n        /* \"#utility.yul\":1016:1053   */\n      tag_218\n      jump\t// in\n    tag_262:\n        /* \"#utility.yul\":1003:1053   */\n      swap1\n      pop\n        /* \"#utility.yul\":920:1059   */\n      swap2\n      swap1\n      pop\n      jump\t// out\n        /* \"#utility.yul\":1065:1222   */\n    tag_220:\n        /* \"#utility.yul\":1165:1215   */\n      tag_264\n        /* \"#utility.yul\":1209:1214   */\n      dup2\n        /* \"#utility.yul\":1165:1215   */\n      tag_219\n      jump\t// in\n    tag_264:\n        /* \"#utility.yul\":1160:1163   */\n      dup3\n        /* \"#utility.yul\":1153:1216   */\n      mstore\n        /* \"#utility.yul\":1065:1222   */\n      pop\n      pop\n      jump\t// out\n        /* \"#utility.yul\":1228:1476   */\n    tag_28:\n        /* \"#utility.yul\":1334:1338   */\n      0x00\n        /* \"#utility.yul\":1372:1374   */\n      0x20\n        /* \"#utility.yul\":1361:1370   */\n      dup3\n        /* \"#utility.yul\":1357:1375   */\n      add\n        /* \"#utility.yul\":1349:1375   */\n      swap1\n      pop\n        /* \"#utility.yul\":1385:1469   */\n      tag_266\n        /* \"#utility.yul\":1466:1467   */\n      0x00\n        /* \"#utility.yul\":1455:1464   */\n      dup4\n        /* \"#utility.yul\":1451:1468   */\n      add\n        /* \"#utility.yul\":1442:1448   */\n      dup5\n        /* \"#utility.yul\":1385:1469   */\n      tag_220\n      jump\t// in\n    tag_266:\n        /* \"#utility.yul\":1228:1476   */\n      swap3\n      swap2\n      pop\n      pop\n      jump\t// out\n        /* \"#utility.yul\":1563:1680   */\n    tag_222:\n        /* \"#utility.yul\":1672:1673   */\n      0x00\n        /* \"#utility.yul\":1669:1670   */\n      dup1\n        /* \"#utility.yul\":1662:1674   */\n      revert\n        /* \"#utility.yul\":1809:1931   */\n    tag_224:\n        /* \"#utility.yul\":1882:1906   */\n      tag_271\n        /* \"#utility.yul\":1900:1905   */\n      dup2\n        /* \"#utility.yul\":1882:1906   */\n      tag_213\n      jump\t// in\n    tag_271:\n        /* \"#utility.yul\":1875:1880   */\n      dup2\n        /* \"#utility.yul\":1872:1907   */\n      eq\n        /* \"#utility.yul\":1862:1925   */\n      tag_272\n      jumpi\n        /* \"#utility.yul\":1921:1922   */\n      0x00\n        /* \"#utility.yul\":1918:1919   */\n      dup1\n        /* \"#utility.yul\":1911:1923   */\n      revert\n        /* \"#utility.yul\":1862:1925   */\n    tag_272:\n        /* \"#utility.yul\":1809:1931   */\n      pop\n      jump\t// out\n        /* \"#utility.yul\":1937:2076   */\n    tag_225:\n        /* \"#utility.yul\":1983:1988   */\n      0x00\n        /* \"#utility.yul\":2021:2027   */\n      dup2\n        /* \"#utility.yul\":2008:2028   */\n      calldataload\n        /* \"#utility.yul\":1999:2028   */\n      swap1\n      pop\n        /* \"#utility.yul\":2037:2070   */\n      tag_274\n        /* \"#utility.yul\":2064:2069   */\n      dup2\n        /* \"#utility.yul\":2037:2070   */\n      tag_224\n      jump\t// in\n    tag_274:\n        /* \"#utility.yul\":1937:2076   */\n      swap3\n      swap2\n      pop\n      pop\n      jump\t// out\n        /* \"#utility.yul\":2082:2178   */\n    tag_226:\n        /* \"#utility.yul\":2119:2126   */\n      0x00\n        /* \"#utility.yul\":2148:2172   */\n      tag_276\n        /* \"#utility.yul\":2166:2171   */\n      dup3\n        /* \"#utility.yul\":2148:2172   */\n      tag_215\n      jump\t// in\n    tag_276:\n        /* \"#utility.yul\":2137:2172   */\n      swap1\n      pop\n        /* \"#utility.yul\":2082:2178   */\n      swap2\n      swap1\n      pop\n      jump\t// out\n        /* \"#utility.yul\":2184:2306   */\n    tag_227:\n        /* \"#utility.yul\":2257:2281   */\n      tag_278\n        /* \"#utility.yul\":2275:2280   */\n      dup2\n        /* \"#utility.yul\":2257:2281   */\n      tag_226\n      jump\t// in\n    tag_278:\n        /* \"#utility.yul\":2250:2255   */\n      dup2\n        /* \"#utility.yul\":2247:2282   */\n      eq\n        /* \"#utility.yul\":2237:2300   */\n      tag_279\n      jumpi\n        /* \"#utility.yul\":2296:2297   */\n      0x00\n        /* \"#utility.yul\":2293:2294   */\n      dup1\n        /* \"#utility.yul\":2286:2298   */\n      revert\n        /* \"#utility.yul\":2237:2300   */\n    tag_279:\n        /* \"#utility.yul\":2184:2306   */\n      pop\n      jump\t// out\n        /* \"#utility.yul\":2312:2451   */\n    tag_228:\n        /* \"#utility.yul\":2358:2363   */\n      0x00\n        /* \"#utility.yul\":2396:2402   */\n      dup2\n        /* \"#utility.yul\":2383:2403   */\n      calldataload\n        /* \"#utility.yul\":2374:2403   */\n      swap1\n      pop\n        /* \"#utility.yul\":2412:2445   */\n      tag_281\n        /* \"#utility.yul\":2439:2444   */\n      dup2\n        /* \"#utility.yul\":2412:2445   */\n      tag_227\n      jump\t// in\n    tag_281:\n        /* \"#utility.yul\":2312:2451   */\n      swap3\n      swap2\n      pop\n      pop\n      jump\t// out\n        /* \"#utility.yul\":2457:3076   */\n    tag_40:\n        /* \"#utility.yul\":2534:2540   */\n      0x00\n        /* \"#utility.yul\":2542:2548   */\n      dup1\n        /* \"#utility.yul\":2550:2556   */\n      0x00\n        /* \"#utility.yul\":2599:2601   */\n      0x60\n        /* \"#utility.yul\":2587:2596   */\n      dup5\n        /* \"#utility.yul\":2578:2585   */\n      dup7\n        /* \"#utility.yul\":2574:2597   */\n      sub\n        /* \"#utility.yul\":2570:2602   */\n      slt\n        /* \"#utility.yul\":2567:2686   */\n      iszero\n      tag_283\n      jumpi\n        /* \"#utility.yul\":2605:2684   */\n      tag_284\n      tag_222\n      jump\t// in\n    tag_284:\n        /* \"#utility.yul\":2567:2686   */\n    tag_283:\n        /* \"#utility.yul\":2725:2726   */\n      0x00\n        /* \"#utility.yul\":2750:2803   */\n      tag_285\n        /* \"#utility.yul\":2795:2802   */\n      dup7\n        /* \"#utility.yul\":2786:2792   */\n      dup3\n        /* \"#utility.yul\":2775:2784   */\n      dup8\n        /* \"#utility.yul\":2771:2793   */\n      add\n        /* \"#utility.yul\":2750:2803   */\n      tag_225\n      jump\t// in\n    tag_285:\n        /* \"#utility.yul\":2740:2803   */\n      swap4\n      pop\n        /* \"#utility.yul\":2696:2813   */\n      pop\n        /* \"#utility.yul\":2852:2854   */\n      0x20\n        /* \"#utility.yul\":2878:2931   */\n      tag_286\n        /* \"#utility.yul\":2923:2930   */\n      dup7\n        /* \"#utility.yul\":2914:2920   */\n      dup3\n        /* \"#utility.yul\":2903:2912   */\n      dup8\n        /* \"#utility.yul\":2899:2921   */\n      add\n        /* \"#utility.yul\":2878:2931   */\n      tag_228\n      jump\t// in\n    tag_286:\n        /* \"#utility.yul\":2868:2931   */\n      swap3\n      pop\n        /* \"#utility.yul\":2823:2941   */\n      pop\n        /* \"#utility.yul\":2980:2982   */\n      0x40\n        /* \"#utility.yul\":3006:3059   */\n      tag_287\n        /* \"#utility.yul\":3051:3058   */\n      dup7\n        /* \"#utility.yul\":3042:3048   */\n      dup3\n        /* \"#utility.yul\":3031:3040   */\n      dup8\n        /* \"#utility.yul\":3027:3049   */\n      add\n        /* \"#utility.yul\":3006:3059   */\n      tag_228\n      jump\t// in\n    tag_287:\n        /* \"#utility.yul\":2996:3059   */\n      swap2\n      pop\n        /* \"#utility.yul\":2951:3069   */\n      pop\n        /* \"#utility.yul\":2457:3076   */\n      swap3\n      pop\n      swap3\n      pop\n      swap3\n      jump\t// out\n        /* \"#utility.yul\":3082:3556   */\n    tag_52:\n        /* \"#utility.yul\":3150:3156   */\n      0x00\n        /* \"#utility.yul\":3158:3164   */\n      dup1\n        /* \"#utility.yul\":3207:3209   */\n      0x40\n        /* \"#utility.yul\":3195:3204   */\n      dup4\n        /* \"#utility.yul\":3186:3193   */\n      dup6\n        /* \"#utility.yul\":3182:3205   */\n      sub\n        /* \"#utility.yul\":3178:3210   */\n      slt\n        /* \"#utility.yul\":3175:3294   */\n      iszero\n      tag_289\n      jumpi\n        /* \"#utility.yul\":3213:3292   */\n      tag_290\n      tag_222\n      jump\t// in\n    tag_290:\n        /* \"#utility.yul\":3175:3294   */\n    tag_289:\n        /* \"#utility.yul\":3333:3334   */\n      0x00\n        /* \"#utility.yul\":3358:3411   */\n      tag_291\n        /* \"#utility.yul\":3403:3410   */\n      dup6\n        /* \"#utility.yul\":3394:3400   */\n      dup3\n        /* \"#utility.yul\":3383:3392   */\n      dup7\n        /* \"#utility.yul\":3379:3401   */\n      add\n        /* \"#utility.yul\":3358:3411   */\n      tag_225\n      jump\t// in\n    tag_291:\n        /* \"#utility.yul\":3348:3411   */\n      swap3\n      pop\n        /* \"#utility.yul\":3304:3421   */\n      pop\n        /* \"#utility.yul\":3460:3462   */\n      0x20\n        /* \"#utility.yul\":3486:3539   */\n      tag_292\n        /* \"#utility.yul\":3531:3538   */\n      dup6\n        /* \"#utility.yul\":3522:3528   */\n      dup3\n        /* \"#utility.yul\":3511:3520   */\n      dup7\n        /* \"#utility.yul\":3507:3529   */\n      add\n        /* \"#utility.yul\":3486:3539   */\n      tag_225\n      jump\t// in\n    tag_292:\n        /* \"#utility.yul\":3476:3539   */\n      swap2\n      pop\n        /* \"#utility.yul\":3431:3549   */\n      pop\n        /* \"#utility.yul\":3082:3556   */\n      swap3\n      pop\n      swap3\n      swap1\n      pop\n      jump\t// out\n        /* \"#utility.yul\":3562:3891   */\n    tag_65:\n        /* \"#utility.yul\":3621:3627   */\n      0x00\n        /* \"#utility.yul\":3670:3672   */\n      0x20\n        /* \"#utility.yul\":3658:3667   */\n      dup3\n        /* \"#utility.yul\":3649:3656   */\n      dup5\n        /* \"#utility.yul\":3645:3668   */\n      sub\n        /* \"#utility.yul\":3641:3673   */\n      slt\n        /* \"#utility.yul\":3638:3757   */\n      iszero\n      tag_294\n      jumpi\n        /* \"#utility.yul\":3676:3755   */\n      tag_295\n      tag_222\n      jump\t// in\n    tag_295:\n        /* \"#utility.yul\":3638:3757   */\n    tag_294:\n        /* \"#utility.yul\":3796:3797   */\n      0x00\n        /* \"#utility.yul\":3821:3874   */\n      tag_296\n        /* \"#utility.yul\":3866:3873   */\n      dup5\n        /* \"#utility.yul\":3857:3863   */\n      dup3\n        /* \"#utility.yul\":3846:3855   */\n      dup6\n        /* \"#utility.yul\":3842:3864   */\n      add\n        /* \"#utility.yul\":3821:3874   */\n      tag_228\n      jump\t// in\n    tag_296:\n        /* \"#utility.yul\":3811:3874   */\n      swap2\n      pop\n        /* \"#utility.yul\":3767:3884   */\n      pop\n        /* \"#utility.yul\":3562:3891   */\n      swap3\n      swap2\n      pop\n      pop\n      jump\t// out\n        /* \"#utility.yul\":3897:4015   */\n    tag_229:\n        /* \"#utility.yul\":3984:4008   */\n      tag_298\n        /* \"#utility.yul\":4002:4007   */\n      dup2\n        /* \"#utility.yul\":3984:4008   */\n      tag_226\n      jump\t// in\n    tag_298:\n        /* \"#utility.yul\":3979:3982   */\n      dup3\n        /* \"#utility.yul\":3972:4009   */\n      mstore\n        /* \"#utility.yul\":3897:4015   */\n      pop\n      pop\n      jump\t// out\n        /* \"#utility.yul\":4021:4243   */\n    tag_80:\n        /* \"#utility.yul\":4114:4118   */\n      0x00\n        /* \"#utility.yul\":4152:4154   */\n      0x20\n        /* \"#utility.yul\":4141:4150   */\n      dup3\n        /* \"#utility.yul\":4137:4155   */\n      add\n        /* \"#utility.yul\":4129:4155   */\n      swap1\n      pop\n        /* \"#utility.yul\":4165:4236   */\n      tag_300\n        /* \"#utility.yul\":4233:4234   */\n      0x00\n        /* \"#utility.yul\":4222:4231   */\n      dup4\n        /* \"#utility.yul\":4218:4235   */\n      add\n        /* \"#utility.yul\":4209:4215   */\n      dup5\n        /* \"#utility.yul\":4165:4236   */\n      tag_229\n      jump\t// in\n    tag_300:\n        /* \"#utility.yul\":4021:4243   */\n      swap3\n      swap2\n      pop\n      pop\n      jump\t// out\n        /* \"#utility.yul\":4249:4429   */\n    tag_230:\n        /* \"#utility.yul\":4297:4374   */\n      0x4e487b7100000000000000000000000000000000000000000000000000000000\n        /* \"#utility.yul\":4294:4295   */\n      0x00\n        /* \"#utility.yul\":4287:4375   */\n      mstore\n        /* \"#utility.yul\":4394:4398   */\n      0x11\n        /* \"#utility.yul\":4391:4392   */\n      0x04\n        /* \"#utility.yul\":4384:4399   */\n      mstore\n        /* \"#utility.yul\":4418:4422   */\n      0x24\n        /* \"#utility.yul\":4415:4416   */\n      0x00\n        /* \"#utility.yul\":4408:4423   */\n      revert\n        /* \"#utility.yul\":4435:4845   */\n    tag_87:\n        /* \"#utility.yul\":4475:4482   */\n      0x00\n        /* \"#utility.yul\":4498:4518   */\n      tag_303\n        /* \"#utility.yul\":4516:4517   */\n      dup3\n        /* \"#utility.yul\":4498:4518   */\n      tag_213\n      jump\t// in\n    tag_303:\n        /* \"#utility.yul\":4493:4518   */\n      swap2\n      pop\n        /* \"#utility.yul\":4532:4552   */\n      tag_304\n        /* \"#utility.yul\":4550:4551   */\n      dup4\n        /* \"#utility.yul\":4532:4552   */\n      tag_213\n      jump\t// in\n    tag_304:\n        /* \"#utility.yul\":4527:4552   */\n      swap3\n      pop\n        /* \"#utility.yul\":4587:4588   */\n      dup3\n        /* \"#utility.yul\":4584:4585   */\n      dup3\n        /* \"#utility.yul\":4580:4589   */\n      mul\n        /* \"#utility.yul\":4609:4639   */\n      tag_305\n        /* \"#utility.yul\":4627:4638   */\n      dup2\n        /* \"#utility.yul\":4609:4639   */\n      tag_213\n      jump\t// in\n    tag_305:\n        /* \"#utility.yul\":4598:4639   */\n      swap2\n      pop\n        /* \"#utility.yul\":4788:4789   */\n      dup3\n        /* \"#utility.yul\":4779:4786   */\n      dup3\n        /* \"#utility.yul\":4775:4790   */\n      div\n        /* \"#utility.yul\":4772:4773   */\n      dup5\n        /* \"#utility.yul\":4769:4791   */\n      eq\n        /* \"#utility.yul\":4749:4750   */\n      dup4\n        /* \"#utility.yul\":4742:4751   */\n      iszero\n        /* \"#utility.yul\":4722:4805   */\n      or\n        /* \"#utility.yul\":4699:4838   */\n      tag_306\n      jumpi\n        /* \"#utility.yul\":4818:4836   */\n      tag_307\n      tag_230\n      jump\t// in\n    tag_307:\n        /* \"#utility.yul\":4699:4838   */\n    tag_306:\n        /* \"#utility.yul\":4483:4845   */\n      pop\n        /* \"#utility.yul\":4435:4845   */\n      swap3\n      swap2\n      pop\n      pop\n      jump\t// out\n        /* \"#utility.yul\":4851:5042   */\n    tag_92:\n        /* \"#utility.yul\":4891:4894   */\n      0x00\n        /* \"#utility.yul\":4910:4930   */\n      tag_309\n        /* \"#utility.yul\":4928:4929   */\n      dup3\n        /* \"#utility.yul\":4910:4930   */\n      tag_213\n      jump\t// in\n    tag_309:\n        /* \"#utility.yul\":4905:4930   */\n      swap2\n      pop\n        /* \"#utility.yul\":4944:4964   */\n      tag_310\n        /* \"#utility.yul\":4962:4963   */\n      dup4\n        /* \"#utility.yul\":4944:4964   */\n      tag_213\n      jump\t// in\n    tag_310:\n        /* \"#utility.yul\":4939:4964   */\n      swap3\n      pop\n        /* \"#utility.yul\":4987:4988   */\n      dup3\n        /* \"#utility.yul\":4984:4985   */\n      dup3\n        /* \"#utility.yul\":4980:4989   */\n      add\n        /* \"#utility.yul\":4973:4989   */\n      swap1\n      pop\n        /* \"#utility.yul\":5008:5011   */\n      dup1\n        /* \"#utility.yul\":5005:5006   */\n      dup3\n        /* \"#utility.yul\":5002:5012   */\n      gt\n        /* \"#utility.yul\":4999:5035   */\n      iszero\n      tag_311\n      jumpi\n        /* \"#utility.yul\":5015:5033   */\n      tag_312\n      tag_230\n      jump\t// in\n    tag_312:\n        /* \"#utility.yul\":4999:5035   */\n    tag_311:\n        /* \"#utility.yul\":4851:5042   */\n      swap3\n      swap2\n      pop\n      pop\n      jump\t// out\n        /* \"#utility.yul\":5048:5228   */\n    tag_231:\n        /* \"#utility.yul\":5096:5173   */\n      0x4e487b7100000000000000000000000000000000000000000000000000000000\n        /* \"#utility.yul\":5093:5094   */\n      0x00\n        /* \"#utility.yul\":5086:5174   */\n      mstore\n        /* \"#utility.yul\":5193:5197   */\n      0x12\n        /* \"#utility.yul\":5190:5191   */\n      0x04\n        /* \"#utility.yul\":5183:5198   */\n      mstore\n        /* \"#utility.yul\":5217:5221   */\n      0x24\n        /* \"#utility.yul\":5214:5215   */\n      0x00\n        /* \"#utility.yul\":5207:5222   */\n      revert\n        /* \"#utility.yul\":5234:5419   */\n    tag_94:\n        /* \"#utility.yul\":5274:5275   */\n      0x00\n        /* \"#utility.yul\":5291:5311   */\n      tag_315\n        /* \"#utility.yul\":5309:5310   */\n      dup3\n        /* \"#utility.yul\":5291:5311   */\n      tag_213\n      jump\t// in\n    tag_315:\n        /* \"#utility.yul\":5286:5311   */\n      swap2\n      pop\n        /* \"#utility.yul\":5325:5345   */\n      tag_316\n        /* \"#utility.yul\":5343:5344   */\n      dup4\n        /* \"#utility.yul\":5325:5345   */\n      tag_213\n      jump\t// in\n    tag_316:\n        /* \"#utility.yul\":5320:5345   */\n      swap3\n      pop\n        /* \"#utility.yul\":5364:5365   */\n      dup3\n        /* \"#utility.yul\":5354:5389   */\n      tag_317\n      jumpi\n        /* \"#utility.yul\":5369:5387   */\n      tag_318\n      tag_231\n      jump\t// in\n    tag_318:\n        /* \"#utility.yul\":5354:5389   */\n    tag_317:\n        /* \"#utility.yul\":5411:5412   */\n      dup3\n        /* \"#utility.yul\":5408:5409   */\n      dup3\n        /* \"#utility.yul\":5404:5413   */\n      div\n        /* \"#utility.yul\":5399:5413   */\n      swap1\n      pop\n        /* \"#utility.yul\":5234:5419   */\n      swap3\n      swap2\n      pop\n      pop\n      jump\t// out\n        /* \"#utility.yul\":5425:5594   */\n    tag_232:\n        /* \"#utility.yul\":5509:5520   */\n      0x00\n        /* \"#utility.yul\":5543:5549   */\n      dup3\n        /* \"#utility.yul\":5538:5541   */\n      dup3\n        /* \"#utility.yul\":5531:5550   */\n      mstore\n        /* \"#utility.yul\":5583:5587   */\n      0x20\n        /* \"#utility.yul\":5578:5581   */\n      dup3\n        /* \"#utility.yul\":5574:5588   */\n      add\n        /* \"#utility.yul\":5559:5588   */\n      swap1\n      pop\n        /* \"#utility.yul\":5425:5594   */\n      swap3\n      swap2\n      pop\n      pop\n      jump\t// out\n        /* \"#utility.yul\":5600:5772   */\n    tag_233:\n        /* \"#utility.yul\":5740:5764   */\n      0x4e6f206c697175696469747920746f2072656d6f766500000000000000000000\n        /* \"#utility.yul\":5736:5737   */\n      0x00\n        /* \"#utility.yul\":5728:5734   */\n      dup3\n        /* \"#utility.yul\":5724:5738   */\n      add\n        /* \"#utility.yul\":5717:5765   */\n      mstore\n        /* \"#utility.yul\":5600:5772   */\n      pop\n      jump\t// out\n        /* \"#utility.yul\":5778:6144   */\n    tag_234:\n        /* \"#utility.yul\":5920:5923   */\n      0x00\n        /* \"#utility.yul\":5941:6008   */\n      tag_322\n        /* \"#utility.yul\":6005:6007   */\n      0x16\n        /* \"#utility.yul\":6000:6003   */\n      dup4\n        /* \"#utility.yul\":5941:6008   */\n      tag_232\n      jump\t// in\n    tag_322:\n        /* \"#utility.yul\":5934:6008   */\n      swap2\n      pop\n        /* \"#utility.yul\":6017:6110   */\n      tag_323\n        /* \"#utility.yul\":6106:6109   */\n      dup3\n        /* \"#utility.yul\":6017:6110   */\n      tag_233\n      jump\t// in\n    tag_323:\n        /* \"#utility.yul\":6135:6137   */\n      0x20\n        /* \"#utility.yul\":6130:6133   */\n      dup3\n        /* \"#utility.yul\":6126:6138   */\n      add\n        /* \"#utility.yul\":6119:6138   */\n      swap1\n      pop\n        /* \"#utility.yul\":5778:6144   */\n      swap2\n      swap1\n      pop\n      jump\t// out\n        /* \"#utility.yul\":6150:6569   */\n    tag_98:\n        /* \"#utility.yul\":6316:6320   */\n      0x00\n        /* \"#utility.yul\":6354:6356   */\n      0x20\n        /* \"#utility.yul\":6343:6352   */\n      dup3\n        /* \"#utility.yul\":6339:6357   */\n      add\n        /* \"#utility.yul\":6331:6357   */\n      swap1\n      pop\n        /* \"#utility.yul\":6403:6412   */\n      dup2\n        /* \"#utility.yul\":6397:6401   */\n      dup2\n        /* \"#utility.yul\":6393:6413   */\n      sub\n        /* \"#utility.yul\":6389:6390   */\n      0x00\n        /* \"#utility.yul\":6378:6387   */\n      dup4\n        /* \"#utility.yul\":6374:6391   */\n      add\n        /* \"#utility.yul\":6367:6414   */\n      mstore\n        /* \"#utility.yul\":6431:6562   */\n      tag_325\n        /* \"#utility.yul\":6557:6561   */\n      dup2\n        /* \"#utility.yul\":6431:6562   */\n      tag_234\n      jump\t// in\n    tag_325:\n        /* \"#utility.yul\":6423:6562   */\n      swap1\n      pop\n        /* \"#utility.yul\":6150:6569   */\n      swap2\n      swap1\n      pop\n      jump\t// out\n        /* \"#utility.yul\":6575:6769   */\n    tag_108:\n        /* \"#utility.yul\":6615:6619   */\n      0x00\n        /* \"#utility.yul\":6635:6655   */\n      tag_327\n        /* \"#utility.yul\":6653:6654   */\n      dup3\n        /* \"#utility.yul\":6635:6655   */\n      tag_213\n      jump\t// in\n    tag_327:\n        /* \"#utility.yul\":6630:6655   */\n      swap2\n      pop\n        /* \"#utility.yul\":6669:6689   */\n      tag_328\n        /* \"#utility.yul\":6687:6688   */\n      dup4\n        /* \"#utility.yul\":6669:6689   */\n      tag_213\n      jump\t// in\n    tag_328:\n        /* \"#utility.yul\":6664:6689   */\n      swap3\n      pop\n        /* \"#utility.yul\":6713:6714   */\n      dup3\n        /* \"#utility.yul\":6710:6711   */\n      dup3\n        /* \"#utility.yul\":6706:6715   */\n      sub\n        /* \"#utility.yul\":6698:6715   */\n      swap1\n      pop\n        /* \"#utility.yul\":6737:6738   */\n      dup2\n        /* \"#utility.yul\":6731:6735   */\n      dup2\n        /* \"#utility.yul\":6728:6739   */\n      gt\n        /* \"#utility.yul\":6725:6762   */\n      iszero\n      tag_329\n      jumpi\n        /* \"#utility.yul\":6742:6760   */\n      tag_330\n      tag_230\n      jump\t// in\n    tag_330:\n        /* \"#utility.yul\":6725:6762   */\n    tag_329:\n        /* \"#utility.yul\":6575:6769   */\n      swap3\n      swap2\n      pop\n      pop\n      jump\t// out\n        /* \"#utility.yul\":6775:7107   */\n    tag_112:\n        /* \"#utility.yul\":6896:6900   */\n      0x00\n        /* \"#utility.yul\":6934:6936   */\n      0x40\n        /* \"#utility.yul\":6923:6932   */\n      dup3\n        /* \"#utility.yul\":6919:6937   */\n      add\n        /* \"#utility.yul\":6911:6937   */\n      swap1\n      pop\n        /* \"#utility.yul\":6947:7018   */\n      tag_332\n        /* \"#utility.yul\":7015:7016   */\n      0x00\n        /* \"#utility.yul\":7004:7013   */\n      dup4\n        /* \"#utility.yul\":7000:7017   */\n      add\n        /* \"#utility.yul\":6991:6997   */\n      dup6\n        /* \"#utility.yul\":6947:7018   */\n      tag_229\n      jump\t// in\n    tag_332:\n        /* \"#utility.yul\":7028:7100   */\n      tag_333\n        /* \"#utility.yul\":7096:7098   */\n      0x20\n        /* \"#utility.yul\":7085:7094   */\n      dup4\n        /* \"#utility.yul\":7081:7099   */\n      add\n        /* \"#utility.yul\":7072:7078   */\n      dup5\n        /* \"#utility.yul\":7028:7100   */\n      tag_214\n      jump\t// in\n    tag_333:\n        /* \"#utility.yul\":6775:7107   */\n      swap4\n      swap3\n      pop\n      pop\n      pop\n      jump\t// out\n        /* \"#utility.yul\":7113:7203   */\n    tag_235:\n        /* \"#utility.yul\":7147:7154   */\n      0x00\n        /* \"#utility.yul\":7190:7195   */\n      dup2\n        /* \"#utility.yul\":7183:7196   */\n      iszero\n        /* \"#utility.yul\":7176:7197   */\n      iszero\n        /* \"#utility.yul\":7165:7197   */\n      swap1\n      pop\n        /* \"#utility.yul\":7113:7203   */\n      swap2\n      swap1\n      pop\n      jump\t// out\n        /* \"#utility.yul\":7209:7325   */\n    tag_236:\n        /* \"#utility.yul\":7279:7300   */\n      tag_336\n        /* \"#utility.yul\":7294:7299   */\n      dup2\n        /* \"#utility.yul\":7279:7300   */\n      tag_235\n      jump\t// in\n    tag_336:\n        /* \"#utility.yul\":7272:7277   */\n      dup2\n        /* \"#utility.yul\":7269:7301   */\n      eq\n        /* \"#utility.yul\":7259:7319   */\n      tag_337\n      jumpi\n        /* \"#utility.yul\":7315:7316   */\n      0x00\n        /* \"#utility.yul\":7312:7313   */\n      dup1\n        /* \"#utility.yul\":7305:7317   */\n      revert\n        /* \"#utility.yul\":7259:7319   */\n    tag_337:\n        /* \"#utility.yul\":7209:7325   */\n      pop\n      jump\t// out\n        /* \"#utility.yul\":7331:7468   */\n    tag_237:\n        /* \"#utility.yul\":7385:7390   */\n      0x00\n        /* \"#utility.yul\":7416:7422   */\n      dup2\n        /* \"#utility.yul\":7410:7423   */\n      mload\n        /* \"#utility.yul\":7401:7423   */\n      swap1\n      pop\n        /* \"#utility.yul\":7432:7462   */\n      tag_339\n        /* \"#utility.yul\":7456:7461   */\n      dup2\n        /* \"#utility.yul\":7432:7462   */\n      tag_236\n      jump\t// in\n    tag_339:\n        /* \"#utility.yul\":7331:7468   */\n      swap3\n      swap2\n      pop\n      pop\n      jump\t// out\n        /* \"#utility.yul\":7474:7819   */\n    tag_116:\n        /* \"#utility.yul\":7541:7547   */\n      0x00\n        /* \"#utility.yul\":7590:7592   */\n      0x20\n        /* \"#utility.yul\":7578:7587   */\n      dup3\n        /* \"#utility.yul\":7569:7576   */\n      dup5\n        /* \"#utility.yul\":7565:7588   */\n      sub\n        /* \"#utility.yul\":7561:7593   */\n      slt\n        /* \"#utility.yul\":7558:7677   */\n      iszero\n      tag_341\n      jumpi\n        /* \"#utility.yul\":7596:7675   */\n      tag_342\n      tag_222\n      jump\t// in\n    tag_342:\n        /* \"#utility.yul\":7558:7677   */\n    tag_341:\n        /* \"#utility.yul\":7716:7717   */\n      0x00\n        /* \"#utility.yul\":7741:7802   */\n      tag_343\n        /* \"#utility.yul\":7794:7801   */\n      dup5\n        /* \"#utility.yul\":7785:7791   */\n      dup3\n        /* \"#utility.yul\":7774:7783   */\n      dup6\n        /* \"#utility.yul\":7770:7792   */\n      add\n        /* \"#utility.yul\":7741:7802   */\n      tag_237\n      jump\t// in\n    tag_343:\n        /* \"#utility.yul\":7731:7802   */\n      swap2\n      pop\n        /* \"#utility.yul\":7687:7812   */\n      pop\n        /* \"#utility.yul\":7474:7819   */\n      swap3\n      swap2\n      pop\n      pop\n      jump\t// out\n        /* \"#utility.yul\":7825:8378   */\n    tag_126:\n        /* \"#utility.yul\":8002:8006   */\n      0x00\n        /* \"#utility.yul\":8040:8043   */\n      0x80\n        /* \"#utility.yul\":8029:8038   */\n      dup3\n        /* \"#utility.yul\":8025:8044   */\n      add\n        /* \"#utility.yul\":8017:8044   */\n      swap1\n      pop\n        /* \"#utility.yul\":8054:8125   */\n      tag_345\n        /* \"#utility.yul\":8122:8123   */\n      0x00\n        /* \"#utility.yul\":8111:8120   */\n      dup4\n        /* \"#utility.yul\":8107:8124   */\n      add\n        /* \"#utility.yul\":8098:8104   */\n      dup8\n        /* \"#utility.yul\":8054:8125   */\n      tag_229\n      jump\t// in\n    tag_345:\n        /* \"#utility.yul\":8135:8207   */\n      tag_346\n        /* \"#utility.yul\":8203:8205   */\n      0x20\n        /* \"#utility.yul\":8192:8201   */\n      dup4\n        /* \"#utility.yul\":8188:8206   */\n      add\n        /* \"#utility.yul\":8179:8185   */\n      dup7\n        /* \"#utility.yul\":8135:8207   */\n      tag_214\n      jump\t// in\n    tag_346:\n        /* \"#utility.yul\":8217:8289   */\n      tag_347\n        /* \"#utility.yul\":8285:8287   */\n      0x40\n        /* \"#utility.yul\":8274:8283   */\n      dup4\n        /* \"#utility.yul\":8270:8288   */\n      add\n        /* \"#utility.yul\":8261:8267   */\n      dup6\n        /* \"#utility.yul\":8217:8289   */\n      tag_214\n      jump\t// in\n    tag_347:\n        /* \"#utility.yul\":8299:8371   */\n      tag_348\n        /* \"#utility.yul\":8367:8369   */\n      0x60\n        /* \"#utility.yul\":8356:8365   */\n      dup4\n        /* \"#utility.yul\":8352:8370   */\n      add\n        /* \"#utility.yul\":8343:8349   */\n      dup5\n        /* \"#utility.yul\":8299:8371   */\n      tag_214\n      jump\t// in\n    tag_348:\n        /* \"#utility.yul\":7825:8378   */\n      swap6\n      swap5\n      pop\n      pop\n      pop\n      pop\n      pop\n      jump\t// out\n        /* \"#utility.yul\":8384:8607   */\n    tag_238:\n        /* \"#utility.yul\":8524:8558   */\n      0x416d6f756e74732073686f756c642062652067726561746572207468616e207a\n        /* \"#utility.yul\":8520:8521   */\n      0x00\n        /* \"#utility.yul\":8512:8518   */\n      dup3\n        /* \"#utility.yul\":8508:8522   */\n      add\n        /* \"#utility.yul\":8501:8559   */\n      mstore\n        /* \"#utility.yul\":8593:8599   */\n      0x65726f2e00000000000000000000000000000000000000000000000000000000\n        /* \"#utility.yul\":8588:8590   */\n      0x20\n        /* \"#utility.yul\":8580:8586   */\n      dup3\n        /* \"#utility.yul\":8576:8591   */\n      add\n        /* \"#utility.yul\":8569:8600   */\n      mstore\n        /* \"#utility.yul\":8384:8607   */\n      pop\n      jump\t// out\n        /* \"#utility.yul\":8613:8979   */\n    tag_239:\n        /* \"#utility.yul\":8755:8758   */\n      0x00\n        /* \"#utility.yul\":8776:8843   */\n      tag_351\n        /* \"#utility.yul\":8840:8842   */\n      0x24\n        /* \"#utility.yul\":8835:8838   */\n      dup4\n        /* \"#utility.yul\":8776:8843   */\n      tag_232\n      jump\t// in\n    tag_351:\n        /* \"#utility.yul\":8769:8843   */\n      swap2\n      pop\n        /* \"#utility.yul\":8852:8945   */\n      tag_352\n        /* \"#utility.yul\":8941:8944   */\n      dup3\n        /* \"#utility.yul\":8852:8945   */\n      tag_238\n      jump\t// in\n    tag_352:\n        /* \"#utility.yul\":8970:8972   */\n      0x40\n        /* \"#utility.yul\":8965:8968   */\n      dup3\n        /* \"#utility.yul\":8961:8973   */\n      add\n        /* \"#utility.yul\":8954:8973   */\n      swap1\n      pop\n        /* \"#utility.yul\":8613:8979   */\n      swap2\n      swap1\n      pop\n      jump\t// out\n        /* \"#utility.yul\":8985:9404   */\n    tag_131:\n        /* \"#utility.yul\":9151:9155   */\n      0x00\n        /* \"#utility.yul\":9189:9191   */\n      0x20\n        /* \"#utility.yul\":9178:9187   */\n      dup3\n        /* \"#utility.yul\":9174:9192   */\n      add\n        /* \"#utility.yul\":9166:9192   */\n      swap1\n      pop\n        /* \"#utility.yul\":9238:9247   */\n      dup2\n        /* \"#utility.yul\":9232:9236   */\n      dup2\n        /* \"#utility.yul\":9228:9248   */\n      sub\n        /* \"#utility.yul\":9224:9225   */\n      0x00\n        /* \"#utility.yul\":9213:9222   */\n      dup4\n        /* \"#utility.yul\":9209:9226   */\n      add\n        /* \"#utility.yul\":9202:9249   */\n      mstore\n        /* \"#utility.yul\":9266:9397   */\n      tag_354\n        /* \"#utility.yul\":9392:9396   */\n      dup2\n        /* \"#utility.yul\":9266:9397   */\n      tag_239\n      jump\t// in\n    tag_354:\n        /* \"#utility.yul\":9258:9397   */\n      swap1\n      pop\n        /* \"#utility.yul\":8985:9404   */\n      swap2\n      swap1\n      pop\n      jump\t// out\n        /* \"#utility.yul\":9410:9553   */\n    tag_240:\n        /* \"#utility.yul\":9467:9472   */\n      0x00\n        /* \"#utility.yul\":9498:9504   */\n      dup2\n        /* \"#utility.yul\":9492:9505   */\n      mload\n        /* \"#utility.yul\":9483:9505   */\n      swap1\n      pop\n        /* \"#utility.yul\":9514:9547   */\n      tag_356\n        /* \"#utility.yul\":9541:9546   */\n      dup2\n        /* \"#utility.yul\":9514:9547   */\n      tag_224\n      jump\t// in\n    tag_356:\n        /* \"#utility.yul\":9410:9553   */\n      swap3\n      swap2\n      pop\n      pop\n      jump\t// out\n        /* \"#utility.yul\":9559:9910   */\n    tag_136:\n        /* \"#utility.yul\":9629:9635   */\n      0x00\n        /* \"#utility.yul\":9678:9680   */\n      0x20\n        /* \"#utility.yul\":9666:9675   */\n      dup3\n        /* \"#utility.yul\":9657:9664   */\n      dup5\n        /* \"#utility.yul\":9653:9676   */\n      sub\n        /* \"#utility.yul\":9649:9681   */\n      slt\n        /* \"#utility.yul\":9646:9765   */\n      iszero\n      tag_358\n      jumpi\n        /* \"#utility.yul\":9684:9763   */\n      tag_359\n      tag_222\n      jump\t// in\n    tag_359:\n        /* \"#utility.yul\":9646:9765   */\n    tag_358:\n        /* \"#utility.yul\":9804:9805   */\n      0x00\n        /* \"#utility.yul\":9829:9893   */\n      tag_360\n        /* \"#utility.yul\":9885:9892   */\n      dup5\n        /* \"#utility.yul\":9876:9882   */\n      dup3\n        /* \"#utility.yul\":9865:9874   */\n      dup6\n        /* \"#utility.yul\":9861:9883   */\n      add\n        /* \"#utility.yul\":9829:9893   */\n      tag_240\n      jump\t// in\n    tag_360:\n        /* \"#utility.yul\":9819:9893   */\n      swap2\n      pop\n        /* \"#utility.yul\":9775:9903   */\n      pop\n        /* \"#utility.yul\":9559:9910   */\n      swap3\n      swap2\n      pop\n      pop\n      jump\t// out\n        /* \"#utility.yul\":9916:10090   */\n    tag_241:\n        /* \"#utility.yul\":10056:10082   */\n      0x496e73756666696369656e74205344542062616c616e63650000000000000000\n        /* \"#utility.yul\":10052:10053   */\n      0x00\n        /* \"#utility.yul\":10044:10050   */\n      dup3\n        /* \"#utility.yul\":10040:10054   */\n      add\n        /* \"#utility.yul\":10033:10083   */\n      mstore\n        /* \"#utility.yul\":9916:10090   */\n      pop\n      jump\t// out\n        /* \"#utility.yul\":10096:10462   */\n    tag_242:\n        /* \"#utility.yul\":10238:10241   */\n      0x00\n        /* \"#utility.yul\":10259:10326   */\n      tag_363\n        /* \"#utility.yul\":10323:10325   */\n      0x18\n        /* \"#utility.yul\":10318:10321   */\n      dup4\n        /* \"#utility.yul\":10259:10326   */\n      tag_232\n      jump\t// in\n    tag_363:\n        /* \"#utility.yul\":10252:10326   */\n      swap2\n      pop\n        /* \"#utility.yul\":10335:10428   */\n      tag_364\n        /* \"#utility.yul\":10424:10427   */\n      dup3\n        /* \"#utility.yul\":10335:10428   */\n      tag_241\n      jump\t// in\n    tag_364:\n        /* \"#utility.yul\":10453:10455   */\n      0x20\n        /* \"#utility.yul\":10448:10451   */\n      dup3\n        /* \"#utility.yul\":10444:10456   */\n      add\n        /* \"#utility.yul\":10437:10456   */\n      swap1\n      pop\n        /* \"#utility.yul\":10096:10462   */\n      swap2\n      swap1\n      pop\n      jump\t// out\n        /* \"#utility.yul\":10468:10887   */\n    tag_139:\n        /* \"#utility.yul\":10634:10638   */\n      0x00\n        /* \"#utility.yul\":10672:10674   */\n      0x20\n        /* \"#utility.yul\":10661:10670   */\n      dup3\n        /* \"#utility.yul\":10657:10675   */\n      add\n        /* \"#utility.yul\":10649:10675   */\n      swap1\n      pop\n        /* \"#utility.yul\":10721:10730   */\n      dup2\n        /* \"#utility.yul\":10715:10719   */\n      dup2\n        /* \"#utility.yul\":10711:10731   */\n      sub\n        /* \"#utility.yul\":10707:10708   */\n      0x00\n        /* \"#utility.yul\":10696:10705   */\n      dup4\n        /* \"#utility.yul\":10692:10709   */\n      add\n        /* \"#utility.yul\":10685:10732   */\n      mstore\n        /* \"#utility.yul\":10749:10880   */\n      tag_366\n        /* \"#utility.yul\":10875:10879   */\n      dup2\n        /* \"#utility.yul\":10749:10880   */\n      tag_242\n      jump\t// in\n    tag_366:\n        /* \"#utility.yul\":10741:10880   */\n      swap1\n      pop\n        /* \"#utility.yul\":10468:10887   */\n      swap2\n      swap1\n      pop\n      jump\t// out\n        /* \"#utility.yul\":10893:11067   */\n    tag_243:\n        /* \"#utility.yul\":11033:11059   */\n      0x496e73756666696369656e7420534b542062616c616e63650000000000000000\n        /* \"#utility.yul\":11029:11030   */\n      0x00\n        /* \"#utility.yul\":11021:11027   */\n      dup3\n        /* \"#utility.yul\":11017:11031   */\n      add\n        /* \"#utility.yul\":11010:11060   */\n      mstore\n        /* \"#utility.yul\":10893:11067   */\n      pop\n      jump\t// out\n        /* \"#utility.yul\":11073:11439   */\n    tag_244:\n        /* \"#utility.yul\":11215:11218   */\n      0x00\n        /* \"#utility.yul\":11236:11303   */\n      tag_369\n        /* \"#utility.yul\":11300:11302   */\n      0x18\n        /* \"#utility.yul\":11295:11298   */\n      dup4\n        /* \"#utility.yul\":11236:11303   */\n      tag_232\n      jump\t// in\n    tag_369:\n        /* \"#utility.yul\":11229:11303   */\n      swap2\n      pop\n        /* \"#utility.yul\":11312:11405   */\n      tag_370\n        /* \"#utility.yul\":11401:11404   */\n      dup3\n        /* \"#utility.yul\":11312:11405   */\n      tag_243\n      jump\t// in\n    tag_370:\n        /* \"#utility.yul\":11430:11432   */\n      0x20\n        /* \"#utility.yul\":11425:11428   */\n      dup3\n        /* \"#utility.yul\":11421:11433   */\n      add\n        /* \"#utility.yul\":11414:11433   */\n      swap1\n      pop\n        /* \"#utility.yul\":11073:11439   */\n      swap2\n      swap1\n      pop\n      jump\t// out\n        /* \"#utility.yul\":11445:11864   */\n    tag_146:\n        /* \"#utility.yul\":11611:11615   */\n      0x00\n        /* \"#utility.yul\":11649:11651   */\n      0x20\n        /* \"#utility.yul\":11638:11647   */\n      dup3\n        /* \"#utility.yul\":11634:11652   */\n      add\n        /* \"#utility.yul\":11626:11652   */\n      swap1\n      pop\n        /* \"#utility.yul\":11698:11707   */\n      dup2\n        /* \"#utility.yul\":11692:11696   */\n      dup2\n        /* \"#utility.yul\":11688:11708   */\n      sub\n        /* \"#utility.yul\":11684:11685   */\n      0x00\n        /* \"#utility.yul\":11673:11682   */\n      dup4\n        /* \"#utility.yul\":11669:11686   */\n      add\n        /* \"#utility.yul\":11662:11709   */\n      mstore\n        /* \"#utility.yul\":11726:11857   */\n      tag_372\n        /* \"#utility.yul\":11852:11856   */\n      dup2\n        /* \"#utility.yul\":11726:11857   */\n      tag_244\n      jump\t// in\n    tag_372:\n        /* \"#utility.yul\":11718:11857   */\n      swap1\n      pop\n        /* \"#utility.yul\":11445:11864   */\n      swap2\n      swap1\n      pop\n      jump\t// out\n        /* \"#utility.yul\":11870:12312   */\n    tag_153:\n        /* \"#utility.yul\":12019:12023   */\n      0x00\n        /* \"#utility.yul\":12057:12059   */\n      0x60\n        /* \"#utility.yul\":12046:12055   */\n      dup3\n        /* \"#utility.yul\":12042:12060   */\n      add\n        /* \"#utility.yul\":12034:12060   */\n      swap1\n      pop\n        /* \"#utility.yul\":12070:12141   */\n      tag_374\n        /* \"#utility.yul\":12138:12139   */\n      0x00\n        /* \"#utility.yul\":12127:12136   */\n      dup4\n        /* \"#utility.yul\":12123:12140   */\n      add\n        /* \"#utility.yul\":12114:12120   */\n      dup7\n        /* \"#utility.yul\":12070:12141   */\n      tag_229\n      jump\t// in\n    tag_374:\n        /* \"#utility.yul\":12151:12223   */\n      tag_375\n        /* \"#utility.yul\":12219:12221   */\n      0x20\n        /* \"#utility.yul\":12208:12217   */\n      dup4\n        /* \"#utility.yul\":12204:12222   */\n      add\n        /* \"#utility.yul\":12195:12201   */\n      dup6\n        /* \"#utility.yul\":12151:12223   */\n      tag_229\n      jump\t// in\n    tag_375:\n        /* \"#utility.yul\":12233:12305   */\n      tag_376\n        /* \"#utility.yul\":12301:12303   */\n      0x40\n        /* \"#utility.yul\":12290:12299   */\n      dup4\n        /* \"#utility.yul\":12286:12304   */\n      add\n        /* \"#utility.yul\":12277:12283   */\n      dup5\n        /* \"#utility.yul\":12233:12305   */\n      tag_214\n      jump\t// in\n    tag_376:\n        /* \"#utility.yul\":11870:12312   */\n      swap5\n      swap4\n      pop\n      pop\n      pop\n      pop\n      jump\t// out\n        /* \"#utility.yul\":12318:12497   */\n    tag_245:\n        /* \"#utility.yul\":12458:12489   */\n      0x416d6f756e74206d7573742062652067726561746572207468616e2030000000\n        /* \"#utility.yul\":12454:12455   */\n      0x00\n        /* \"#utility.yul\":12446:12452   */\n      dup3\n        /* \"#utility.yul\":12442:12456   */\n      add\n        /* \"#utility.yul\":12435:12490   */\n      mstore\n        /* \"#utility.yul\":12318:12497   */\n      pop\n      jump\t// out\n        /* \"#utility.yul\":12503:12869   */\n    tag_246:\n        /* \"#utility.yul\":12645:12648   */\n      0x00\n        /* \"#utility.yul\":12666:12733   */\n      tag_379\n        /* \"#utility.yul\":12730:12732   */\n      0x1d\n        /* \"#utility.yul\":12725:12728   */\n      dup4\n        /* \"#utility.yul\":12666:12733   */\n      tag_232\n      jump\t// in\n    tag_379:\n        /* \"#utility.yul\":12659:12733   */\n      swap2\n      pop\n        /* \"#utility.yul\":12742:12835   */\n      tag_380\n        /* \"#utility.yul\":12831:12834   */\n      dup3\n        /* \"#utility.yul\":12742:12835   */\n      tag_245\n      jump\t// in\n    tag_380:\n        /* \"#utility.yul\":12860:12862   */\n      0x20\n        /* \"#utility.yul\":12855:12858   */\n      dup3\n        /* \"#utility.yul\":12851:12863   */\n      add\n        /* \"#utility.yul\":12844:12863   */\n      swap1\n      pop\n        /* \"#utility.yul\":12503:12869   */\n      swap2\n      swap1\n      pop\n      jump\t// out\n        /* \"#utility.yul\":12875:13294   */\n    tag_167:\n        /* \"#utility.yul\":13041:13045   */\n      0x00\n        /* \"#utility.yul\":13079:13081   */\n      0x20\n        /* \"#utility.yul\":13068:13077   */\n      dup3\n        /* \"#utility.yul\":13064:13082   */\n      add\n        /* \"#utility.yul\":13056:13082   */\n      swap1\n      pop\n        /* \"#utility.yul\":13128:13137   */\n      dup2\n        /* \"#utility.yul\":13122:13126   */\n      dup2\n        /* \"#utility.yul\":13118:13138   */\n      sub\n        /* \"#utility.yul\":13114:13115   */\n      0x00\n        /* \"#utility.yul\":13103:13112   */\n      dup4\n        /* \"#utility.yul\":13099:13116   */\n      add\n        /* \"#utility.yul\":13092:13139   */\n      mstore\n        /* \"#utility.yul\":13156:13287   */\n      tag_382\n        /* \"#utility.yul\":13282:13286   */\n      dup2\n        /* \"#utility.yul\":13156:13287   */\n      tag_246\n      jump\t// in\n    tag_382:\n        /* \"#utility.yul\":13148:13287   */\n      swap1\n      pop\n        /* \"#utility.yul\":12875:13294   */\n      swap2\n      swap1\n      pop\n      jump\t// out\n        /* \"#utility.yul\":13300:13964   */\n    tag_212:\n        /* \"#utility.yul\":13505:13509   */\n      0x00\n        /* \"#utility.yul\":13543:13546   */\n      0xa0\n        /* \"#utility.yul\":13532:13541   */\n      dup3\n        /* \"#utility.yul\":13528:13547   */\n      add\n        /* \"#utility.yul\":13520:13547   */\n      swap1\n      pop\n        /* \"#utility.yul\":13557:13628   */\n      tag_384\n        /* \"#utility.yul\":13625:13626   */\n      0x00\n        /* \"#utility.yul\":13614:13623   */\n      dup4\n        /* \"#utility.yul\":13610:13627   */\n      add\n        /* \"#utility.yul\":13601:13607   */\n      dup9\n        /* \"#utility.yul\":13557:13628   */\n      tag_229\n      jump\t// in\n    tag_384:\n        /* \"#utility.yul\":13638:13710   */\n      tag_385\n        /* \"#utility.yul\":13706:13708   */\n      0x20\n        /* \"#utility.yul\":13695:13704   */\n      dup4\n        /* \"#utility.yul\":13691:13709   */\n      add\n        /* \"#utility.yul\":13682:13688   */\n      dup8\n        /* \"#utility.yul\":13638:13710   */\n      tag_229\n      jump\t// in\n    tag_385:\n        /* \"#utility.yul\":13720:13792   */\n      tag_386\n        /* \"#utility.yul\":13788:13790   */\n      0x40\n        /* \"#utility.yul\":13777:13786   */\n      dup4\n        /* \"#utility.yul\":13773:13791   */\n      add\n        /* \"#utility.yul\":13764:13770   */\n      dup7\n        /* \"#utility.yul\":13720:13792   */\n      tag_229\n      jump\t// in\n    tag_386:\n        /* \"#utility.yul\":13802:13874   */\n      tag_387\n        /* \"#utility.yul\":13870:13872   */\n      0x60\n        /* \"#utility.yul\":13859:13868   */\n      dup4\n        /* \"#utility.yul\":13855:13873   */\n      add\n        /* \"#utility.yul\":13846:13852   */\n      dup6\n        /* \"#utility.yul\":13802:13874   */\n      tag_214\n      jump\t// in\n    tag_387:\n        /* \"#utility.yul\":13884:13957   */\n      tag_388\n        /* \"#utility.yul\":13952:13955   */\n      0x80\n        /* \"#utility.yul\":13941:13950   */\n      dup4\n        /* \"#utility.yul\":13937:13956   */\n      add\n        /* \"#utility.yul\":13928:13934   */\n      dup5\n        /* \"#utility.yul\":13884:13957   */\n      tag_214\n      jump\t// in\n    tag_388:\n        /* \"#utility.yul\":13300:13964   */\n      swap7\n      swap6\n      pop\n      pop\n      pop\n      pop\n      pop\n      pop\n      jump\t// out\n\n    auxdata: 0xa26469706673582212206fca2374170e5bd60509caf73a9440ed3fd686c8497fd68ca762f8812df2b2e664736f6c63430008160033\n}\n",
				"bytecode": {
					"linkReferences": {},
					"object": "60806040525f6002555f60035534801562000018575f80fd5b5060405162001c0738038062001c0783398181016040528101906200003e91906200016a565b815f806101000a81548173ffffffffffffffffffffffffffffffffffffffff021916908373ffffffffffffffffffffffffffffffffffffffff1602179055508060015f6101000a81548173ffffffffffffffffffffffffffffffffffffffff021916908373ffffffffffffffffffffffffffffffffffffffff1602179055503360065f6101000a81548173ffffffffffffffffffffffffffffffffffffffff021916908373ffffffffffffffffffffffffffffffffffffffff1602179055505050620001af565b5f80fd5b5f73ffffffffffffffffffffffffffffffffffffffff82169050919050565b5f620001348262000109565b9050919050565b620001468162000128565b811462000151575f80fd5b50565b5f8151905062000164816200013b565b92915050565b5f806040838503121562000183576200018262000105565b5b5f620001928582860162000154565b9250506020620001a58582860162000154565b9150509250929050565b611a4a80620001bd5f395ff3fe6080604052600436106100dc575f3560e01c80639cd441da1161007e578063c5c056e011610058578063c5c056e014610274578063cccbc740146102b0578063f70d1d98146102da578063f851a44014610302576100dc565b80639cd441da14610204578063a4520f5c14610220578063c57981b51461024a576100dc565b8063578a8812116100ba578063578a88121461015e57806358261cf81461018857806367b9a286146101c45780636d3a1137146101da576100dc565b806315770f92146100e0578063474e8cd61461010a5780634cae843414610134575b5f80fd5b3480156100eb575f80fd5b506100f461032c565b6040516101019190611320565b60405180910390f35b348015610115575f80fd5b5061011e610332565b60405161012b91906113b3565b60405180910390f35b34801561013f575f80fd5b50610148610357565b6040516101559190611320565b60405180910390f35b348015610169575f80fd5b5061017261035d565b60405161017f9190611320565b60405180910390f35b348015610193575f80fd5b506101ae60048036038101906101a99190611435565b610363565b6040516101bb9190611320565b60405180910390f35b3480156101cf575f80fd5b506101d8610485565b005b3480156101e5575f80fd5b506101ee6107ce565b6040516101fb9190611320565b60405180910390f35b61021e60048036038101906102199190611485565b6107d4565b005b34801561022b575f80fd5b50610234610c17565b60405161024191906113b3565b60405180910390f35b348015610255575f80fd5b5061025e610c3a565b60405161026b9190611320565b60405180910390f35b34801561027f575f80fd5b5061029a600480360381019061029591906114c3565b610c3f565b6040516102a79190611320565b60405180910390f35b3480156102bb575f80fd5b506102c4610c54565b6040516102d19190611320565b60405180910390f35b3480156102e5575f80fd5b5061030060048036038101906102fb9190611435565b610c5a565b005b34801561030d575f80fd5b506103166112e3565b60405161032391906114fd565b60405180910390f35b60075481565b60015f9054906101000a900473ffffffffffffffffffffffffffffffffffffffff1681565b60055481565b60045481565b5f805f8054906101000a900473ffffffffffffffffffffffffffffffffffffffff1673ffffffffffffffffffffffffffffffffffffffff168473ffffffffffffffffffffffffffffffffffffffff16146103bf576003546103c3565b6002545b90505f805f9054906101000a900473ffffffffffffffffffffffffffffffffffffffff1673ffffffffffffffffffffffffffffffffffffffff168473ffffffffffffffffffffffffffffffffffffffff161461042157600354610425565b6002545b90505f6103e587836104379190611543565b6104419190611543565b90505f6103e5886104529190611543565b6103e8856104609190611543565b61046a9190611584565b9050808261047891906115e4565b9450505050509392505050565b5f60085f3373ffffffffffffffffffffffffffffffffffffffff1673ffffffffffffffffffffffffffffffffffffffff1681526020019081526020015f205490505f6007541161050a576040517f08c379a00000000000000000000000000000000000000000000000000000000081526004016105019061166e565b60405180910390fd5b5f6007548260025461051c9190611543565b61052691906115e4565b90505f6007548360035461053a9190611543565b61054491906115e4565b90505f600754846004546105589190611543565b61056291906115e4565b90505f600754856005546105769190611543565b61058091906115e4565b90508160045f828254610593919061168c565b925050819055508060055f8282546105ab919061168c565b925050819055505f8054906101000a900473ffffffffffffffffffffffffffffffffffffffff1673ffffffffffffffffffffffffffffffffffffffff1663a9059cbb3384876105fa9190611584565b6040518363ffffffff1660e01b81526004016106179291906116bf565b6020604051808303815f875af1158015610633573d5f803e3d5ffd5b505050506040513d601f19601f82011682018060405250810190610657919061171b565b5060015f9054906101000a900473ffffffffffffffffffffffffffffffffffffffff1673ffffffffffffffffffffffffffffffffffffffff1663a9059cbb3383866106a29190611584565b6040518363ffffffff1660e01b81526004016106bf9291906116bf565b6020604051808303815f875af11580156106db573d5f803e3d5ffd5b505050506040513d601f19601f820116820180604052508101906106ff919061171b565b508360025f828254610711919061168c565b925050819055508260035f828254610729919061168c565b925050819055508460075f828254610741919061168c565b925050819055505f60085f3373ffffffffffffffffffffffffffffffffffffffff1673ffffffffffffffffffffffffffffffffffffffff1681526020019081526020015f20819055507f1dc8bb69df2b8e91fbdcbfcf93d951b3f0000f085a95fe3f7946d6161439245d338585886040516107bf9493929190611746565b60405180910390a15050505050565b60025481565b5f821180156107e257505f81115b610821576040517f08c379a0000000000000000000000000000000000000000000000000000000008152600401610818906117f9565b60405180910390fd5b815f8054906101000a900473ffffffffffffffffffffffffffffffffffffffff1673ffffffffffffffffffffffffffffffffffffffff166370a08231336040518263ffffffff1660e01b815260040161087a91906114fd565b602060405180830381865afa158015610895573d5f803e3d5ffd5b505050506040513d601f19601f820116820180604052508101906108b9919061182b565b10156108fa576040517f08c379a00000000000000000000000000000000000000000000000000000000081526004016108f1906118a0565b60405180910390fd5b8060015f9054906101000a900473ffffffffffffffffffffffffffffffffffffffff1673ffffffffffffffffffffffffffffffffffffffff166370a08231336040518263ffffffff1660e01b815260040161095591906114fd565b602060405180830381865afa158015610970573d5f803e3d5ffd5b505050506040513d601f19601f82011682018060405250810190610994919061182b565b10156109d5576040517f08c379a00000000000000000000000000000000000000000000000000000000081526004016109cc90611908565b60405180910390fd5b5f80600754036109fd578260028190555081600381905550670de0b6b3a76400009050610a2e565b600254600754670de0b6b3a764000085610a179190611543565b610a219190611543565b610a2b91906115e4565b90505b5f8054906101000a900473ffffffffffffffffffffffffffffffffffffffff1673ffffffffffffffffffffffffffffffffffffffff166323b872dd3330866040518463ffffffff1660e01b8152600401610a8a93929190611926565b6020604051808303815f875af1158015610aa6573d5f803e3d5ffd5b505050506040513d601f19601f82011682018060405250810190610aca919061171b565b5060015f9054906101000a900473ffffffffffffffffffffffffffffffffffffffff1673ffffffffffffffffffffffffffffffffffffffff166323b872dd3330856040518463ffffffff1660e01b8152600401610b2993929190611926565b6020604051808303815f875af1158015610b45573d5f803e3d5ffd5b505050506040513d601f19601f82011682018060405250810190610b69919061171b565b508060085f3373ffffffffffffffffffffffffffffffffffffffff1673ffffffffffffffffffffffffffffffffffffffff1681526020019081526020015f205f828254610bb69190611584565b925050819055508060075f828254610bce9190611584565b925050819055507f64b83944e79c3ce8d4c297411de637c3e102d064677aac0c163976ebdcd6f50e33848484604051610c0a9493929190611746565b60405180910390a1505050565b5f8054906101000a900473ffffffffffffffffffffffffffffffffffffffff1681565b600381565b6008602052805f5260405f205f915090505481565b60035481565b5f8311610c9c576040517f08c379a0000000000000000000000000000000000000000000000000000000008152600401610c93906119a5565b60405180910390fd5b5f610ca8848484610363565b90505f8054906101000a900473ffffffffffffffffffffffffffffffffffffffff1673ffffffffffffffffffffffffffffffffffffffff168373ffffffffffffffffffffffffffffffffffffffff1603610db6578360025f828254610d0d9190611584565b925050819055505f8054906101000a900473ffffffffffffffffffffffffffffffffffffffff1673ffffffffffffffffffffffffffffffffffffffff166323b872dd3330876040518463ffffffff1660e01b8152600401610d7093929190611926565b6020604051808303815f875af1158015610d8c573d5f803e3d5ffd5b505050506040513d601f19601f82011682018060405250810190610db0919061171b565b50610e6e565b8360035f828254610dc79190611584565b9250508190555060015f9054906101000a900473ffffffffffffffffffffffffffffffffffffffff1673ffffffffffffffffffffffffffffffffffffffff166323b872dd3330876040518463ffffffff1660e01b8152600401610e2c93929190611926565b6020604051808303815f875af1158015610e48573d5f803e3d5ffd5b505050506040513d601f19601f82011682018060405250810190610e6c919061171b565b505b5f8054906101000a900473ffffffffffffffffffffffffffffffffffffffff1673ffffffffffffffffffffffffffffffffffffffff168273ffffffffffffffffffffffffffffffffffffffff1603610f78575f8054906101000a900473ffffffffffffffffffffffffffffffffffffffff1673ffffffffffffffffffffffffffffffffffffffff1663a9059cbb33836040518363ffffffff1660e01b8152600401610f1a9291906116bf565b6020604051808303815f875af1158015610f36573d5f803e3d5ffd5b505050506040513d601f19601f82011682018060405250810190610f5a919061171b565b508060025f828254610f6c919061168c565b9250508190555061102e565b60015f9054906101000a900473ffffffffffffffffffffffffffffffffffffffff1673ffffffffffffffffffffffffffffffffffffffff1663a9059cbb33836040518363ffffffff1660e01b8152600401610fd49291906116bf565b6020604051808303815f875af1158015610ff0573d5f803e3d5ffd5b505050506040513d601f19601f82011682018060405250810190611014919061171b565b508060035f828254611026919061168c565b925050819055505b5f606460038661103e9190611543565b61104891906115e4565b90505f60028261105891906115e4565b90505f8183611067919061168c565b90505f8054906101000a900473ffffffffffffffffffffffffffffffffffffffff1673ffffffffffffffffffffffffffffffffffffffff168673ffffffffffffffffffffffffffffffffffffffff16036111ac578260025f8282546110cc919061168c565b925050819055505f8054906101000a900473ffffffffffffffffffffffffffffffffffffffff1673ffffffffffffffffffffffffffffffffffffffff1663a9059cbb60065f9054906101000a900473ffffffffffffffffffffffffffffffffffffffff16846040518363ffffffff1660e01b815260040161114e9291906116bf565b6020604051808303815f875af115801561116a573d5f803e3d5ffd5b505050506040513d601f19601f8201168201806040525081019061118e919061171b565b508060045f8282546111a09190611584565b9250508190555061129b565b8260035f8282546111bd919061168c565b9250508190555060015f9054906101000a900473ffffffffffffffffffffffffffffffffffffffff1673ffffffffffffffffffffffffffffffffffffffff1663a9059cbb60065f9054906101000a900473ffffffffffffffffffffffffffffffffffffffff16846040518363ffffffff1660e01b81526004016112419291906116bf565b6020604051808303815f875af115801561125d573d5f803e3d5ffd5b505050506040513d601f19601f82011682018060405250810190611281919061171b565b508060055f8282546112939190611584565b925050819055505b7fad56699d0f375866eb895ed27203058a36a713382aaded78eb6b67da266d43323387878a886040516112d29594939291906119c3565b60405180910390a150505050505050565b60065f9054906101000a900473ffffffffffffffffffffffffffffffffffffffff1681565b5f819050919050565b61131a81611308565b82525050565b5f6020820190506113335f830184611311565b92915050565b5f73ffffffffffffffffffffffffffffffffffffffff82169050919050565b5f819050919050565b5f61137b61137661137184611339565b611358565b611339565b9050919050565b5f61138c82611361565b9050919050565b5f61139d82611382565b9050919050565b6113ad81611393565b82525050565b5f6020820190506113c65f8301846113a4565b92915050565b5f80fd5b6113d981611308565b81146113e3575f80fd5b50565b5f813590506113f4816113d0565b92915050565b5f61140482611339565b9050919050565b611414816113fa565b811461141e575f80fd5b50565b5f8135905061142f8161140b565b92915050565b5f805f6060848603121561144c5761144b6113cc565b5b5f611459868287016113e6565b935050602061146a86828701611421565b925050604061147b86828701611421565b9150509250925092565b5f806040838503121561149b5761149a6113cc565b5b5f6114a8858286016113e6565b92505060206114b9858286016113e6565b9150509250929050565b5f602082840312156114d8576114d76113cc565b5b5f6114e584828501611421565b91505092915050565b6114f7816113fa565b82525050565b5f6020820190506115105f8301846114ee565b92915050565b7f4e487b71000000000000000000000000000000000000000000000000000000005f52601160045260245ffd5b5f61154d82611308565b915061155883611308565b925082820261156681611308565b9150828204841483151761157d5761157c611516565b5b5092915050565b5f61158e82611308565b915061159983611308565b92508282019050808211156115b1576115b0611516565b5b92915050565b7f4e487b71000000000000000000000000000000000000000000000000000000005f52601260045260245ffd5b5f6115ee82611308565b91506115f983611308565b925082611609576116086115b7565b5b828204905092915050565b5f82825260208201905092915050565b7f4e6f206c697175696469747920746f2072656d6f7665000000000000000000005f82015250565b5f611658601683611614565b915061166382611624565b602082019050919050565b5f6020820190508181035f8301526116858161164c565b9050919050565b5f61169682611308565b91506116a183611308565b92508282039050818111156116b9576116b8611516565b5b92915050565b5f6040820190506116d25f8301856114ee565b6116df6020830184611311565b9392505050565b5f8115159050919050565b6116fa816116e6565b8114611704575f80fd5b50565b5f81519050611715816116f1565b92915050565b5f602082840312156117305761172f6113cc565b5b5f61173d84828501611707565b91505092915050565b5f6080820190506117595f8301876114ee565b6117666020830186611311565b6117736040830185611311565b6117806060830184611311565b95945050505050565b7f416d6f756e74732073686f756c642062652067726561746572207468616e207a5f8201527f65726f2e00000000000000000000000000000000000000000000000000000000602082015250565b5f6117e3602483611614565b91506117ee82611789565b604082019050919050565b5f6020820190508181035f830152611810816117d7565b9050919050565b5f81519050611825816113d0565b92915050565b5f602082840312156118405761183f6113cc565b5b5f61184d84828501611817565b91505092915050565b7f496e73756666696369656e74205344542062616c616e636500000000000000005f82015250565b5f61188a601883611614565b915061189582611856565b602082019050919050565b5f6020820190508181035f8301526118b78161187e565b9050919050565b7f496e73756666696369656e7420534b542062616c616e636500000000000000005f82015250565b5f6118f2601883611614565b91506118fd826118be565b602082019050919050565b5f6020820190508181035f83015261191f816118e6565b9050919050565b5f6060820190506119395f8301866114ee565b61194660208301856114ee565b6119536040830184611311565b949350505050565b7f416d6f756e74206d7573742062652067726561746572207468616e20300000005f82015250565b5f61198f601d83611614565b915061199a8261195b565b602082019050919050565b5f6020820190508181035f8301526119bc81611983565b9050919050565b5f60a0820190506119d65f8301886114ee565b6119e360208301876114ee565b6119f060408301866114ee565b6119fd6060830185611311565b611a0a6080830184611311565b969550505050505056fea26469706673582212206fca2374170e5bd60509caf73a9440ed3fd686c8497fd68ca762f8812df2b2e664736f6c63430008160033",
					"opcodes": "PUSH1 0x80 PUSH1 0x40 MSTORE PUSH0 PUSH1 0x2 SSTORE PUSH0 PUSH1 0x3 SSTORE CALLVALUE DUP1 ISZERO PUSH3 0x18 JUMPI PUSH0 DUP1 REVERT JUMPDEST POP PUSH1 0x40 MLOAD PUSH3 0x1C07 CODESIZE SUB DUP1 PUSH3 0x1C07 DUP4 CODECOPY DUP2 DUP2 ADD PUSH1 0x40 MSTORE DUP2 ADD SWAP1 PUSH3 0x3E SWAP2 SWAP1 PUSH3 0x16A JUMP JUMPDEST DUP2 PUSH0 DUP1 PUSH2 0x100 EXP DUP2 SLOAD DUP2 PUSH20 0xFFFFFFFFFFFFFFFFFFFFFFFFFFFFFFFFFFFFFFFF MUL NOT AND SWAP1 DUP4 PUSH20 0xFFFFFFFFFFFFFFFFFFFFFFFFFFFFFFFFFFFFFFFF AND MUL OR SWAP1 SSTORE POP DUP1 PUSH1 0x1 PUSH0 PUSH2 0x100 EXP DUP2 SLOAD DUP2 PUSH20 0xFFFFFFFFFFFFFFFFFFFFFFFFFFFFFFFFFFFFFFFF MUL NOT AND SWAP1 DUP4 PUSH20 0xFFFFFFFFFFFFFFFFFFFFFFFFFFFFFFFFFFFFFFFF AND MUL OR SWAP1 SSTORE POP CALLER PUSH1 0x6 PUSH0 PUSH2 0x100 EXP DUP2 SLOAD DUP2 PUSH20 0xFFFFFFFFFFFFFFFFFFFFFFFFFFFFFFFFFFFFFFFF MUL NOT AND SWAP1 DUP4 PUSH20 0xFFFFFFFFFFFFFFFFFFFFFFFFFFFFFFFFFFFFFFFF AND MUL OR SWAP1 SSTORE POP POP POP PUSH3 0x1AF JUMP JUMPDEST PUSH0 DUP1 REVERT JUMPDEST PUSH0 PUSH20 0xFFFFFFFFFFFFFFFFFFFFFFFFFFFFFFFFFFFFFFFF DUP3 AND SWAP1 POP SWAP2 SWAP1 POP JUMP JUMPDEST PUSH0 PUSH3 0x134 DUP3 PUSH3 0x109 JUMP JUMPDEST SWAP1 POP SWAP2 SWAP1 POP JUMP JUMPDEST PUSH3 0x146 DUP2 PUSH3 0x128 JUMP JUMPDEST DUP2 EQ PUSH3 0x151 JUMPI PUSH0 DUP1 REVERT JUMPDEST POP JUMP JUMPDEST PUSH0 DUP2 MLOAD SWAP1 POP PUSH3 0x164 DUP2 PUSH3 0x13B JUMP JUMPDEST SWAP3 SWAP2 POP POP JUMP JUMPDEST PUSH0 DUP1 PUSH1 0x40 DUP4 DUP6 SUB SLT ISZERO PUSH3 0x183 JUMPI PUSH3 0x182 PUSH3 0x105 JUMP JUMPDEST JUMPDEST PUSH0 PUSH3 0x192 DUP6 DUP3 DUP7 ADD PUSH3 0x154 JUMP JUMPDEST SWAP3 POP POP PUSH1 0x20 PUSH3 0x1A5 DUP6 DUP3 DUP7 ADD PUSH3 0x154 JUMP JUMPDEST SWAP2 POP POP SWAP3 POP SWAP3 SWAP1 POP JUMP JUMPDEST PUSH2 0x1A4A DUP1 PUSH3 0x1BD PUSH0 CODECOPY PUSH0 RETURN INVALID PUSH1 0x80 PUSH1 0x40 MSTORE PUSH1 0x4 CALLDATASIZE LT PUSH2 0xDC JUMPI PUSH0 CALLDATALOAD PUSH1 0xE0 SHR DUP1 PUSH4 0x9CD441DA GT PUSH2 0x7E JUMPI DUP1 PUSH4 0xC5C056E0 GT PUSH2 0x58 JUMPI DUP1 PUSH4 0xC5C056E0 EQ PUSH2 0x274 JUMPI DUP1 PUSH4 0xCCCBC740 EQ PUSH2 0x2B0 JUMPI DUP1 PUSH4 0xF70D1D98 EQ PUSH2 0x2DA JUMPI DUP1 PUSH4 0xF851A440 EQ PUSH2 0x302 JUMPI PUSH2 0xDC JUMP JUMPDEST DUP1 PUSH4 0x9CD441DA EQ PUSH2 0x204 JUMPI DUP1 PUSH4 0xA4520F5C EQ PUSH2 0x220 JUMPI DUP1 PUSH4 0xC57981B5 EQ PUSH2 0x24A JUMPI PUSH2 0xDC JUMP JUMPDEST DUP1 PUSH4 0x578A8812 GT PUSH2 0xBA JUMPI DUP1 PUSH4 0x578A8812 EQ PUSH2 0x15E JUMPI DUP1 PUSH4 0x58261CF8 EQ PUSH2 0x188 JUMPI DUP1 PUSH4 0x67B9A286 EQ PUSH2 0x1C4 JUMPI DUP1 PUSH4 0x6D3A1137 EQ PUSH2 0x1DA JUMPI PUSH2 0xDC JUMP JUMPDEST DUP1 PUSH4 0x15770F92 EQ PUSH2 0xE0 JUMPI DUP1 PUSH4 0x474E8CD6 EQ PUSH2 0x10A JUMPI DUP1 PUSH4 0x4CAE8434 EQ PUSH2 0x134 JUMPI JUMPDEST PUSH0 DUP1 REVERT JUMPDEST CALLVALUE DUP1 ISZERO PUSH2 0xEB JUMPI PUSH0 DUP1 REVERT JUMPDEST POP PUSH2 0xF4 PUSH2 0x32C JUMP JUMPDEST PUSH1 0x40 MLOAD PUSH2 0x101 SWAP2 SWAP1 PUSH2 0x1320 JUMP JUMPDEST PUSH1 0x40 MLOAD DUP1 SWAP2 SUB SWAP1 RETURN JUMPDEST CALLVALUE DUP1 ISZERO PUSH2 0x115 JUMPI PUSH0 DUP1 REVERT JUMPDEST POP PUSH2 0x11E PUSH2 0x332 JUMP JUMPDEST PUSH1 0x40 MLOAD PUSH2 0x12B SWAP2 SWAP1 PUSH2 0x13B3 JUMP JUMPDEST PUSH1 0x40 MLOAD DUP1 SWAP2 SUB SWAP1 RETURN JUMPDEST CALLVALUE DUP1 ISZERO PUSH2 0x13F JUMPI PUSH0 DUP1 REVERT JUMPDEST POP PUSH2 0x148 PUSH2 0x357 JUMP JUMPDEST PUSH1 0x40 MLOAD PUSH2 0x155 SWAP2 SWAP1 PUSH2 0x1320 JUMP JUMPDEST PUSH1 0x40 MLOAD DUP1 SWAP2 SUB SWAP1 RETURN JUMPDEST CALLVALUE DUP1 ISZERO PUSH2 0x169 JUMPI PUSH0 DUP1 REVERT JUMPDEST POP PUSH2 0x172 PUSH2 0x35D JUMP JUMPDEST PUSH1 0x40 MLOAD PUSH2 0x17F SWAP2 SWAP1 PUSH2 0x1320 JUMP JUMPDEST PUSH1 0x40 MLOAD DUP1 SWAP2 SUB SWAP1 RETURN JUMPDEST CALLVALUE DUP1 ISZERO PUSH2 0x193 JUMPI PUSH0 DUP1 REVERT JUMPDEST POP PUSH2 0x1AE PUSH1 0x4 DUP1 CALLDATASIZE SUB DUP2 ADD SWAP1 PUSH2 0x1A9 SWAP2 SWAP1 PUSH2 0x1435 JUMP JUMPDEST PUSH2 0x363 JUMP JUMPDEST PUSH1 0x40 MLOAD PUSH2 0x1BB SWAP2 SWAP1 PUSH2 0x1320 JUMP JUMPDEST PUSH1 0x40 MLOAD DUP1 SWAP2 SUB SWAP1 RETURN JUMPDEST CALLVALUE DUP1 ISZERO PUSH2 0x1CF JUMPI PUSH0 DUP1 REVERT JUMPDEST POP PUSH2 0x1D8 PUSH2 0x485 JUMP JUMPDEST STOP JUMPDEST CALLVALUE DUP1 ISZERO PUSH2 0x1E5 JUMPI PUSH0 DUP1 REVERT JUMPDEST POP PUSH2 0x1EE PUSH2 0x7CE JUMP JUMPDEST PUSH1 0x40 MLOAD PUSH2 0x1FB SWAP2 SWAP1 PUSH2 0x1320 JUMP JUMPDEST PUSH1 0x40 MLOAD DUP1 SWAP2 SUB SWAP1 RETURN JUMPDEST PUSH2 0x21E PUSH1 0x4 DUP1 CALLDATASIZE SUB DUP2 ADD SWAP1 PUSH2 0x219 SWAP2 SWAP1 PUSH2 0x1485 JUMP JUMPDEST PUSH2 0x7D4 JUMP JUMPDEST STOP JUMPDEST CALLVALUE DUP1 ISZERO PUSH2 0x22B JUMPI PUSH0 DUP1 REVERT JUMPDEST POP PUSH2 0x234 PUSH2 0xC17 JUMP JUMPDEST PUSH1 0x40 MLOAD PUSH2 0x241 SWAP2 SWAP1 PUSH2 0x13B3 JUMP JUMPDEST PUSH1 0x40 MLOAD DUP1 SWAP2 SUB SWAP1 RETURN JUMPDEST CALLVALUE DUP1 ISZERO PUSH2 0x255 JUMPI PUSH0 DUP1 REVERT JUMPDEST POP PUSH2 0x25E PUSH2 0xC3A JUMP JUMPDEST PUSH1 0x40 MLOAD PUSH2 0x26B SWAP2 SWAP1 PUSH2 0x1320 JUMP JUMPDEST PUSH1 0x40 MLOAD DUP1 SWAP2 SUB SWAP1 RETURN JUMPDEST CALLVALUE DUP1 ISZERO PUSH2 0x27F JUMPI PUSH0 DUP1 REVERT JUMPDEST POP PUSH2 0x29A PUSH1 0x4 DUP1 CALLDATASIZE SUB DUP2 ADD SWAP1 PUSH2 0x295 SWAP2 SWAP1 PUSH2 0x14C3 JUMP JUMPDEST PUSH2 0xC3F JUMP JUMPDEST PUSH1 0x40 MLOAD PUSH2 0x2A7 SWAP2 SWAP1 PUSH2 0x1320 JUMP JUMPDEST PUSH1 0x40 MLOAD DUP1 SWAP2 SUB SWAP1 RETURN JUMPDEST CALLVALUE DUP1 ISZERO PUSH2 0x2BB JUMPI PUSH0 DUP1 REVERT JUMPDEST POP PUSH2 0x2C4 PUSH2 0xC54 JUMP JUMPDEST PUSH1 0x40 MLOAD PUSH2 0x2D1 SWAP2 SWAP1 PUSH2 0x1320 JUMP JUMPDEST PUSH1 0x40 MLOAD DUP1 SWAP2 SUB SWAP1 RETURN JUMPDEST CALLVALUE DUP1 ISZERO PUSH2 0x2E5 JUMPI PUSH0 DUP1 REVERT JUMPDEST POP PUSH2 0x300 PUSH1 0x4 DUP1 CALLDATASIZE SUB DUP2 ADD SWAP1 PUSH2 0x2FB SWAP2 SWAP1 PUSH2 0x1435 JUMP JUMPDEST PUSH2 0xC5A JUMP JUMPDEST STOP JUMPDEST CALLVALUE DUP1 ISZERO PUSH2 0x30D JUMPI PUSH0 DUP1 REVERT JUMPDEST POP PUSH2 0x316 PUSH2 0x12E3 JUMP JUMPDEST PUSH1 0x40 MLOAD PUSH2 0x323 SWAP2 SWAP1 PUSH2 0x14FD JUMP JUMPDEST PUSH1 0x40 MLOAD DUP1 SWAP2 SUB SWAP1 RETURN JUMPDEST PUSH1 0x7 SLOAD DUP2 JUMP JUMPDEST PUSH1 0x1 PUSH0 SWAP1 SLOAD SWAP1 PUSH2 0x100 EXP SWAP1 DIV PUSH20 0xFFFFFFFFFFFFFFFFFFFFFFFFFFFFFFFFFFFFFFFF AND DUP2 JUMP JUMPDEST PUSH1 0x5 SLOAD DUP2 JUMP JUMPDEST PUSH1 0x4 SLOAD DUP2 JUMP JUMPDEST PUSH0 DUP1 PUSH0 DUP1 SLOAD SWAP1 PUSH2 0x100 EXP SWAP1 DIV PUSH20 0xFFFFFFFFFFFFFFFFFFFFFFFFFFFFFFFFFFFFFFFF AND PUSH20 0xFFFFFFFFFFFFFFFFFFFFFFFFFFFFFFFFFFFFFFFF AND DUP5 PUSH20 0xFFFFFFFFFFFFFFFFFFFFFFFFFFFFFFFFFFFFFFFF AND EQ PUSH2 0x3BF JUMPI PUSH1 0x3 SLOAD PUSH2 0x3C3 JUMP JUMPDEST PUSH1 0x2 SLOAD JUMPDEST SWAP1 POP PUSH0 DUP1 PUSH0 SWAP1 SLOAD SWAP1 PUSH2 0x100 EXP SWAP1 DIV PUSH20 0xFFFFFFFFFFFFFFFFFFFFFFFFFFFFFFFFFFFFFFFF AND PUSH20 0xFFFFFFFFFFFFFFFFFFFFFFFFFFFFFFFFFFFFFFFF AND DUP5 PUSH20 0xFFFFFFFFFFFFFFFFFFFFFFFFFFFFFFFFFFFFFFFF AND EQ PUSH2 0x421 JUMPI PUSH1 0x3 SLOAD PUSH2 0x425 JUMP JUMPDEST PUSH1 0x2 SLOAD JUMPDEST SWAP1 POP PUSH0 PUSH2 0x3E5 DUP8 DUP4 PUSH2 0x437 SWAP2 SWAP1 PUSH2 0x1543 JUMP JUMPDEST PUSH2 0x441 SWAP2 SWAP1 PUSH2 0x1543 JUMP JUMPDEST SWAP1 POP PUSH0 PUSH2 0x3E5 DUP9 PUSH2 0x452 SWAP2 SWAP1 PUSH2 0x1543 JUMP JUMPDEST PUSH2 0x3E8 DUP6 PUSH2 0x460 SWAP2 SWAP1 PUSH2 0x1543 JUMP JUMPDEST PUSH2 0x46A SWAP2 SWAP1 PUSH2 0x1584 JUMP JUMPDEST SWAP1 POP DUP1 DUP3 PUSH2 0x478 SWAP2 SWAP1 PUSH2 0x15E4 JUMP JUMPDEST SWAP5 POP POP POP POP POP SWAP4 SWAP3 POP POP POP JUMP JUMPDEST PUSH0 PUSH1 0x8 PUSH0 CALLER PUSH20 0xFFFFFFFFFFFFFFFFFFFFFFFFFFFFFFFFFFFFFFFF AND PUSH20 0xFFFFFFFFFFFFFFFFFFFFFFFFFFFFFFFFFFFFFFFF AND DUP2 MSTORE PUSH1 0x20 ADD SWAP1 DUP2 MSTORE PUSH1 0x20 ADD PUSH0 KECCAK256 SLOAD SWAP1 POP PUSH0 PUSH1 0x7 SLOAD GT PUSH2 0x50A JUMPI PUSH1 0x40 MLOAD PUSH32 0x8C379A000000000000000000000000000000000000000000000000000000000 DUP2 MSTORE PUSH1 0x4 ADD PUSH2 0x501 SWAP1 PUSH2 0x166E JUMP JUMPDEST PUSH1 0x40 MLOAD DUP1 SWAP2 SUB SWAP1 REVERT JUMPDEST PUSH0 PUSH1 0x7 SLOAD DUP3 PUSH1 0x2 SLOAD PUSH2 0x51C SWAP2 SWAP1 PUSH2 0x1543 JUMP JUMPDEST PUSH2 0x526 SWAP2 SWAP1 PUSH2 0x15E4 JUMP JUMPDEST SWAP1 POP PUSH0 PUSH1 0x7 SLOAD DUP4 PUSH1 0x3 SLOAD PUSH2 0x53A SWAP2 SWAP1 PUSH2 0x1543 JUMP JUMPDEST PUSH2 0x544 SWAP2 SWAP1 PUSH2 0x15E4 JUMP JUMPDEST SWAP1 POP PUSH0 PUSH1 0x7 SLOAD DUP5 PUSH1 0x4 SLOAD PUSH2 0x558 SWAP2 SWAP1 PUSH2 0x1543 JUMP JUMPDEST PUSH2 0x562 SWAP2 SWAP1 PUSH2 0x15E4 JUMP JUMPDEST SWAP1 POP PUSH0 PUSH1 0x7 SLOAD DUP6 PUSH1 0x5 SLOAD PUSH2 0x576 SWAP2 SWAP1 PUSH2 0x1543 JUMP JUMPDEST PUSH2 0x580 SWAP2 SWAP1 PUSH2 0x15E4 JUMP JUMPDEST SWAP1 POP DUP2 PUSH1 0x4 PUSH0 DUP3 DUP3 SLOAD PUSH2 0x593 SWAP2 SWAP1 PUSH2 0x168C JUMP JUMPDEST SWAP3 POP POP DUP2 SWAP1 SSTORE POP DUP1 PUSH1 0x5 PUSH0 DUP3 DUP3 SLOAD PUSH2 0x5AB SWAP2 SWAP1 PUSH2 0x168C JUMP JUMPDEST SWAP3 POP POP DUP2 SWAP1 SSTORE POP PUSH0 DUP1 SLOAD SWAP1 PUSH2 0x100 EXP SWAP1 DIV PUSH20 0xFFFFFFFFFFFFFFFFFFFFFFFFFFFFFFFFFFFFFFFF AND PUSH20 0xFFFFFFFFFFFFFFFFFFFFFFFFFFFFFFFFFFFFFFFF AND PUSH4 0xA9059CBB CALLER DUP5 DUP8 PUSH2 0x5FA SWAP2 SWAP1 PUSH2 0x1584 JUMP JUMPDEST PUSH1 0x40 MLOAD DUP4 PUSH4 0xFFFFFFFF AND PUSH1 0xE0 SHL DUP2 MSTORE PUSH1 0x4 ADD PUSH2 0x617 SWAP3 SWAP2 SWAP1 PUSH2 0x16BF JUMP JUMPDEST PUSH1 0x20 PUSH1 0x40 MLOAD DUP1 DUP4 SUB DUP2 PUSH0 DUP8 GAS CALL ISZERO DUP1 ISZERO PUSH2 0x633 JUMPI RETURNDATASIZE PUSH0 DUP1 RETURNDATACOPY RETURNDATASIZE PUSH0 REVERT JUMPDEST POP POP POP POP PUSH1 0x40 MLOAD RETURNDATASIZE PUSH1 0x1F NOT PUSH1 0x1F DUP3 ADD AND DUP3 ADD DUP1 PUSH1 0x40 MSTORE POP DUP2 ADD SWAP1 PUSH2 0x657 SWAP2 SWAP1 PUSH2 0x171B JUMP JUMPDEST POP PUSH1 0x1 PUSH0 SWAP1 SLOAD SWAP1 PUSH2 0x100 EXP SWAP1 DIV PUSH20 0xFFFFFFFFFFFFFFFFFFFFFFFFFFFFFFFFFFFFFFFF AND PUSH20 0xFFFFFFFFFFFFFFFFFFFFFFFFFFFFFFFFFFFFFFFF AND PUSH4 0xA9059CBB CALLER DUP4 DUP7 PUSH2 0x6A2 SWAP2 SWAP1 PUSH2 0x1584 JUMP JUMPDEST PUSH1 0x40 MLOAD DUP4 PUSH4 0xFFFFFFFF AND PUSH1 0xE0 SHL DUP2 MSTORE PUSH1 0x4 ADD PUSH2 0x6BF SWAP3 SWAP2 SWAP1 PUSH2 0x16BF JUMP JUMPDEST PUSH1 0x20 PUSH1 0x40 MLOAD DUP1 DUP4 SUB DUP2 PUSH0 DUP8 GAS CALL ISZERO DUP1 ISZERO PUSH2 0x6DB JUMPI RETURNDATASIZE PUSH0 DUP1 RETURNDATACOPY RETURNDATASIZE PUSH0 REVERT JUMPDEST POP POP POP POP PUSH1 0x40 MLOAD RETURNDATASIZE PUSH1 0x1F NOT PUSH1 0x1F DUP3 ADD AND DUP3 ADD DUP1 PUSH1 0x40 MSTORE POP DUP2 ADD SWAP1 PUSH2 0x6FF SWAP2 SWAP1 PUSH2 0x171B JUMP JUMPDEST POP DUP4 PUSH1 0x2 PUSH0 DUP3 DUP3 SLOAD PUSH2 0x711 SWAP2 SWAP1 PUSH2 0x168C JUMP JUMPDEST SWAP3 POP POP DUP2 SWAP1 SSTORE POP DUP3 PUSH1 0x3 PUSH0 DUP3 DUP3 SLOAD PUSH2 0x729 SWAP2 SWAP1 PUSH2 0x168C JUMP JUMPDEST SWAP3 POP POP DUP2 SWAP1 SSTORE POP DUP5 PUSH1 0x7 PUSH0 DUP3 DUP3 SLOAD PUSH2 0x741 SWAP2 SWAP1 PUSH2 0x168C JUMP JUMPDEST SWAP3 POP POP DUP2 SWAP1 SSTORE POP PUSH0 PUSH1 0x8 PUSH0 CALLER PUSH20 0xFFFFFFFFFFFFFFFFFFFFFFFFFFFFFFFFFFFFFFFF AND PUSH20 0xFFFFFFFFFFFFFFFFFFFFFFFFFFFFFFFFFFFFFFFF AND DUP2 MSTORE PUSH1 0x20 ADD SWAP1 DUP2 MSTORE PUSH1 0x20 ADD PUSH0 KECCAK256 DUP2 SWAP1 SSTORE POP PUSH32 0x1DC8BB69DF2B8E91FBDCBFCF93D951B3F0000F085A95FE3F7946D6161439245D CALLER DUP6 DUP6 DUP9 PUSH1 0x40 MLOAD PUSH2 0x7BF SWAP5 SWAP4 SWAP3 SWAP2 SWAP1 PUSH2 0x1746 JUMP JUMPDEST PUSH1 0x40 MLOAD DUP1 SWAP2 SUB SWAP1 LOG1 POP POP POP POP POP JUMP JUMPDEST PUSH1 0x2 SLOAD DUP2 JUMP JUMPDEST PUSH0 DUP3 GT DUP1 ISZERO PUSH2 0x7E2 JUMPI POP PUSH0 DUP2 GT JUMPDEST PUSH2 0x821 JUMPI PUSH1 0x40 MLOAD PUSH32 0x8C379A000000000000000000000000000000000000000000000000000000000 DUP2 MSTORE PUSH1 0x4 ADD PUSH2 0x818 SWAP1 PUSH2 0x17F9 JUMP JUMPDEST PUSH1 0x40 MLOAD DUP1 SWAP2 SUB SWAP1 REVERT JUMPDEST DUP2 PUSH0 DUP1 SLOAD SWAP1 PUSH2 0x100 EXP SWAP1 DIV PUSH20 0xFFFFFFFFFFFFFFFFFFFFFFFFFFFFFFFFFFFFFFFF AND PUSH20 0xFFFFFFFFFFFFFFFFFFFFFFFFFFFFFFFFFFFFFFFF AND PUSH4 0x70A08231 CALLER PUSH1 0x40 MLOAD DUP3 PUSH4 0xFFFFFFFF AND PUSH1 0xE0 SHL DUP2 MSTORE PUSH1 0x4 ADD PUSH2 0x87A SWAP2 SWAP1 PUSH2 0x14FD JUMP JUMPDEST PUSH1 0x20 PUSH1 0x40 MLOAD DUP1 DUP4 SUB DUP2 DUP7 GAS STATICCALL ISZERO DUP1 ISZERO PUSH2 0x895 JUMPI RETURNDATASIZE PUSH0 DUP1 RETURNDATACOPY RETURNDATASIZE PUSH0 REVERT JUMPDEST POP POP POP POP PUSH1 0x40 MLOAD RETURNDATASIZE PUSH1 0x1F NOT PUSH1 0x1F DUP3 ADD AND DUP3 ADD DUP1 PUSH1 0x40 MSTORE POP DUP2 ADD SWAP1 PUSH2 0x8B9 SWAP2 SWAP1 PUSH2 0x182B JUMP JUMPDEST LT ISZERO PUSH2 0x8FA JUMPI PUSH1 0x40 MLOAD PUSH32 0x8C379A000000000000000000000000000000000000000000000000000000000 DUP2 MSTORE PUSH1 0x4 ADD PUSH2 0x8F1 SWAP1 PUSH2 0x18A0 JUMP JUMPDEST PUSH1 0x40 MLOAD DUP1 SWAP2 SUB SWAP1 REVERT JUMPDEST DUP1 PUSH1 0x1 PUSH0 SWAP1 SLOAD SWAP1 PUSH2 0x100 EXP SWAP1 DIV PUSH20 0xFFFFFFFFFFFFFFFFFFFFFFFFFFFFFFFFFFFFFFFF AND PUSH20 0xFFFFFFFFFFFFFFFFFFFFFFFFFFFFFFFFFFFFFFFF AND PUSH4 0x70A08231 CALLER PUSH1 0x40 MLOAD DUP3 PUSH4 0xFFFFFFFF AND PUSH1 0xE0 SHL DUP2 MSTORE PUSH1 0x4 ADD PUSH2 0x955 SWAP2 SWAP1 PUSH2 0x14FD JUMP JUMPDEST PUSH1 0x20 PUSH1 0x40 MLOAD DUP1 DUP4 SUB DUP2 DUP7 GAS STATICCALL ISZERO DUP1 ISZERO PUSH2 0x970 JUMPI RETURNDATASIZE PUSH0 DUP1 RETURNDATACOPY RETURNDATASIZE PUSH0 REVERT JUMPDEST POP POP POP POP PUSH1 0x40 MLOAD RETURNDATASIZE PUSH1 0x1F NOT PUSH1 0x1F DUP3 ADD AND DUP3 ADD DUP1 PUSH1 0x40 MSTORE POP DUP2 ADD SWAP1 PUSH2 0x994 SWAP2 SWAP1 PUSH2 0x182B JUMP JUMPDEST LT ISZERO PUSH2 0x9D5 JUMPI PUSH1 0x40 MLOAD PUSH32 0x8C379A000000000000000000000000000000000000000000000000000000000 DUP2 MSTORE PUSH1 0x4 ADD PUSH2 0x9CC SWAP1 PUSH2 0x1908 JUMP JUMPDEST PUSH1 0x40 MLOAD DUP1 SWAP2 SUB SWAP1 REVERT JUMPDEST PUSH0 DUP1 PUSH1 0x7 SLOAD SUB PUSH2 0x9FD JUMPI DUP3 PUSH1 0x2 DUP2 SWAP1 SSTORE POP DUP2 PUSH1 0x3 DUP2 SWAP1 SSTORE POP PUSH8 0xDE0B6B3A7640000 SWAP1 POP PUSH2 0xA2E JUMP JUMPDEST PUSH1 0x2 SLOAD PUSH1 0x7 SLOAD PUSH8 0xDE0B6B3A7640000 DUP6 PUSH2 0xA17 SWAP2 SWAP1 PUSH2 0x1543 JUMP JUMPDEST PUSH2 0xA21 SWAP2 SWAP1 PUSH2 0x1543 JUMP JUMPDEST PUSH2 0xA2B SWAP2 SWAP1 PUSH2 0x15E4 JUMP JUMPDEST SWAP1 POP JUMPDEST PUSH0 DUP1 SLOAD SWAP1 PUSH2 0x100 EXP SWAP1 DIV PUSH20 0xFFFFFFFFFFFFFFFFFFFFFFFFFFFFFFFFFFFFFFFF AND PUSH20 0xFFFFFFFFFFFFFFFFFFFFFFFFFFFFFFFFFFFFFFFF AND PUSH4 0x23B872DD CALLER ADDRESS DUP7 PUSH1 0x40 MLOAD DUP5 PUSH4 0xFFFFFFFF AND PUSH1 0xE0 SHL DUP2 MSTORE PUSH1 0x4 ADD PUSH2 0xA8A SWAP4 SWAP3 SWAP2 SWAP1 PUSH2 0x1926 JUMP JUMPDEST PUSH1 0x20 PUSH1 0x40 MLOAD DUP1 DUP4 SUB DUP2 PUSH0 DUP8 GAS CALL ISZERO DUP1 ISZERO PUSH2 0xAA6 JUMPI RETURNDATASIZE PUSH0 DUP1 RETURNDATACOPY RETURNDATASIZE PUSH0 REVERT JUMPDEST POP POP POP POP PUSH1 0x40 MLOAD RETURNDATASIZE PUSH1 0x1F NOT PUSH1 0x1F DUP3 ADD AND DUP3 ADD DUP1 PUSH1 0x40 MSTORE POP DUP2 ADD SWAP1 PUSH2 0xACA SWAP2 SWAP1 PUSH2 0x171B JUMP JUMPDEST POP PUSH1 0x1 PUSH0 SWAP1 SLOAD SWAP1 PUSH2 0x100 EXP SWAP1 DIV PUSH20 0xFFFFFFFFFFFFFFFFFFFFFFFFFFFFFFFFFFFFFFFF AND PUSH20 0xFFFFFFFFFFFFFFFFFFFFFFFFFFFFFFFFFFFFFFFF AND PUSH4 0x23B872DD CALLER ADDRESS DUP6 PUSH1 0x40 MLOAD DUP5 PUSH4 0xFFFFFFFF AND PUSH1 0xE0 SHL DUP2 MSTORE PUSH1 0x4 ADD PUSH2 0xB29 SWAP4 SWAP3 SWAP2 SWAP1 PUSH2 0x1926 JUMP JUMPDEST PUSH1 0x20 PUSH1 0x40 MLOAD DUP1 DUP4 SUB DUP2 PUSH0 DUP8 GAS CALL ISZERO DUP1 ISZERO PUSH2 0xB45 JUMPI RETURNDATASIZE PUSH0 DUP1 RETURNDATACOPY RETURNDATASIZE PUSH0 REVERT JUMPDEST POP POP POP POP PUSH1 0x40 MLOAD RETURNDATASIZE PUSH1 0x1F NOT PUSH1 0x1F DUP3 ADD AND DUP3 ADD DUP1 PUSH1 0x40 MSTORE POP DUP2 ADD SWAP1 PUSH2 0xB69 SWAP2 SWAP1 PUSH2 0x171B JUMP JUMPDEST POP DUP1 PUSH1 0x8 PUSH0 CALLER PUSH20 0xFFFFFFFFFFFFFFFFFFFFFFFFFFFFFFFFFFFFFFFF AND PUSH20 0xFFFFFFFFFFFFFFFFFFFFFFFFFFFFFFFFFFFFFFFF AND DUP2 MSTORE PUSH1 0x20 ADD SWAP1 DUP2 MSTORE PUSH1 0x20 ADD PUSH0 KECCAK256 PUSH0 DUP3 DUP3 SLOAD PUSH2 0xBB6 SWAP2 SWAP1 PUSH2 0x1584 JUMP JUMPDEST SWAP3 POP POP DUP2 SWAP1 SSTORE POP DUP1 PUSH1 0x7 PUSH0 DUP3 DUP3 SLOAD PUSH2 0xBCE SWAP2 SWAP1 PUSH2 0x1584 JUMP JUMPDEST SWAP3 POP POP DUP2 SWAP1 SSTORE POP PUSH32 0x64B83944E79C3CE8D4C297411DE637C3E102D064677AAC0C163976EBDCD6F50E CALLER DUP5 DUP5 DUP5 PUSH1 0x40 MLOAD PUSH2 0xC0A SWAP5 SWAP4 SWAP3 SWAP2 SWAP1 PUSH2 0x1746 JUMP JUMPDEST PUSH1 0x40 MLOAD DUP1 SWAP2 SUB SWAP1 LOG1 POP POP POP JUMP JUMPDEST PUSH0 DUP1 SLOAD SWAP1 PUSH2 0x100 EXP SWAP1 DIV PUSH20 0xFFFFFFFFFFFFFFFFFFFFFFFFFFFFFFFFFFFFFFFF AND DUP2 JUMP JUMPDEST PUSH1 0x3 DUP2 JUMP JUMPDEST PUSH1 0x8 PUSH1 0x20 MSTORE DUP1 PUSH0 MSTORE PUSH1 0x40 PUSH0 KECCAK256 PUSH0 SWAP2 POP SWAP1 POP SLOAD DUP2 JUMP JUMPDEST PUSH1 0x3 SLOAD DUP2 JUMP JUMPDEST PUSH0 DUP4 GT PUSH2 0xC9C JUMPI PUSH1 0x40 MLOAD PUSH32 0x8C379A000000000000000000000000000000000000000000000000000000000 DUP2 MSTORE PUSH1 0x4 ADD PUSH2 0xC93 SWAP1 PUSH2 0x19A5 JUMP JUMPDEST PUSH1 0x40 MLOAD DUP1 SWAP2 SUB SWAP1 REVERT JUMPDEST PUSH0 PUSH2 0xCA8 DUP5 DUP5 DUP5 PUSH2 0x363 JUMP JUMPDEST SWAP1 POP PUSH0 DUP1 SLOAD SWAP1 PUSH2 0x100 EXP SWAP1 DIV PUSH20 0xFFFFFFFFFFFFFFFFFFFFFFFFFFFFFFFFFFFFFFFF AND PUSH20 0xFFFFFFFFFFFFFFFFFFFFFFFFFFFFFFFFFFFFFFFF AND DUP4 PUSH20 0xFFFFFFFFFFFFFFFFFFFFFFFFFFFFFFFFFFFFFFFF AND SUB PUSH2 0xDB6 JUMPI DUP4 PUSH1 0x2 PUSH0 DUP3 DUP3 SLOAD PUSH2 0xD0D SWAP2 SWAP1 PUSH2 0x1584 JUMP JUMPDEST SWAP3 POP POP DUP2 SWAP1 SSTORE POP PUSH0 DUP1 SLOAD SWAP1 PUSH2 0x100 EXP SWAP1 DIV PUSH20 0xFFFFFFFFFFFFFFFFFFFFFFFFFFFFFFFFFFFFFFFF AND PUSH20 0xFFFFFFFFFFFFFFFFFFFFFFFFFFFFFFFFFFFFFFFF AND PUSH4 0x23B872DD CALLER ADDRESS DUP8 PUSH1 0x40 MLOAD DUP5 PUSH4 0xFFFFFFFF AND PUSH1 0xE0 SHL DUP2 MSTORE PUSH1 0x4 ADD PUSH2 0xD70 SWAP4 SWAP3 SWAP2 SWAP1 PUSH2 0x1926 JUMP JUMPDEST PUSH1 0x20 PUSH1 0x40 MLOAD DUP1 DUP4 SUB DUP2 PUSH0 DUP8 GAS CALL ISZERO DUP1 ISZERO PUSH2 0xD8C JUMPI RETURNDATASIZE PUSH0 DUP1 RETURNDATACOPY RETURNDATASIZE PUSH0 REVERT JUMPDEST POP POP POP POP PUSH1 0x40 MLOAD RETURNDATASIZE PUSH1 0x1F NOT PUSH1 0x1F DUP3 ADD AND DUP3 ADD DUP1 PUSH1 0x40 MSTORE POP DUP2 ADD SWAP1 PUSH2 0xDB0 SWAP2 SWAP1 PUSH2 0x171B JUMP JUMPDEST POP PUSH2 0xE6E JUMP JUMPDEST DUP4 PUSH1 0x3 PUSH0 DUP3 DUP3 SLOAD PUSH2 0xDC7 SWAP2 SWAP1 PUSH2 0x1584 JUMP JUMPDEST SWAP3 POP POP DUP2 SWAP1 SSTORE POP PUSH1 0x1 PUSH0 SWAP1 SLOAD SWAP1 PUSH2 0x100 EXP SWAP1 DIV PUSH20 0xFFFFFFFFFFFFFFFFFFFFFFFFFFFFFFFFFFFFFFFF AND PUSH20 0xFFFFFFFFFFFFFFFFFFFFFFFFFFFFFFFFFFFFFFFF AND PUSH4 0x23B872DD CALLER ADDRESS DUP8 PUSH1 0x40 MLOAD DUP5 PUSH4 0xFFFFFFFF AND PUSH1 0xE0 SHL DUP2 MSTORE PUSH1 0x4 ADD PUSH2 0xE2C SWAP4 SWAP3 SWAP2 SWAP1 PUSH2 0x1926 JUMP JUMPDEST PUSH1 0x20 PUSH1 0x40 MLOAD DUP1 DUP4 SUB DUP2 PUSH0 DUP8 GAS CALL ISZERO DUP1 ISZERO PUSH2 0xE48 JUMPI RETURNDATASIZE PUSH0 DUP1 RETURNDATACOPY RETURNDATASIZE PUSH0 REVERT JUMPDEST POP POP POP POP PUSH1 0x40 MLOAD RETURNDATASIZE PUSH1 0x1F NOT PUSH1 0x1F DUP3 ADD AND DUP3 ADD DUP1 PUSH1 0x40 MSTORE POP DUP2 ADD SWAP1 PUSH2 0xE6C SWAP2 SWAP1 PUSH2 0x171B JUMP JUMPDEST POP JUMPDEST PUSH0 DUP1 SLOAD SWAP1 PUSH2 0x100 EXP SWAP1 DIV PUSH20 0xFFFFFFFFFFFFFFFFFFFFFFFFFFFFFFFFFFFFFFFF AND PUSH20 0xFFFFFFFFFFFFFFFFFFFFFFFFFFFFFFFFFFFFFFFF AND DUP3 PUSH20 0xFFFFFFFFFFFFFFFFFFFFFFFFFFFFFFFFFFFFFFFF AND SUB PUSH2 0xF78 JUMPI PUSH0 DUP1 SLOAD SWAP1 PUSH2 0x100 EXP SWAP1 DIV PUSH20 0xFFFFFFFFFFFFFFFFFFFFFFFFFFFFFFFFFFFFFFFF AND PUSH20 0xFFFFFFFFFFFFFFFFFFFFFFFFFFFFFFFFFFFFFFFF AND PUSH4 0xA9059CBB CALLER DUP4 PUSH1 0x40 MLOAD DUP4 PUSH4 0xFFFFFFFF AND PUSH1 0xE0 SHL DUP2 MSTORE PUSH1 0x4 ADD PUSH2 0xF1A SWAP3 SWAP2 SWAP1 PUSH2 0x16BF JUMP JUMPDEST PUSH1 0x20 PUSH1 0x40 MLOAD DUP1 DUP4 SUB DUP2 PUSH0 DUP8 GAS CALL ISZERO DUP1 ISZERO PUSH2 0xF36 JUMPI RETURNDATASIZE PUSH0 DUP1 RETURNDATACOPY RETURNDATASIZE PUSH0 REVERT JUMPDEST POP POP POP POP PUSH1 0x40 MLOAD RETURNDATASIZE PUSH1 0x1F NOT PUSH1 0x1F DUP3 ADD AND DUP3 ADD DUP1 PUSH1 0x40 MSTORE POP DUP2 ADD SWAP1 PUSH2 0xF5A SWAP2 SWAP1 PUSH2 0x171B JUMP JUMPDEST POP DUP1 PUSH1 0x2 PUSH0 DUP3 DUP3 SLOAD PUSH2 0xF6C SWAP2 SWAP1 PUSH2 0x168C JUMP JUMPDEST SWAP3 POP POP DUP2 SWAP1 SSTORE POP PUSH2 0x102E JUMP JUMPDEST PUSH1 0x1 PUSH0 SWAP1 SLOAD SWAP1 PUSH2 0x100 EXP SWAP1 DIV PUSH20 0xFFFFFFFFFFFFFFFFFFFFFFFFFFFFFFFFFFFFFFFF AND PUSH20 0xFFFFFFFFFFFFFFFFFFFFFFFFFFFFFFFFFFFFFFFF AND PUSH4 0xA9059CBB CALLER DUP4 PUSH1 0x40 MLOAD DUP4 PUSH4 0xFFFFFFFF AND PUSH1 0xE0 SHL DUP2 MSTORE PUSH1 0x4 ADD PUSH2 0xFD4 SWAP3 SWAP2 SWAP1 PUSH2 0x16BF JUMP JUMPDEST PUSH1 0x20 PUSH1 0x40 MLOAD DUP1 DUP4 SUB DUP2 PUSH0 DUP8 GAS CALL ISZERO DUP1 ISZERO PUSH2 0xFF0 JUMPI RETURNDATASIZE PUSH0 DUP1 RETURNDATACOPY RETURNDATASIZE PUSH0 REVERT JUMPDEST POP POP POP POP PUSH1 0x40 MLOAD RETURNDATASIZE PUSH1 0x1F NOT PUSH1 0x1F DUP3 ADD AND DUP3 ADD DUP1 PUSH1 0x40 MSTORE POP DUP2 ADD SWAP1 PUSH2 0x1014 SWAP2 SWAP1 PUSH2 0x171B JUMP JUMPDEST POP DUP1 PUSH1 0x3 PUSH0 DUP3 DUP3 SLOAD PUSH2 0x1026 SWAP2 SWAP1 PUSH2 0x168C JUMP JUMPDEST SWAP3 POP POP DUP2 SWAP1 SSTORE POP JUMPDEST PUSH0 PUSH1 0x64 PUSH1 0x3 DUP7 PUSH2 0x103E SWAP2 SWAP1 PUSH2 0x1543 JUMP JUMPDEST PUSH2 0x1048 SWAP2 SWAP1 PUSH2 0x15E4 JUMP JUMPDEST SWAP1 POP PUSH0 PUSH1 0x2 DUP3 PUSH2 0x1058 SWAP2 SWAP1 PUSH2 0x15E4 JUMP JUMPDEST SWAP1 POP PUSH0 DUP2 DUP4 PUSH2 0x1067 SWAP2 SWAP1 PUSH2 0x168C JUMP JUMPDEST SWAP1 POP PUSH0 DUP1 SLOAD SWAP1 PUSH2 0x100 EXP SWAP1 DIV PUSH20 0xFFFFFFFFFFFFFFFFFFFFFFFFFFFFFFFFFFFFFFFF AND PUSH20 0xFFFFFFFFFFFFFFFFFFFFFFFFFFFFFFFFFFFFFFFF AND DUP7 PUSH20 0xFFFFFFFFFFFFFFFFFFFFFFFFFFFFFFFFFFFFFFFF AND SUB PUSH2 0x11AC JUMPI DUP3 PUSH1 0x2 PUSH0 DUP3 DUP3 SLOAD PUSH2 0x10CC SWAP2 SWAP1 PUSH2 0x168C JUMP JUMPDEST SWAP3 POP POP DUP2 SWAP1 SSTORE POP PUSH0 DUP1 SLOAD SWAP1 PUSH2 0x100 EXP SWAP1 DIV PUSH20 0xFFFFFFFFFFFFFFFFFFFFFFFFFFFFFFFFFFFFFFFF AND PUSH20 0xFFFFFFFFFFFFFFFFFFFFFFFFFFFFFFFFFFFFFFFF AND PUSH4 0xA9059CBB PUSH1 0x6 PUSH0 SWAP1 SLOAD SWAP1 PUSH2 0x100 EXP SWAP1 DIV PUSH20 0xFFFFFFFFFFFFFFFFFFFFFFFFFFFFFFFFFFFFFFFF AND DUP5 PUSH1 0x40 MLOAD DUP4 PUSH4 0xFFFFFFFF AND PUSH1 0xE0 SHL DUP2 MSTORE PUSH1 0x4 ADD PUSH2 0x114E SWAP3 SWAP2 SWAP1 PUSH2 0x16BF JUMP JUMPDEST PUSH1 0x20 PUSH1 0x40 MLOAD DUP1 DUP4 SUB DUP2 PUSH0 DUP8 GAS CALL ISZERO DUP1 ISZERO PUSH2 0x116A JUMPI RETURNDATASIZE PUSH0 DUP1 RETURNDATACOPY RETURNDATASIZE PUSH0 REVERT JUMPDEST POP POP POP POP PUSH1 0x40 MLOAD RETURNDATASIZE PUSH1 0x1F NOT PUSH1 0x1F DUP3 ADD AND DUP3 ADD DUP1 PUSH1 0x40 MSTORE POP DUP2 ADD SWAP1 PUSH2 0x118E SWAP2 SWAP1 PUSH2 0x171B JUMP JUMPDEST POP DUP1 PUSH1 0x4 PUSH0 DUP3 DUP3 SLOAD PUSH2 0x11A0 SWAP2 SWAP1 PUSH2 0x1584 JUMP JUMPDEST SWAP3 POP POP DUP2 SWAP1 SSTORE POP PUSH2 0x129B JUMP JUMPDEST DUP3 PUSH1 0x3 PUSH0 DUP3 DUP3 SLOAD PUSH2 0x11BD SWAP2 SWAP1 PUSH2 0x168C JUMP JUMPDEST SWAP3 POP POP DUP2 SWAP1 SSTORE POP PUSH1 0x1 PUSH0 SWAP1 SLOAD SWAP1 PUSH2 0x100 EXP SWAP1 DIV PUSH20 0xFFFFFFFFFFFFFFFFFFFFFFFFFFFFFFFFFFFFFFFF AND PUSH20 0xFFFFFFFFFFFFFFFFFFFFFFFFFFFFFFFFFFFFFFFF AND PUSH4 0xA9059CBB PUSH1 0x6 PUSH0 SWAP1 SLOAD SWAP1 PUSH2 0x100 EXP SWAP1 DIV PUSH20 0xFFFFFFFFFFFFFFFFFFFFFFFFFFFFFFFFFFFFFFFF AND DUP5 PUSH1 0x40 MLOAD DUP4 PUSH4 0xFFFFFFFF AND PUSH1 0xE0 SHL DUP2 MSTORE PUSH1 0x4 ADD PUSH2 0x1241 SWAP3 SWAP2 SWAP1 PUSH2 0x16BF JUMP JUMPDEST PUSH1 0x20 PUSH1 0x40 MLOAD DUP1 DUP4 SUB DUP2 PUSH0 DUP8 GAS CALL ISZERO DUP1 ISZERO PUSH2 0x125D JUMPI RETURNDATASIZE PUSH0 DUP1 RETURNDATACOPY RETURNDATASIZE PUSH0 REVERT JUMPDEST POP POP POP POP PUSH1 0x40 MLOAD RETURNDATASIZE PUSH1 0x1F NOT PUSH1 0x1F DUP3 ADD AND DUP3 ADD DUP1 PUSH1 0x40 MSTORE POP DUP2 ADD SWAP1 PUSH2 0x1281 SWAP2 SWAP1 PUSH2 0x171B JUMP JUMPDEST POP DUP1 PUSH1 0x5 PUSH0 DUP3 DUP3 SLOAD PUSH2 0x1293 SWAP2 SWAP1 PUSH2 0x1584 JUMP JUMPDEST SWAP3 POP POP DUP2 SWAP1 SSTORE POP JUMPDEST PUSH32 0xAD56699D0F375866EB895ED27203058A36A713382AADED78EB6B67DA266D4332 CALLER DUP8 DUP8 DUP11 DUP9 PUSH1 0x40 MLOAD PUSH2 0x12D2 SWAP6 SWAP5 SWAP4 SWAP3 SWAP2 SWAP1 PUSH2 0x19C3 JUMP JUMPDEST PUSH1 0x40 MLOAD DUP1 SWAP2 SUB SWAP1 LOG1 POP POP POP POP POP POP POP JUMP JUMPDEST PUSH1 0x6 PUSH0 SWAP1 SLOAD SWAP1 PUSH2 0x100 EXP SWAP1 DIV PUSH20 0xFFFFFFFFFFFFFFFFFFFFFFFFFFFFFFFFFFFFFFFF AND DUP2 JUMP JUMPDEST PUSH0 DUP2 SWAP1 POP SWAP2 SWAP1 POP JUMP JUMPDEST PUSH2 0x131A DUP2 PUSH2 0x1308 JUMP JUMPDEST DUP3 MSTORE POP POP JUMP JUMPDEST PUSH0 PUSH1 0x20 DUP3 ADD SWAP1 POP PUSH2 0x1333 PUSH0 DUP4 ADD DUP5 PUSH2 0x1311 JUMP JUMPDEST SWAP3 SWAP2 POP POP JUMP JUMPDEST PUSH0 PUSH20 0xFFFFFFFFFFFFFFFFFFFFFFFFFFFFFFFFFFFFFFFF DUP3 AND SWAP1 POP SWAP2 SWAP1 POP JUMP JUMPDEST PUSH0 DUP2 SWAP1 POP SWAP2 SWAP1 POP JUMP JUMPDEST PUSH0 PUSH2 0x137B PUSH2 0x1376 PUSH2 0x1371 DUP5 PUSH2 0x1339 JUMP JUMPDEST PUSH2 0x1358 JUMP JUMPDEST PUSH2 0x1339 JUMP JUMPDEST SWAP1 POP SWAP2 SWAP1 POP JUMP JUMPDEST PUSH0 PUSH2 0x138C DUP3 PUSH2 0x1361 JUMP JUMPDEST SWAP1 POP SWAP2 SWAP1 POP JUMP JUMPDEST PUSH0 PUSH2 0x139D DUP3 PUSH2 0x1382 JUMP JUMPDEST SWAP1 POP SWAP2 SWAP1 POP JUMP JUMPDEST PUSH2 0x13AD DUP2 PUSH2 0x1393 JUMP JUMPDEST DUP3 MSTORE POP POP JUMP JUMPDEST PUSH0 PUSH1 0x20 DUP3 ADD SWAP1 POP PUSH2 0x13C6 PUSH0 DUP4 ADD DUP5 PUSH2 0x13A4 JUMP JUMPDEST SWAP3 SWAP2 POP POP JUMP JUMPDEST PUSH0 DUP1 REVERT JUMPDEST PUSH2 0x13D9 DUP2 PUSH2 0x1308 JUMP JUMPDEST DUP2 EQ PUSH2 0x13E3 JUMPI PUSH0 DUP1 REVERT JUMPDEST POP JUMP JUMPDEST PUSH0 DUP2 CALLDATALOAD SWAP1 POP PUSH2 0x13F4 DUP2 PUSH2 0x13D0 JUMP JUMPDEST SWAP3 SWAP2 POP POP JUMP JUMPDEST PUSH0 PUSH2 0x1404 DUP3 PUSH2 0x1339 JUMP JUMPDEST SWAP1 POP SWAP2 SWAP1 POP JUMP JUMPDEST PUSH2 0x1414 DUP2 PUSH2 0x13FA JUMP JUMPDEST DUP2 EQ PUSH2 0x141E JUMPI PUSH0 DUP1 REVERT JUMPDEST POP JUMP JUMPDEST PUSH0 DUP2 CALLDATALOAD SWAP1 POP PUSH2 0x142F DUP2 PUSH2 0x140B JUMP JUMPDEST SWAP3 SWAP2 POP POP JUMP JUMPDEST PUSH0 DUP1 PUSH0 PUSH1 0x60 DUP5 DUP7 SUB SLT ISZERO PUSH2 0x144C JUMPI PUSH2 0x144B PUSH2 0x13CC JUMP JUMPDEST JUMPDEST PUSH0 PUSH2 0x1459 DUP7 DUP3 DUP8 ADD PUSH2 0x13E6 JUMP JUMPDEST SWAP4 POP POP PUSH1 0x20 PUSH2 0x146A DUP7 DUP3 DUP8 ADD PUSH2 0x1421 JUMP JUMPDEST SWAP3 POP POP PUSH1 0x40 PUSH2 0x147B DUP7 DUP3 DUP8 ADD PUSH2 0x1421 JUMP JUMPDEST SWAP2 POP POP SWAP3 POP SWAP3 POP SWAP3 JUMP JUMPDEST PUSH0 DUP1 PUSH1 0x40 DUP4 DUP6 SUB SLT ISZERO PUSH2 0x149B JUMPI PUSH2 0x149A PUSH2 0x13CC JUMP JUMPDEST JUMPDEST PUSH0 PUSH2 0x14A8 DUP6 DUP3 DUP7 ADD PUSH2 0x13E6 JUMP JUMPDEST SWAP3 POP POP PUSH1 0x20 PUSH2 0x14B9 DUP6 DUP3 DUP7 ADD PUSH2 0x13E6 JUMP JUMPDEST SWAP2 POP POP SWAP3 POP SWAP3 SWAP1 POP JUMP JUMPDEST PUSH0 PUSH1 0x20 DUP3 DUP5 SUB SLT ISZERO PUSH2 0x14D8 JUMPI PUSH2 0x14D7 PUSH2 0x13CC JUMP JUMPDEST JUMPDEST PUSH0 PUSH2 0x14E5 DUP5 DUP3 DUP6 ADD PUSH2 0x1421 JUMP JUMPDEST SWAP2 POP POP SWAP3 SWAP2 POP POP JUMP JUMPDEST PUSH2 0x14F7 DUP2 PUSH2 0x13FA JUMP JUMPDEST DUP3 MSTORE POP POP JUMP JUMPDEST PUSH0 PUSH1 0x20 DUP3 ADD SWAP1 POP PUSH2 0x1510 PUSH0 DUP4 ADD DUP5 PUSH2 0x14EE JUMP JUMPDEST SWAP3 SWAP2 POP POP JUMP JUMPDEST PUSH32 0x4E487B7100000000000000000000000000000000000000000000000000000000 PUSH0 MSTORE PUSH1 0x11 PUSH1 0x4 MSTORE PUSH1 0x24 PUSH0 REVERT JUMPDEST PUSH0 PUSH2 0x154D DUP3 PUSH2 0x1308 JUMP JUMPDEST SWAP2 POP PUSH2 0x1558 DUP4 PUSH2 0x1308 JUMP JUMPDEST SWAP3 POP DUP3 DUP3 MUL PUSH2 0x1566 DUP2 PUSH2 0x1308 JUMP JUMPDEST SWAP2 POP DUP3 DUP3 DIV DUP5 EQ DUP4 ISZERO OR PUSH2 0x157D JUMPI PUSH2 0x157C PUSH2 0x1516 JUMP JUMPDEST JUMPDEST POP SWAP3 SWAP2 POP POP JUMP JUMPDEST PUSH0 PUSH2 0x158E DUP3 PUSH2 0x1308 JUMP JUMPDEST SWAP2 POP PUSH2 0x1599 DUP4 PUSH2 0x1308 JUMP JUMPDEST SWAP3 POP DUP3 DUP3 ADD SWAP1 POP DUP1 DUP3 GT ISZERO PUSH2 0x15B1 JUMPI PUSH2 0x15B0 PUSH2 0x1516 JUMP JUMPDEST JUMPDEST SWAP3 SWAP2 POP POP JUMP JUMPDEST PUSH32 0x4E487B7100000000000000000000000000000000000000000000000000000000 PUSH0 MSTORE PUSH1 0x12 PUSH1 0x4 MSTORE PUSH1 0x24 PUSH0 REVERT JUMPDEST PUSH0 PUSH2 0x15EE DUP3 PUSH2 0x1308 JUMP JUMPDEST SWAP2 POP PUSH2 0x15F9 DUP4 PUSH2 0x1308 JUMP JUMPDEST SWAP3 POP DUP3 PUSH2 0x1609 JUMPI PUSH2 0x1608 PUSH2 0x15B7 JUMP JUMPDEST JUMPDEST DUP3 DUP3 DIV SWAP1 POP SWAP3 SWAP2 POP POP JUMP JUMPDEST PUSH0 DUP3 DUP3 MSTORE PUSH1 0x20 DUP3 ADD SWAP1 POP SWAP3 SWAP2 POP POP JUMP JUMPDEST PUSH32 0x4E6F206C697175696469747920746F2072656D6F766500000000000000000000 PUSH0 DUP3 ADD MSTORE POP JUMP JUMPDEST PUSH0 PUSH2 0x1658 PUSH1 0x16 DUP4 PUSH2 0x1614 JUMP JUMPDEST SWAP2 POP PUSH2 0x1663 DUP3 PUSH2 0x1624 JUMP JUMPDEST PUSH1 0x20 DUP3 ADD SWAP1 POP SWAP2 SWAP1 POP JUMP JUMPDEST PUSH0 PUSH1 0x20 DUP3 ADD SWAP1 POP DUP2 DUP2 SUB PUSH0 DUP4 ADD MSTORE PUSH2 0x1685 DUP2 PUSH2 0x164C JUMP JUMPDEST SWAP1 POP SWAP2 SWAP1 POP JUMP JUMPDEST PUSH0 PUSH2 0x1696 DUP3 PUSH2 0x1308 JUMP JUMPDEST SWAP2 POP PUSH2 0x16A1 DUP4 PUSH2 0x1308 JUMP JUMPDEST SWAP3 POP DUP3 DUP3 SUB SWAP1 POP DUP2 DUP2 GT ISZERO PUSH2 0x16B9 JUMPI PUSH2 0x16B8 PUSH2 0x1516 JUMP JUMPDEST JUMPDEST SWAP3 SWAP2 POP POP JUMP JUMPDEST PUSH0 PUSH1 0x40 DUP3 ADD SWAP1 POP PUSH2 0x16D2 PUSH0 DUP4 ADD DUP6 PUSH2 0x14EE JUMP JUMPDEST PUSH2 0x16DF PUSH1 0x20 DUP4 ADD DUP5 PUSH2 0x1311 JUMP JUMPDEST SWAP4 SWAP3 POP POP POP JUMP JUMPDEST PUSH0 DUP2 ISZERO ISZERO SWAP1 POP SWAP2 SWAP1 POP JUMP JUMPDEST PUSH2 0x16FA DUP2 PUSH2 0x16E6 JUMP JUMPDEST DUP2 EQ PUSH2 0x1704 JUMPI PUSH0 DUP1 REVERT JUMPDEST POP JUMP JUMPDEST PUSH0 DUP2 MLOAD SWAP1 POP PUSH2 0x1715 DUP2 PUSH2 0x16F1 JUMP JUMPDEST SWAP3 SWAP2 POP POP JUMP JUMPDEST PUSH0 PUSH1 0x20 DUP3 DUP5 SUB SLT ISZERO PUSH2 0x1730 JUMPI PUSH2 0x172F PUSH2 0x13CC JUMP JUMPDEST JUMPDEST PUSH0 PUSH2 0x173D DUP5 DUP3 DUP6 ADD PUSH2 0x1707 JUMP JUMPDEST SWAP2 POP POP SWAP3 SWAP2 POP POP JUMP JUMPDEST PUSH0 PUSH1 0x80 DUP3 ADD SWAP1 POP PUSH2 0x1759 PUSH0 DUP4 ADD DUP8 PUSH2 0x14EE JUMP JUMPDEST PUSH2 0x1766 PUSH1 0x20 DUP4 ADD DUP7 PUSH2 0x1311 JUMP JUMPDEST PUSH2 0x1773 PUSH1 0x40 DUP4 ADD DUP6 PUSH2 0x1311 JUMP JUMPDEST PUSH2 0x1780 PUSH1 0x60 DUP4 ADD DUP5 PUSH2 0x1311 JUMP JUMPDEST SWAP6 SWAP5 POP POP POP POP POP JUMP JUMPDEST PUSH32 0x416D6F756E74732073686F756C642062652067726561746572207468616E207A PUSH0 DUP3 ADD MSTORE PUSH32 0x65726F2E00000000000000000000000000000000000000000000000000000000 PUSH1 0x20 DUP3 ADD MSTORE POP JUMP JUMPDEST PUSH0 PUSH2 0x17E3 PUSH1 0x24 DUP4 PUSH2 0x1614 JUMP JUMPDEST SWAP2 POP PUSH2 0x17EE DUP3 PUSH2 0x1789 JUMP JUMPDEST PUSH1 0x40 DUP3 ADD SWAP1 POP SWAP2 SWAP1 POP JUMP JUMPDEST PUSH0 PUSH1 0x20 DUP3 ADD SWAP1 POP DUP2 DUP2 SUB PUSH0 DUP4 ADD MSTORE PUSH2 0x1810 DUP2 PUSH2 0x17D7 JUMP JUMPDEST SWAP1 POP SWAP2 SWAP1 POP JUMP JUMPDEST PUSH0 DUP2 MLOAD SWAP1 POP PUSH2 0x1825 DUP2 PUSH2 0x13D0 JUMP JUMPDEST SWAP3 SWAP2 POP POP JUMP JUMPDEST PUSH0 PUSH1 0x20 DUP3 DUP5 SUB SLT ISZERO PUSH2 0x1840 JUMPI PUSH2 0x183F PUSH2 0x13CC JUMP JUMPDEST JUMPDEST PUSH0 PUSH2 0x184D DUP5 DUP3 DUP6 ADD PUSH2 0x1817 JUMP JUMPDEST SWAP2 POP POP SWAP3 SWAP2 POP POP JUMP JUMPDEST PUSH32 0x496E73756666696369656E74205344542062616C616E63650000000000000000 PUSH0 DUP3 ADD MSTORE POP JUMP JUMPDEST PUSH0 PUSH2 0x188A PUSH1 0x18 DUP4 PUSH2 0x1614 JUMP JUMPDEST SWAP2 POP PUSH2 0x1895 DUP3 PUSH2 0x1856 JUMP JUMPDEST PUSH1 0x20 DUP3 ADD SWAP1 POP SWAP2 SWAP1 POP JUMP JUMPDEST PUSH0 PUSH1 0x20 DUP3 ADD SWAP1 POP DUP2 DUP2 SUB PUSH0 DUP4 ADD MSTORE PUSH2 0x18B7 DUP2 PUSH2 0x187E JUMP JUMPDEST SWAP1 POP SWAP2 SWAP1 POP JUMP JUMPDEST PUSH32 0x496E73756666696369656E7420534B542062616C616E63650000000000000000 PUSH0 DUP3 ADD MSTORE POP JUMP JUMPDEST PUSH0 PUSH2 0x18F2 PUSH1 0x18 DUP4 PUSH2 0x1614 JUMP JUMPDEST SWAP2 POP PUSH2 0x18FD DUP3 PUSH2 0x18BE JUMP JUMPDEST PUSH1 0x20 DUP3 ADD SWAP1 POP SWAP2 SWAP1 POP JUMP JUMPDEST PUSH0 PUSH1 0x20 DUP3 ADD SWAP1 POP DUP2 DUP2 SUB PUSH0 DUP4 ADD MSTORE PUSH2 0x191F DUP2 PUSH2 0x18E6 JUMP JUMPDEST SWAP1 POP SWAP2 SWAP1 POP JUMP JUMPDEST PUSH0 PUSH1 0x60 DUP3 ADD SWAP1 POP PUSH2 0x1939 PUSH0 DUP4 ADD DUP7 PUSH2 0x14EE JUMP JUMPDEST PUSH2 0x1946 PUSH1 0x20 DUP4 ADD DUP6 PUSH2 0x14EE JUMP JUMPDEST PUSH2 0x1953 PUSH1 0x40 DUP4 ADD DUP5 PUSH2 0x1311 JUMP JUMPDEST SWAP5 SWAP4 POP POP POP POP JUMP JUMPDEST PUSH32 0x416D6F756E74206D7573742062652067726561746572207468616E2030000000 PUSH0 DUP3 ADD MSTORE POP JUMP JUMPDEST PUSH0 PUSH2 0x198F PUSH1 0x1D DUP4 PUSH2 0x1614 JUMP JUMPDEST SWAP2 POP PUSH2 0x199A DUP3 PUSH2 0x195B JUMP JUMPDEST PUSH1 0x20 DUP3 ADD SWAP1 POP SWAP2 SWAP1 POP JUMP JUMPDEST PUSH0 PUSH1 0x20 DUP3 ADD SWAP1 POP DUP2 DUP2 SUB PUSH0 DUP4 ADD MSTORE PUSH2 0x19BC DUP2 PUSH2 0x1983 JUMP JUMPDEST SWAP1 POP SWAP2 SWAP1 POP JUMP JUMPDEST PUSH0 PUSH1 0xA0 DUP3 ADD SWAP1 POP PUSH2 0x19D6 PUSH0 DUP4 ADD DUP9 PUSH2 0x14EE JUMP JUMPDEST PUSH2 0x19E3 PUSH1 0x20 DUP4 ADD DUP8 PUSH2 0x14EE JUMP JUMPDEST PUSH2 0x19F0 PUSH1 0x40 DUP4 ADD DUP7 PUSH2 0x14EE JUMP JUMPDEST PUSH2 0x19FD PUSH1 0x60 DUP4 ADD DUP6 PUSH2 0x1311 JUMP JUMPDEST PUSH2 0x1A0A PUSH1 0x80 DUP4 ADD DUP5 PUSH2 0x1311 JUMP JUMPDEST SWAP7 SWAP6 POP POP POP POP POP POP JUMP INVALID LOG2 PUSH5 0x6970667358 0x22 SLT KECCAK256 PUSH16 0xCA2374170E5BD60509CAF73A9440ED3F 0xD6 DUP7 0xC8 0x49 PUSH32 0xD68CA762F8812DF2B2E664736F6C634300081600330000000000000000000000 "
				},
				"gasEstimates": {
					"creation": {
						"codeDepositCost": "1346000",
						"executionCost": "infinite",
						"totalCost": "infinite"
					},
					"external": {
						"FEE()": "392",
						"addLiquidity(uint256,uint256)": "infinite",
						"admin()": "2596",
						"getSwapAmount(uint256,address,address)": "infinite",
						"liquidityProviderBalance(address)": "2824",
						"removeLiquidity()": "infinite",
						"sdt()": "infinite",
						"sdtFeePool()": "2448",
						"sdtReserve()": "2514",
						"skt()": "infinite",
						"sktFeePool()": "2493",
						"sktReserve()": "2469",
						"swapTokens(uint256,address,address)": "infinite",
						"totalLiquidity()": "2449"
					}
				},
				"methodIdentifiers": {
					"FEE()": "c57981b5",
					"addLiquidity(uint256,uint256)": "9cd441da",
					"admin()": "f851a440",
					"getSwapAmount(uint256,address,address)": "58261cf8",
					"liquidityProviderBalance(address)": "c5c056e0",
					"removeLiquidity()": "67b9a286",
					"sdt()": "a4520f5c",
					"sdtFeePool()": "578a8812",
					"sdtReserve()": "6d3a1137",
					"skt()": "474e8cd6",
					"sktFeePool()": "4cae8434",
					"sktReserve()": "cccbc740",
					"swapTokens(uint256,address,address)": "f70d1d98",
					"totalLiquidity()": "15770f92"
				}
			},
			"storageLayout": {
				"storage": [
					{
						"astId": 83,
						"contract": "capstone_swap.sol:TokenSwap",
						"label": "sdt",
						"offset": 0,
						"slot": "0",
						"type": "t_contract(IERC20)77"
					},
					{
						"astId": 86,
						"contract": "capstone_swap.sol:TokenSwap",
						"label": "skt",
						"offset": 0,
						"slot": "1",
						"type": "t_contract(IERC20)77"
					},
					{
						"astId": 92,
						"contract": "capstone_swap.sol:TokenSwap",
						"label": "sdtReserve",
						"offset": 0,
						"slot": "2",
						"type": "t_uint256"
					},
					{
						"astId": 95,
						"contract": "capstone_swap.sol:TokenSwap",
						"label": "sktReserve",
						"offset": 0,
						"slot": "3",
						"type": "t_uint256"
					},
					{
						"astId": 97,
						"contract": "capstone_swap.sol:TokenSwap",
						"label": "sdtFeePool",
						"offset": 0,
						"slot": "4",
						"type": "t_uint256"
					},
					{
						"astId": 99,
						"contract": "capstone_swap.sol:TokenSwap",
						"label": "sktFeePool",
						"offset": 0,
						"slot": "5",
						"type": "t_uint256"
					},
					{
						"astId": 101,
						"contract": "capstone_swap.sol:TokenSwap",
						"label": "admin",
						"offset": 0,
						"slot": "6",
						"type": "t_address"
					},
					{
						"astId": 103,
						"contract": "capstone_swap.sol:TokenSwap",
						"label": "totalLiquidity",
						"offset": 0,
						"slot": "7",
						"type": "t_uint256"
					},
					{
						"astId": 107,
						"contract": "capstone_swap.sol:TokenSwap",
						"label": "liquidityProviderBalance",
						"offset": 0,
						"slot": "8",
						"type": "t_mapping(t_address,t_uint256)"
					}
				],
				"types": {
					"t_address": {
						"encoding": "inplace",
						"label": "address",
						"numberOfBytes": "20"
					},
					"t_contract(IERC20)77": {
						"encoding": "inplace",
						"label": "contract IERC20",
						"numberOfBytes": "20"
					},
					"t_mapping(t_address,t_uint256)": {
						"encoding": "mapping",
						"key": "t_address",
						"label": "mapping(address => uint256)",
						"numberOfBytes": "32",
						"value": "t_uint256"
					},
					"t_uint256": {
						"encoding": "inplace",
						"label": "uint256",
						"numberOfBytes": "32"
					}
				}
			},
			"userdoc": {
				"kind": "user",
				"methods": {},
				"version": 1
			}
		}
	}
}