{
	"data": {
		"bytecode": {
			"linkReferences": {},
			"object": "60806040525f6002555f60035534801562000018575f80fd5b5060405162001c0738038062001c0783398181016040528101906200003e91906200016a565b815f806101000a81548173ffffffffffffffffffffffffffffffffffffffff021916908373ffffffffffffffffffffffffffffffffffffffff1602179055508060015f6101000a81548173ffffffffffffffffffffffffffffffffffffffff021916908373ffffffffffffffffffffffffffffffffffffffff1602179055503360065f6101000a81548173ffffffffffffffffffffffffffffffffffffffff021916908373ffffffffffffffffffffffffffffffffffffffff1602179055505050620001af565b5f80fd5b5f73ffffffffffffffffffffffffffffffffffffffff82169050919050565b5f620001348262000109565b9050919050565b620001468162000128565b811462000151575f80fd5b50565b5f8151905062000164816200013b565b92915050565b5f806040838503121562000183576200018262000105565b5b5f620001928582860162000154565b9250506020620001a58582860162000154565b9150509250929050565b611a4a80620001bd5f395ff3fe6080604052600436106100dc575f3560e01c80639cd441da1161007e578063c5c056e011610058578063c5c056e014610274578063cccbc740146102b0578063f70d1d98146102da578063f851a44014610302576100dc565b80639cd441da14610204578063a4520f5c14610220578063c57981b51461024a576100dc565b8063578a8812116100ba578063578a88121461015e57806358261cf81461018857806367b9a286146101c45780636d3a1137146101da576100dc565b806315770f92146100e0578063474e8cd61461010a5780634cae843414610134575b5f80fd5b3480156100eb575f80fd5b506100f461032c565b6040516101019190611320565b60405180910390f35b348015610115575f80fd5b5061011e610332565b60405161012b91906113b3565b60405180910390f35b34801561013f575f80fd5b50610148610357565b6040516101559190611320565b60405180910390f35b348015610169575f80fd5b5061017261035d565b60405161017f9190611320565b60405180910390f35b348015610193575f80fd5b506101ae60048036038101906101a99190611435565b610363565b6040516101bb9190611320565b60405180910390f35b3480156101cf575f80fd5b506101d8610485565b005b3480156101e5575f80fd5b506101ee6107ce565b6040516101fb9190611320565b60405180910390f35b61021e60048036038101906102199190611485565b6107d4565b005b34801561022b575f80fd5b50610234610c17565b60405161024191906113b3565b60405180910390f35b348015610255575f80fd5b5061025e610c3a565b60405161026b9190611320565b60405180910390f35b34801561027f575f80fd5b5061029a600480360381019061029591906114c3565b610c3f565b6040516102a79190611320565b60405180910390f35b3480156102bb575f80fd5b506102c4610c54565b6040516102d19190611320565b60405180910390f35b3480156102e5575f80fd5b5061030060048036038101906102fb9190611435565b610c5a565b005b34801561030d575f80fd5b506103166112e3565b60405161032391906114fd565b60405180910390f35b60075481565b60015f9054906101000a900473ffffffffffffffffffffffffffffffffffffffff1681565b60055481565b60045481565b5f805f8054906101000a900473ffffffffffffffffffffffffffffffffffffffff1673ffffffffffffffffffffffffffffffffffffffff168473ffffffffffffffffffffffffffffffffffffffff16146103bf576003546103c3565b6002545b90505f805f9054906101000a900473ffffffffffffffffffffffffffffffffffffffff1673ffffffffffffffffffffffffffffffffffffffff168473ffffffffffffffffffffffffffffffffffffffff161461042157600354610425565b6002545b90505f6103e587836104379190611543565b6104419190611543565b90505f6103e5886104529190611543565b6103e8856104609190611543565b61046a9190611584565b9050808261047891906115e4565b9450505050509392505050565b5f60085f3373ffffffffffffffffffffffffffffffffffffffff1673ffffffffffffffffffffffffffffffffffffffff1681526020019081526020015f205490505f6007541161050a576040517f08c379a00000000000000000000000000000000000000000000000000000000081526004016105019061166e565b60405180910390fd5b5f6007548260025461051c9190611543565b61052691906115e4565b90505f6007548360035461053a9190611543565b61054491906115e4565b90505f600754846004546105589190611543565b61056291906115e4565b90505f600754856005546105769190611543565b61058091906115e4565b90508160045f828254610593919061168c565b925050819055508060055f8282546105ab919061168c565b925050819055505f8054906101000a900473ffffffffffffffffffffffffffffffffffffffff1673ffffffffffffffffffffffffffffffffffffffff1663a9059cbb3384876105fa9190611584565b6040518363ffffffff1660e01b81526004016106179291906116bf565b6020604051808303815f875af1158015610633573d5f803e3d5ffd5b505050506040513d601f19601f82011682018060405250810190610657919061171b565b5060015f9054906101000a900473ffffffffffffffffffffffffffffffffffffffff1673ffffffffffffffffffffffffffffffffffffffff1663a9059cbb3383866106a29190611584565b6040518363ffffffff1660e01b81526004016106bf9291906116bf565b6020604051808303815f875af11580156106db573d5f803e3d5ffd5b505050506040513d601f19601f820116820180604052508101906106ff919061171b565b508360025f828254610711919061168c565b925050819055508260035f828254610729919061168c565b925050819055508460075f828254610741919061168c565b925050819055505f60085f3373ffffffffffffffffffffffffffffffffffffffff1673ffffffffffffffffffffffffffffffffffffffff1681526020019081526020015f20819055507f1dc8bb69df2b8e91fbdcbfcf93d951b3f0000f085a95fe3f7946d6161439245d338585886040516107bf9493929190611746565b60405180910390a15050505050565b60025481565b5f821180156107e257505f81115b610821576040517f08c379a0000000000000000000000000000000000000000000000000000000008152600401610818906117f9565b60405180910390fd5b815f8054906101000a900473ffffffffffffffffffffffffffffffffffffffff1673ffffffffffffffffffffffffffffffffffffffff166370a08231336040518263ffffffff1660e01b815260040161087a91906114fd565b602060405180830381865afa158015610895573d5f803e3d5ffd5b505050506040513d601f19601f820116820180604052508101906108b9919061182b565b10156108fa576040517f08c379a00000000000000000000000000000000000000000000000000000000081526004016108f1906118a0565b60405180910390fd5b8060015f9054906101000a900473ffffffffffffffffffffffffffffffffffffffff1673ffffffffffffffffffffffffffffffffffffffff166370a08231336040518263ffffffff1660e01b815260040161095591906114fd565b602060405180830381865afa158015610970573d5f803e3d5ffd5b505050506040513d601f19601f82011682018060405250810190610994919061182b565b10156109d5576040517f08c379a00000000000000000000000000000000000000000000000000000000081526004016109cc90611908565b60405180910390fd5b5f80600754036109fd578260028190555081600381905550670de0b6b3a76400009050610a2e565b600254600754670de0b6b3a764000085610a179190611543565b610a219190611543565b610a2b91906115e4565b90505b5f8054906101000a900473ffffffffffffffffffffffffffffffffffffffff1673ffffffffffffffffffffffffffffffffffffffff166323b872dd3330866040518463ffffffff1660e01b8152600401610a8a93929190611926565b6020604051808303815f875af1158015610aa6573d5f803e3d5ffd5b505050506040513d601f19601f82011682018060405250810190610aca919061171b565b5060015f9054906101000a900473ffffffffffffffffffffffffffffffffffffffff1673ffffffffffffffffffffffffffffffffffffffff166323b872dd3330856040518463ffffffff1660e01b8152600401610b2993929190611926565b6020604051808303815f875af1158015610b45573d5f803e3d5ffd5b505050506040513d601f19601f82011682018060405250810190610b69919061171b565b508060085f3373ffffffffffffffffffffffffffffffffffffffff1673ffffffffffffffffffffffffffffffffffffffff1681526020019081526020015f205f828254610bb69190611584565b925050819055508060075f828254610bce9190611584565b925050819055507f64b83944e79c3ce8d4c297411de637c3e102d064677aac0c163976ebdcd6f50e33848484604051610c0a9493929190611746565b60405180910390a1505050565b5f8054906101000a900473ffffffffffffffffffffffffffffffffffffffff1681565b600381565b6008602052805f5260405f205f915090505481565b60035481565b5f8311610c9c576040517f08c379a0000000000000000000000000000000000000000000000000000000008152600401610c93906119a5565b60405180910390fd5b5f610ca8848484610363565b90505f8054906101000a900473ffffffffffffffffffffffffffffffffffffffff1673ffffffffffffffffffffffffffffffffffffffff168373ffffffffffffffffffffffffffffffffffffffff1603610db6578360025f828254610d0d9190611584565b925050819055505f8054906101000a900473ffffffffffffffffffffffffffffffffffffffff1673ffffffffffffffffffffffffffffffffffffffff166323b872dd3330876040518463ffffffff1660e01b8152600401610d7093929190611926565b6020604051808303815f875af1158015610d8c573d5f803e3d5ffd5b505050506040513d601f19601f82011682018060405250810190610db0919061171b565b50610e6e565b8360035f828254610dc79190611584565b9250508190555060015f9054906101000a900473ffffffffffffffffffffffffffffffffffffffff1673ffffffffffffffffffffffffffffffffffffffff166323b872dd3330876040518463ffffffff1660e01b8152600401610e2c93929190611926565b6020604051808303815f875af1158015610e48573d5f803e3d5ffd5b505050506040513d601f19601f82011682018060405250810190610e6c919061171b565b505b5f8054906101000a900473ffffffffffffffffffffffffffffffffffffffff1673ffffffffffffffffffffffffffffffffffffffff168273ffffffffffffffffffffffffffffffffffffffff1603610f78575f8054906101000a900473ffffffffffffffffffffffffffffffffffffffff1673ffffffffffffffffffffffffffffffffffffffff1663a9059cbb33836040518363ffffffff1660e01b8152600401610f1a9291906116bf565b6020604051808303815f875af1158015610f36573d5f803e3d5ffd5b505050506040513d601f19601f82011682018060405250810190610f5a919061171b565b508060025f828254610f6c919061168c565b9250508190555061102e565b60015f9054906101000a900473ffffffffffffffffffffffffffffffffffffffff1673ffffffffffffffffffffffffffffffffffffffff1663a9059cbb33836040518363ffffffff1660e01b8152600401610fd49291906116bf565b6020604051808303815f875af1158015610ff0573d5f803e3d5ffd5b505050506040513d601f19601f82011682018060405250810190611014919061171b565b508060035f828254611026919061168c565b925050819055505b5f606460038661103e9190611543565b61104891906115e4565b90505f60028261105891906115e4565b90505f8183611067919061168c565b90505f8054906101000a900473ffffffffffffffffffffffffffffffffffffffff1673ffffffffffffffffffffffffffffffffffffffff168673ffffffffffffffffffffffffffffffffffffffff16036111ac578260025f8282546110cc919061168c565b925050819055505f8054906101000a900473ffffffffffffffffffffffffffffffffffffffff1673ffffffffffffffffffffffffffffffffffffffff1663a9059cbb60065f9054906101000a900473ffffffffffffffffffffffffffffffffffffffff16846040518363ffffffff1660e01b815260040161114e9291906116bf565b6020604051808303815f875af115801561116a573d5f803e3d5ffd5b505050506040513d601f19601f8201168201806040525081019061118e919061171b565b508060045f8282546111a09190611584565b9250508190555061129b565b8260035f8282546111bd919061168c565b9250508190555060015f9054906101000a900473ffffffffffffffffffffffffffffffffffffffff1673ffffffffffffffffffffffffffffffffffffffff1663a9059cbb60065f9054906101000a900473ffffffffffffffffffffffffffffffffffffffff16846040518363ffffffff1660e01b81526004016112419291906116bf565b6020604051808303815f875af115801561125d573d5f803e3d5ffd5b505050506040513d601f19601f82011682018060405250810190611281919061171b565b508060055f8282546112939190611584565b925050819055505b7fad56699d0f375866eb895ed27203058a36a713382aaded78eb6b67da266d43323387878a886040516112d29594939291906119c3565b60405180910390a150505050505050565b60065f9054906101000a900473ffffffffffffffffffffffffffffffffffffffff1681565b5f819050919050565b61131a81611308565b82525050565b5f6020820190506113335f830184611311565b92915050565b5f73ffffffffffffffffffffffffffffffffffffffff82169050919050565b5f819050919050565b5f61137b61137661137184611339565b611358565b611339565b9050919050565b5f61138c82611361565b9050919050565b5f61139d82611382565b9050919050565b6113ad81611393565b82525050565b5f6020820190506113c65f8301846113a4565b92915050565b5f80fd5b6113d981611308565b81146113e3575f80fd5b50565b5f813590506113f4816113d0565b92915050565b5f61140482611339565b9050919050565b611414816113fa565b811461141e575f80fd5b50565b5f8135905061142f8161140b565b92915050565b5f805f6060848603121561144c5761144b6113cc565b5b5f611459868287016113e6565b935050602061146a86828701611421565b925050604061147b86828701611421565b9150509250925092565b5f806040838503121561149b5761149a6113cc565b5b5f6114a8858286016113e6565b92505060206114b9858286016113e6565b9150509250929050565b5f602082840312156114d8576114d76113cc565b5b5f6114e584828501611421565b91505092915050565b6114f7816113fa565b82525050565b5f6020820190506115105f8301846114ee565b92915050565b7f4e487b71000000000000000000000000000000000000000000000000000000005f52601160045260245ffd5b5f61154d82611308565b915061155883611308565b925082820261156681611308565b9150828204841483151761157d5761157c611516565b5b5092915050565b5f61158e82611308565b915061159983611308565b92508282019050808211156115b1576115b0611516565b5b92915050565b7f4e487b71000000000000000000000000000000000000000000000000000000005f52601260045260245ffd5b5f6115ee82611308565b91506115f983611308565b925082611609576116086115b7565b5b828204905092915050565b5f82825260208201905092915050565b7f4e6f206c697175696469747920746f2072656d6f7665000000000000000000005f82015250565b5f611658601683611614565b915061166382611624565b602082019050919050565b5f6020820190508181035f8301526116858161164c565b9050919050565b5f61169682611308565b91506116a183611308565b92508282039050818111156116b9576116b8611516565b5b92915050565b5f6040820190506116d25f8301856114ee565b6116df6020830184611311565b9392505050565b5f8115159050919050565b6116fa816116e6565b8114611704575f80fd5b50565b5f81519050611715816116f1565b92915050565b5f602082840312156117305761172f6113cc565b5b5f61173d84828501611707565b91505092915050565b5f6080820190506117595f8301876114ee565b6117666020830186611311565b6117736040830185611311565b6117806060830184611311565b95945050505050565b7f416d6f756e74732073686f756c642062652067726561746572207468616e207a5f8201527f65726f2e00000000000000000000000000000000000000000000000000000000602082015250565b5f6117e3602483611614565b91506117ee82611789565b604082019050919050565b5f6020820190508181035f830152611810816117d7565b9050919050565b5f81519050611825816113d0565b92915050565b5f602082840312156118405761183f6113cc565b5b5f61184d84828501611817565b91505092915050565b7f496e73756666696369656e74205344542062616c616e636500000000000000005f82015250565b5f61188a601883611614565b915061189582611856565b602082019050919050565b5f6020820190508181035f8301526118b78161187e565b9050919050565b7f496e73756666696369656e7420534b542062616c616e636500000000000000005f82015250565b5f6118f2601883611614565b91506118fd826118be565b602082019050919050565b5f6020820190508181035f83015261191f816118e6565b9050919050565b5f6060820190506119395f8301866114ee565b61194660208301856114ee565b6119536040830184611311565b949350505050565b7f416d6f756e74206d7573742062652067726561746572207468616e20300000005f82015250565b5f61198f601d83611614565b915061199a8261195b565b602082019050919050565b5f6020820190508181035f8301526119bc81611983565b9050919050565b5f60a0820190506119d65f8301886114ee565b6119e360208301876114ee565b6119f060408301866114ee565b6119fd6060830185611311565b611a0a6080830184611311565b969550505050505056fea26469706673582212206fca2374170e5bd60509caf73a9440ed3fd686c8497fd68ca762f8812df2b2e664736f6c63430008160033",
			"opcodes": "PUSH1 0x80 PUSH1 0x40 MSTORE PUSH0 PUSH1 0x2 SSTORE PUSH0 PUSH1 0x3 SSTORE CALLVALUE DUP1 ISZERO PUSH3 0x18 JUMPI PUSH0 DUP1 REVERT JUMPDEST POP PUSH1 0x40 MLOAD PUSH3 0x1C07 CODESIZE SUB DUP1 PUSH3 0x1C07 DUP4 CODECOPY DUP2 DUP2 ADD PUSH1 0x40 MSTORE DUP2 ADD SWAP1 PUSH3 0x3E SWAP2 SWAP1 PUSH3 0x16A JUMP JUMPDEST DUP2 PUSH0 DUP1 PUSH2 0x100 EXP DUP2 SLOAD DUP2 PUSH20 0xFFFFFFFFFFFFFFFFFFFFFFFFFFFFFFFFFFFFFFFF MUL NOT AND SWAP1 DUP4 PUSH20 0xFFFFFFFFFFFFFFFFFFFFFFFFFFFFFFFFFFFFFFFF AND MUL OR SWAP1 SSTORE POP DUP1 PUSH1 0x1 PUSH0 PUSH2 0x100 EXP DUP2 SLOAD DUP2 PUSH20 0xFFFFFFFFFFFFFFFFFFFFFFFFFFFFFFFFFFFFFFFF MUL NOT AND SWAP1 DUP4 PUSH20 0xFFFFFFFFFFFFFFFFFFFFFFFFFFFFFFFFFFFFFFFF AND MUL OR SWAP1 SSTORE POP CALLER PUSH1 0x6 PUSH0 PUSH2 0x100 EXP DUP2 SLOAD DUP2 PUSH20 0xFFFFFFFFFFFFFFFFFFFFFFFFFFFFFFFFFFFFFFFF MUL NOT AND SWAP1 DUP4 PUSH20 0xFFFFFFFFFFFFFFFFFFFFFFFFFFFFFFFFFFFFFFFF AND MUL OR SWAP1 SSTORE POP POP POP PUSH3 0x1AF JUMP JUMPDEST PUSH0 DUP1 REVERT JUMPDEST PUSH0 PUSH20 0xFFFFFFFFFFFFFFFFFFFFFFFFFFFFFFFFFFFFFFFF DUP3 AND SWAP1 POP SWAP2 SWAP1 POP JUMP JUMPDEST PUSH0 PUSH3 0x134 DUP3 PUSH3 0x109 JUMP JUMPDEST SWAP1 POP SWAP2 SWAP1 POP JUMP JUMPDEST PUSH3 0x146 DUP2 PUSH3 0x128 JUMP JUMPDEST DUP2 EQ PUSH3 0x151 JUMPI PUSH0 DUP1 REVERT JUMPDEST POP JUMP JUMPDEST PUSH0 DUP2 MLOAD SWAP1 POP PUSH3 0x164 DUP2 PUSH3 0x13B JUMP JUMPDEST SWAP3 SWAP2 POP POP JUMP JUMPDEST PUSH0 DUP1 PUSH1 0x40 DUP4 DUP6 SUB SLT ISZERO PUSH3 0x183 JUMPI PUSH3 0x182 PUSH3 0x105 JUMP JUMPDEST JUMPDEST PUSH0 PUSH3 0x192 DUP6 DUP3 DUP7 ADD PUSH3 0x154 JUMP JUMPDEST SWAP3 POP POP PUSH1 0x20 PUSH3 0x1A5 DUP6 DUP3 DUP7 ADD PUSH3 0x154 JUMP JUMPDEST SWAP2 POP POP SWAP3 POP SWAP3 SWAP1 POP JUMP JUMPDEST PUSH2 0x1A4A DUP1 PUSH3 0x1BD PUSH0 CODECOPY PUSH0 RETURN INVALID PUSH1 0x80 PUSH1 0x40 MSTORE PUSH1 0x4 CALLDATASIZE LT PUSH2 0xDC JUMPI PUSH0 CALLDATALOAD PUSH1 0xE0 SHR DUP1 PUSH4 0x9CD441DA GT PUSH2 0x7E JUMPI DUP1 PUSH4 0xC5C056E0 GT PUSH2 0x58 JUMPI DUP1 PUSH4 0xC5C056E0 EQ PUSH2 0x274 JUMPI DUP1 PUSH4 0xCCCBC740 EQ PUSH2 0x2B0 JUMPI DUP1 PUSH4 0xF70D1D98 EQ PUSH2 0x2DA JUMPI DUP1 PUSH4 0xF851A440 EQ PUSH2 0x302 JUMPI PUSH2 0xDC JUMP JUMPDEST DUP1 PUSH4 0x9CD441DA EQ PUSH2 0x204 JUMPI DUP1 PUSH4 0xA4520F5C EQ PUSH2 0x220 JUMPI DUP1 PUSH4 0xC57981B5 EQ PUSH2 0x24A JUMPI PUSH2 0xDC JUMP JUMPDEST DUP1 PUSH4 0x578A8812 GT PUSH2 0xBA JUMPI DUP1 PUSH4 0x578A8812 EQ PUSH2 0x15E JUMPI DUP1 PUSH4 0x58261CF8 EQ PUSH2 0x188 JUMPI DUP1 PUSH4 0x67B9A286 EQ PUSH2 0x1C4 JUMPI DUP1 PUSH4 0x6D3A1137 EQ PUSH2 0x1DA JUMPI PUSH2 0xDC JUMP JUMPDEST DUP1 PUSH4 0x15770F92 EQ PUSH2 0xE0 JUMPI DUP1 PUSH4 0x474E8CD6 EQ PUSH2 0x10A JUMPI DUP1 PUSH4 0x4CAE8434 EQ PUSH2 0x134 JUMPI JUMPDEST PUSH0 DUP1 REVERT JUMPDEST CALLVALUE DUP1 ISZERO PUSH2 0xEB JUMPI PUSH0 DUP1 REVERT JUMPDEST POP PUSH2 0xF4 PUSH2 0x32C JUMP JUMPDEST PUSH1 0x40 MLOAD PUSH2 0x101 SWAP2 SWAP1 PUSH2 0x1320 JUMP JUMPDEST PUSH1 0x40 MLOAD DUP1 SWAP2 SUB SWAP1 RETURN JUMPDEST CALLVALUE DUP1 ISZERO PUSH2 0x115 JUMPI PUSH0 DUP1 REVERT JUMPDEST POP PUSH2 0x11E PUSH2 0x332 JUMP JUMPDEST PUSH1 0x40 MLOAD PUSH2 0x12B SWAP2 SWAP1 PUSH2 0x13B3 JUMP JUMPDEST PUSH1 0x40 MLOAD DUP1 SWAP2 SUB SWAP1 RETURN JUMPDEST CALLVALUE DUP1 ISZERO PUSH2 0x13F JUMPI PUSH0 DUP1 REVERT JUMPDEST POP PUSH2 0x148 PUSH2 0x357 JUMP JUMPDEST PUSH1 0x40 MLOAD PUSH2 0x155 SWAP2 SWAP1 PUSH2 0x1320 JUMP JUMPDEST PUSH1 0x40 MLOAD DUP1 SWAP2 SUB SWAP1 RETURN JUMPDEST CALLVALUE DUP1 ISZERO PUSH2 0x169 JUMPI PUSH0 DUP1 REVERT JUMPDEST POP PUSH2 0x172 PUSH2 0x35D JUMP JUMPDEST PUSH1 0x40 MLOAD PUSH2 0x17F SWAP2 SWAP1 PUSH2 0x1320 JUMP JUMPDEST PUSH1 0x40 MLOAD DUP1 SWAP2 SUB SWAP1 RETURN JUMPDEST CALLVALUE DUP1 ISZERO PUSH2 0x193 JUMPI PUSH0 DUP1 REVERT JUMPDEST POP PUSH2 0x1AE PUSH1 0x4 DUP1 CALLDATASIZE SUB DUP2 ADD SWAP1 PUSH2 0x1A9 SWAP2 SWAP1 PUSH2 0x1435 JUMP JUMPDEST PUSH2 0x363 JUMP JUMPDEST PUSH1 0x40 MLOAD PUSH2 0x1BB SWAP2 SWAP1 PUSH2 0x1320 JUMP JUMPDEST PUSH1 0x40 MLOAD DUP1 SWAP2 SUB SWAP1 RETURN JUMPDEST CALLVALUE DUP1 ISZERO PUSH2 0x1CF JUMPI PUSH0 DUP1 REVERT JUMPDEST POP PUSH2 0x1D8 PUSH2 0x485 JUMP JUMPDEST STOP JUMPDEST CALLVALUE DUP1 ISZERO PUSH2 0x1E5 JUMPI PUSH0 DUP1 REVERT JUMPDEST POP PUSH2 0x1EE PUSH2 0x7CE JUMP JUMPDEST PUSH1 0x40 MLOAD PUSH2 0x1FB SWAP2 SWAP1 PUSH2 0x1320 JUMP JUMPDEST PUSH1 0x40 MLOAD DUP1 SWAP2 SUB SWAP1 RETURN JUMPDEST PUSH2 0x21E PUSH1 0x4 DUP1 CALLDATASIZE SUB DUP2 ADD SWAP1 PUSH2 0x219 SWAP2 SWAP1 PUSH2 0x1485 JUMP JUMPDEST PUSH2 0x7D4 JUMP JUMPDEST STOP JUMPDEST CALLVALUE DUP1 ISZERO PUSH2 0x22B JUMPI PUSH0 DUP1 REVERT JUMPDEST POP PUSH2 0x234 PUSH2 0xC17 JUMP JUMPDEST PUSH1 0x40 MLOAD PUSH2 0x241 SWAP2 SWAP1 PUSH2 0x13B3 JUMP JUMPDEST PUSH1 0x40 MLOAD DUP1 SWAP2 SUB SWAP1 RETURN JUMPDEST CALLVALUE DUP1 ISZERO PUSH2 0x255 JUMPI PUSH0 DUP1 REVERT JUMPDEST POP PUSH2 0x25E PUSH2 0xC3A JUMP JUMPDEST PUSH1 0x40 MLOAD PUSH2 0x26B SWAP2 SWAP1 PUSH2 0x1320 JUMP JUMPDEST PUSH1 0x40 MLOAD DUP1 SWAP2 SUB SWAP1 RETURN JUMPDEST CALLVALUE DUP1 ISZERO PUSH2 0x27F JUMPI PUSH0 DUP1 REVERT JUMPDEST POP PUSH2 0x29A PUSH1 0x4 DUP1 CALLDATASIZE SUB DUP2 ADD SWAP1 PUSH2 0x295 SWAP2 SWAP1 PUSH2 0x14C3 JUMP JUMPDEST PUSH2 0xC3F JUMP JUMPDEST PUSH1 0x40 MLOAD PUSH2 0x2A7 SWAP2 SWAP1 PUSH2 0x1320 JUMP JUMPDEST PUSH1 0x40 MLOAD DUP1 SWAP2 SUB SWAP1 RETURN JUMPDEST CALLVALUE DUP1 ISZERO PUSH2 0x2BB JUMPI PUSH0 DUP1 REVERT JUMPDEST POP PUSH2 0x2C4 PUSH2 0xC54 JUMP JUMPDEST PUSH1 0x40 MLOAD PUSH2 0x2D1 SWAP2 SWAP1 PUSH2 0x1320 JUMP JUMPDEST PUSH1 0x40 MLOAD DUP1 SWAP2 SUB SWAP1 RETURN JUMPDEST CALLVALUE DUP1 ISZERO PUSH2 0x2E5 JUMPI PUSH0 DUP1 REVERT JUMPDEST POP PUSH2 0x300 PUSH1 0x4 DUP1 CALLDATASIZE SUB DUP2 ADD SWAP1 PUSH2 0x2FB SWAP2 SWAP1 PUSH2 0x1435 JUMP JUMPDEST PUSH2 0xC5A JUMP JUMPDEST STOP JUMPDEST CALLVALUE DUP1 ISZERO PUSH2 0x30D JUMPI PUSH0 DUP1 REVERT JUMPDEST POP PUSH2 0x316 PUSH2 0x12E3 JUMP JUMPDEST PUSH1 0x40 MLOAD PUSH2 0x323 SWAP2 SWAP1 PUSH2 0x14FD JUMP JUMPDEST PUSH1 0x40 MLOAD DUP1 SWAP2 SUB SWAP1 RETURN JUMPDEST PUSH1 0x7 SLOAD DUP2 JUMP JUMPDEST PUSH1 0x1 PUSH0 SWAP1 SLOAD SWAP1 PUSH2 0x100 EXP SWAP1 DIV PUSH20 0xFFFFFFFFFFFFFFFFFFFFFFFFFFFFFFFFFFFFFFFF AND DUP2 JUMP JUMPDEST PUSH1 0x5 SLOAD DUP2 JUMP JUMPDEST PUSH1 0x4 SLOAD DUP2 JUMP JUMPDEST PUSH0 DUP1 PUSH0 DUP1 SLOAD SWAP1 PUSH2 0x100 EXP SWAP1 DIV PUSH20 0xFFFFFFFFFFFFFFFFFFFFFFFFFFFFFFFFFFFFFFFF AND PUSH20 0xFFFFFFFFFFFFFFFFFFFFFFFFFFFFFFFFFFFFFFFF AND DUP5 PUSH20 0xFFFFFFFFFFFFFFFFFFFFFFFFFFFFFFFFFFFFFFFF AND EQ PUSH2 0x3BF JUMPI PUSH1 0x3 SLOAD PUSH2 0x3C3 JUMP JUMPDEST PUSH1 0x2 SLOAD JUMPDEST SWAP1 POP PUSH0 DUP1 PUSH0 SWAP1 SLOAD SWAP1 PUSH2 0x100 EXP SWAP1 DIV PUSH20 0xFFFFFFFFFFFFFFFFFFFFFFFFFFFFFFFFFFFFFFFF AND PUSH20 0xFFFFFFFFFFFFFFFFFFFFFFFFFFFFFFFFFFFFFFFF AND DUP5 PUSH20 0xFFFFFFFFFFFFFFFFFFFFFFFFFFFFFFFFFFFFFFFF AND EQ PUSH2 0x421 JUMPI PUSH1 0x3 SLOAD PUSH2 0x425 JUMP JUMPDEST PUSH1 0x2 SLOAD JUMPDEST SWAP1 POP PUSH0 PUSH2 0x3E5 DUP8 DUP4 PUSH2 0x437 SWAP2 SWAP1 PUSH2 0x1543 JUMP JUMPDEST PUSH2 0x441 SWAP2 SWAP1 PUSH2 0x1543 JUMP JUMPDEST SWAP1 POP PUSH0 PUSH2 0x3E5 DUP9 PUSH2 0x452 SWAP2 SWAP1 PUSH2 0x1543 JUMP JUMPDEST PUSH2 0x3E8 DUP6 PUSH2 0x460 SWAP2 SWAP1 PUSH2 0x1543 JUMP JUMPDEST PUSH2 0x46A SWAP2 SWAP1 PUSH2 0x1584 JUMP JUMPDEST SWAP1 POP DUP1 DUP3 PUSH2 0x478 SWAP2 SWAP1 PUSH2 0x15E4 JUMP JUMPDEST SWAP5 POP POP POP POP POP SWAP4 SWAP3 POP POP POP JUMP JUMPDEST PUSH0 PUSH1 0x8 PUSH0 CALLER PUSH20 0xFFFFFFFFFFFFFFFFFFFFFFFFFFFFFFFFFFFFFFFF AND PUSH20 0xFFFFFFFFFFFFFFFFFFFFFFFFFFFFFFFFFFFFFFFF AND DUP2 MSTORE PUSH1 0x20 ADD SWAP1 DUP2 MSTORE PUSH1 0x20 ADD PUSH0 KECCAK256 SLOAD SWAP1 POP PUSH0 PUSH1 0x7 SLOAD GT PUSH2 0x50A JUMPI PUSH1 0x40 MLOAD PUSH32 0x8C379A000000000000000000000000000000000000000000000000000000000 DUP2 MSTORE PUSH1 0x4 ADD PUSH2 0x501 SWAP1 PUSH2 0x166E JUMP JUMPDEST PUSH1 0x40 MLOAD DUP1 SWAP2 SUB SWAP1 REVERT JUMPDEST PUSH0 PUSH1 0x7 SLOAD DUP3 PUSH1 0x2 SLOAD PUSH2 0x51C SWAP2 SWAP1 PUSH2 0x1543 JUMP JUMPDEST PUSH2 0x526 SWAP2 SWAP1 PUSH2 0x15E4 JUMP JUMPDEST SWAP1 POP PUSH0 PUSH1 0x7 SLOAD DUP4 PUSH1 0x3 SLOAD PUSH2 0x53A SWAP2 SWAP1 PUSH2 0x1543 JUMP JUMPDEST PUSH2 0x544 SWAP2 SWAP1 PUSH2 0x15E4 JUMP JUMPDEST SWAP1 POP PUSH0 PUSH1 0x7 SLOAD DUP5 PUSH1 0x4 SLOAD PUSH2 0x558 SWAP2 SWAP1 PUSH2 0x1543 JUMP JUMPDEST PUSH2 0x562 SWAP2 SWAP1 PUSH2 0x15E4 JUMP JUMPDEST SWAP1 POP PUSH0 PUSH1 0x7 SLOAD DUP6 PUSH1 0x5 SLOAD PUSH2 0x576 SWAP2 SWAP1 PUSH2 0x1543 JUMP JUMPDEST PUSH2 0x580 SWAP2 SWAP1 PUSH2 0x15E4 JUMP JUMPDEST SWAP1 POP DUP2 PUSH1 0x4 PUSH0 DUP3 DUP3 SLOAD PUSH2 0x593 SWAP2 SWAP1 PUSH2 0x168C JUMP JUMPDEST SWAP3 POP POP DUP2 SWAP1 SSTORE POP DUP1 PUSH1 0x5 PUSH0 DUP3 DUP3 SLOAD PUSH2 0x5AB SWAP2 SWAP1 PUSH2 0x168C JUMP JUMPDEST SWAP3 POP POP DUP2 SWAP1 SSTORE POP PUSH0 DUP1 SLOAD SWAP1 PUSH2 0x100 EXP SWAP1 DIV PUSH20 0xFFFFFFFFFFFFFFFFFFFFFFFFFFFFFFFFFFFFFFFF AND PUSH20 0xFFFFFFFFFFFFFFFFFFFFFFFFFFFFFFFFFFFFFFFF AND PUSH4 0xA9059CBB CALLER DUP5 DUP8 PUSH2 0x5FA SWAP2 SWAP1 PUSH2 0x1584 JUMP JUMPDEST PUSH1 0x40 MLOAD DUP4 PUSH4 0xFFFFFFFF AND PUSH1 0xE0 SHL DUP2 MSTORE PUSH1 0x4 ADD PUSH2 0x617 SWAP3 SWAP2 SWAP1 PUSH2 0x16BF JUMP JUMPDEST PUSH1 0x20 PUSH1 0x40 MLOAD DUP1 DUP4 SUB DUP2 PUSH0 DUP8 GAS CALL ISZERO DUP1 ISZERO PUSH2 0x633 JUMPI RETURNDATASIZE PUSH0 DUP1 RETURNDATACOPY RETURNDATASIZE PUSH0 REVERT JUMPDEST POP POP POP POP PUSH1 0x40 MLOAD RETURNDATASIZE PUSH1 0x1F NOT PUSH1 0x1F DUP3 ADD AND DUP3 ADD DUP1 PUSH1 0x40 MSTORE POP DUP2 ADD SWAP1 PUSH2 0x657 SWAP2 SWAP1 PUSH2 0x171B JUMP JUMPDEST POP PUSH1 0x1 PUSH0 SWAP1 SLOAD SWAP1 PUSH2 0x100 EXP SWAP1 DIV PUSH20 0xFFFFFFFFFFFFFFFFFFFFFFFFFFFFFFFFFFFFFFFF AND PUSH20 0xFFFFFFFFFFFFFFFFFFFFFFFFFFFFFFFFFFFFFFFF AND PUSH4 0xA9059CBB CALLER DUP4 DUP7 PUSH2 0x6A2 SWAP2 SWAP1 PUSH2 0x1584 JUMP JUMPDEST PUSH1 0x40 MLOAD DUP4 PUSH4 0xFFFFFFFF AND PUSH1 0xE0 SHL DUP2 MSTORE PUSH1 0x4 ADD PUSH2 0x6BF SWAP3 SWAP2 SWAP1 PUSH2 0x16BF JUMP JUMPDEST PUSH1 0x20 PUSH1 0x40 MLOAD DUP1 DUP4 SUB DUP2 PUSH0 DUP8 GAS CALL ISZERO DUP1 ISZERO PUSH2 0x6DB JUMPI RETURNDATASIZE PUSH0 DUP1 RETURNDATACOPY RETURNDATASIZE PUSH0 REVERT JUMPDEST POP POP POP POP PUSH1 0x40 MLOAD RETURNDATASIZE PUSH1 0x1F NOT PUSH1 0x1F DUP3 ADD AND DUP3 ADD DUP1 PUSH1 0x40 MSTORE POP DUP2 ADD SWAP1 PUSH2 0x6FF SWAP2 SWAP1 PUSH2 0x171B JUMP JUMPDEST POP DUP4 PUSH1 0x2 PUSH0 DUP3 DUP3 SLOAD PUSH2 0x711 SWAP2 SWAP1 PUSH2 0x168C JUMP JUMPDEST SWAP3 POP POP DUP2 SWAP1 SSTORE POP DUP3 PUSH1 0x3 PUSH0 DUP3 DUP3 SLOAD PUSH2 0x729 SWAP2 SWAP1 PUSH2 0x168C JUMP JUMPDEST SWAP3 POP POP DUP2 SWAP1 SSTORE POP DUP5 PUSH1 0x7 PUSH0 DUP3 DUP3 SLOAD PUSH2 0x741 SWAP2 SWAP1 PUSH2 0x168C JUMP JUMPDEST SWAP3 POP POP DUP2 SWAP1 SSTORE POP PUSH0 PUSH1 0x8 PUSH0 CALLER PUSH20 0xFFFFFFFFFFFFFFFFFFFFFFFFFFFFFFFFFFFFFFFF AND PUSH20 0xFFFFFFFFFFFFFFFFFFFFFFFFFFFFFFFFFFFFFFFF AND DUP2 MSTORE PUSH1 0x20 ADD SWAP1 DUP2 MSTORE PUSH1 0x20 ADD PUSH0 KECCAK256 DUP2 SWAP1 SSTORE POP PUSH32 0x1DC8BB69DF2B8E91FBDCBFCF93D951B3F0000F085A95FE3F7946D6161439245D CALLER DUP6 DUP6 DUP9 PUSH1 0x40 MLOAD PUSH2 0x7BF SWAP5 SWAP4 SWAP3 SWAP2 SWAP1 PUSH2 0x1746 JUMP JUMPDEST PUSH1 0x40 MLOAD DUP1 SWAP2 SUB SWAP1 LOG1 POP POP POP POP POP JUMP JUMPDEST PUSH1 0x2 SLOAD DUP2 JUMP JUMPDEST PUSH0 DUP3 GT DUP1 ISZERO PUSH2 0x7E2 JUMPI POP PUSH0 DUP2 GT JUMPDEST PUSH2 0x821 JUMPI PUSH1 0x40 MLOAD PUSH32 0x8C379A000000000000000000000000000000000000000000000000000000000 DUP2 MSTORE PUSH1 0x4 ADD PUSH2 0x818 SWAP1 PUSH2 0x17F9 JUMP JUMPDEST PUSH1 0x40 MLOAD DUP1 SWAP2 SUB SWAP1 REVERT JUMPDEST DUP2 PUSH0 DUP1 SLOAD SWAP1 PUSH2 0x100 EXP SWAP1 DIV PUSH20 0xFFFFFFFFFFFFFFFFFFFFFFFFFFFFFFFFFFFFFFFF AND PUSH20 0xFFFFFFFFFFFFFFFFFFFFFFFFFFFFFFFFFFFFFFFF AND PUSH4 0x70A08231 CALLER PUSH1 0x40 MLOAD DUP3 PUSH4 0xFFFFFFFF AND PUSH1 0xE0 SHL DUP2 MSTORE PUSH1 0x4 ADD PUSH2 0x87A SWAP2 SWAP1 PUSH2 0x14FD JUMP JUMPDEST PUSH1 0x20 PUSH1 0x40 MLOAD DUP1 DUP4 SUB DUP2 DUP7 GAS STATICCALL ISZERO DUP1 ISZERO PUSH2 0x895 JUMPI RETURNDATASIZE PUSH0 DUP1 RETURNDATACOPY RETURNDATASIZE PUSH0 REVERT JUMPDEST POP POP POP POP PUSH1 0x40 MLOAD RETURNDATASIZE PUSH1 0x1F NOT PUSH1 0x1F DUP3 ADD AND DUP3 ADD DUP1 PUSH1 0x40 MSTORE POP DUP2 ADD SWAP1 PUSH2 0x8B9 SWAP2 SWAP1 PUSH2 0x182B JUMP JUMPDEST LT ISZERO PUSH2 0x8FA JUMPI PUSH1 0x40 MLOAD PUSH32 0x8C379A000000000000000000000000000000000000000000000000000000000 DUP2 MSTORE PUSH1 0x4 ADD PUSH2 0x8F1 SWAP1 PUSH2 0x18A0 JUMP JUMPDEST PUSH1 0x40 MLOAD DUP1 SWAP2 SUB SWAP1 REVERT JUMPDEST DUP1 PUSH1 0x1 PUSH0 SWAP1 SLOAD SWAP1 PUSH2 0x100 EXP SWAP1 DIV PUSH20 0xFFFFFFFFFFFFFFFFFFFFFFFFFFFFFFFFFFFFFFFF AND PUSH20 0xFFFFFFFFFFFFFFFFFFFFFFFFFFFFFFFFFFFFFFFF AND PUSH4 0x70A08231 CALLER PUSH1 0x40 MLOAD DUP3 PUSH4 0xFFFFFFFF AND PUSH1 0xE0 SHL DUP2 MSTORE PUSH1 0x4 ADD PUSH2 0x955 SWAP2 SWAP1 PUSH2 0x14FD JUMP JUMPDEST PUSH1 0x20 PUSH1 0x40 MLOAD DUP1 DUP4 SUB DUP2 DUP7 GAS STATICCALL ISZERO DUP1 ISZERO PUSH2 0x970 JUMPI RETURNDATASIZE PUSH0 DUP1 RETURNDATACOPY RETURNDATASIZE PUSH0 REVERT JUMPDEST POP POP POP POP PUSH1 0x40 MLOAD RETURNDATASIZE PUSH1 0x1F NOT PUSH1 0x1F DUP3 ADD AND DUP3 ADD DUP1 PUSH1 0x40 MSTORE POP DUP2 ADD SWAP1 PUSH2 0x994 SWAP2 SWAP1 PUSH2 0x182B JUMP JUMPDEST LT ISZERO PUSH2 0x9D5 JUMPI PUSH1 0x40 MLOAD PUSH32 0x8C379A000000000000000000000000000000000000000000000000000000000 DUP2 MSTORE PUSH1 0x4 ADD PUSH2 0x9CC SWAP1 PUSH2 0x1908 JUMP JUMPDEST PUSH1 0x40 MLOAD DUP1 SWAP2 SUB SWAP1 REVERT JUMPDEST PUSH0 DUP1 PUSH1 0x7 SLOAD SUB PUSH2 0x9FD JUMPI DUP3 PUSH1 0x2 DUP2 SWAP1 SSTORE POP DUP2 PUSH1 0x3 DUP2 SWAP1 SSTORE POP PUSH8 0xDE0B6B3A7640000 SWAP1 POP PUSH2 0xA2E JUMP JUMPDEST PUSH1 0x2 SLOAD PUSH1 0x7 SLOAD PUSH8 0xDE0B6B3A7640000 DUP6 PUSH2 0xA17 SWAP2 SWAP1 PUSH2 0x1543 JUMP JUMPDEST PUSH2 0xA21 SWAP2 SWAP1 PUSH2 0x1543 JUMP JUMPDEST PUSH2 0xA2B SWAP2 SWAP1 PUSH2 0x15E4 JUMP JUMPDEST SWAP1 POP JUMPDEST PUSH0 DUP1 SLOAD SWAP1 PUSH2 0x100 EXP SWAP1 DIV PUSH20 0xFFFFFFFFFFFFFFFFFFFFFFFFFFFFFFFFFFFFFFFF AND PUSH20 0xFFFFFFFFFFFFFFFFFFFFFFFFFFFFFFFFFFFFFFFF AND PUSH4 0x23B872DD CALLER ADDRESS DUP7 PUSH1 0x40 MLOAD DUP5 PUSH4 0xFFFFFFFF AND PUSH1 0xE0 SHL DUP2 MSTORE PUSH1 0x4 ADD PUSH2 0xA8A SWAP4 SWAP3 SWAP2 SWAP1 PUSH2 0x1926 JUMP JUMPDEST PUSH1 0x20 PUSH1 0x40 MLOAD DUP1 DUP4 SUB DUP2 PUSH0 DUP8 GAS CALL ISZERO DUP1 ISZERO PUSH2 0xAA6 JUMPI RETURNDATASIZE PUSH0 DUP1 RETURNDATACOPY RETURNDATASIZE PUSH0 REVERT JUMPDEST POP POP POP POP PUSH1 0x40 MLOAD RETURNDATASIZE PUSH1 0x1F NOT PUSH1 0x1F DUP3 ADD AND DUP3 ADD DUP1 PUSH1 0x40 MSTORE POP DUP2 ADD SWAP1 PUSH2 0xACA SWAP2 SWAP1 PUSH2 0x171B JUMP JUMPDEST POP PUSH1 0x1 PUSH0 SWAP1 SLOAD SWAP1 PUSH2 0x100 EXP SWAP1 DIV PUSH20 0xFFFFFFFFFFFFFFFFFFFFFFFFFFFFFFFFFFFFFFFF AND PUSH20 0xFFFFFFFFFFFFFFFFFFFFFFFFFFFFFFFFFFFFFFFF AND PUSH4 0x23B872DD CALLER ADDRESS DUP6 PUSH1 0x40 MLOAD DUP5 PUSH4 0xFFFFFFFF AND PUSH1 0xE0 SHL DUP2 MSTORE PUSH1 0x4 ADD PUSH2 0xB29 SWAP4 SWAP3 SWAP2 SWAP1 PUSH2 0x1926 JUMP JUMPDEST PUSH1 0x20 PUSH1 0x40 MLOAD DUP1 DUP4 SUB DUP2 PUSH0 DUP8 GAS CALL ISZERO DUP1 ISZERO PUSH2 0xB45 JUMPI RETURNDATASIZE PUSH0 DUP1 RETURNDATACOPY RETURNDATASIZE PUSH0 REVERT JUMPDEST POP POP POP POP PUSH1 0x40 MLOAD RETURNDATASIZE PUSH1 0x1F NOT PUSH1 0x1F DUP3 ADD AND DUP3 ADD DUP1 PUSH1 0x40 MSTORE POP DUP2 ADD SWAP1 PUSH2 0xB69 SWAP2 SWAP1 PUSH2 0x171B JUMP JUMPDEST POP DUP1 PUSH1 0x8 PUSH0 CALLER PUSH20 0xFFFFFFFFFFFFFFFFFFFFFFFFFFFFFFFFFFFFFFFF AND PUSH20 0xFFFFFFFFFFFFFFFFFFFFFFFFFFFFFFFFFFFFFFFF AND DUP2 MSTORE PUSH1 0x20 ADD SWAP1 DUP2 MSTORE PUSH1 0x20 ADD PUSH0 KECCAK256 PUSH0 DUP3 DUP3 SLOAD PUSH2 0xBB6 SWAP2 SWAP1 PUSH2 0x1584 JUMP JUMPDEST SWAP3 POP POP DUP2 SWAP1 SSTORE POP DUP1 PUSH1 0x7 PUSH0 DUP3 DUP3 SLOAD PUSH2 0xBCE SWAP2 SWAP1 PUSH2 0x1584 JUMP JUMPDEST SWAP3 POP POP DUP2 SWAP1 SSTORE POP PUSH32 0x64B83944E79C3CE8D4C297411DE637C3E102D064677AAC0C163976EBDCD6F50E CALLER DUP5 DUP5 DUP5 PUSH1 0x40 MLOAD PUSH2 0xC0A SWAP5 SWAP4 SWAP3 SWAP2 SWAP1 PUSH2 0x1746 JUMP JUMPDEST PUSH1 0x40 MLOAD DUP1 SWAP2 SUB SWAP1 LOG1 POP POP POP JUMP JUMPDEST PUSH0 DUP1 SLOAD SWAP1 PUSH2 0x100 EXP SWAP1 DIV PUSH20 0xFFFFFFFFFFFFFFFFFFFFFFFFFFFFFFFFFFFFFFFF AND DUP2 JUMP JUMPDEST PUSH1 0x3 DUP2 JUMP JUMPDEST PUSH1 0x8 PUSH1 0x20 MSTORE DUP1 PUSH0 MSTORE PUSH1 0x40 PUSH0 KECCAK256 PUSH0 SWAP2 POP SWAP1 POP SLOAD DUP2 JUMP JUMPDEST PUSH1 0x3 SLOAD DUP2 JUMP JUMPDEST PUSH0 DUP4 GT PUSH2 0xC9C JUMPI PUSH1 0x40 MLOAD PUSH32 0x8C379A000000000000000000000000000000000000000000000000000000000 DUP2 MSTORE PUSH1 0x4 ADD PUSH2 0xC93 SWAP1 PUSH2 0x19A5 JUMP JUMPDEST PUSH1 0x40 MLOAD DUP1 SWAP2 SUB SWAP1 REVERT JUMPDEST PUSH0 PUSH2 0xCA8 DUP5 DUP5 DUP5 PUSH2 0x363 JUMP JUMPDEST SWAP1 POP PUSH0 DUP1 SLOAD SWAP1 PUSH2 0x100 EXP SWAP1 DIV PUSH20 0xFFFFFFFFFFFFFFFFFFFFFFFFFFFFFFFFFFFFFFFF AND PUSH20 0xFFFFFFFFFFFFFFFFFFFFFFFFFFFFFFFFFFFFFFFF AND DUP4 PUSH20 0xFFFFFFFFFFFFFFFFFFFFFFFFFFFFFFFFFFFFFFFF AND SUB PUSH2 0xDB6 JUMPI DUP4 PUSH1 0x2 PUSH0 DUP3 DUP3 SLOAD PUSH2 0xD0D SWAP2 SWAP1 PUSH2 0x1584 JUMP JUMPDEST SWAP3 POP POP DUP2 SWAP1 SSTORE POP PUSH0 DUP1 SLOAD SWAP1 PUSH2 0x100 EXP SWAP1 DIV PUSH20 0xFFFFFFFFFFFFFFFFFFFFFFFFFFFFFFFFFFFFFFFF AND PUSH20 0xFFFFFFFFFFFFFFFFFFFFFFFFFFFFFFFFFFFFFFFF AND PUSH4 0x23B872DD CALLER ADDRESS DUP8 PUSH1 0x40 MLOAD DUP5 PUSH4 0xFFFFFFFF AND PUSH1 0xE0 SHL DUP2 MSTORE PUSH1 0x4 ADD PUSH2 0xD70 SWAP4 SWAP3 SWAP2 SWAP1 PUSH2 0x1926 JUMP JUMPDEST PUSH1 0x20 PUSH1 0x40 MLOAD DUP1 DUP4 SUB DUP2 PUSH0 DUP8 GAS CALL ISZERO DUP1 ISZERO PUSH2 0xD8C JUMPI RETURNDATASIZE PUSH0 DUP1 RETURNDATACOPY RETURNDATASIZE PUSH0 REVERT JUMPDEST POP POP POP POP PUSH1 0x40 MLOAD RETURNDATASIZE PUSH1 0x1F NOT PUSH1 0x1F DUP3 ADD AND DUP3 ADD DUP1 PUSH1 0x40 MSTORE POP DUP2 ADD SWAP1 PUSH2 0xDB0 SWAP2 SWAP1 PUSH2 0x171B JUMP JUMPDEST POP PUSH2 0xE6E JUMP JUMPDEST DUP4 PUSH1 0x3 PUSH0 DUP3 DUP3 SLOAD PUSH2 0xDC7 SWAP2 SWAP1 PUSH2 0x1584 JUMP JUMPDEST SWAP3 POP POP DUP2 SWAP1 SSTORE POP PUSH1 0x1 PUSH0 SWAP1 SLOAD SWAP1 PUSH2 0x100 EXP SWAP1 DIV PUSH20 0xFFFFFFFFFFFFFFFFFFFFFFFFFFFFFFFFFFFFFFFF AND PUSH20 0xFFFFFFFFFFFFFFFFFFFFFFFFFFFFFFFFFFFFFFFF AND PUSH4 0x23B872DD CALLER ADDRESS DUP8 PUSH1 0x40 MLOAD DUP5 PUSH4 0xFFFFFFFF AND PUSH1 0xE0 SHL DUP2 MSTORE PUSH1 0x4 ADD PUSH2 0xE2C SWAP4 SWAP3 SWAP2 SWAP1 PUSH2 0x1926 JUMP JUMPDEST PUSH1 0x20 PUSH1 0x40 MLOAD DUP1 DUP4 SUB DUP2 PUSH0 DUP8 GAS CALL ISZERO DUP1 ISZERO PUSH2 0xE48 JUMPI RETURNDATASIZE PUSH0 DUP1 RETURNDATACOPY RETURNDATASIZE PUSH0 REVERT JUMPDEST POP POP POP POP PUSH1 0x40 MLOAD RETURNDATASIZE PUSH1 0x1F NOT PUSH1 0x1F DUP3 ADD AND DUP3 ADD DUP1 PUSH1 0x40 MSTORE POP DUP2 ADD SWAP1 PUSH2 0xE6C SWAP2 SWAP1 PUSH2 0x171B JUMP JUMPDEST POP JUMPDEST PUSH0 DUP1 SLOAD SWAP1 PUSH2 0x100 EXP SWAP1 DIV PUSH20 0xFFFFFFFFFFFFFFFFFFFFFFFFFFFFFFFFFFFFFFFF AND PUSH20 0xFFFFFFFFFFFFFFFFFFFFFFFFFFFFFFFFFFFFFFFF AND DUP3 PUSH20 0xFFFFFFFFFFFFFFFFFFFFFFFFFFFFFFFFFFFFFFFF AND SUB PUSH2 0xF78 JUMPI PUSH0 DUP1 SLOAD SWAP1 PUSH2 0x100 EXP SWAP1 DIV PUSH20 0xFFFFFFFFFFFFFFFFFFFFFFFFFFFFFFFFFFFFFFFF AND PUSH20 0xFFFFFFFFFFFFFFFFFFFFFFFFFFFFFFFFFFFFFFFF AND PUSH4 0xA9059CBB CALLER DUP4 PUSH1 0x40 MLOAD DUP4 PUSH4 0xFFFFFFFF AND PUSH1 0xE0 SHL DUP2 MSTORE PUSH1 0x4 ADD PUSH2 0xF1A SWAP3 SWAP2 SWAP1 PUSH2 0x16BF JUMP JUMPDEST PUSH1 0x20 PUSH1 0x40 MLOAD DUP1 DUP4 SUB DUP2 PUSH0 DUP8 GAS CALL ISZERO DUP1 ISZERO PUSH2 0xF36 JUMPI RETURNDATASIZE PUSH0 DUP1 RETURNDATACOPY RETURNDATASIZE PUSH0 REVERT JUMPDEST POP POP POP POP PUSH1 0x40 MLOAD RETURNDATASIZE PUSH1 0x1F NOT PUSH1 0x1F DUP3 ADD AND DUP3 ADD DUP1 PUSH1 0x40 MSTORE POP DUP2 ADD SWAP1 PUSH2 0xF5A SWAP2 SWAP1 PUSH2 0x171B JUMP JUMPDEST POP DUP1 PUSH1 0x2 PUSH0 DUP3 DUP3 SLOAD PUSH2 0xF6C SWAP2 SWAP1 PUSH2 0x168C JUMP JUMPDEST SWAP3 POP POP DUP2 SWAP1 SSTORE POP PUSH2 0x102E JUMP JUMPDEST PUSH1 0x1 PUSH0 SWAP1 SLOAD SWAP1 PUSH2 0x100 EXP SWAP1 DIV PUSH20 0xFFFFFFFFFFFFFFFFFFFFFFFFFFFFFFFFFFFFFFFF AND PUSH20 0xFFFFFFFFFFFFFFFFFFFFFFFFFFFFFFFFFFFFFFFF AND PUSH4 0xA9059CBB CALLER DUP4 PUSH1 0x40 MLOAD DUP4 PUSH4 0xFFFFFFFF AND PUSH1 0xE0 SHL DUP2 MSTORE PUSH1 0x4 ADD PUSH2 0xFD4 SWAP3 SWAP2 SWAP1 PUSH2 0x16BF JUMP JUMPDEST PUSH1 0x20 PUSH1 0x40 MLOAD DUP1 DUP4 SUB DUP2 PUSH0 DUP8 GAS CALL ISZERO DUP1 ISZERO PUSH2 0xFF0 JUMPI RETURNDATASIZE PUSH0 DUP1 RETURNDATACOPY RETURNDATASIZE PUSH0 REVERT JUMPDEST POP POP POP POP PUSH1 0x40 MLOAD RETURNDATASIZE PUSH1 0x1F NOT PUSH1 0x1F DUP3 ADD AND DUP3 ADD DUP1 PUSH1 0x40 MSTORE POP DUP2 ADD SWAP1 PUSH2 0x1014 SWAP2 SWAP1 PUSH2 0x171B JUMP JUMPDEST POP DUP1 PUSH1 0x3 PUSH0 DUP3 DUP3 SLOAD PUSH2 0x1026 SWAP2 SWAP1 PUSH2 0x168C JUMP JUMPDEST SWAP3 POP POP DUP2 SWAP1 SSTORE POP JUMPDEST PUSH0 PUSH1 0x64 PUSH1 0x3 DUP7 PUSH2 0x103E SWAP2 SWAP1 PUSH2 0x1543 JUMP JUMPDEST PUSH2 0x1048 SWAP2 SWAP1 PUSH2 0x15E4 JUMP JUMPDEST SWAP1 POP PUSH0 PUSH1 0x2 DUP3 PUSH2 0x1058 SWAP2 SWAP1 PUSH2 0x15E4 JUMP JUMPDEST SWAP1 POP PUSH0 DUP2 DUP4 PUSH2 0x1067 SWAP2 SWAP1 PUSH2 0x168C JUMP JUMPDEST SWAP1 POP PUSH0 DUP1 SLOAD SWAP1 PUSH2 0x100 EXP SWAP1 DIV PUSH20 0xFFFFFFFFFFFFFFFFFFFFFFFFFFFFFFFFFFFFFFFF AND PUSH20 0xFFFFFFFFFFFFFFFFFFFFFFFFFFFFFFFFFFFFFFFF AND DUP7 PUSH20 0xFFFFFFFFFFFFFFFFFFFFFFFFFFFFFFFFFFFFFFFF AND SUB PUSH2 0x11AC JUMPI DUP3 PUSH1 0x2 PUSH0 DUP3 DUP3 SLOAD PUSH2 0x10CC SWAP2 SWAP1 PUSH2 0x168C JUMP JUMPDEST SWAP3 POP POP DUP2 SWAP1 SSTORE POP PUSH0 DUP1 SLOAD SWAP1 PUSH2 0x100 EXP SWAP1 DIV PUSH20 0xFFFFFFFFFFFFFFFFFFFFFFFFFFFFFFFFFFFFFFFF AND PUSH20 0xFFFFFFFFFFFFFFFFFFFFFFFFFFFFFFFFFFFFFFFF AND PUSH4 0xA9059CBB PUSH1 0x6 PUSH0 SWAP1 SLOAD SWAP1 PUSH2 0x100 EXP SWAP1 DIV PUSH20 0xFFFFFFFFFFFFFFFFFFFFFFFFFFFFFFFFFFFFFFFF AND DUP5 PUSH1 0x40 MLOAD DUP4 PUSH4 0xFFFFFFFF AND PUSH1 0xE0 SHL DUP2 MSTORE PUSH1 0x4 ADD PUSH2 0x114E SWAP3 SWAP2 SWAP1 PUSH2 0x16BF JUMP JUMPDEST PUSH1 0x20 PUSH1 0x40 MLOAD DUP1 DUP4 SUB DUP2 PUSH0 DUP8 GAS CALL ISZERO DUP1 ISZERO PUSH2 0x116A JUMPI RETURNDATASIZE PUSH0 DUP1 RETURNDATACOPY RETURNDATASIZE PUSH0 REVERT JUMPDEST POP POP POP POP PUSH1 0x40 MLOAD RETURNDATASIZE PUSH1 0x1F NOT PUSH1 0x1F DUP3 ADD AND DUP3 ADD DUP1 PUSH1 0x40 MSTORE POP DUP2 ADD SWAP1 PUSH2 0x118E SWAP2 SWAP1 PUSH2 0x171B JUMP JUMPDEST POP DUP1 PUSH1 0x4 PUSH0 DUP3 DUP3 SLOAD PUSH2 0x11A0 SWAP2 SWAP1 PUSH2 0x1584 JUMP JUMPDEST SWAP3 POP POP DUP2 SWAP1 SSTORE POP PUSH2 0x129B JUMP JUMPDEST DUP3 PUSH1 0x3 PUSH0 DUP3 DUP3 SLOAD PUSH2 0x11BD SWAP2 SWAP1 PUSH2 0x168C JUMP JUMPDEST SWAP3 POP POP DUP2 SWAP1 SSTORE POP PUSH1 0x1 PUSH0 SWAP1 SLOAD SWAP1 PUSH2 0x100 EXP SWAP1 DIV PUSH20 0xFFFFFFFFFFFFFFFFFFFFFFFFFFFFFFFFFFFFFFFF AND PUSH20 0xFFFFFFFFFFFFFFFFFFFFFFFFFFFFFFFFFFFFFFFF AND PUSH4 0xA9059CBB PUSH1 0x6 PUSH0 SWAP1 SLOAD SWAP1 PUSH2 0x100 EXP SWAP1 DIV PUSH20 0xFFFFFFFFFFFFFFFFFFFFFFFFFFFFFFFFFFFFFFFF AND DUP5 PUSH1 0x40 MLOAD DUP4 PUSH4 0xFFFFFFFF AND PUSH1 0xE0 SHL DUP2 MSTORE PUSH1 0x4 ADD PUSH2 0x1241 SWAP3 SWAP2 SWAP1 PUSH2 0x16BF JUMP JUMPDEST PUSH1 0x20 PUSH1 0x40 MLOAD DUP1 DUP4 SUB DUP2 PUSH0 DUP8 GAS CALL ISZERO DUP1 ISZERO PUSH2 0x125D JUMPI RETURNDATASIZE PUSH0 DUP1 RETURNDATACOPY RETURNDATASIZE PUSH0 REVERT JUMPDEST POP POP POP POP PUSH1 0x40 MLOAD RETURNDATASIZE PUSH1 0x1F NOT PUSH1 0x1F DUP3 ADD AND DUP3 ADD DUP1 PUSH1 0x40 MSTORE POP DUP2 ADD SWAP1 PUSH2 0x1281 SWAP2 SWAP1 PUSH2 0x171B JUMP JUMPDEST POP DUP1 PUSH1 0x5 PUSH0 DUP3 DUP3 SLOAD PUSH2 0x1293 SWAP2 SWAP1 PUSH2 0x1584 JUMP JUMPDEST SWAP3 POP POP DUP2 SWAP1 SSTORE POP JUMPDEST PUSH32 0xAD56699D0F375866EB895ED27203058A36A713382AADED78EB6B67DA266D4332 CALLER DUP8 DUP8 DUP11 DUP9 PUSH1 0x40 MLOAD PUSH2 0x12D2 SWAP6 SWAP5 SWAP4 SWAP3 SWAP2 SWAP1 PUSH2 0x19C3 JUMP JUMPDEST PUSH1 0x40 MLOAD DUP1 SWAP2 SUB SWAP1 LOG1 POP POP POP POP POP POP POP JUMP JUMPDEST PUSH1 0x6 PUSH0 SWAP1 SLOAD SWAP1 PUSH2 0x100 EXP SWAP1 DIV PUSH20 0xFFFFFFFFFFFFFFFFFFFFFFFFFFFFFFFFFFFFFFFF AND DUP2 JUMP JUMPDEST PUSH0 DUP2 SWAP1 POP SWAP2 SWAP1 POP JUMP JUMPDEST PUSH2 0x131A DUP2 PUSH2 0x1308 JUMP JUMPDEST DUP3 MSTORE POP POP JUMP JUMPDEST PUSH0 PUSH1 0x20 DUP3 ADD SWAP1 POP PUSH2 0x1333 PUSH0 DUP4 ADD DUP5 PUSH2 0x1311 JUMP JUMPDEST SWAP3 SWAP2 POP POP JUMP JUMPDEST PUSH0 PUSH20 0xFFFFFFFFFFFFFFFFFFFFFFFFFFFFFFFFFFFFFFFF DUP3 AND SWAP1 POP SWAP2 SWAP1 POP JUMP JUMPDEST PUSH0 DUP2 SWAP1 POP SWAP2 SWAP1 POP JUMP JUMPDEST PUSH0 PUSH2 0x137B PUSH2 0x1376 PUSH2 0x1371 DUP5 PUSH2 0x1339 JUMP JUMPDEST PUSH2 0x1358 JUMP JUMPDEST PUSH2 0x1339 JUMP JUMPDEST SWAP1 POP SWAP2 SWAP1 POP JUMP JUMPDEST PUSH0 PUSH2 0x138C DUP3 PUSH2 0x1361 JUMP JUMPDEST SWAP1 POP SWAP2 SWAP1 POP JUMP JUMPDEST PUSH0 PUSH2 0x139D DUP3 PUSH2 0x1382 JUMP JUMPDEST SWAP1 POP SWAP2 SWAP1 POP JUMP JUMPDEST PUSH2 0x13AD DUP2 PUSH2 0x1393 JUMP JUMPDEST DUP3 MSTORE POP POP JUMP JUMPDEST PUSH0 PUSH1 0x20 DUP3 ADD SWAP1 POP PUSH2 0x13C6 PUSH0 DUP4 ADD DUP5 PUSH2 0x13A4 JUMP JUMPDEST SWAP3 SWAP2 POP POP JUMP JUMPDEST PUSH0 DUP1 REVERT JUMPDEST PUSH2 0x13D9 DUP2 PUSH2 0x1308 JUMP JUMPDEST DUP2 EQ PUSH2 0x13E3 JUMPI PUSH0 DUP1 REVERT JUMPDEST POP JUMP JUMPDEST PUSH0 DUP2 CALLDATALOAD SWAP1 POP PUSH2 0x13F4 DUP2 PUSH2 0x13D0 JUMP JUMPDEST SWAP3 SWAP2 POP POP JUMP JUMPDEST PUSH0 PUSH2 0x1404 DUP3 PUSH2 0x1339 JUMP JUMPDEST SWAP1 POP SWAP2 SWAP1 POP JUMP JUMPDEST PUSH2 0x1414 DUP2 PUSH2 0x13FA JUMP JUMPDEST DUP2 EQ PUSH2 0x141E JUMPI PUSH0 DUP1 REVERT JUMPDEST POP JUMP JUMPDEST PUSH0 DUP2 CALLDATALOAD SWAP1 POP PUSH2 0x142F DUP2 PUSH2 0x140B JUMP JUMPDEST SWAP3 SWAP2 POP POP JUMP JUMPDEST PUSH0 DUP1 PUSH0 PUSH1 0x60 DUP5 DUP7 SUB SLT ISZERO PUSH2 0x144C JUMPI PUSH2 0x144B PUSH2 0x13CC JUMP JUMPDEST JUMPDEST PUSH0 PUSH2 0x1459 DUP7 DUP3 DUP8 ADD PUSH2 0x13E6 JUMP JUMPDEST SWAP4 POP POP PUSH1 0x20 PUSH2 0x146A DUP7 DUP3 DUP8 ADD PUSH2 0x1421 JUMP JUMPDEST SWAP3 POP POP PUSH1 0x40 PUSH2 0x147B DUP7 DUP3 DUP8 ADD PUSH2 0x1421 JUMP JUMPDEST SWAP2 POP POP SWAP3 POP SWAP3 POP SWAP3 JUMP JUMPDEST PUSH0 DUP1 PUSH1 0x40 DUP4 DUP6 SUB SLT ISZERO PUSH2 0x149B JUMPI PUSH2 0x149A PUSH2 0x13CC JUMP JUMPDEST JUMPDEST PUSH0 PUSH2 0x14A8 DUP6 DUP3 DUP7 ADD PUSH2 0x13E6 JUMP JUMPDEST SWAP3 POP POP PUSH1 0x20 PUSH2 0x14B9 DUP6 DUP3 DUP7 ADD PUSH2 0x13E6 JUMP JUMPDEST SWAP2 POP POP SWAP3 POP SWAP3 SWAP1 POP JUMP JUMPDEST PUSH0 PUSH1 0x20 DUP3 DUP5 SUB SLT ISZERO PUSH2 0x14D8 JUMPI PUSH2 0x14D7 PUSH2 0x13CC JUMP JUMPDEST JUMPDEST PUSH0 PUSH2 0x14E5 DUP5 DUP3 DUP6 ADD PUSH2 0x1421 JUMP JUMPDEST SWAP2 POP POP SWAP3 SWAP2 POP POP JUMP JUMPDEST PUSH2 0x14F7 DUP2 PUSH2 0x13FA JUMP JUMPDEST DUP3 MSTORE POP POP JUMP JUMPDEST PUSH0 PUSH1 0x20 DUP3 ADD SWAP1 POP PUSH2 0x1510 PUSH0 DUP4 ADD DUP5 PUSH2 0x14EE JUMP JUMPDEST SWAP3 SWAP2 POP POP JUMP JUMPDEST PUSH32 0x4E487B7100000000000000000000000000000000000000000000000000000000 PUSH0 MSTORE PUSH1 0x11 PUSH1 0x4 MSTORE PUSH1 0x24 PUSH0 REVERT JUMPDEST PUSH0 PUSH2 0x154D DUP3 PUSH2 0x1308 JUMP JUMPDEST SWAP2 POP PUSH2 0x1558 DUP4 PUSH2 0x1308 JUMP JUMPDEST SWAP3 POP DUP3 DUP3 MUL PUSH2 0x1566 DUP2 PUSH2 0x1308 JUMP JUMPDEST SWAP2 POP DUP3 DUP3 DIV DUP5 EQ DUP4 ISZERO OR PUSH2 0x157D JUMPI PUSH2 0x157C PUSH2 0x1516 JUMP JUMPDEST JUMPDEST POP SWAP3 SWAP2 POP POP JUMP JUMPDEST PUSH0 PUSH2 0x158E DUP3 PUSH2 0x1308 JUMP JUMPDEST SWAP2 POP PUSH2 0x1599 DUP4 PUSH2 0x1308 JUMP JUMPDEST SWAP3 POP DUP3 DUP3 ADD SWAP1 POP DUP1 DUP3 GT ISZERO PUSH2 0x15B1 JUMPI PUSH2 0x15B0 PUSH2 0x1516 JUMP JUMPDEST JUMPDEST SWAP3 SWAP2 POP POP JUMP JUMPDEST PUSH32 0x4E487B7100000000000000000000000000000000000000000000000000000000 PUSH0 MSTORE PUSH1 0x12 PUSH1 0x4 MSTORE PUSH1 0x24 PUSH0 REVERT JUMPDEST PUSH0 PUSH2 0x15EE DUP3 PUSH2 0x1308 JUMP JUMPDEST SWAP2 POP PUSH2 0x15F9 DUP4 PUSH2 0x1308 JUMP JUMPDEST SWAP3 POP DUP3 PUSH2 0x1609 JUMPI PUSH2 0x1608 PUSH2 0x15B7 JUMP JUMPDEST JUMPDEST DUP3 DUP3 DIV SWAP1 POP SWAP3 SWAP2 POP POP JUMP JUMPDEST PUSH0 DUP3 DUP3 MSTORE PUSH1 0x20 DUP3 ADD SWAP1 POP SWAP3 SWAP2 POP POP JUMP JUMPDEST PUSH32 0x4E6F206C697175696469747920746F2072656D6F766500000000000000000000 PUSH0 DUP3 ADD MSTORE POP JUMP JUMPDEST PUSH0 PUSH2 0x1658 PUSH1 0x16 DUP4 PUSH2 0x1614 JUMP JUMPDEST SWAP2 POP PUSH2 0x1663 DUP3 PUSH2 0x1624 JUMP JUMPDEST PUSH1 0x20 DUP3 ADD SWAP1 POP SWAP2 SWAP1 POP JUMP JUMPDEST PUSH0 PUSH1 0x20 DUP3 ADD SWAP1 POP DUP2 DUP2 SUB PUSH0 DUP4 ADD MSTORE PUSH2 0x1685 DUP2 PUSH2 0x164C JUMP JUMPDEST SWAP1 POP SWAP2 SWAP1 POP JUMP JUMPDEST PUSH0 PUSH2 0x1696 DUP3 PUSH2 0x1308 JUMP JUMPDEST SWAP2 POP PUSH2 0x16A1 DUP4 PUSH2 0x1308 JUMP JUMPDEST SWAP3 POP DUP3 DUP3 SUB SWAP1 POP DUP2 DUP2 GT ISZERO PUSH2 0x16B9 JUMPI PUSH2 0x16B8 PUSH2 0x1516 JUMP JUMPDEST JUMPDEST SWAP3 SWAP2 POP POP JUMP JUMPDEST PUSH0 PUSH1 0x40 DUP3 ADD SWAP1 POP PUSH2 0x16D2 PUSH0 DUP4 ADD DUP6 PUSH2 0x14EE JUMP JUMPDEST PUSH2 0x16DF PUSH1 0x20 DUP4 ADD DUP5 PUSH2 0x1311 JUMP JUMPDEST SWAP4 SWAP3 POP POP POP JUMP JUMPDEST PUSH0 DUP2 ISZERO ISZERO SWAP1 POP SWAP2 SWAP1 POP JUMP JUMPDEST PUSH2 0x16FA DUP2 PUSH2 0x16E6 JUMP JUMPDEST DUP2 EQ PUSH2 0x1704 JUMPI PUSH0 DUP1 REVERT JUMPDEST POP JUMP JUMPDEST PUSH0 DUP2 MLOAD SWAP1 POP PUSH2 0x1715 DUP2 PUSH2 0x16F1 JUMP JUMPDEST SWAP3 SWAP2 POP POP JUMP JUMPDEST PUSH0 PUSH1 0x20 DUP3 DUP5 SUB SLT ISZERO PUSH2 0x1730 JUMPI PUSH2 0x172F PUSH2 0x13CC JUMP JUMPDEST JUMPDEST PUSH0 PUSH2 0x173D DUP5 DUP3 DUP6 ADD PUSH2 0x1707 JUMP JUMPDEST SWAP2 POP POP SWAP3 SWAP2 POP POP JUMP JUMPDEST PUSH0 PUSH1 0x80 DUP3 ADD SWAP1 POP PUSH2 0x1759 PUSH0 DUP4 ADD DUP8 PUSH2 0x14EE JUMP JUMPDEST PUSH2 0x1766 PUSH1 0x20 DUP4 ADD DUP7 PUSH2 0x1311 JUMP JUMPDEST PUSH2 0x1773 PUSH1 0x40 DUP4 ADD DUP6 PUSH2 0x1311 JUMP JUMPDEST PUSH2 0x1780 PUSH1 0x60 DUP4 ADD DUP5 PUSH2 0x1311 JUMP JUMPDEST SWAP6 SWAP5 POP POP POP POP POP JUMP JUMPDEST PUSH32 0x416D6F756E74732073686F756C642062652067726561746572207468616E207A PUSH0 DUP3 ADD MSTORE PUSH32 0x65726F2E00000000000000000000000000000000000000000000000000000000 PUSH1 0x20 DUP3 ADD MSTORE POP JUMP JUMPDEST PUSH0 PUSH2 0x17E3 PUSH1 0x24 DUP4 PUSH2 0x1614 JUMP JUMPDEST SWAP2 POP PUSH2 0x17EE DUP3 PUSH2 0x1789 JUMP JUMPDEST PUSH1 0x40 DUP3 ADD SWAP1 POP SWAP2 SWAP1 POP JUMP JUMPDEST PUSH0 PUSH1 0x20 DUP3 ADD SWAP1 POP DUP2 DUP2 SUB PUSH0 DUP4 ADD MSTORE PUSH2 0x1810 DUP2 PUSH2 0x17D7 JUMP JUMPDEST SWAP1 POP SWAP2 SWAP1 POP JUMP JUMPDEST PUSH0 DUP2 MLOAD SWAP1 POP PUSH2 0x1825 DUP2 PUSH2 0x13D0 JUMP JUMPDEST SWAP3 SWAP2 POP POP JUMP JUMPDEST PUSH0 PUSH1 0x20 DUP3 DUP5 SUB SLT ISZERO PUSH2 0x1840 JUMPI PUSH2 0x183F PUSH2 0x13CC JUMP JUMPDEST JUMPDEST PUSH0 PUSH2 0x184D DUP5 DUP3 DUP6 ADD PUSH2 0x1817 JUMP JUMPDEST SWAP2 POP POP SWAP3 SWAP2 POP POP JUMP JUMPDEST PUSH32 0x496E73756666696369656E74205344542062616C616E63650000000000000000 PUSH0 DUP3 ADD MSTORE POP JUMP JUMPDEST PUSH0 PUSH2 0x188A PUSH1 0x18 DUP4 PUSH2 0x1614 JUMP JUMPDEST SWAP2 POP PUSH2 0x1895 DUP3 PUSH2 0x1856 JUMP JUMPDEST PUSH1 0x20 DUP3 ADD SWAP1 POP SWAP2 SWAP1 POP JUMP JUMPDEST PUSH0 PUSH1 0x20 DUP3 ADD SWAP1 POP DUP2 DUP2 SUB PUSH0 DUP4 ADD MSTORE PUSH2 0x18B7 DUP2 PUSH2 0x187E JUMP JUMPDEST SWAP1 POP SWAP2 SWAP1 POP JUMP JUMPDEST PUSH32 0x496E73756666696369656E7420534B542062616C616E63650000000000000000 PUSH0 DUP3 ADD MSTORE POP JUMP JUMPDEST PUSH0 PUSH2 0x18F2 PUSH1 0x18 DUP4 PUSH2 0x1614 JUMP JUMPDEST SWAP2 POP PUSH2 0x18FD DUP3 PUSH2 0x18BE JUMP JUMPDEST PUSH1 0x20 DUP3 ADD SWAP1 POP SWAP2 SWAP1 POP JUMP JUMPDEST PUSH0 PUSH1 0x20 DUP3 ADD SWAP1 POP DUP2 DUP2 SUB PUSH0 DUP4 ADD MSTORE PUSH2 0x191F DUP2 PUSH2 0x18E6 JUMP JUMPDEST SWAP1 POP SWAP2 SWAP1 POP JUMP JUMPDEST PUSH0 PUSH1 0x60 DUP3 ADD SWAP1 POP PUSH2 0x1939 PUSH0 DUP4 ADD DUP7 PUSH2 0x14EE JUMP JUMPDEST PUSH2 0x1946 PUSH1 0x20 DUP4 ADD DUP6 PUSH2 0x14EE JUMP JUMPDEST PUSH2 0x1953 PUSH1 0x40 DUP4 ADD DUP5 PUSH2 0x1311 JUMP JUMPDEST SWAP5 SWAP4 POP POP POP POP JUMP JUMPDEST PUSH32 0x416D6F756E74206D7573742062652067726561746572207468616E2030000000 PUSH0 DUP3 ADD MSTORE POP JUMP JUMPDEST PUSH0 PUSH2 0x198F PUSH1 0x1D DUP4 PUSH2 0x1614 JUMP JUMPDEST SWAP2 POP PUSH2 0x199A DUP3 PUSH2 0x195B JUMP JUMPDEST PUSH1 0x20 DUP3 ADD SWAP1 POP SWAP2 SWAP1 POP JUMP JUMPDEST PUSH0 PUSH1 0x20 DUP3 ADD SWAP1 POP DUP2 DUP2 SUB PUSH0 DUP4 ADD MSTORE PUSH2 0x19BC DUP2 PUSH2 0x1983 JUMP JUMPDEST SWAP1 POP SWAP2 SWAP1 POP JUMP JUMPDEST PUSH0 PUSH1 0xA0 DUP3 ADD SWAP1 POP PUSH2 0x19D6 PUSH0 DUP4 ADD DUP9 PUSH2 0x14EE JUMP JUMPDEST PUSH2 0x19E3 PUSH1 0x20 DUP4 ADD DUP8 PUSH2 0x14EE JUMP JUMPDEST PUSH2 0x19F0 PUSH1 0x40 DUP4 ADD DUP7 PUSH2 0x14EE JUMP JUMPDEST PUSH2 0x19FD PUSH1 0x60 DUP4 ADD DUP6 PUSH2 0x1311 JUMP JUMPDEST PUSH2 0x1A0A PUSH1 0x80 DUP4 ADD DUP5 PUSH2 0x1311 JUMP JUMPDEST SWAP7 SWAP6 POP POP POP POP POP POP JUMP INVALID LOG2 PUSH5 0x6970667358 0x22 SLT KECCAK256 PUSH16 0xCA2374170E5BD60509CAF73A9440ED3F 0xD6 DUP7 0xC8 0x49 PUSH32 0xD68CA762F8812DF2B2E664736F6C634300081600330000000000000000000000 "
		},
		"gasEstimates": {
			"creation": {
				"codeDepositCost": "1346000",
				"executionCost": "infinite",
				"totalCost": "infinite"
			},
			"external": {
				"FEE()": "392",
				"addLiquidity(uint256,uint256)": "infinite",
				"admin()": "2596",
				"getSwapAmount(uint256,address,address)": "infinite",
				"liquidityProviderBalance(address)": "2824",
				"removeLiquidity()": "infinite",
				"sdt()": "infinite",
				"sdtFeePool()": "2448",
				"sdtReserve()": "2514",
				"skt()": "infinite",
				"sktFeePool()": "2493",
				"sktReserve()": "2469",
				"swapTokens(uint256,address,address)": "infinite",
				"totalLiquidity()": "2449"
			}
		},
		"methodIdentifiers": {
			"FEE()": "c57981b5",
			"addLiquidity(uint256,uint256)": "9cd441da",
			"admin()": "f851a440",
			"getSwapAmount(uint256,address,address)": "58261cf8",
			"liquidityProviderBalance(address)": "c5c056e0",
			"removeLiquidity()": "67b9a286",
			"sdt()": "a4520f5c",
			"sdtFeePool()": "578a8812",
			"sdtReserve()": "6d3a1137",
			"skt()": "474e8cd6",
			"sktFeePool()": "4cae8434",
			"sktReserve()": "cccbc740",
			"swapTokens(uint256,address,address)": "f70d1d98",
			"totalLiquidity()": "15770f92"
		}
	},
	"abi": [
		{
			"inputs": [
				{
					"internalType": "address",
					"name": "_sdt",
					"type": "address"
				},
				{
					"internalType": "address",
					"name": "_skt",
					"type": "address"
				}
			],
			"stateMutability": "nonpayable",
			"type": "constructor"
		},
		{
			"anonymous": false,
			"inputs": [
				{
					"indexed": false,
					"internalType": "address",
					"name": "provider",
					"type": "address"
				},
				{
					"indexed": false,
					"internalType": "uint256",
					"name": "sdtAmount",
					"type": "uint256"
				},
				{
					"indexed": false,
					"internalType": "uint256",
					"name": "sktAmount",
					"type": "uint256"
				},
				{
					"indexed": false,
					"internalType": "uint256",
					"name": "liquidityMinted",
					"type": "uint256"
				}
			],
			"name": "LiquidityAdded",
			"type": "event"
		},
		{
			"anonymous": false,
			"inputs": [
				{
					"indexed": false,
					"internalType": "address",
					"name": "provider",
					"type": "address"
				},
				{
					"indexed": false,
					"internalType": "uint256",
					"name": "sdtAmount",
					"type": "uint256"
				},
				{
					"indexed": false,
					"internalType": "uint256",
					"name": "sktAmount",
					"type": "uint256"
				},
				{
					"indexed": false,
					"internalType": "uint256",
					"name": "liquidityBurned",
					"type": "uint256"
				}
			],
			"name": "LiquidityRemoved",
			"type": "event"
		},
		{
			"anonymous": false,
			"inputs": [
				{
					"indexed": false,
					"internalType": "address",
					"name": "trader",
					"type": "address"
				},
				{
					"indexed": false,
					"internalType": "address",
					"name": "input",
					"type": "address"
				},
				{
					"indexed": false,
					"internalType": "address",
					"name": "output",
					"type": "address"
				},
				{
					"indexed": false,
					"internalType": "uint256",
					"name": "inputAmount",
					"type": "uint256"
				},
				{
					"indexed": false,
					"internalType": "uint256",
					"name": "outputAmount",
					"type": "uint256"
				}
			],
			"name": "TokensSwapped",
			"type": "event"
		},
		{
			"inputs": [],
			"name": "FEE",
			"outputs": [
				{
					"internalType": "uint256",
					"name": "",
					"type": "uint256"
				}
			],
			"stateMutability": "view",
			"type": "function"
		},
		{
			"inputs": [
				{
					"internalType": "uint256",
					"name": "_sdtAmount",
					"type": "uint256"
				},
				{
					"internalType": "uint256",
					"name": "_sktAmount",
					"type": "uint256"
				}
			],
			"name": "addLiquidity",
			"outputs": [],
			"stateMutability": "payable",
			"type": "function"
		},
		{
			"inputs": [],
			"name": "admin",
			"outputs": [
				{
					"internalType": "address",
					"name": "",
					"type": "address"
				}
			],
			"stateMutability": "view",
			"type": "function"
		},
		{
			"inputs": [
				{
					"internalType": "uint256",
					"name": "_inputAmount",
					"type": "uint256"
				},
				{
					"internalType": "address",
					"name": "_inputToken",
					"type": "address"
				},
				{
					"internalType": "address",
					"name": "_outputToken",
					"type": "address"
				}
			],
			"name": "getSwapAmount",
			"outputs": [
				{
					"internalType": "uint256",
					"name": "",
					"type": "uint256"
				}
			],
			"stateMutability": "view",
			"type": "function"
		},
		{
			"inputs": [
				{
					"internalType": "address",
					"name": "",
					"type": "address"
				}
			],
			"name": "liquidityProviderBalance",
			"outputs": [
				{
					"internalType": "uint256",
					"name": "",
					"type": "uint256"
				}
			],
			"stateMutability": "view",
			"type": "function"
		},
		{
			"inputs": [],
			"name": "removeLiquidity",
			"outputs": [],
			"stateMutability": "nonpayable",
			"type": "function"
		},
		{
			"inputs": [],
			"name": "sdt",
			"outputs": [
				{
					"internalType": "contract IERC20",
					"name": "",
					"type": "address"
				}
			],
			"stateMutability": "view",
			"type": "function"
		},
		{
			"inputs": [],
			"name": "sdtFeePool",
			"outputs": [
				{
					"internalType": "uint256",
					"name": "",
					"type": "uint256"
				}
			],
			"stateMutability": "view",
			"type": "function"
		},
		{
			"inputs": [],
			"name": "sdtReserve",
			"outputs": [
				{
					"internalType": "uint256",
					"name": "",
					"type": "uint256"
				}
			],
			"stateMutability": "view",
			"type": "function"
		},
		{
			"inputs": [],
			"name": "skt",
			"outputs": [
				{
					"internalType": "contract IERC20",
					"name": "",
					"type": "address"
				}
			],
			"stateMutability": "view",
			"type": "function"
		},
		{
			"inputs": [],
			"name": "sktFeePool",
			"outputs": [
				{
					"internalType": "uint256",
					"name": "",
					"type": "uint256"
				}
			],
			"stateMutability": "view",
			"type": "function"
		},
		{
			"inputs": [],
			"name": "sktReserve",
			"outputs": [
				{
					"internalType": "uint256",
					"name": "",
					"type": "uint256"
				}
			],
			"stateMutability": "view",
			"type": "function"
		},
		{
			"inputs": [
				{
					"internalType": "uint256",
					"name": "_amount",
					"type": "uint256"
				},
				{
					"internalType": "address",
					"name": "_input",
					"type": "address"
				},
				{
					"internalType": "address",
					"name": "_output",
					"type": "address"
				}
			],
			"name": "swapTokens",
			"outputs": [],
			"stateMutability": "nonpayable",
			"type": "function"
		},
		{
			"inputs": [],
			"name": "totalLiquidity",
			"outputs": [
				{
					"internalType": "uint256",
					"name": "",
					"type": "uint256"
				}
			],
			"stateMutability": "view",
			"type": "function"
		}
	]
}