{
  "_format": "hh-sol-artifact-1",
  "contractName": "Auction",
  "sourceName": "contracts/Auction.sol",
  "abi": [
    {
      "inputs": [
        {
          "internalType": "address",
          "name": "_creator",
          "type": "address"
        },
        {
          "internalType": "uint256",
          "name": "_endTime",
          "type": "uint256"
        },
        {
          "internalType": "uint256",
          "name": "_minIncrement",
          "type": "uint256"
        },
        {
          "internalType": "uint256",
          "name": "_directBuyPrice",
          "type": "uint256"
        },
        {
          "internalType": "uint256",
          "name": "_startPrice",
          "type": "uint256"
        },
        {
          "internalType": "address",
          "name": "_nftAddress",
          "type": "address"
        },
        {
          "internalType": "uint256",
          "name": "_tokenId",
          "type": "uint256"
        }
      ],
      "stateMutability": "nonpayable",
      "type": "constructor"
    },
    {
      "anonymous": false,
      "inputs": [],
      "name": "AuctionCanceled",
      "type": "event"
    },
    {
      "anonymous": false,
      "inputs": [
        {
          "indexed": false,
          "internalType": "address",
          "name": "bidder",
          "type": "address"
        },
        {
          "indexed": false,
          "internalType": "uint256",
          "name": "bid",
          "type": "uint256"
        }
      ],
      "name": "NewBid",
      "type": "event"
    },
    {
      "anonymous": false,
      "inputs": [
        {
          "indexed": false,
          "internalType": "address",
          "name": "withdrawer",
          "type": "address"
        },
        {
          "indexed": false,
          "internalType": "uint256",
          "name": "amount",
          "type": "uint256"
        }
      ],
      "name": "WithdrawFunds",
      "type": "event"
    },
    {
      "anonymous": false,
      "inputs": [
        {
          "indexed": false,
          "internalType": "address",
          "name": "withdrawer",
          "type": "address"
        }
      ],
      "name": "WithdrawToken",
      "type": "event"
    },
    {
      "inputs": [],
      "name": "allBids",
      "outputs": [
        {
          "internalType": "address[]",
          "name": "",
          "type": "address[]"
        },
        {
          "internalType": "uint256[]",
          "name": "",
          "type": "uint256[]"
        }
      ],
      "stateMutability": "view",
      "type": "function"
    },
    {
      "inputs": [
        {
          "internalType": "uint256",
          "name": "",
          "type": "uint256"
        }
      ],
      "name": "bids",
      "outputs": [
        {
          "internalType": "address",
          "name": "sender",
          "type": "address"
        },
        {
          "internalType": "uint256",
          "name": "bid",
          "type": "uint256"
        }
      ],
      "stateMutability": "view",
      "type": "function"
    },
    {
      "inputs": [],
      "name": "cancelAuction",
      "outputs": [
        {
          "internalType": "bool",
          "name": "",
          "type": "bool"
        }
      ],
      "stateMutability": "nonpayable",
      "type": "function"
    },
    {
      "inputs": [],
      "name": "creator",
      "outputs": [
        {
          "internalType": "address",
          "name": "",
          "type": "address"
        }
      ],
      "stateMutability": "view",
      "type": "function"
    },
    {
      "inputs": [],
      "name": "directBuyPrice",
      "outputs": [
        {
          "internalType": "uint256",
          "name": "",
          "type": "uint256"
        }
      ],
      "stateMutability": "view",
      "type": "function"
    },
    {
      "inputs": [],
      "name": "endTime",
      "outputs": [
        {
          "internalType": "uint256",
          "name": "",
          "type": "uint256"
        }
      ],
      "stateMutability": "view",
      "type": "function"
    },
    {
      "inputs": [],
      "name": "getAuctionState",
      "outputs": [
        {
          "internalType": "enum Auction.AuctionState",
          "name": "",
          "type": "uint8"
        }
      ],
      "stateMutability": "view",
      "type": "function"
    },
    {
      "inputs": [],
      "name": "isCancelled",
      "outputs": [
        {
          "internalType": "bool",
          "name": "",
          "type": "bool"
        }
      ],
      "stateMutability": "view",
      "type": "function"
    },
    {
      "inputs": [],
      "name": "isDirectBuy",
      "outputs": [
        {
          "internalType": "bool",
          "name": "",
          "type": "bool"
        }
      ],
      "stateMutability": "view",
      "type": "function"
    },
    {
      "inputs": [],
      "name": "maxBid",
      "outputs": [
        {
          "internalType": "uint256",
          "name": "",
          "type": "uint256"
        }
      ],
      "stateMutability": "view",
      "type": "function"
    },
    {
      "inputs": [],
      "name": "maxBidder",
      "outputs": [
        {
          "internalType": "address",
          "name": "",
          "type": "address"
        }
      ],
      "stateMutability": "view",
      "type": "function"
    },
    {
      "inputs": [],
      "name": "minIncrement",
      "outputs": [
        {
          "internalType": "uint256",
          "name": "",
          "type": "uint256"
        }
      ],
      "stateMutability": "view",
      "type": "function"
    },
    {
      "inputs": [],
      "name": "nftAddress",
      "outputs": [
        {
          "internalType": "address",
          "name": "",
          "type": "address"
        }
      ],
      "stateMutability": "view",
      "type": "function"
    },
    {
      "inputs": [],
      "name": "placeBid",
      "outputs": [
        {
          "internalType": "bool",
          "name": "",
          "type": "bool"
        }
      ],
      "stateMutability": "payable",
      "type": "function"
    },
    {
      "inputs": [],
      "name": "startPrice",
      "outputs": [
        {
          "internalType": "uint256",
          "name": "",
          "type": "uint256"
        }
      ],
      "stateMutability": "view",
      "type": "function"
    },
    {
      "inputs": [],
      "name": "startTime",
      "outputs": [
        {
          "internalType": "uint256",
          "name": "",
          "type": "uint256"
        }
      ],
      "stateMutability": "view",
      "type": "function"
    },
    {
      "inputs": [],
      "name": "tokenId",
      "outputs": [
        {
          "internalType": "uint256",
          "name": "",
          "type": "uint256"
        }
      ],
      "stateMutability": "view",
      "type": "function"
    },
    {
      "inputs": [],
      "name": "withdrawFunds",
      "outputs": [
        {
          "internalType": "bool",
          "name": "",
          "type": "bool"
        }
      ],
      "stateMutability": "nonpayable",
      "type": "function"
    },
    {
      "inputs": [],
      "name": "withdrawToken",
      "outputs": [
        {
          "internalType": "bool",
          "name": "",
          "type": "bool"
        }
      ],
      "stateMutability": "nonpayable",
      "type": "function"
    }
  ],
  "bytecode": "0x608060405234801561001057600080fd5b50604051610b9e380380610b9e833981810160405260e081101561003357600080fd5b508051602082015160408301516060840151608085015160a086015160c090960151600480546001600160a01b039788166001600160a01b0319918216811790925542968701600055600196909655600894909455600992909255600a55600c8054949095169383168417909455600b8054831690931790925560069290925560038054909216179055610ad2806100cc6000396000f3fe6080604052600436106101145760003560e01c806374b11d8a116100a0578063b5bc959111610064578063b5bc959114610373578063ca628c7814610388578063ecfc7ecc1461039d578063f1a9af89146103a5578063f9381d53146103ba57610114565b806374b11d8a1461030a57806378e979251461031f5780638afcb14d146103345780638fa8b7901461034957806395ee12211461035e57610114565b80633197cbb6116100e75780633197cbb6146101d05780634423c5f1146101e55780634f50ef53146102325780635bf8633a146102e0578063700cdab1146102f557610114565b806302d05d3f1461011957806308bfc3001461014a57806317d70f7c1461018057806324600fc3146101a7575b600080fd5b34801561012557600080fd5b5061012e6103cf565b604080516001600160a01b039092168252519081900360200190f35b34801561015657600080fd5b5061015f6103de565b6040518082600381111561016f57fe5b815260200191505060405180910390f35b34801561018c57600080fd5b50610195610424565b60408051918252519081900360200190f35b3480156101b357600080fd5b506101bc61042a565b604080519115158252519081900360200190f35b3480156101dc57600080fd5b506101956104fd565b3480156101f157600080fd5b5061020f6004803603602081101561020857600080fd5b5035610503565b604080516001600160a01b03909316835260208301919091528051918290030190f35b34801561023e57600080fd5b50610247610538565b604051808060200180602001838103835285818151815260200191508051906020019060200280838360005b8381101561028b578181015183820152602001610273565b50505050905001838103825284818151815260200191508051906020019060200280838360005b838110156102ca5781810151838201526020016102b2565b5050505090500194505050505060405180910390f35b3480156102ec57600080fd5b5061012e61067d565b34801561030157600080fd5b5061019561068c565b34801561031657600080fd5b50610195610692565b34801561032b57600080fd5b50610195610698565b34801561034057600080fd5b5061019561069e565b34801561035557600080fd5b506101bc6106a4565b34801561036a57600080fd5b506101bc6107a1565b34801561037f57600080fd5b5061012e6107aa565b34801561039457600080fd5b506101bc6107b9565b6101bc6108ca565b3480156103b157600080fd5b50610195610a88565b3480156103c657600080fd5b506101bc610a8e565b6004546001600160a01b031681565b60075460009060ff16156103f457506001610421565b600754610100900460ff161561040c57506003610421565b600054421061041d57506002610421565b5060005b90565b60065481565b600060026104366103de565b600381111561044157fe5b148061045f575060036104526103de565b600381111561045d57fe5b145b61046857600080fd5b6004546001600160a01b0316331461047f57600080fd5b6004546002546040516001600160a01b039092169181156108fc0291906000818181858888f193505050501580156104bb573d6000803e3d6000fd5b5060025460408051338152602081019290925280517f21901fa892c430ea8bd38b9390225ac8e67eac75ee10ffba16feefc539a288f99281900390910190a190565b60005481565b6005818154811061051057fe5b6000918252602090912060029091020180546001909101546001600160a01b03909116915082565b606080606060058054905067ffffffffffffffff8111801561055957600080fd5b50604051908082528060200260200182016040528015610583578160200160208202803683370190505b5060055490915060609067ffffffffffffffff811180156105a357600080fd5b506040519080825280602002602001820160405280156105cd578160200160208202803683370190505b50905060005b60055481101561067357600581815481106105ea57fe5b600091825260209091206002909102015483516001600160a01b039091169084908390811061061557fe5b60200260200101906001600160a01b031690816001600160a01b0316815250506005818154811061064257fe5b90600052602060002090600202016001015482828151811061066057fe5b60209081029190910101526001016105d3565b5090925090509091565b600b546001600160a01b031681565b60095481565b60025481565b60015481565b60085481565b6004546000906001600160a01b031633146106be57600080fd5b60006106c86103de565b60038111156106d357fe5b146106dd57600080fd5b600254156106ea57600080fd5b6007805460ff19166001179055600c5460048054600654604080516323b872dd60e01b815230948101949094526001600160a01b0392831660248501526044840191909152519216916323b872dd9160648082019260009290919082900301818387803b15801561075a57600080fd5b505af115801561076e573d6000803e3d6000fd5b50506040517f3edab9d02702b82c68bc3a966d302af41abe4f3d8e2408b27b94e5f9bf2d722c925060009150a150600190565b60075460ff1681565b6003546001600160a01b031681565b600060026107c56103de565b60038111156107d057fe5b14806107ee575060036107e16103de565b60038111156107ec57fe5b145b6107f757600080fd5b6003546001600160a01b0316331461080e57600080fd5b600c54600354600654604080516323b872dd60e01b81523060048201526001600160a01b03938416602482015260448101929092525191909216916323b872dd91606480830192600092919082900301818387803b15801561086f57600080fd5b505af1158015610883573d6000803e3d6000fd5b5050600354604080516001600160a01b039092168252517f5c4c9f6f3ba19404ec4644b1234fc02b326f96e961a2d4e4667694441444f3459350908190036020019150a190565b60058054600091116108db57600080fd5b6004546001600160a01b03163314156108f357600080fd5b60006108fd6103de565b600381111561090857fe5b1461091257600080fd5b600a54341161092057600080fd5b60085460025401341161093257600080fd5b600380546002805434918290556001600160a01b0319831633179093556009546001600160a01b03909216929111610974576007805461ff0019166101001790555b6040805180820190915233815234602082019081526005805460018101825560009190915291517f036b6384b5eca791c62761152d0c79bb0604c104a5fb6f4eb0703f3154bb3db0600290930292830180546001600160a01b0319166001600160a01b03909216919091179055517f036b6384b5eca791c62761152d0c79bb0604c104a5fb6f4eb0703f3154bb3db1909101558015610a45576040516001600160a01b0383169082156108fc029083906000818181858888f19350505050158015610a43573d6000803e3d6000fd5b505b6040805133815234602082015281517fdd0b6c6a77960e2066c96171b4d7ac9e8b4c184011f38544afa36a5bb63ec59f929181900390910190a160019250505090565b600a5481565b600754610100900460ff168156fea26469706673582212202da345ba87a27272b5bc52f3915c4e6674159f7e944785d3299edfd474dc572364736f6c63430007000033",
  "linkReferences": {},
  "deployedLinkReferences": {}
}