{
	"data": {
		"bytecode": {
			"linkReferences": {},
			"object": "60806040523480156200001157600080fd5b5060018060008060068111156200002d576200002c620001f1565b5b6006811115620000425762000041620001f1565b5b81526020019081526020016000208190555060026001600060016006811115620000715762000070620001f1565b5b6006811115620000865762000085620001f1565b5b81526020019081526020016000208190555060046001600060026006811115620000b557620000b4620001f1565b5b6006811115620000ca57620000c9620001f1565b5b81526020019081526020016000208190555060086001600060036006811115620000f957620000f8620001f1565b5b60068111156200010e576200010d620001f1565b5b815260200190815260200160002081905550601060016000600460068111156200013d576200013c620001f1565b5b6006811115620001525762000151620001f1565b5b81526020019081526020016000208190555060206001600060056006811115620001815762000180620001f1565b5b6006811115620001965762000195620001f1565b5b815260200190815260200160002081905550604060016000600680811115620001c457620001c3620001f1565b5b6006811115620001d957620001d8620001f1565b5b81526020019081526020016000208190555062000220565b7f4e487b7100000000000000000000000000000000000000000000000000000000600052602160045260246000fd5b612d0c80620002306000396000f3fe60806040526004361061009c5760003560e01c806382b562aa1161006457806382b562aa146101d25780638f8d7f991461020f578063af99c6331461024c578063c783fe2514610289578063d614cdb8146102b9578063f2c31ff4146102f75761009c565b80630a284cb6146100a157806318370d34146100de5780633b3bff0f1461011b578063593d6e82146101585780637c41ad2c14610195575b600080fd5b3480156100ad57600080fd5b506100c860048036038101906100c3919061181c565b610335565b6040516100d59190611894565b60405180910390f35b3480156100ea57600080fd5b5061010560048036038101906101009190611df5565b6103b7565b6040516101129190611e6a565b60405180910390f35b34801561012757600080fd5b50610142600480360381019061013d9190611e85565b6104cf565b60405161014f9190611e6a565b60405180910390f35b34801561016457600080fd5b5061017f600480360381019061017a9190611eb2565b6105e4565b60405161018c9190611e6a565b60405180910390f35b3480156101a157600080fd5b506101bc60048036038101906101b79190611e85565b6106fc565b6040516101c99190611e6a565b60405180910390f35b3480156101de57600080fd5b506101f960048036038101906101f49190611ef2565b610811565b6040516102069190611e6a565b60405180910390f35b34801561021b57600080fd5b5061023660048036038101906102319190611f45565b610873565b6040516102439190611894565b60405180910390f35b34801561025857600080fd5b50610273600480360381019061026e9190611f45565b61098b565b6040516102809190611894565b60405180910390f35b6102a3600480360381019061029e9190611f85565b610aa3565b6040516102b09190612063565b60405180910390f35b3480156102c557600080fd5b506102e060048036038101906102db9190611e85565b610c3a565b6040516102ee9291906120de565b60405180910390f35b34801561030357600080fd5b5061031e60048036038101906103199190611f45565b610d6a565b60405161032c929190612116565b60405180910390f35b600080600061034685600086610e8f565b9250509150601660030b8214610391576040517f08c379a0000000000000000000000000000000000000000000000000000000008152600401610388906121c2565b60405180910390fd5b806000815181106103a5576103a46121e2565b5b60200260200101519250505092915050565b600080600061016773ffffffffffffffffffffffffffffffffffffffff166318370d3460e01b86866040516024016103f09291906125aa565b604051602081830303815290604052907bffffffffffffffffffffffffffffffffffffffffffffffffffffffff19166020820180517bffffffffffffffffffffffffffffffffffffffffffffffffffffffff838183161783525050505060405161045a9190612616565b6000604051808303816000865af19150503d8060008114610497576040519150601f19603f3d011682016040523d82523d6000602084013e61049c565b606091505b5091509150816104ad5760156104c2565b808060200190518101906104c19190612666565b5b60030b9250505092915050565b600080600061016773ffffffffffffffffffffffffffffffffffffffff16633b3bff0f60e01b856040516024016105069190612063565b604051602081830303815290604052907bffffffffffffffffffffffffffffffffffffffffffffffffffffffff19166020820180517bffffffffffffffffffffffffffffffffffffffffffffffffffffffff83818316178352505050506040516105709190612616565b6000604051808303816000865af19150503d80600081146105ad576040519150601f19603f3d011682016040523d82523d6000602084013e6105b2565b606091505b5091509150816105c35760156105d8565b808060200190518101906105d79190612666565b5b60030b92505050919050565b600080600061016773ffffffffffffffffffffffffffffffffffffffff1663593d6e8260e01b868660405160240161061d929190612693565b604051602081830303815290604052907bffffffffffffffffffffffffffffffffffffffffffffffffffffffff19166020820180517bffffffffffffffffffffffffffffffffffffffffffffffffffffffff83818316178352505050506040516106879190612616565b6000604051808303816000865af19150503d80600081146106c4576040519150601f19603f3d011682016040523d82523d6000602084013e6106c9565b606091505b5091509150816106da5760156106ef565b808060200190518101906106ee9190612666565b5b60030b9250505092915050565b600080600061016773ffffffffffffffffffffffffffffffffffffffff16637c41ad2c60e01b856040516024016107339190612063565b604051602081830303815290604052907bffffffffffffffffffffffffffffffffffffffffffffffffffffffff19166020820180517bffffffffffffffffffffffffffffffffffffffffffffffffffffffff838183161783525050505060405161079d9190612616565b6000604051808303816000865af19150503d80600081146107da576040519150601f19603f3d011682016040523d82523d6000602084013e6107df565b606091505b5091509150816107f0576015610805565b808060200190518101906108049190612666565b5b60030b92505050919050565b60008061082085308686611007565b9050601660030b8114610868576040517f08c379a000000000000000000000000000000000000000000000000000000000815260040161085f9061272e565b60405180910390fd5b809150509392505050565b600080600061016773ffffffffffffffffffffffffffffffffffffffff16638f8d7f9960e01b86866040516024016108ac92919061274e565b604051602081830303815290604052907bffffffffffffffffffffffffffffffffffffffffffffffffffffffff19166020820180517bffffffffffffffffffffffffffffffffffffffffffffffffffffffff83818316178352505050506040516109169190612616565b6000604051808303816000865af19150503d8060008114610953576040519150601f19603f3d011682016040523d82523d6000602084013e610958565b606091505b50915091508161096957601561097e565b8080602001905181019061097d9190612666565b5b60030b9250505092915050565b600080600061016773ffffffffffffffffffffffffffffffffffffffff1663af99c63360e01b86866040516024016109c492919061274e565b604051602081830303815290604052907bffffffffffffffffffffffffffffffffffffffffffffffffffffffff19166020820180517bffffffffffffffffffffffffffffffffffffffffffffffffffffffff8381831617835250505050604051610a2e9190612616565b6000604051808303816000865af19150503d8060008114610a6b576040519150601f19603f3d011682016040523d82523d6000602084013e610a70565b606091505b509150915081610a81576015610a96565b80806020019051810190610a959190612666565b5b60030b9250505092915050565b600080600167ffffffffffffffff811115610ac157610ac0611606565b5b604051908082528060200260200182016040528015610afa57816020015b610ae761144f565b815260200190600190039081610adf5790505b509050610b0a6004600130611125565b81600081518110610b1e57610b1d6121e2565b5b6020026020010181905250610b3161146f565b87816000018190525086816020018190525085816060018190525030816040019073ffffffffffffffffffffffffffffffffffffffff16908173ffffffffffffffffffffffffffffffffffffffff16815250506001816080019015159081151581525050848160a0019060070b908160070b81525050818160e0018190525060008160c0019015159081151581525050610bcb308561115c565b816101000181905250600080610be0836111ba565b91509150601660030b8214610c2a576040517f08c379a0000000000000000000000000000000000000000000000000000000008152600401610c21906127e9565b60405180910390fd5b8094505050505095945050505050565b6000610c446114de565b60008061016773ffffffffffffffffffffffffffffffffffffffff1663d614cdb860e01b86604051602401610c799190612063565b604051602081830303815290604052907bffffffffffffffffffffffffffffffffffffffffffffffffffffffff19166020820180517bffffffffffffffffffffffffffffffffffffffffffffffffffffffff8381831617835250505050604051610ce39190612616565b6000604051808303816000865af19150503d8060008114610d20576040519150601f19603f3d011682016040523d82523d6000602084013e610d25565b606091505b5091509150610d326114de565b82610d3f57601581610d54565b81806020019051810190610d539190612897565b5b8160030b91508095508196505050505050915091565b60008060008061016773ffffffffffffffffffffffffffffffffffffffff1663f2c31ff460e01b8787604051602401610da492919061274e565b604051602081830303815290604052907bffffffffffffffffffffffffffffffffffffffffffffffffffffffff19166020820180517bffffffffffffffffffffffffffffffffffffffffffffffffffffffff8381831617835250505050604051610e0e9190612616565b6000604051808303816000865af19150503d8060008114610e4b576040519150601f19603f3d011682016040523d82523d6000602084013e610e50565b606091505b509150915081610e635760156000610e78565b80806020019051810190610e7791906128ec565b5b8160030b9150809450819550505050509250929050565b600080606060008061016773ffffffffffffffffffffffffffffffffffffffff1663278e0b8860e01b898989604051602401610ecd93929190612a11565b604051602081830303815290604052907bffffffffffffffffffffffffffffffffffffffffffffffffffffffff19166020820180517bffffffffffffffffffffffffffffffffffffffffffffffffffffffff8381831617835250505050604051610f379190612616565b6000604051808303816000865af19150503d8060008114610f74576040519150601f19603f3d011682016040523d82523d6000602084013e610f79565b606091505b509150915081610fd557601560008067ffffffffffffffff811115610fa157610fa0611606565b5b604051908082528060200260200182016040528015610fcf5781602001602082028036833780820191505090505b50610fea565b80806020019051810190610fe99190612b53565b5b8260030b9250809550819650829750505050505093509350939050565b600080600061016773ffffffffffffffffffffffffffffffffffffffff16635cfc901160e01b888888886040516024016110449493929190612bc2565b604051602081830303815290604052907bffffffffffffffffffffffffffffffffffffffffffffffffffffffff19166020820180517bffffffffffffffffffffffffffffffffffffffffffffffffffffffff83818316178352505050506040516110ae9190612616565b6000604051808303816000865af19150503d80600081146110eb576040519150601f19603f3d011682016040523d82523d6000602084013e6110f0565b606091505b509150915081611101576015611116565b808060200190518101906111159190612666565b5b60030b92505050949350505050565b61112d61144f565b604051806040016040528061114186611332565b81526020016111508585611373565b81525090509392505050565b6111646114de565b82816020019073ffffffffffffffffffffffffffffffffffffffff16908173ffffffffffffffffffffffffffffffffffffffff168152505081816040019063ffffffff16908163ffffffff168152505092915050565b6000808260008161010001516000015163ffffffff161480156111ec575060008161010001516040015163ffffffff16145b15611212576276a7008161010001516040019063ffffffff16908163ffffffff16815250505b60008061016773ffffffffffffffffffffffffffffffffffffffff1634639c89bb3560e01b886040516024016112489190612c07565b604051602081830303815290604052907bffffffffffffffffffffffffffffffffffffffffffffffffffffffff19166020820180517bffffffffffffffffffffffffffffffffffffffffffffffffffffffff83818316178352505050506040516112b29190612616565b60006040518083038185875af1925050503d80600081146112ef576040519150601f19603f3d011682016040523d82523d6000602084013e6112f4565b606091505b509150915081611307576015600061131c565b8080602001905181019061131b9190612c67565b5b8160030b91508095508196505050505050915091565b60006001600083600681111561134b5761134a612ca7565b5b600681111561135d5761135c612ca7565b5b8152602001908152602001600020549050919050565b61137b611521565b6001600481111561138f5761138e612ca7565b5b8360048111156113a2576113a1612ca7565b5b036113e45781816020019073ffffffffffffffffffffffffffffffffffffffff16908173ffffffffffffffffffffffffffffffffffffffff1681525050611449565b6004808111156113f7576113f6612ca7565b5b83600481111561140a57611409612ca7565b5b036114485781816080019073ffffffffffffffffffffffffffffffffffffffff16908173ffffffffffffffffffffffffffffffffffffffff16815250505b5b92915050565b604051806040016040528060008152602001611469611521565b81525090565b6040518061012001604052806060815260200160608152602001600073ffffffffffffffffffffffffffffffffffffffff16815260200160608152602001600015158152602001600060070b8152602001600015158152602001606081526020016114d86114de565b81525090565b6040518060600160405280600063ffffffff168152602001600073ffffffffffffffffffffffffffffffffffffffff168152602001600063ffffffff1681525090565b6040518060a00160405280600015158152602001600073ffffffffffffffffffffffffffffffffffffffff1681526020016060815260200160608152602001600073ffffffffffffffffffffffffffffffffffffffff1681525090565b6000604051905090565b600080fd5b600080fd5b600073ffffffffffffffffffffffffffffffffffffffff82169050919050565b60006115bd82611592565b9050919050565b6115cd816115b2565b81146115d857600080fd5b50565b6000813590506115ea816115c4565b92915050565b600080fd5b6000601f19601f8301169050919050565b7f4e487b7100000000000000000000000000000000000000000000000000000000600052604160045260246000fd5b61163e826115f5565b810181811067ffffffffffffffff8211171561165d5761165c611606565b5b80604052505050565b600061167061157e565b905061167c8282611635565b919050565b600067ffffffffffffffff82111561169c5761169b611606565b5b602082029050602081019050919050565b600080fd5b600080fd5b600067ffffffffffffffff8211156116d2576116d1611606565b5b6116db826115f5565b9050602081019050919050565b82818337600083830152505050565b600061170a611705846116b7565b611666565b905082815260208101848484011115611726576117256116b2565b5b6117318482856116e8565b509392505050565b600082601f83011261174e5761174d6115f0565b5b813561175e8482602086016116f7565b91505092915050565b600061177a61177584611681565b611666565b9050808382526020820190506020840283018581111561179d5761179c6116ad565b5b835b818110156117e457803567ffffffffffffffff8111156117c2576117c16115f0565b5b8086016117cf8982611739565b8552602085019450505060208101905061179f565b5050509392505050565b600082601f830112611803576118026115f0565b5b8135611813848260208601611767565b91505092915050565b6000806040838503121561183357611832611588565b5b6000611841858286016115db565b925050602083013567ffffffffffffffff8111156118625761186161158d565b5b61186e858286016117ee565b9150509250929050565b60008160070b9050919050565b61188e81611878565b82525050565b60006020820190506118a96000830184611885565b92915050565b600080fd5b600080fd5b600067ffffffffffffffff8211156118d4576118d3611606565b5b6118dd826115f5565b9050602081019050919050565b60006118fd6118f8846118b9565b611666565b905082815260208101848484011115611919576119186116b2565b5b6119248482856116e8565b509392505050565b600082601f830112611941576119406115f0565b5b81356119518482602086016118ea565b91505092915050565b60008115159050919050565b61196f8161195a565b811461197a57600080fd5b50565b60008135905061198c81611966565b92915050565b61199b81611878565b81146119a657600080fd5b50565b6000813590506119b881611992565b92915050565b600067ffffffffffffffff8211156119d9576119d8611606565b5b602082029050602081019050919050565b6000819050919050565b6119fd816119ea565b8114611a0857600080fd5b50565b600081359050611a1a816119f4565b92915050565b600060a08284031215611a3657611a356118af565b5b611a4060a0611666565b90506000611a508482850161197d565b6000830152506020611a64848285016115db565b602083015250604082013567ffffffffffffffff811115611a8857611a876118b4565b5b611a9484828501611739565b604083015250606082013567ffffffffffffffff811115611ab857611ab76118b4565b5b611ac484828501611739565b6060830152506080611ad8848285016115db565b60808301525092915050565b600060408284031215611afa57611af96118af565b5b611b046040611666565b90506000611b1484828501611a0b565b600083015250602082013567ffffffffffffffff811115611b3857611b376118b4565b5b611b4484828501611a20565b60208301525092915050565b6000611b63611b5e846119be565b611666565b90508083825260208201905060208402830185811115611b8657611b856116ad565b5b835b81811015611bcd57803567ffffffffffffffff811115611bab57611baa6115f0565b5b808601611bb88982611ae4565b85526020850194505050602081019050611b88565b5050509392505050565b600082601f830112611bec57611beb6115f0565b5b8135611bfc848260208601611b50565b91505092915050565b600063ffffffff82169050919050565b611c1e81611c05565b8114611c2957600080fd5b50565b600081359050611c3b81611c15565b92915050565b600060608284031215611c5757611c566118af565b5b611c616060611666565b90506000611c7184828501611c2c565b6000830152506020611c85848285016115db565b6020830152506040611c9984828501611c2c565b60408301525092915050565b60006101608284031215611cbc57611cbb6118af565b5b611cc7610120611666565b9050600082013567ffffffffffffffff811115611ce757611ce66118b4565b5b611cf38482850161192c565b600083015250602082013567ffffffffffffffff811115611d1757611d166118b4565b5b611d238482850161192c565b6020830152506040611d37848285016115db565b604083015250606082013567ffffffffffffffff811115611d5b57611d5a6118b4565b5b611d678482850161192c565b6060830152506080611d7b8482850161197d565b60808301525060a0611d8f848285016119a9565b60a08301525060c0611da38482850161197d565b60c08301525060e082013567ffffffffffffffff811115611dc757611dc66118b4565b5b611dd384828501611bd7565b60e083015250610100611de884828501611c41565b6101008301525092915050565b60008060408385031215611e0c57611e0b611588565b5b6000611e1a858286016115db565b925050602083013567ffffffffffffffff811115611e3b57611e3a61158d565b5b611e4785828601611ca5565b9150509250929050565b6000819050919050565b611e6481611e51565b82525050565b6000602082019050611e7f6000830184611e5b565b92915050565b600060208284031215611e9b57611e9a611588565b5b6000611ea9848285016115db565b91505092915050565b60008060808385031215611ec957611ec8611588565b5b6000611ed7858286016115db565b9250506020611ee885828601611c41565b9150509250929050565b600080600060608486031215611f0b57611f0a611588565b5b6000611f19868287016115db565b9350506020611f2a868287016115db565b9250506040611f3b868287016119a9565b9150509250925092565b60008060408385031215611f5c57611f5b611588565b5b6000611f6a858286016115db565b9250506020611f7b858286016115db565b9150509250929050565b600080600080600060a08688031215611fa157611fa0611588565b5b600086013567ffffffffffffffff811115611fbf57611fbe61158d565b5b611fcb8882890161192c565b955050602086013567ffffffffffffffff811115611fec57611feb61158d565b5b611ff88882890161192c565b945050604086013567ffffffffffffffff8111156120195761201861158d565b5b6120258882890161192c565b9350506060612036888289016119a9565b925050608061204788828901611c2c565b9150509295509295909350565b61205d816115b2565b82525050565b60006020820190506120786000830184612054565b92915050565b61208781611c05565b82525050565b612096816115b2565b82525050565b6060820160008201516120b2600085018261207e565b5060208201516120c5602085018261208d565b5060408201516120d8604085018261207e565b50505050565b60006080820190506120f36000830185611e5b565b612100602083018461209c565b9392505050565b6121108161195a565b82525050565b600060408201905061212b6000830185611885565b6121386020830184612107565b9392505050565b600082825260208201905092915050565b7f4661696c656420746f206d696e74206e6f6e2d66756e6769626c6520746f6b6560008201527f6e00000000000000000000000000000000000000000000000000000000000000602082015250565b60006121ac60218361213f565b91506121b782612150565b604082019050919050565b600060208201905081810360008301526121db8161219f565b9050919050565b7f4e487b7100000000000000000000000000000000000000000000000000000000600052603260045260246000fd5b600081519050919050565b600082825260208201905092915050565b60005b8381101561224b578082015181840152602081019050612230565b60008484015250505050565b600061226282612211565b61226c818561221c565b935061227c81856020860161222d565b612285816115f5565b840191505092915050565b6122998161195a565b82525050565b6122a881611878565b82525050565b600081519050919050565b600082825260208201905092915050565b6000819050602082019050919050565b6122e3816119ea565b82525050565b600081519050919050565b600082825260208201905092915050565b6000612310826122e9565b61231a81856122f4565b935061232a81856020860161222d565b612333816115f5565b840191505092915050565b600060a0830160008301516123566000860182612290565b506020830151612369602086018261208d565b50604083015184820360408601526123818282612305565b9150506060830151848203606086015261239b8282612305565b91505060808301516123b0608086018261208d565b508091505092915050565b60006040830160008301516123d360008601826122da565b50602083015184820360208601526123eb828261233e565b9150508091505092915050565b600061240483836123bb565b905092915050565b6000602082019050919050565b6000612424826122ae565b61242e81856122b9565b935083602082028501612440856122ca565b8060005b8581101561247c578484038952815161245d85826123f8565b94506124688361240c565b925060208a01995050600181019050612444565b50829750879550505050505092915050565b6060820160008201516124a4600085018261207e565b5060208201516124b7602085018261208d565b5060408201516124ca604085018261207e565b50505050565b60006101608301600083015184820360008601526124ee8282612257565b915050602083015184820360208601526125088282612257565b915050604083015161251d604086018261208d565b50606083015184820360608601526125358282612257565b915050608083015161254a6080860182612290565b5060a083015161255d60a086018261229f565b5060c083015161257060c0860182612290565b5060e083015184820360e08601526125888282612419565b91505061010083015161259f61010086018261248e565b508091505092915050565b60006040820190506125bf6000830185612054565b81810360208301526125d181846124d0565b90509392505050565b600081905092915050565b60006125f0826122e9565b6125fa81856125da565b935061260a81856020860161222d565b80840191505092915050565b600061262282846125e5565b915081905092915050565b60008160030b9050919050565b6126438161262d565b811461264e57600080fd5b50565b6000815190506126608161263a565b92915050565b60006020828403121561267c5761267b611588565b5b600061268a84828501612651565b91505092915050565b60006080820190506126a86000830185612054565b6126b5602083018461209c565b9392505050565b7f4661696c656420746f207472616e73666572206e6f6e2d66756e6769626c652060008201527f746f6b656e000000000000000000000000000000000000000000000000000000602082015250565b600061271860258361213f565b9150612723826126bc565b604082019050919050565b600060208201905081810360008301526127478161270b565b9050919050565b60006040820190506127636000830185612054565b6127706020830184612054565b9392505050565b7f4661696c656420746f20637265617465206e6f6e2d66756e6769626c6520746f60008201527f6b656e0000000000000000000000000000000000000000000000000000000000602082015250565b60006127d360238361213f565b91506127de82612777565b604082019050919050565b60006020820190508181036000830152612802816127c6565b9050919050565b60008151905061281881611c15565b92915050565b60008151905061282d816115c4565b92915050565b600060608284031215612849576128486118af565b5b6128536060611666565b9050600061286384828501612809565b60008301525060206128778482850161281e565b602083015250604061288b84828501612809565b60408301525092915050565b600080608083850312156128ae576128ad611588565b5b60006128bc85828601612651565b92505060206128cd85828601612833565b9150509250929050565b6000815190506128e681611966565b92915050565b6000806040838503121561290357612902611588565b5b600061291185828601612651565b9250506020612922858286016128d7565b9150509250929050565b600067ffffffffffffffff82169050919050565b6129498161292c565b82525050565b600081519050919050565b600082825260208201905092915050565b6000819050602082019050919050565b60006129878383612305565b905092915050565b6000602082019050919050565b60006129a78261294f565b6129b1818561295a565b9350836020820285016129c38561296b565b8060005b858110156129ff57848403895281516129e0858261297b565b94506129eb8361298f565b925060208a019950506001810190506129c7565b50829750879550505050505092915050565b6000606082019050612a266000830186612054565b612a336020830185612940565b8181036040830152612a45818461299c565b9050949350505050565b612a588161292c565b8114612a6357600080fd5b50565b600081519050612a7581612a4f565b92915050565b600067ffffffffffffffff821115612a9657612a95611606565b5b602082029050602081019050919050565b600081519050612ab681611992565b92915050565b6000612acf612aca84612a7b565b611666565b90508083825260208201905060208402830185811115612af257612af16116ad565b5b835b81811015612b1b5780612b078882612aa7565b845260208401935050602081019050612af4565b5050509392505050565b600082601f830112612b3a57612b396115f0565b5b8151612b4a848260208601612abc565b91505092915050565b600080600060608486031215612b6c57612b6b611588565b5b6000612b7a86828701612651565b9350506020612b8b86828701612a66565b925050604084015167ffffffffffffffff811115612bac57612bab61158d565b5b612bb886828701612b25565b9150509250925092565b6000608082019050612bd76000830187612054565b612be46020830186612054565b612bf16040830185612054565b612bfe6060830184611885565b95945050505050565b60006020820190508181036000830152612c2181846124d0565b905092915050565b6000612c3482611592565b9050919050565b612c4481612c29565b8114612c4f57600080fd5b50565b600081519050612c6181612c3b565b92915050565b60008060408385031215612c7e57612c7d611588565b5b6000612c8c85828601612651565b9250506020612c9d85828601612c52565b9150509250929050565b7f4e487b7100000000000000000000000000000000000000000000000000000000600052602160045260246000fdfea26469706673582212206223574bd506a9562d9935dbed8663c96cf5c7c9aee42741bc237e467b92fe0264736f6c63430008120033",
			"opcodes": "PUSH1 0x80 PUSH1 0x40 MSTORE CALLVALUE DUP1 ISZERO PUSH3 0x11 JUMPI PUSH1 0x0 DUP1 REVERT JUMPDEST POP PUSH1 0x1 DUP1 PUSH1 0x0 DUP1 PUSH1 0x6 DUP2 GT ISZERO PUSH3 0x2D JUMPI PUSH3 0x2C PUSH3 0x1F1 JUMP JUMPDEST JUMPDEST PUSH1 0x6 DUP2 GT ISZERO PUSH3 0x42 JUMPI PUSH3 0x41 PUSH3 0x1F1 JUMP JUMPDEST JUMPDEST DUP2 MSTORE PUSH1 0x20 ADD SWAP1 DUP2 MSTORE PUSH1 0x20 ADD PUSH1 0x0 KECCAK256 DUP2 SWAP1 SSTORE POP PUSH1 0x2 PUSH1 0x1 PUSH1 0x0 PUSH1 0x1 PUSH1 0x6 DUP2 GT ISZERO PUSH3 0x71 JUMPI PUSH3 0x70 PUSH3 0x1F1 JUMP JUMPDEST JUMPDEST PUSH1 0x6 DUP2 GT ISZERO PUSH3 0x86 JUMPI PUSH3 0x85 PUSH3 0x1F1 JUMP JUMPDEST JUMPDEST DUP2 MSTORE PUSH1 0x20 ADD SWAP1 DUP2 MSTORE PUSH1 0x20 ADD PUSH1 0x0 KECCAK256 DUP2 SWAP1 SSTORE POP PUSH1 0x4 PUSH1 0x1 PUSH1 0x0 PUSH1 0x2 PUSH1 0x6 DUP2 GT ISZERO PUSH3 0xB5 JUMPI PUSH3 0xB4 PUSH3 0x1F1 JUMP JUMPDEST JUMPDEST PUSH1 0x6 DUP2 GT ISZERO PUSH3 0xCA JUMPI PUSH3 0xC9 PUSH3 0x1F1 JUMP JUMPDEST JUMPDEST DUP2 MSTORE PUSH1 0x20 ADD SWAP1 DUP2 MSTORE PUSH1 0x20 ADD PUSH1 0x0 KECCAK256 DUP2 SWAP1 SSTORE POP PUSH1 0x8 PUSH1 0x1 PUSH1 0x0 PUSH1 0x3 PUSH1 0x6 DUP2 GT ISZERO PUSH3 0xF9 JUMPI PUSH3 0xF8 PUSH3 0x1F1 JUMP JUMPDEST JUMPDEST PUSH1 0x6 DUP2 GT ISZERO PUSH3 0x10E JUMPI PUSH3 0x10D PUSH3 0x1F1 JUMP JUMPDEST JUMPDEST DUP2 MSTORE PUSH1 0x20 ADD SWAP1 DUP2 MSTORE PUSH1 0x20 ADD PUSH1 0x0 KECCAK256 DUP2 SWAP1 SSTORE POP PUSH1 0x10 PUSH1 0x1 PUSH1 0x0 PUSH1 0x4 PUSH1 0x6 DUP2 GT ISZERO PUSH3 0x13D JUMPI PUSH3 0x13C PUSH3 0x1F1 JUMP JUMPDEST JUMPDEST PUSH1 0x6 DUP2 GT ISZERO PUSH3 0x152 JUMPI PUSH3 0x151 PUSH3 0x1F1 JUMP JUMPDEST JUMPDEST DUP2 MSTORE PUSH1 0x20 ADD SWAP1 DUP2 MSTORE PUSH1 0x20 ADD PUSH1 0x0 KECCAK256 DUP2 SWAP1 SSTORE POP PUSH1 0x20 PUSH1 0x1 PUSH1 0x0 PUSH1 0x5 PUSH1 0x6 DUP2 GT ISZERO PUSH3 0x181 JUMPI PUSH3 0x180 PUSH3 0x1F1 JUMP JUMPDEST JUMPDEST PUSH1 0x6 DUP2 GT ISZERO PUSH3 0x196 JUMPI PUSH3 0x195 PUSH3 0x1F1 JUMP JUMPDEST JUMPDEST DUP2 MSTORE PUSH1 0x20 ADD SWAP1 DUP2 MSTORE PUSH1 0x20 ADD PUSH1 0x0 KECCAK256 DUP2 SWAP1 SSTORE POP PUSH1 0x40 PUSH1 0x1 PUSH1 0x0 PUSH1 0x6 DUP1 DUP2 GT ISZERO PUSH3 0x1C4 JUMPI PUSH3 0x1C3 PUSH3 0x1F1 JUMP JUMPDEST JUMPDEST PUSH1 0x6 DUP2 GT ISZERO PUSH3 0x1D9 JUMPI PUSH3 0x1D8 PUSH3 0x1F1 JUMP JUMPDEST JUMPDEST DUP2 MSTORE PUSH1 0x20 ADD SWAP1 DUP2 MSTORE PUSH1 0x20 ADD PUSH1 0x0 KECCAK256 DUP2 SWAP1 SSTORE POP PUSH3 0x220 JUMP JUMPDEST PUSH32 0x4E487B7100000000000000000000000000000000000000000000000000000000 PUSH1 0x0 MSTORE PUSH1 0x21 PUSH1 0x4 MSTORE PUSH1 0x24 PUSH1 0x0 REVERT JUMPDEST PUSH2 0x2D0C DUP1 PUSH3 0x230 PUSH1 0x0 CODECOPY PUSH1 0x0 RETURN INVALID PUSH1 0x80 PUSH1 0x40 MSTORE PUSH1 0x4 CALLDATASIZE LT PUSH2 0x9C JUMPI PUSH1 0x0 CALLDATALOAD PUSH1 0xE0 SHR DUP1 PUSH4 0x82B562AA GT PUSH2 0x64 JUMPI DUP1 PUSH4 0x82B562AA EQ PUSH2 0x1D2 JUMPI DUP1 PUSH4 0x8F8D7F99 EQ PUSH2 0x20F JUMPI DUP1 PUSH4 0xAF99C633 EQ PUSH2 0x24C JUMPI DUP1 PUSH4 0xC783FE25 EQ PUSH2 0x289 JUMPI DUP1 PUSH4 0xD614CDB8 EQ PUSH2 0x2B9 JUMPI DUP1 PUSH4 0xF2C31FF4 EQ PUSH2 0x2F7 JUMPI PUSH2 0x9C JUMP JUMPDEST DUP1 PUSH4 0xA284CB6 EQ PUSH2 0xA1 JUMPI DUP1 PUSH4 0x18370D34 EQ PUSH2 0xDE JUMPI DUP1 PUSH4 0x3B3BFF0F EQ PUSH2 0x11B JUMPI DUP1 PUSH4 0x593D6E82 EQ PUSH2 0x158 JUMPI DUP1 PUSH4 0x7C41AD2C EQ PUSH2 0x195 JUMPI JUMPDEST PUSH1 0x0 DUP1 REVERT JUMPDEST CALLVALUE DUP1 ISZERO PUSH2 0xAD JUMPI PUSH1 0x0 DUP1 REVERT JUMPDEST POP PUSH2 0xC8 PUSH1 0x4 DUP1 CALLDATASIZE SUB DUP2 ADD SWAP1 PUSH2 0xC3 SWAP2 SWAP1 PUSH2 0x181C JUMP JUMPDEST PUSH2 0x335 JUMP JUMPDEST PUSH1 0x40 MLOAD PUSH2 0xD5 SWAP2 SWAP1 PUSH2 0x1894 JUMP JUMPDEST PUSH1 0x40 MLOAD DUP1 SWAP2 SUB SWAP1 RETURN JUMPDEST CALLVALUE DUP1 ISZERO PUSH2 0xEA JUMPI PUSH1 0x0 DUP1 REVERT JUMPDEST POP PUSH2 0x105 PUSH1 0x4 DUP1 CALLDATASIZE SUB DUP2 ADD SWAP1 PUSH2 0x100 SWAP2 SWAP1 PUSH2 0x1DF5 JUMP JUMPDEST PUSH2 0x3B7 JUMP JUMPDEST PUSH1 0x40 MLOAD PUSH2 0x112 SWAP2 SWAP1 PUSH2 0x1E6A JUMP JUMPDEST PUSH1 0x40 MLOAD DUP1 SWAP2 SUB SWAP1 RETURN JUMPDEST CALLVALUE DUP1 ISZERO PUSH2 0x127 JUMPI PUSH1 0x0 DUP1 REVERT JUMPDEST POP PUSH2 0x142 PUSH1 0x4 DUP1 CALLDATASIZE SUB DUP2 ADD SWAP1 PUSH2 0x13D SWAP2 SWAP1 PUSH2 0x1E85 JUMP JUMPDEST PUSH2 0x4CF JUMP JUMPDEST PUSH1 0x40 MLOAD PUSH2 0x14F SWAP2 SWAP1 PUSH2 0x1E6A JUMP JUMPDEST PUSH1 0x40 MLOAD DUP1 SWAP2 SUB SWAP1 RETURN JUMPDEST CALLVALUE DUP1 ISZERO PUSH2 0x164 JUMPI PUSH1 0x0 DUP1 REVERT JUMPDEST POP PUSH2 0x17F PUSH1 0x4 DUP1 CALLDATASIZE SUB DUP2 ADD SWAP1 PUSH2 0x17A SWAP2 SWAP1 PUSH2 0x1EB2 JUMP JUMPDEST PUSH2 0x5E4 JUMP JUMPDEST PUSH1 0x40 MLOAD PUSH2 0x18C SWAP2 SWAP1 PUSH2 0x1E6A JUMP JUMPDEST PUSH1 0x40 MLOAD DUP1 SWAP2 SUB SWAP1 RETURN JUMPDEST CALLVALUE DUP1 ISZERO PUSH2 0x1A1 JUMPI PUSH1 0x0 DUP1 REVERT JUMPDEST POP PUSH2 0x1BC PUSH1 0x4 DUP1 CALLDATASIZE SUB DUP2 ADD SWAP1 PUSH2 0x1B7 SWAP2 SWAP1 PUSH2 0x1E85 JUMP JUMPDEST PUSH2 0x6FC JUMP JUMPDEST PUSH1 0x40 MLOAD PUSH2 0x1C9 SWAP2 SWAP1 PUSH2 0x1E6A JUMP JUMPDEST PUSH1 0x40 MLOAD DUP1 SWAP2 SUB SWAP1 RETURN JUMPDEST CALLVALUE DUP1 ISZERO PUSH2 0x1DE JUMPI PUSH1 0x0 DUP1 REVERT JUMPDEST POP PUSH2 0x1F9 PUSH1 0x4 DUP1 CALLDATASIZE SUB DUP2 ADD SWAP1 PUSH2 0x1F4 SWAP2 SWAP1 PUSH2 0x1EF2 JUMP JUMPDEST PUSH2 0x811 JUMP JUMPDEST PUSH1 0x40 MLOAD PUSH2 0x206 SWAP2 SWAP1 PUSH2 0x1E6A JUMP JUMPDEST PUSH1 0x40 MLOAD DUP1 SWAP2 SUB SWAP1 RETURN JUMPDEST CALLVALUE DUP1 ISZERO PUSH2 0x21B JUMPI PUSH1 0x0 DUP1 REVERT JUMPDEST POP PUSH2 0x236 PUSH1 0x4 DUP1 CALLDATASIZE SUB DUP2 ADD SWAP1 PUSH2 0x231 SWAP2 SWAP1 PUSH2 0x1F45 JUMP JUMPDEST PUSH2 0x873 JUMP JUMPDEST PUSH1 0x40 MLOAD PUSH2 0x243 SWAP2 SWAP1 PUSH2 0x1894 JUMP JUMPDEST PUSH1 0x40 MLOAD DUP1 SWAP2 SUB SWAP1 RETURN JUMPDEST CALLVALUE DUP1 ISZERO PUSH2 0x258 JUMPI PUSH1 0x0 DUP1 REVERT JUMPDEST POP PUSH2 0x273 PUSH1 0x4 DUP1 CALLDATASIZE SUB DUP2 ADD SWAP1 PUSH2 0x26E SWAP2 SWAP1 PUSH2 0x1F45 JUMP JUMPDEST PUSH2 0x98B JUMP JUMPDEST PUSH1 0x40 MLOAD PUSH2 0x280 SWAP2 SWAP1 PUSH2 0x1894 JUMP JUMPDEST PUSH1 0x40 MLOAD DUP1 SWAP2 SUB SWAP1 RETURN JUMPDEST PUSH2 0x2A3 PUSH1 0x4 DUP1 CALLDATASIZE SUB DUP2 ADD SWAP1 PUSH2 0x29E SWAP2 SWAP1 PUSH2 0x1F85 JUMP JUMPDEST PUSH2 0xAA3 JUMP JUMPDEST PUSH1 0x40 MLOAD PUSH2 0x2B0 SWAP2 SWAP1 PUSH2 0x2063 JUMP JUMPDEST PUSH1 0x40 MLOAD DUP1 SWAP2 SUB SWAP1 RETURN JUMPDEST CALLVALUE DUP1 ISZERO PUSH2 0x2C5 JUMPI PUSH1 0x0 DUP1 REVERT JUMPDEST POP PUSH2 0x2E0 PUSH1 0x4 DUP1 CALLDATASIZE SUB DUP2 ADD SWAP1 PUSH2 0x2DB SWAP2 SWAP1 PUSH2 0x1E85 JUMP JUMPDEST PUSH2 0xC3A JUMP JUMPDEST PUSH1 0x40 MLOAD PUSH2 0x2EE SWAP3 SWAP2 SWAP1 PUSH2 0x20DE JUMP JUMPDEST PUSH1 0x40 MLOAD DUP1 SWAP2 SUB SWAP1 RETURN JUMPDEST CALLVALUE DUP1 ISZERO PUSH2 0x303 JUMPI PUSH1 0x0 DUP1 REVERT JUMPDEST POP PUSH2 0x31E PUSH1 0x4 DUP1 CALLDATASIZE SUB DUP2 ADD SWAP1 PUSH2 0x319 SWAP2 SWAP1 PUSH2 0x1F45 JUMP JUMPDEST PUSH2 0xD6A JUMP JUMPDEST PUSH1 0x40 MLOAD PUSH2 0x32C SWAP3 SWAP2 SWAP1 PUSH2 0x2116 JUMP JUMPDEST PUSH1 0x40 MLOAD DUP1 SWAP2 SUB SWAP1 RETURN JUMPDEST PUSH1 0x0 DUP1 PUSH1 0x0 PUSH2 0x346 DUP6 PUSH1 0x0 DUP7 PUSH2 0xE8F JUMP JUMPDEST SWAP3 POP POP SWAP2 POP PUSH1 0x16 PUSH1 0x3 SIGNEXTEND DUP3 EQ PUSH2 0x391 JUMPI PUSH1 0x40 MLOAD PUSH32 0x8C379A000000000000000000000000000000000000000000000000000000000 DUP2 MSTORE PUSH1 0x4 ADD PUSH2 0x388 SWAP1 PUSH2 0x21C2 JUMP JUMPDEST PUSH1 0x40 MLOAD DUP1 SWAP2 SUB SWAP1 REVERT JUMPDEST DUP1 PUSH1 0x0 DUP2 MLOAD DUP2 LT PUSH2 0x3A5 JUMPI PUSH2 0x3A4 PUSH2 0x21E2 JUMP JUMPDEST JUMPDEST PUSH1 0x20 MUL PUSH1 0x20 ADD ADD MLOAD SWAP3 POP POP POP SWAP3 SWAP2 POP POP JUMP JUMPDEST PUSH1 0x0 DUP1 PUSH1 0x0 PUSH2 0x167 PUSH20 0xFFFFFFFFFFFFFFFFFFFFFFFFFFFFFFFFFFFFFFFF AND PUSH4 0x18370D34 PUSH1 0xE0 SHL DUP7 DUP7 PUSH1 0x40 MLOAD PUSH1 0x24 ADD PUSH2 0x3F0 SWAP3 SWAP2 SWAP1 PUSH2 0x25AA JUMP JUMPDEST PUSH1 0x40 MLOAD PUSH1 0x20 DUP2 DUP4 SUB SUB DUP2 MSTORE SWAP1 PUSH1 0x40 MSTORE SWAP1 PUSH28 0xFFFFFFFFFFFFFFFFFFFFFFFFFFFFFFFFFFFFFFFFFFFFFFFFFFFFFFFF NOT AND PUSH1 0x20 DUP3 ADD DUP1 MLOAD PUSH28 0xFFFFFFFFFFFFFFFFFFFFFFFFFFFFFFFFFFFFFFFFFFFFFFFFFFFFFFFF DUP4 DUP2 DUP4 AND OR DUP4 MSTORE POP POP POP POP PUSH1 0x40 MLOAD PUSH2 0x45A SWAP2 SWAP1 PUSH2 0x2616 JUMP JUMPDEST PUSH1 0x0 PUSH1 0x40 MLOAD DUP1 DUP4 SUB DUP2 PUSH1 0x0 DUP7 GAS CALL SWAP2 POP POP RETURNDATASIZE DUP1 PUSH1 0x0 DUP2 EQ PUSH2 0x497 JUMPI PUSH1 0x40 MLOAD SWAP2 POP PUSH1 0x1F NOT PUSH1 0x3F RETURNDATASIZE ADD AND DUP3 ADD PUSH1 0x40 MSTORE RETURNDATASIZE DUP3 MSTORE RETURNDATASIZE PUSH1 0x0 PUSH1 0x20 DUP5 ADD RETURNDATACOPY PUSH2 0x49C JUMP JUMPDEST PUSH1 0x60 SWAP2 POP JUMPDEST POP SWAP2 POP SWAP2 POP DUP2 PUSH2 0x4AD JUMPI PUSH1 0x15 PUSH2 0x4C2 JUMP JUMPDEST DUP1 DUP1 PUSH1 0x20 ADD SWAP1 MLOAD DUP2 ADD SWAP1 PUSH2 0x4C1 SWAP2 SWAP1 PUSH2 0x2666 JUMP JUMPDEST JUMPDEST PUSH1 0x3 SIGNEXTEND SWAP3 POP POP POP SWAP3 SWAP2 POP POP JUMP JUMPDEST PUSH1 0x0 DUP1 PUSH1 0x0 PUSH2 0x167 PUSH20 0xFFFFFFFFFFFFFFFFFFFFFFFFFFFFFFFFFFFFFFFF AND PUSH4 0x3B3BFF0F PUSH1 0xE0 SHL DUP6 PUSH1 0x40 MLOAD PUSH1 0x24 ADD PUSH2 0x506 SWAP2 SWAP1 PUSH2 0x2063 JUMP JUMPDEST PUSH1 0x40 MLOAD PUSH1 0x20 DUP2 DUP4 SUB SUB DUP2 MSTORE SWAP1 PUSH1 0x40 MSTORE SWAP1 PUSH28 0xFFFFFFFFFFFFFFFFFFFFFFFFFFFFFFFFFFFFFFFFFFFFFFFFFFFFFFFF NOT AND PUSH1 0x20 DUP3 ADD DUP1 MLOAD PUSH28 0xFFFFFFFFFFFFFFFFFFFFFFFFFFFFFFFFFFFFFFFFFFFFFFFFFFFFFFFF DUP4 DUP2 DUP4 AND OR DUP4 MSTORE POP POP POP POP PUSH1 0x40 MLOAD PUSH2 0x570 SWAP2 SWAP1 PUSH2 0x2616 JUMP JUMPDEST PUSH1 0x0 PUSH1 0x40 MLOAD DUP1 DUP4 SUB DUP2 PUSH1 0x0 DUP7 GAS CALL SWAP2 POP POP RETURNDATASIZE DUP1 PUSH1 0x0 DUP2 EQ PUSH2 0x5AD JUMPI PUSH1 0x40 MLOAD SWAP2 POP PUSH1 0x1F NOT PUSH1 0x3F RETURNDATASIZE ADD AND DUP3 ADD PUSH1 0x40 MSTORE RETURNDATASIZE DUP3 MSTORE RETURNDATASIZE PUSH1 0x0 PUSH1 0x20 DUP5 ADD RETURNDATACOPY PUSH2 0x5B2 JUMP JUMPDEST PUSH1 0x60 SWAP2 POP JUMPDEST POP SWAP2 POP SWAP2 POP DUP2 PUSH2 0x5C3 JUMPI PUSH1 0x15 PUSH2 0x5D8 JUMP JUMPDEST DUP1 DUP1 PUSH1 0x20 ADD SWAP1 MLOAD DUP2 ADD SWAP1 PUSH2 0x5D7 SWAP2 SWAP1 PUSH2 0x2666 JUMP JUMPDEST JUMPDEST PUSH1 0x3 SIGNEXTEND SWAP3 POP POP POP SWAP2 SWAP1 POP JUMP JUMPDEST PUSH1 0x0 DUP1 PUSH1 0x0 PUSH2 0x167 PUSH20 0xFFFFFFFFFFFFFFFFFFFFFFFFFFFFFFFFFFFFFFFF AND PUSH4 0x593D6E82 PUSH1 0xE0 SHL DUP7 DUP7 PUSH1 0x40 MLOAD PUSH1 0x24 ADD PUSH2 0x61D SWAP3 SWAP2 SWAP1 PUSH2 0x2693 JUMP JUMPDEST PUSH1 0x40 MLOAD PUSH1 0x20 DUP2 DUP4 SUB SUB DUP2 MSTORE SWAP1 PUSH1 0x40 MSTORE SWAP1 PUSH28 0xFFFFFFFFFFFFFFFFFFFFFFFFFFFFFFFFFFFFFFFFFFFFFFFFFFFFFFFF NOT AND PUSH1 0x20 DUP3 ADD DUP1 MLOAD PUSH28 0xFFFFFFFFFFFFFFFFFFFFFFFFFFFFFFFFFFFFFFFFFFFFFFFFFFFFFFFF DUP4 DUP2 DUP4 AND OR DUP4 MSTORE POP POP POP POP PUSH1 0x40 MLOAD PUSH2 0x687 SWAP2 SWAP1 PUSH2 0x2616 JUMP JUMPDEST PUSH1 0x0 PUSH1 0x40 MLOAD DUP1 DUP4 SUB DUP2 PUSH1 0x0 DUP7 GAS CALL SWAP2 POP POP RETURNDATASIZE DUP1 PUSH1 0x0 DUP2 EQ PUSH2 0x6C4 JUMPI PUSH1 0x40 MLOAD SWAP2 POP PUSH1 0x1F NOT PUSH1 0x3F RETURNDATASIZE ADD AND DUP3 ADD PUSH1 0x40 MSTORE RETURNDATASIZE DUP3 MSTORE RETURNDATASIZE PUSH1 0x0 PUSH1 0x20 DUP5 ADD RETURNDATACOPY PUSH2 0x6C9 JUMP JUMPDEST PUSH1 0x60 SWAP2 POP JUMPDEST POP SWAP2 POP SWAP2 POP DUP2 PUSH2 0x6DA JUMPI PUSH1 0x15 PUSH2 0x6EF JUMP JUMPDEST DUP1 DUP1 PUSH1 0x20 ADD SWAP1 MLOAD DUP2 ADD SWAP1 PUSH2 0x6EE SWAP2 SWAP1 PUSH2 0x2666 JUMP JUMPDEST JUMPDEST PUSH1 0x3 SIGNEXTEND SWAP3 POP POP POP SWAP3 SWAP2 POP POP JUMP JUMPDEST PUSH1 0x0 DUP1 PUSH1 0x0 PUSH2 0x167 PUSH20 0xFFFFFFFFFFFFFFFFFFFFFFFFFFFFFFFFFFFFFFFF AND PUSH4 0x7C41AD2C PUSH1 0xE0 SHL DUP6 PUSH1 0x40 MLOAD PUSH1 0x24 ADD PUSH2 0x733 SWAP2 SWAP1 PUSH2 0x2063 JUMP JUMPDEST PUSH1 0x40 MLOAD PUSH1 0x20 DUP2 DUP4 SUB SUB DUP2 MSTORE SWAP1 PUSH1 0x40 MSTORE SWAP1 PUSH28 0xFFFFFFFFFFFFFFFFFFFFFFFFFFFFFFFFFFFFFFFFFFFFFFFFFFFFFFFF NOT AND PUSH1 0x20 DUP3 ADD DUP1 MLOAD PUSH28 0xFFFFFFFFFFFFFFFFFFFFFFFFFFFFFFFFFFFFFFFFFFFFFFFFFFFFFFFF DUP4 DUP2 DUP4 AND OR DUP4 MSTORE POP POP POP POP PUSH1 0x40 MLOAD PUSH2 0x79D SWAP2 SWAP1 PUSH2 0x2616 JUMP JUMPDEST PUSH1 0x0 PUSH1 0x40 MLOAD DUP1 DUP4 SUB DUP2 PUSH1 0x0 DUP7 GAS CALL SWAP2 POP POP RETURNDATASIZE DUP1 PUSH1 0x0 DUP2 EQ PUSH2 0x7DA JUMPI PUSH1 0x40 MLOAD SWAP2 POP PUSH1 0x1F NOT PUSH1 0x3F RETURNDATASIZE ADD AND DUP3 ADD PUSH1 0x40 MSTORE RETURNDATASIZE DUP3 MSTORE RETURNDATASIZE PUSH1 0x0 PUSH1 0x20 DUP5 ADD RETURNDATACOPY PUSH2 0x7DF JUMP JUMPDEST PUSH1 0x60 SWAP2 POP JUMPDEST POP SWAP2 POP SWAP2 POP DUP2 PUSH2 0x7F0 JUMPI PUSH1 0x15 PUSH2 0x805 JUMP JUMPDEST DUP1 DUP1 PUSH1 0x20 ADD SWAP1 MLOAD DUP2 ADD SWAP1 PUSH2 0x804 SWAP2 SWAP1 PUSH2 0x2666 JUMP JUMPDEST JUMPDEST PUSH1 0x3 SIGNEXTEND SWAP3 POP POP POP SWAP2 SWAP1 POP JUMP JUMPDEST PUSH1 0x0 DUP1 PUSH2 0x820 DUP6 ADDRESS DUP7 DUP7 PUSH2 0x1007 JUMP JUMPDEST SWAP1 POP PUSH1 0x16 PUSH1 0x3 SIGNEXTEND DUP2 EQ PUSH2 0x868 JUMPI PUSH1 0x40 MLOAD PUSH32 0x8C379A000000000000000000000000000000000000000000000000000000000 DUP2 MSTORE PUSH1 0x4 ADD PUSH2 0x85F SWAP1 PUSH2 0x272E JUMP JUMPDEST PUSH1 0x40 MLOAD DUP1 SWAP2 SUB SWAP1 REVERT JUMPDEST DUP1 SWAP2 POP POP SWAP4 SWAP3 POP POP POP JUMP JUMPDEST PUSH1 0x0 DUP1 PUSH1 0x0 PUSH2 0x167 PUSH20 0xFFFFFFFFFFFFFFFFFFFFFFFFFFFFFFFFFFFFFFFF AND PUSH4 0x8F8D7F99 PUSH1 0xE0 SHL DUP7 DUP7 PUSH1 0x40 MLOAD PUSH1 0x24 ADD PUSH2 0x8AC SWAP3 SWAP2 SWAP1 PUSH2 0x274E JUMP JUMPDEST PUSH1 0x40 MLOAD PUSH1 0x20 DUP2 DUP4 SUB SUB DUP2 MSTORE SWAP1 PUSH1 0x40 MSTORE SWAP1 PUSH28 0xFFFFFFFFFFFFFFFFFFFFFFFFFFFFFFFFFFFFFFFFFFFFFFFFFFFFFFFF NOT AND PUSH1 0x20 DUP3 ADD DUP1 MLOAD PUSH28 0xFFFFFFFFFFFFFFFFFFFFFFFFFFFFFFFFFFFFFFFFFFFFFFFFFFFFFFFF DUP4 DUP2 DUP4 AND OR DUP4 MSTORE POP POP POP POP PUSH1 0x40 MLOAD PUSH2 0x916 SWAP2 SWAP1 PUSH2 0x2616 JUMP JUMPDEST PUSH1 0x0 PUSH1 0x40 MLOAD DUP1 DUP4 SUB DUP2 PUSH1 0x0 DUP7 GAS CALL SWAP2 POP POP RETURNDATASIZE DUP1 PUSH1 0x0 DUP2 EQ PUSH2 0x953 JUMPI PUSH1 0x40 MLOAD SWAP2 POP PUSH1 0x1F NOT PUSH1 0x3F RETURNDATASIZE ADD AND DUP3 ADD PUSH1 0x40 MSTORE RETURNDATASIZE DUP3 MSTORE RETURNDATASIZE PUSH1 0x0 PUSH1 0x20 DUP5 ADD RETURNDATACOPY PUSH2 0x958 JUMP JUMPDEST PUSH1 0x60 SWAP2 POP JUMPDEST POP SWAP2 POP SWAP2 POP DUP2 PUSH2 0x969 JUMPI PUSH1 0x15 PUSH2 0x97E JUMP JUMPDEST DUP1 DUP1 PUSH1 0x20 ADD SWAP1 MLOAD DUP2 ADD SWAP1 PUSH2 0x97D SWAP2 SWAP1 PUSH2 0x2666 JUMP JUMPDEST JUMPDEST PUSH1 0x3 SIGNEXTEND SWAP3 POP POP POP SWAP3 SWAP2 POP POP JUMP JUMPDEST PUSH1 0x0 DUP1 PUSH1 0x0 PUSH2 0x167 PUSH20 0xFFFFFFFFFFFFFFFFFFFFFFFFFFFFFFFFFFFFFFFF AND PUSH4 0xAF99C633 PUSH1 0xE0 SHL DUP7 DUP7 PUSH1 0x40 MLOAD PUSH1 0x24 ADD PUSH2 0x9C4 SWAP3 SWAP2 SWAP1 PUSH2 0x274E JUMP JUMPDEST PUSH1 0x40 MLOAD PUSH1 0x20 DUP2 DUP4 SUB SUB DUP2 MSTORE SWAP1 PUSH1 0x40 MSTORE SWAP1 PUSH28 0xFFFFFFFFFFFFFFFFFFFFFFFFFFFFFFFFFFFFFFFFFFFFFFFFFFFFFFFF NOT AND PUSH1 0x20 DUP3 ADD DUP1 MLOAD PUSH28 0xFFFFFFFFFFFFFFFFFFFFFFFFFFFFFFFFFFFFFFFFFFFFFFFFFFFFFFFF DUP4 DUP2 DUP4 AND OR DUP4 MSTORE POP POP POP POP PUSH1 0x40 MLOAD PUSH2 0xA2E SWAP2 SWAP1 PUSH2 0x2616 JUMP JUMPDEST PUSH1 0x0 PUSH1 0x40 MLOAD DUP1 DUP4 SUB DUP2 PUSH1 0x0 DUP7 GAS CALL SWAP2 POP POP RETURNDATASIZE DUP1 PUSH1 0x0 DUP2 EQ PUSH2 0xA6B JUMPI PUSH1 0x40 MLOAD SWAP2 POP PUSH1 0x1F NOT PUSH1 0x3F RETURNDATASIZE ADD AND DUP3 ADD PUSH1 0x40 MSTORE RETURNDATASIZE DUP3 MSTORE RETURNDATASIZE PUSH1 0x0 PUSH1 0x20 DUP5 ADD RETURNDATACOPY PUSH2 0xA70 JUMP JUMPDEST PUSH1 0x60 SWAP2 POP JUMPDEST POP SWAP2 POP SWAP2 POP DUP2 PUSH2 0xA81 JUMPI PUSH1 0x15 PUSH2 0xA96 JUMP JUMPDEST DUP1 DUP1 PUSH1 0x20 ADD SWAP1 MLOAD DUP2 ADD SWAP1 PUSH2 0xA95 SWAP2 SWAP1 PUSH2 0x2666 JUMP JUMPDEST JUMPDEST PUSH1 0x3 SIGNEXTEND SWAP3 POP POP POP SWAP3 SWAP2 POP POP JUMP JUMPDEST PUSH1 0x0 DUP1 PUSH1 0x1 PUSH8 0xFFFFFFFFFFFFFFFF DUP2 GT ISZERO PUSH2 0xAC1 JUMPI PUSH2 0xAC0 PUSH2 0x1606 JUMP JUMPDEST JUMPDEST PUSH1 0x40 MLOAD SWAP1 DUP1 DUP3 MSTORE DUP1 PUSH1 0x20 MUL PUSH1 0x20 ADD DUP3 ADD PUSH1 0x40 MSTORE DUP1 ISZERO PUSH2 0xAFA JUMPI DUP2 PUSH1 0x20 ADD JUMPDEST PUSH2 0xAE7 PUSH2 0x144F JUMP JUMPDEST DUP2 MSTORE PUSH1 0x20 ADD SWAP1 PUSH1 0x1 SWAP1 SUB SWAP1 DUP2 PUSH2 0xADF JUMPI SWAP1 POP JUMPDEST POP SWAP1 POP PUSH2 0xB0A PUSH1 0x4 PUSH1 0x1 ADDRESS PUSH2 0x1125 JUMP JUMPDEST DUP2 PUSH1 0x0 DUP2 MLOAD DUP2 LT PUSH2 0xB1E JUMPI PUSH2 0xB1D PUSH2 0x21E2 JUMP JUMPDEST JUMPDEST PUSH1 0x20 MUL PUSH1 0x20 ADD ADD DUP2 SWAP1 MSTORE POP PUSH2 0xB31 PUSH2 0x146F JUMP JUMPDEST DUP8 DUP2 PUSH1 0x0 ADD DUP2 SWAP1 MSTORE POP DUP7 DUP2 PUSH1 0x20 ADD DUP2 SWAP1 MSTORE POP DUP6 DUP2 PUSH1 0x60 ADD DUP2 SWAP1 MSTORE POP ADDRESS DUP2 PUSH1 0x40 ADD SWAP1 PUSH20 0xFFFFFFFFFFFFFFFFFFFFFFFFFFFFFFFFFFFFFFFF AND SWAP1 DUP2 PUSH20 0xFFFFFFFFFFFFFFFFFFFFFFFFFFFFFFFFFFFFFFFF AND DUP2 MSTORE POP POP PUSH1 0x1 DUP2 PUSH1 0x80 ADD SWAP1 ISZERO ISZERO SWAP1 DUP2 ISZERO ISZERO DUP2 MSTORE POP POP DUP5 DUP2 PUSH1 0xA0 ADD SWAP1 PUSH1 0x7 SIGNEXTEND SWAP1 DUP2 PUSH1 0x7 SIGNEXTEND DUP2 MSTORE POP POP DUP2 DUP2 PUSH1 0xE0 ADD DUP2 SWAP1 MSTORE POP PUSH1 0x0 DUP2 PUSH1 0xC0 ADD SWAP1 ISZERO ISZERO SWAP1 DUP2 ISZERO ISZERO DUP2 MSTORE POP POP PUSH2 0xBCB ADDRESS DUP6 PUSH2 0x115C JUMP JUMPDEST DUP2 PUSH2 0x100 ADD DUP2 SWAP1 MSTORE POP PUSH1 0x0 DUP1 PUSH2 0xBE0 DUP4 PUSH2 0x11BA JUMP JUMPDEST SWAP2 POP SWAP2 POP PUSH1 0x16 PUSH1 0x3 SIGNEXTEND DUP3 EQ PUSH2 0xC2A JUMPI PUSH1 0x40 MLOAD PUSH32 0x8C379A000000000000000000000000000000000000000000000000000000000 DUP2 MSTORE PUSH1 0x4 ADD PUSH2 0xC21 SWAP1 PUSH2 0x27E9 JUMP JUMPDEST PUSH1 0x40 MLOAD DUP1 SWAP2 SUB SWAP1 REVERT JUMPDEST DUP1 SWAP5 POP POP POP POP POP SWAP6 SWAP5 POP POP POP POP POP JUMP JUMPDEST PUSH1 0x0 PUSH2 0xC44 PUSH2 0x14DE JUMP JUMPDEST PUSH1 0x0 DUP1 PUSH2 0x167 PUSH20 0xFFFFFFFFFFFFFFFFFFFFFFFFFFFFFFFFFFFFFFFF AND PUSH4 0xD614CDB8 PUSH1 0xE0 SHL DUP7 PUSH1 0x40 MLOAD PUSH1 0x24 ADD PUSH2 0xC79 SWAP2 SWAP1 PUSH2 0x2063 JUMP JUMPDEST PUSH1 0x40 MLOAD PUSH1 0x20 DUP2 DUP4 SUB SUB DUP2 MSTORE SWAP1 PUSH1 0x40 MSTORE SWAP1 PUSH28 0xFFFFFFFFFFFFFFFFFFFFFFFFFFFFFFFFFFFFFFFFFFFFFFFFFFFFFFFF NOT AND PUSH1 0x20 DUP3 ADD DUP1 MLOAD PUSH28 0xFFFFFFFFFFFFFFFFFFFFFFFFFFFFFFFFFFFFFFFFFFFFFFFFFFFFFFFF DUP4 DUP2 DUP4 AND OR DUP4 MSTORE POP POP POP POP PUSH1 0x40 MLOAD PUSH2 0xCE3 SWAP2 SWAP1 PUSH2 0x2616 JUMP JUMPDEST PUSH1 0x0 PUSH1 0x40 MLOAD DUP1 DUP4 SUB DUP2 PUSH1 0x0 DUP7 GAS CALL SWAP2 POP POP RETURNDATASIZE DUP1 PUSH1 0x0 DUP2 EQ PUSH2 0xD20 JUMPI PUSH1 0x40 MLOAD SWAP2 POP PUSH1 0x1F NOT PUSH1 0x3F RETURNDATASIZE ADD AND DUP3 ADD PUSH1 0x40 MSTORE RETURNDATASIZE DUP3 MSTORE RETURNDATASIZE PUSH1 0x0 PUSH1 0x20 DUP5 ADD RETURNDATACOPY PUSH2 0xD25 JUMP JUMPDEST PUSH1 0x60 SWAP2 POP JUMPDEST POP SWAP2 POP SWAP2 POP PUSH2 0xD32 PUSH2 0x14DE JUMP JUMPDEST DUP3 PUSH2 0xD3F JUMPI PUSH1 0x15 DUP2 PUSH2 0xD54 JUMP JUMPDEST DUP2 DUP1 PUSH1 0x20 ADD SWAP1 MLOAD DUP2 ADD SWAP1 PUSH2 0xD53 SWAP2 SWAP1 PUSH2 0x2897 JUMP JUMPDEST JUMPDEST DUP2 PUSH1 0x3 SIGNEXTEND SWAP2 POP DUP1 SWAP6 POP DUP2 SWAP7 POP POP POP POP POP POP SWAP2 POP SWAP2 JUMP JUMPDEST PUSH1 0x0 DUP1 PUSH1 0x0 DUP1 PUSH2 0x167 PUSH20 0xFFFFFFFFFFFFFFFFFFFFFFFFFFFFFFFFFFFFFFFF AND PUSH4 0xF2C31FF4 PUSH1 0xE0 SHL DUP8 DUP8 PUSH1 0x40 MLOAD PUSH1 0x24 ADD PUSH2 0xDA4 SWAP3 SWAP2 SWAP1 PUSH2 0x274E JUMP JUMPDEST PUSH1 0x40 MLOAD PUSH1 0x20 DUP2 DUP4 SUB SUB DUP2 MSTORE SWAP1 PUSH1 0x40 MSTORE SWAP1 PUSH28 0xFFFFFFFFFFFFFFFFFFFFFFFFFFFFFFFFFFFFFFFFFFFFFFFFFFFFFFFF NOT AND PUSH1 0x20 DUP3 ADD DUP1 MLOAD PUSH28 0xFFFFFFFFFFFFFFFFFFFFFFFFFFFFFFFFFFFFFFFFFFFFFFFFFFFFFFFF DUP4 DUP2 DUP4 AND OR DUP4 MSTORE POP POP POP POP PUSH1 0x40 MLOAD PUSH2 0xE0E SWAP2 SWAP1 PUSH2 0x2616 JUMP JUMPDEST PUSH1 0x0 PUSH1 0x40 MLOAD DUP1 DUP4 SUB DUP2 PUSH1 0x0 DUP7 GAS CALL SWAP2 POP POP RETURNDATASIZE DUP1 PUSH1 0x0 DUP2 EQ PUSH2 0xE4B JUMPI PUSH1 0x40 MLOAD SWAP2 POP PUSH1 0x1F NOT PUSH1 0x3F RETURNDATASIZE ADD AND DUP3 ADD PUSH1 0x40 MSTORE RETURNDATASIZE DUP3 MSTORE RETURNDATASIZE PUSH1 0x0 PUSH1 0x20 DUP5 ADD RETURNDATACOPY PUSH2 0xE50 JUMP JUMPDEST PUSH1 0x60 SWAP2 POP JUMPDEST POP SWAP2 POP SWAP2 POP DUP2 PUSH2 0xE63 JUMPI PUSH1 0x15 PUSH1 0x0 PUSH2 0xE78 JUMP JUMPDEST DUP1 DUP1 PUSH1 0x20 ADD SWAP1 MLOAD DUP2 ADD SWAP1 PUSH2 0xE77 SWAP2 SWAP1 PUSH2 0x28EC JUMP JUMPDEST JUMPDEST DUP2 PUSH1 0x3 SIGNEXTEND SWAP2 POP DUP1 SWAP5 POP DUP2 SWAP6 POP POP POP POP POP SWAP3 POP SWAP3 SWAP1 POP JUMP JUMPDEST PUSH1 0x0 DUP1 PUSH1 0x60 PUSH1 0x0 DUP1 PUSH2 0x167 PUSH20 0xFFFFFFFFFFFFFFFFFFFFFFFFFFFFFFFFFFFFFFFF AND PUSH4 0x278E0B88 PUSH1 0xE0 SHL DUP10 DUP10 DUP10 PUSH1 0x40 MLOAD PUSH1 0x24 ADD PUSH2 0xECD SWAP4 SWAP3 SWAP2 SWAP1 PUSH2 0x2A11 JUMP JUMPDEST PUSH1 0x40 MLOAD PUSH1 0x20 DUP2 DUP4 SUB SUB DUP2 MSTORE SWAP1 PUSH1 0x40 MSTORE SWAP1 PUSH28 0xFFFFFFFFFFFFFFFFFFFFFFFFFFFFFFFFFFFFFFFFFFFFFFFFFFFFFFFF NOT AND PUSH1 0x20 DUP3 ADD DUP1 MLOAD PUSH28 0xFFFFFFFFFFFFFFFFFFFFFFFFFFFFFFFFFFFFFFFFFFFFFFFFFFFFFFFF DUP4 DUP2 DUP4 AND OR DUP4 MSTORE POP POP POP POP PUSH1 0x40 MLOAD PUSH2 0xF37 SWAP2 SWAP1 PUSH2 0x2616 JUMP JUMPDEST PUSH1 0x0 PUSH1 0x40 MLOAD DUP1 DUP4 SUB DUP2 PUSH1 0x0 DUP7 GAS CALL SWAP2 POP POP RETURNDATASIZE DUP1 PUSH1 0x0 DUP2 EQ PUSH2 0xF74 JUMPI PUSH1 0x40 MLOAD SWAP2 POP PUSH1 0x1F NOT PUSH1 0x3F RETURNDATASIZE ADD AND DUP3 ADD PUSH1 0x40 MSTORE RETURNDATASIZE DUP3 MSTORE RETURNDATASIZE PUSH1 0x0 PUSH1 0x20 DUP5 ADD RETURNDATACOPY PUSH2 0xF79 JUMP JUMPDEST PUSH1 0x60 SWAP2 POP JUMPDEST POP SWAP2 POP SWAP2 POP DUP2 PUSH2 0xFD5 JUMPI PUSH1 0x15 PUSH1 0x0 DUP1 PUSH8 0xFFFFFFFFFFFFFFFF DUP2 GT ISZERO PUSH2 0xFA1 JUMPI PUSH2 0xFA0 PUSH2 0x1606 JUMP JUMPDEST JUMPDEST PUSH1 0x40 MLOAD SWAP1 DUP1 DUP3 MSTORE DUP1 PUSH1 0x20 MUL PUSH1 0x20 ADD DUP3 ADD PUSH1 0x40 MSTORE DUP1 ISZERO PUSH2 0xFCF JUMPI DUP2 PUSH1 0x20 ADD PUSH1 0x20 DUP3 MUL DUP1 CALLDATASIZE DUP4 CALLDATACOPY DUP1 DUP3 ADD SWAP2 POP POP SWAP1 POP JUMPDEST POP PUSH2 0xFEA JUMP JUMPDEST DUP1 DUP1 PUSH1 0x20 ADD SWAP1 MLOAD DUP2 ADD SWAP1 PUSH2 0xFE9 SWAP2 SWAP1 PUSH2 0x2B53 JUMP JUMPDEST JUMPDEST DUP3 PUSH1 0x3 SIGNEXTEND SWAP3 POP DUP1 SWAP6 POP DUP2 SWAP7 POP DUP3 SWAP8 POP POP POP POP POP POP SWAP4 POP SWAP4 POP SWAP4 SWAP1 POP JUMP JUMPDEST PUSH1 0x0 DUP1 PUSH1 0x0 PUSH2 0x167 PUSH20 0xFFFFFFFFFFFFFFFFFFFFFFFFFFFFFFFFFFFFFFFF AND PUSH4 0x5CFC9011 PUSH1 0xE0 SHL DUP9 DUP9 DUP9 DUP9 PUSH1 0x40 MLOAD PUSH1 0x24 ADD PUSH2 0x1044 SWAP5 SWAP4 SWAP3 SWAP2 SWAP1 PUSH2 0x2BC2 JUMP JUMPDEST PUSH1 0x40 MLOAD PUSH1 0x20 DUP2 DUP4 SUB SUB DUP2 MSTORE SWAP1 PUSH1 0x40 MSTORE SWAP1 PUSH28 0xFFFFFFFFFFFFFFFFFFFFFFFFFFFFFFFFFFFFFFFFFFFFFFFFFFFFFFFF NOT AND PUSH1 0x20 DUP3 ADD DUP1 MLOAD PUSH28 0xFFFFFFFFFFFFFFFFFFFFFFFFFFFFFFFFFFFFFFFFFFFFFFFFFFFFFFFF DUP4 DUP2 DUP4 AND OR DUP4 MSTORE POP POP POP POP PUSH1 0x40 MLOAD PUSH2 0x10AE SWAP2 SWAP1 PUSH2 0x2616 JUMP JUMPDEST PUSH1 0x0 PUSH1 0x40 MLOAD DUP1 DUP4 SUB DUP2 PUSH1 0x0 DUP7 GAS CALL SWAP2 POP POP RETURNDATASIZE DUP1 PUSH1 0x0 DUP2 EQ PUSH2 0x10EB JUMPI PUSH1 0x40 MLOAD SWAP2 POP PUSH1 0x1F NOT PUSH1 0x3F RETURNDATASIZE ADD AND DUP3 ADD PUSH1 0x40 MSTORE RETURNDATASIZE DUP3 MSTORE RETURNDATASIZE PUSH1 0x0 PUSH1 0x20 DUP5 ADD RETURNDATACOPY PUSH2 0x10F0 JUMP JUMPDEST PUSH1 0x60 SWAP2 POP JUMPDEST POP SWAP2 POP SWAP2 POP DUP2 PUSH2 0x1101 JUMPI PUSH1 0x15 PUSH2 0x1116 JUMP JUMPDEST DUP1 DUP1 PUSH1 0x20 ADD SWAP1 MLOAD DUP2 ADD SWAP1 PUSH2 0x1115 SWAP2 SWAP1 PUSH2 0x2666 JUMP JUMPDEST JUMPDEST PUSH1 0x3 SIGNEXTEND SWAP3 POP POP POP SWAP5 SWAP4 POP POP POP POP JUMP JUMPDEST PUSH2 0x112D PUSH2 0x144F JUMP JUMPDEST PUSH1 0x40 MLOAD DUP1 PUSH1 0x40 ADD PUSH1 0x40 MSTORE DUP1 PUSH2 0x1141 DUP7 PUSH2 0x1332 JUMP JUMPDEST DUP2 MSTORE PUSH1 0x20 ADD PUSH2 0x1150 DUP6 DUP6 PUSH2 0x1373 JUMP JUMPDEST DUP2 MSTORE POP SWAP1 POP SWAP4 SWAP3 POP POP POP JUMP JUMPDEST PUSH2 0x1164 PUSH2 0x14DE JUMP JUMPDEST DUP3 DUP2 PUSH1 0x20 ADD SWAP1 PUSH20 0xFFFFFFFFFFFFFFFFFFFFFFFFFFFFFFFFFFFFFFFF AND SWAP1 DUP2 PUSH20 0xFFFFFFFFFFFFFFFFFFFFFFFFFFFFFFFFFFFFFFFF AND DUP2 MSTORE POP POP DUP2 DUP2 PUSH1 0x40 ADD SWAP1 PUSH4 0xFFFFFFFF AND SWAP1 DUP2 PUSH4 0xFFFFFFFF AND DUP2 MSTORE POP POP SWAP3 SWAP2 POP POP JUMP JUMPDEST PUSH1 0x0 DUP1 DUP3 PUSH1 0x0 DUP2 PUSH2 0x100 ADD MLOAD PUSH1 0x0 ADD MLOAD PUSH4 0xFFFFFFFF AND EQ DUP1 ISZERO PUSH2 0x11EC JUMPI POP PUSH1 0x0 DUP2 PUSH2 0x100 ADD MLOAD PUSH1 0x40 ADD MLOAD PUSH4 0xFFFFFFFF AND EQ JUMPDEST ISZERO PUSH2 0x1212 JUMPI PUSH3 0x76A700 DUP2 PUSH2 0x100 ADD MLOAD PUSH1 0x40 ADD SWAP1 PUSH4 0xFFFFFFFF AND SWAP1 DUP2 PUSH4 0xFFFFFFFF AND DUP2 MSTORE POP POP JUMPDEST PUSH1 0x0 DUP1 PUSH2 0x167 PUSH20 0xFFFFFFFFFFFFFFFFFFFFFFFFFFFFFFFFFFFFFFFF AND CALLVALUE PUSH4 0x9C89BB35 PUSH1 0xE0 SHL DUP9 PUSH1 0x40 MLOAD PUSH1 0x24 ADD PUSH2 0x1248 SWAP2 SWAP1 PUSH2 0x2C07 JUMP JUMPDEST PUSH1 0x40 MLOAD PUSH1 0x20 DUP2 DUP4 SUB SUB DUP2 MSTORE SWAP1 PUSH1 0x40 MSTORE SWAP1 PUSH28 0xFFFFFFFFFFFFFFFFFFFFFFFFFFFFFFFFFFFFFFFFFFFFFFFFFFFFFFFF NOT AND PUSH1 0x20 DUP3 ADD DUP1 MLOAD PUSH28 0xFFFFFFFFFFFFFFFFFFFFFFFFFFFFFFFFFFFFFFFFFFFFFFFFFFFFFFFF DUP4 DUP2 DUP4 AND OR DUP4 MSTORE POP POP POP POP PUSH1 0x40 MLOAD PUSH2 0x12B2 SWAP2 SWAP1 PUSH2 0x2616 JUMP JUMPDEST PUSH1 0x0 PUSH1 0x40 MLOAD DUP1 DUP4 SUB DUP2 DUP6 DUP8 GAS CALL SWAP3 POP POP POP RETURNDATASIZE DUP1 PUSH1 0x0 DUP2 EQ PUSH2 0x12EF JUMPI PUSH1 0x40 MLOAD SWAP2 POP PUSH1 0x1F NOT PUSH1 0x3F RETURNDATASIZE ADD AND DUP3 ADD PUSH1 0x40 MSTORE RETURNDATASIZE DUP3 MSTORE RETURNDATASIZE PUSH1 0x0 PUSH1 0x20 DUP5 ADD RETURNDATACOPY PUSH2 0x12F4 JUMP JUMPDEST PUSH1 0x60 SWAP2 POP JUMPDEST POP SWAP2 POP SWAP2 POP DUP2 PUSH2 0x1307 JUMPI PUSH1 0x15 PUSH1 0x0 PUSH2 0x131C JUMP JUMPDEST DUP1 DUP1 PUSH1 0x20 ADD SWAP1 MLOAD DUP2 ADD SWAP1 PUSH2 0x131B SWAP2 SWAP1 PUSH2 0x2C67 JUMP JUMPDEST JUMPDEST DUP2 PUSH1 0x3 SIGNEXTEND SWAP2 POP DUP1 SWAP6 POP DUP2 SWAP7 POP POP POP POP POP POP SWAP2 POP SWAP2 JUMP JUMPDEST PUSH1 0x0 PUSH1 0x1 PUSH1 0x0 DUP4 PUSH1 0x6 DUP2 GT ISZERO PUSH2 0x134B JUMPI PUSH2 0x134A PUSH2 0x2CA7 JUMP JUMPDEST JUMPDEST PUSH1 0x6 DUP2 GT ISZERO PUSH2 0x135D JUMPI PUSH2 0x135C PUSH2 0x2CA7 JUMP JUMPDEST JUMPDEST DUP2 MSTORE PUSH1 0x20 ADD SWAP1 DUP2 MSTORE PUSH1 0x20 ADD PUSH1 0x0 KECCAK256 SLOAD SWAP1 POP SWAP2 SWAP1 POP JUMP JUMPDEST PUSH2 0x137B PUSH2 0x1521 JUMP JUMPDEST PUSH1 0x1 PUSH1 0x4 DUP2 GT ISZERO PUSH2 0x138F JUMPI PUSH2 0x138E PUSH2 0x2CA7 JUMP JUMPDEST JUMPDEST DUP4 PUSH1 0x4 DUP2 GT ISZERO PUSH2 0x13A2 JUMPI PUSH2 0x13A1 PUSH2 0x2CA7 JUMP JUMPDEST JUMPDEST SUB PUSH2 0x13E4 JUMPI DUP2 DUP2 PUSH1 0x20 ADD SWAP1 PUSH20 0xFFFFFFFFFFFFFFFFFFFFFFFFFFFFFFFFFFFFFFFF AND SWAP1 DUP2 PUSH20 0xFFFFFFFFFFFFFFFFFFFFFFFFFFFFFFFFFFFFFFFF AND DUP2 MSTORE POP POP PUSH2 0x1449 JUMP JUMPDEST PUSH1 0x4 DUP1 DUP2 GT ISZERO PUSH2 0x13F7 JUMPI PUSH2 0x13F6 PUSH2 0x2CA7 JUMP JUMPDEST JUMPDEST DUP4 PUSH1 0x4 DUP2 GT ISZERO PUSH2 0x140A JUMPI PUSH2 0x1409 PUSH2 0x2CA7 JUMP JUMPDEST JUMPDEST SUB PUSH2 0x1448 JUMPI DUP2 DUP2 PUSH1 0x80 ADD SWAP1 PUSH20 0xFFFFFFFFFFFFFFFFFFFFFFFFFFFFFFFFFFFFFFFF AND SWAP1 DUP2 PUSH20 0xFFFFFFFFFFFFFFFFFFFFFFFFFFFFFFFFFFFFFFFF AND DUP2 MSTORE POP POP JUMPDEST JUMPDEST SWAP3 SWAP2 POP POP JUMP JUMPDEST PUSH1 0x40 MLOAD DUP1 PUSH1 0x40 ADD PUSH1 0x40 MSTORE DUP1 PUSH1 0x0 DUP2 MSTORE PUSH1 0x20 ADD PUSH2 0x1469 PUSH2 0x1521 JUMP JUMPDEST DUP2 MSTORE POP SWAP1 JUMP JUMPDEST PUSH1 0x40 MLOAD DUP1 PUSH2 0x120 ADD PUSH1 0x40 MSTORE DUP1 PUSH1 0x60 DUP2 MSTORE PUSH1 0x20 ADD PUSH1 0x60 DUP2 MSTORE PUSH1 0x20 ADD PUSH1 0x0 PUSH20 0xFFFFFFFFFFFFFFFFFFFFFFFFFFFFFFFFFFFFFFFF AND DUP2 MSTORE PUSH1 0x20 ADD PUSH1 0x60 DUP2 MSTORE PUSH1 0x20 ADD PUSH1 0x0 ISZERO ISZERO DUP2 MSTORE PUSH1 0x20 ADD PUSH1 0x0 PUSH1 0x7 SIGNEXTEND DUP2 MSTORE PUSH1 0x20 ADD PUSH1 0x0 ISZERO ISZERO DUP2 MSTORE PUSH1 0x20 ADD PUSH1 0x60 DUP2 MSTORE PUSH1 0x20 ADD PUSH2 0x14D8 PUSH2 0x14DE JUMP JUMPDEST DUP2 MSTORE POP SWAP1 JUMP JUMPDEST PUSH1 0x40 MLOAD DUP1 PUSH1 0x60 ADD PUSH1 0x40 MSTORE DUP1 PUSH1 0x0 PUSH4 0xFFFFFFFF AND DUP2 MSTORE PUSH1 0x20 ADD PUSH1 0x0 PUSH20 0xFFFFFFFFFFFFFFFFFFFFFFFFFFFFFFFFFFFFFFFF AND DUP2 MSTORE PUSH1 0x20 ADD PUSH1 0x0 PUSH4 0xFFFFFFFF AND DUP2 MSTORE POP SWAP1 JUMP JUMPDEST PUSH1 0x40 MLOAD DUP1 PUSH1 0xA0 ADD PUSH1 0x40 MSTORE DUP1 PUSH1 0x0 ISZERO ISZERO DUP2 MSTORE PUSH1 0x20 ADD PUSH1 0x0 PUSH20 0xFFFFFFFFFFFFFFFFFFFFFFFFFFFFFFFFFFFFFFFF AND DUP2 MSTORE PUSH1 0x20 ADD PUSH1 0x60 DUP2 MSTORE PUSH1 0x20 ADD PUSH1 0x60 DUP2 MSTORE PUSH1 0x20 ADD PUSH1 0x0 PUSH20 0xFFFFFFFFFFFFFFFFFFFFFFFFFFFFFFFFFFFFFFFF AND DUP2 MSTORE POP SWAP1 JUMP JUMPDEST PUSH1 0x0 PUSH1 0x40 MLOAD SWAP1 POP SWAP1 JUMP JUMPDEST PUSH1 0x0 DUP1 REVERT JUMPDEST PUSH1 0x0 DUP1 REVERT JUMPDEST PUSH1 0x0 PUSH20 0xFFFFFFFFFFFFFFFFFFFFFFFFFFFFFFFFFFFFFFFF DUP3 AND SWAP1 POP SWAP2 SWAP1 POP JUMP JUMPDEST PUSH1 0x0 PUSH2 0x15BD DUP3 PUSH2 0x1592 JUMP JUMPDEST SWAP1 POP SWAP2 SWAP1 POP JUMP JUMPDEST PUSH2 0x15CD DUP2 PUSH2 0x15B2 JUMP JUMPDEST DUP2 EQ PUSH2 0x15D8 JUMPI PUSH1 0x0 DUP1 REVERT JUMPDEST POP JUMP JUMPDEST PUSH1 0x0 DUP2 CALLDATALOAD SWAP1 POP PUSH2 0x15EA DUP2 PUSH2 0x15C4 JUMP JUMPDEST SWAP3 SWAP2 POP POP JUMP JUMPDEST PUSH1 0x0 DUP1 REVERT JUMPDEST PUSH1 0x0 PUSH1 0x1F NOT PUSH1 0x1F DUP4 ADD AND SWAP1 POP SWAP2 SWAP1 POP JUMP JUMPDEST PUSH32 0x4E487B7100000000000000000000000000000000000000000000000000000000 PUSH1 0x0 MSTORE PUSH1 0x41 PUSH1 0x4 MSTORE PUSH1 0x24 PUSH1 0x0 REVERT JUMPDEST PUSH2 0x163E DUP3 PUSH2 0x15F5 JUMP JUMPDEST DUP2 ADD DUP2 DUP2 LT PUSH8 0xFFFFFFFFFFFFFFFF DUP3 GT OR ISZERO PUSH2 0x165D JUMPI PUSH2 0x165C PUSH2 0x1606 JUMP JUMPDEST JUMPDEST DUP1 PUSH1 0x40 MSTORE POP POP POP JUMP JUMPDEST PUSH1 0x0 PUSH2 0x1670 PUSH2 0x157E JUMP JUMPDEST SWAP1 POP PUSH2 0x167C DUP3 DUP3 PUSH2 0x1635 JUMP JUMPDEST SWAP2 SWAP1 POP JUMP JUMPDEST PUSH1 0x0 PUSH8 0xFFFFFFFFFFFFFFFF DUP3 GT ISZERO PUSH2 0x169C JUMPI PUSH2 0x169B PUSH2 0x1606 JUMP JUMPDEST JUMPDEST PUSH1 0x20 DUP3 MUL SWAP1 POP PUSH1 0x20 DUP2 ADD SWAP1 POP SWAP2 SWAP1 POP JUMP JUMPDEST PUSH1 0x0 DUP1 REVERT JUMPDEST PUSH1 0x0 DUP1 REVERT JUMPDEST PUSH1 0x0 PUSH8 0xFFFFFFFFFFFFFFFF DUP3 GT ISZERO PUSH2 0x16D2 JUMPI PUSH2 0x16D1 PUSH2 0x1606 JUMP JUMPDEST JUMPDEST PUSH2 0x16DB DUP3 PUSH2 0x15F5 JUMP JUMPDEST SWAP1 POP PUSH1 0x20 DUP2 ADD SWAP1 POP SWAP2 SWAP1 POP JUMP JUMPDEST DUP3 DUP2 DUP4 CALLDATACOPY PUSH1 0x0 DUP4 DUP4 ADD MSTORE POP POP POP JUMP JUMPDEST PUSH1 0x0 PUSH2 0x170A PUSH2 0x1705 DUP5 PUSH2 0x16B7 JUMP JUMPDEST PUSH2 0x1666 JUMP JUMPDEST SWAP1 POP DUP3 DUP2 MSTORE PUSH1 0x20 DUP2 ADD DUP5 DUP5 DUP5 ADD GT ISZERO PUSH2 0x1726 JUMPI PUSH2 0x1725 PUSH2 0x16B2 JUMP JUMPDEST JUMPDEST PUSH2 0x1731 DUP5 DUP3 DUP6 PUSH2 0x16E8 JUMP JUMPDEST POP SWAP4 SWAP3 POP POP POP JUMP JUMPDEST PUSH1 0x0 DUP3 PUSH1 0x1F DUP4 ADD SLT PUSH2 0x174E JUMPI PUSH2 0x174D PUSH2 0x15F0 JUMP JUMPDEST JUMPDEST DUP2 CALLDATALOAD PUSH2 0x175E DUP5 DUP3 PUSH1 0x20 DUP7 ADD PUSH2 0x16F7 JUMP JUMPDEST SWAP2 POP POP SWAP3 SWAP2 POP POP JUMP JUMPDEST PUSH1 0x0 PUSH2 0x177A PUSH2 0x1775 DUP5 PUSH2 0x1681 JUMP JUMPDEST PUSH2 0x1666 JUMP JUMPDEST SWAP1 POP DUP1 DUP4 DUP3 MSTORE PUSH1 0x20 DUP3 ADD SWAP1 POP PUSH1 0x20 DUP5 MUL DUP4 ADD DUP6 DUP2 GT ISZERO PUSH2 0x179D JUMPI PUSH2 0x179C PUSH2 0x16AD JUMP JUMPDEST JUMPDEST DUP4 JUMPDEST DUP2 DUP2 LT ISZERO PUSH2 0x17E4 JUMPI DUP1 CALLDATALOAD PUSH8 0xFFFFFFFFFFFFFFFF DUP2 GT ISZERO PUSH2 0x17C2 JUMPI PUSH2 0x17C1 PUSH2 0x15F0 JUMP JUMPDEST JUMPDEST DUP1 DUP7 ADD PUSH2 0x17CF DUP10 DUP3 PUSH2 0x1739 JUMP JUMPDEST DUP6 MSTORE PUSH1 0x20 DUP6 ADD SWAP5 POP POP POP PUSH1 0x20 DUP2 ADD SWAP1 POP PUSH2 0x179F JUMP JUMPDEST POP POP POP SWAP4 SWAP3 POP POP POP JUMP JUMPDEST PUSH1 0x0 DUP3 PUSH1 0x1F DUP4 ADD SLT PUSH2 0x1803 JUMPI PUSH2 0x1802 PUSH2 0x15F0 JUMP JUMPDEST JUMPDEST DUP2 CALLDATALOAD PUSH2 0x1813 DUP5 DUP3 PUSH1 0x20 DUP7 ADD PUSH2 0x1767 JUMP JUMPDEST SWAP2 POP POP SWAP3 SWAP2 POP POP JUMP JUMPDEST PUSH1 0x0 DUP1 PUSH1 0x40 DUP4 DUP6 SUB SLT ISZERO PUSH2 0x1833 JUMPI PUSH2 0x1832 PUSH2 0x1588 JUMP JUMPDEST JUMPDEST PUSH1 0x0 PUSH2 0x1841 DUP6 DUP3 DUP7 ADD PUSH2 0x15DB JUMP JUMPDEST SWAP3 POP POP PUSH1 0x20 DUP4 ADD CALLDATALOAD PUSH8 0xFFFFFFFFFFFFFFFF DUP2 GT ISZERO PUSH2 0x1862 JUMPI PUSH2 0x1861 PUSH2 0x158D JUMP JUMPDEST JUMPDEST PUSH2 0x186E DUP6 DUP3 DUP7 ADD PUSH2 0x17EE JUMP JUMPDEST SWAP2 POP POP SWAP3 POP SWAP3 SWAP1 POP JUMP JUMPDEST PUSH1 0x0 DUP2 PUSH1 0x7 SIGNEXTEND SWAP1 POP SWAP2 SWAP1 POP JUMP JUMPDEST PUSH2 0x188E DUP2 PUSH2 0x1878 JUMP JUMPDEST DUP3 MSTORE POP POP JUMP JUMPDEST PUSH1 0x0 PUSH1 0x20 DUP3 ADD SWAP1 POP PUSH2 0x18A9 PUSH1 0x0 DUP4 ADD DUP5 PUSH2 0x1885 JUMP JUMPDEST SWAP3 SWAP2 POP POP JUMP JUMPDEST PUSH1 0x0 DUP1 REVERT JUMPDEST PUSH1 0x0 DUP1 REVERT JUMPDEST PUSH1 0x0 PUSH8 0xFFFFFFFFFFFFFFFF DUP3 GT ISZERO PUSH2 0x18D4 JUMPI PUSH2 0x18D3 PUSH2 0x1606 JUMP JUMPDEST JUMPDEST PUSH2 0x18DD DUP3 PUSH2 0x15F5 JUMP JUMPDEST SWAP1 POP PUSH1 0x20 DUP2 ADD SWAP1 POP SWAP2 SWAP1 POP JUMP JUMPDEST PUSH1 0x0 PUSH2 0x18FD PUSH2 0x18F8 DUP5 PUSH2 0x18B9 JUMP JUMPDEST PUSH2 0x1666 JUMP JUMPDEST SWAP1 POP DUP3 DUP2 MSTORE PUSH1 0x20 DUP2 ADD DUP5 DUP5 DUP5 ADD GT ISZERO PUSH2 0x1919 JUMPI PUSH2 0x1918 PUSH2 0x16B2 JUMP JUMPDEST JUMPDEST PUSH2 0x1924 DUP5 DUP3 DUP6 PUSH2 0x16E8 JUMP JUMPDEST POP SWAP4 SWAP3 POP POP POP JUMP JUMPDEST PUSH1 0x0 DUP3 PUSH1 0x1F DUP4 ADD SLT PUSH2 0x1941 JUMPI PUSH2 0x1940 PUSH2 0x15F0 JUMP JUMPDEST JUMPDEST DUP2 CALLDATALOAD PUSH2 0x1951 DUP5 DUP3 PUSH1 0x20 DUP7 ADD PUSH2 0x18EA JUMP JUMPDEST SWAP2 POP POP SWAP3 SWAP2 POP POP JUMP JUMPDEST PUSH1 0x0 DUP2 ISZERO ISZERO SWAP1 POP SWAP2 SWAP1 POP JUMP JUMPDEST PUSH2 0x196F DUP2 PUSH2 0x195A JUMP JUMPDEST DUP2 EQ PUSH2 0x197A JUMPI PUSH1 0x0 DUP1 REVERT JUMPDEST POP JUMP JUMPDEST PUSH1 0x0 DUP2 CALLDATALOAD SWAP1 POP PUSH2 0x198C DUP2 PUSH2 0x1966 JUMP JUMPDEST SWAP3 SWAP2 POP POP JUMP JUMPDEST PUSH2 0x199B DUP2 PUSH2 0x1878 JUMP JUMPDEST DUP2 EQ PUSH2 0x19A6 JUMPI PUSH1 0x0 DUP1 REVERT JUMPDEST POP JUMP JUMPDEST PUSH1 0x0 DUP2 CALLDATALOAD SWAP1 POP PUSH2 0x19B8 DUP2 PUSH2 0x1992 JUMP JUMPDEST SWAP3 SWAP2 POP POP JUMP JUMPDEST PUSH1 0x0 PUSH8 0xFFFFFFFFFFFFFFFF DUP3 GT ISZERO PUSH2 0x19D9 JUMPI PUSH2 0x19D8 PUSH2 0x1606 JUMP JUMPDEST JUMPDEST PUSH1 0x20 DUP3 MUL SWAP1 POP PUSH1 0x20 DUP2 ADD SWAP1 POP SWAP2 SWAP1 POP JUMP JUMPDEST PUSH1 0x0 DUP2 SWAP1 POP SWAP2 SWAP1 POP JUMP JUMPDEST PUSH2 0x19FD DUP2 PUSH2 0x19EA JUMP JUMPDEST DUP2 EQ PUSH2 0x1A08 JUMPI PUSH1 0x0 DUP1 REVERT JUMPDEST POP JUMP JUMPDEST PUSH1 0x0 DUP2 CALLDATALOAD SWAP1 POP PUSH2 0x1A1A DUP2 PUSH2 0x19F4 JUMP JUMPDEST SWAP3 SWAP2 POP POP JUMP JUMPDEST PUSH1 0x0 PUSH1 0xA0 DUP3 DUP5 SUB SLT ISZERO PUSH2 0x1A36 JUMPI PUSH2 0x1A35 PUSH2 0x18AF JUMP JUMPDEST JUMPDEST PUSH2 0x1A40 PUSH1 0xA0 PUSH2 0x1666 JUMP JUMPDEST SWAP1 POP PUSH1 0x0 PUSH2 0x1A50 DUP5 DUP3 DUP6 ADD PUSH2 0x197D JUMP JUMPDEST PUSH1 0x0 DUP4 ADD MSTORE POP PUSH1 0x20 PUSH2 0x1A64 DUP5 DUP3 DUP6 ADD PUSH2 0x15DB JUMP JUMPDEST PUSH1 0x20 DUP4 ADD MSTORE POP PUSH1 0x40 DUP3 ADD CALLDATALOAD PUSH8 0xFFFFFFFFFFFFFFFF DUP2 GT ISZERO PUSH2 0x1A88 JUMPI PUSH2 0x1A87 PUSH2 0x18B4 JUMP JUMPDEST JUMPDEST PUSH2 0x1A94 DUP5 DUP3 DUP6 ADD PUSH2 0x1739 JUMP JUMPDEST PUSH1 0x40 DUP4 ADD MSTORE POP PUSH1 0x60 DUP3 ADD CALLDATALOAD PUSH8 0xFFFFFFFFFFFFFFFF DUP2 GT ISZERO PUSH2 0x1AB8 JUMPI PUSH2 0x1AB7 PUSH2 0x18B4 JUMP JUMPDEST JUMPDEST PUSH2 0x1AC4 DUP5 DUP3 DUP6 ADD PUSH2 0x1739 JUMP JUMPDEST PUSH1 0x60 DUP4 ADD MSTORE POP PUSH1 0x80 PUSH2 0x1AD8 DUP5 DUP3 DUP6 ADD PUSH2 0x15DB JUMP JUMPDEST PUSH1 0x80 DUP4 ADD MSTORE POP SWAP3 SWAP2 POP POP JUMP JUMPDEST PUSH1 0x0 PUSH1 0x40 DUP3 DUP5 SUB SLT ISZERO PUSH2 0x1AFA JUMPI PUSH2 0x1AF9 PUSH2 0x18AF JUMP JUMPDEST JUMPDEST PUSH2 0x1B04 PUSH1 0x40 PUSH2 0x1666 JUMP JUMPDEST SWAP1 POP PUSH1 0x0 PUSH2 0x1B14 DUP5 DUP3 DUP6 ADD PUSH2 0x1A0B JUMP JUMPDEST PUSH1 0x0 DUP4 ADD MSTORE POP PUSH1 0x20 DUP3 ADD CALLDATALOAD PUSH8 0xFFFFFFFFFFFFFFFF DUP2 GT ISZERO PUSH2 0x1B38 JUMPI PUSH2 0x1B37 PUSH2 0x18B4 JUMP JUMPDEST JUMPDEST PUSH2 0x1B44 DUP5 DUP3 DUP6 ADD PUSH2 0x1A20 JUMP JUMPDEST PUSH1 0x20 DUP4 ADD MSTORE POP SWAP3 SWAP2 POP POP JUMP JUMPDEST PUSH1 0x0 PUSH2 0x1B63 PUSH2 0x1B5E DUP5 PUSH2 0x19BE JUMP JUMPDEST PUSH2 0x1666 JUMP JUMPDEST SWAP1 POP DUP1 DUP4 DUP3 MSTORE PUSH1 0x20 DUP3 ADD SWAP1 POP PUSH1 0x20 DUP5 MUL DUP4 ADD DUP6 DUP2 GT ISZERO PUSH2 0x1B86 JUMPI PUSH2 0x1B85 PUSH2 0x16AD JUMP JUMPDEST JUMPDEST DUP4 JUMPDEST DUP2 DUP2 LT ISZERO PUSH2 0x1BCD JUMPI DUP1 CALLDATALOAD PUSH8 0xFFFFFFFFFFFFFFFF DUP2 GT ISZERO PUSH2 0x1BAB JUMPI PUSH2 0x1BAA PUSH2 0x15F0 JUMP JUMPDEST JUMPDEST DUP1 DUP7 ADD PUSH2 0x1BB8 DUP10 DUP3 PUSH2 0x1AE4 JUMP JUMPDEST DUP6 MSTORE PUSH1 0x20 DUP6 ADD SWAP5 POP POP POP PUSH1 0x20 DUP2 ADD SWAP1 POP PUSH2 0x1B88 JUMP JUMPDEST POP POP POP SWAP4 SWAP3 POP POP POP JUMP JUMPDEST PUSH1 0x0 DUP3 PUSH1 0x1F DUP4 ADD SLT PUSH2 0x1BEC JUMPI PUSH2 0x1BEB PUSH2 0x15F0 JUMP JUMPDEST JUMPDEST DUP2 CALLDATALOAD PUSH2 0x1BFC DUP5 DUP3 PUSH1 0x20 DUP7 ADD PUSH2 0x1B50 JUMP JUMPDEST SWAP2 POP POP SWAP3 SWAP2 POP POP JUMP JUMPDEST PUSH1 0x0 PUSH4 0xFFFFFFFF DUP3 AND SWAP1 POP SWAP2 SWAP1 POP JUMP JUMPDEST PUSH2 0x1C1E DUP2 PUSH2 0x1C05 JUMP JUMPDEST DUP2 EQ PUSH2 0x1C29 JUMPI PUSH1 0x0 DUP1 REVERT JUMPDEST POP JUMP JUMPDEST PUSH1 0x0 DUP2 CALLDATALOAD SWAP1 POP PUSH2 0x1C3B DUP2 PUSH2 0x1C15 JUMP JUMPDEST SWAP3 SWAP2 POP POP JUMP JUMPDEST PUSH1 0x0 PUSH1 0x60 DUP3 DUP5 SUB SLT ISZERO PUSH2 0x1C57 JUMPI PUSH2 0x1C56 PUSH2 0x18AF JUMP JUMPDEST JUMPDEST PUSH2 0x1C61 PUSH1 0x60 PUSH2 0x1666 JUMP JUMPDEST SWAP1 POP PUSH1 0x0 PUSH2 0x1C71 DUP5 DUP3 DUP6 ADD PUSH2 0x1C2C JUMP JUMPDEST PUSH1 0x0 DUP4 ADD MSTORE POP PUSH1 0x20 PUSH2 0x1C85 DUP5 DUP3 DUP6 ADD PUSH2 0x15DB JUMP JUMPDEST PUSH1 0x20 DUP4 ADD MSTORE POP PUSH1 0x40 PUSH2 0x1C99 DUP5 DUP3 DUP6 ADD PUSH2 0x1C2C JUMP JUMPDEST PUSH1 0x40 DUP4 ADD MSTORE POP SWAP3 SWAP2 POP POP JUMP JUMPDEST PUSH1 0x0 PUSH2 0x160 DUP3 DUP5 SUB SLT ISZERO PUSH2 0x1CBC JUMPI PUSH2 0x1CBB PUSH2 0x18AF JUMP JUMPDEST JUMPDEST PUSH2 0x1CC7 PUSH2 0x120 PUSH2 0x1666 JUMP JUMPDEST SWAP1 POP PUSH1 0x0 DUP3 ADD CALLDATALOAD PUSH8 0xFFFFFFFFFFFFFFFF DUP2 GT ISZERO PUSH2 0x1CE7 JUMPI PUSH2 0x1CE6 PUSH2 0x18B4 JUMP JUMPDEST JUMPDEST PUSH2 0x1CF3 DUP5 DUP3 DUP6 ADD PUSH2 0x192C JUMP JUMPDEST PUSH1 0x0 DUP4 ADD MSTORE POP PUSH1 0x20 DUP3 ADD CALLDATALOAD PUSH8 0xFFFFFFFFFFFFFFFF DUP2 GT ISZERO PUSH2 0x1D17 JUMPI PUSH2 0x1D16 PUSH2 0x18B4 JUMP JUMPDEST JUMPDEST PUSH2 0x1D23 DUP5 DUP3 DUP6 ADD PUSH2 0x192C JUMP JUMPDEST PUSH1 0x20 DUP4 ADD MSTORE POP PUSH1 0x40 PUSH2 0x1D37 DUP5 DUP3 DUP6 ADD PUSH2 0x15DB JUMP JUMPDEST PUSH1 0x40 DUP4 ADD MSTORE POP PUSH1 0x60 DUP3 ADD CALLDATALOAD PUSH8 0xFFFFFFFFFFFFFFFF DUP2 GT ISZERO PUSH2 0x1D5B JUMPI PUSH2 0x1D5A PUSH2 0x18B4 JUMP JUMPDEST JUMPDEST PUSH2 0x1D67 DUP5 DUP3 DUP6 ADD PUSH2 0x192C JUMP JUMPDEST PUSH1 0x60 DUP4 ADD MSTORE POP PUSH1 0x80 PUSH2 0x1D7B DUP5 DUP3 DUP6 ADD PUSH2 0x197D JUMP JUMPDEST PUSH1 0x80 DUP4 ADD MSTORE POP PUSH1 0xA0 PUSH2 0x1D8F DUP5 DUP3 DUP6 ADD PUSH2 0x19A9 JUMP JUMPDEST PUSH1 0xA0 DUP4 ADD MSTORE POP PUSH1 0xC0 PUSH2 0x1DA3 DUP5 DUP3 DUP6 ADD PUSH2 0x197D JUMP JUMPDEST PUSH1 0xC0 DUP4 ADD MSTORE POP PUSH1 0xE0 DUP3 ADD CALLDATALOAD PUSH8 0xFFFFFFFFFFFFFFFF DUP2 GT ISZERO PUSH2 0x1DC7 JUMPI PUSH2 0x1DC6 PUSH2 0x18B4 JUMP JUMPDEST JUMPDEST PUSH2 0x1DD3 DUP5 DUP3 DUP6 ADD PUSH2 0x1BD7 JUMP JUMPDEST PUSH1 0xE0 DUP4 ADD MSTORE POP PUSH2 0x100 PUSH2 0x1DE8 DUP5 DUP3 DUP6 ADD PUSH2 0x1C41 JUMP JUMPDEST PUSH2 0x100 DUP4 ADD MSTORE POP SWAP3 SWAP2 POP POP JUMP JUMPDEST PUSH1 0x0 DUP1 PUSH1 0x40 DUP4 DUP6 SUB SLT ISZERO PUSH2 0x1E0C JUMPI PUSH2 0x1E0B PUSH2 0x1588 JUMP JUMPDEST JUMPDEST PUSH1 0x0 PUSH2 0x1E1A DUP6 DUP3 DUP7 ADD PUSH2 0x15DB JUMP JUMPDEST SWAP3 POP POP PUSH1 0x20 DUP4 ADD CALLDATALOAD PUSH8 0xFFFFFFFFFFFFFFFF DUP2 GT ISZERO PUSH2 0x1E3B JUMPI PUSH2 0x1E3A PUSH2 0x158D JUMP JUMPDEST JUMPDEST PUSH2 0x1E47 DUP6 DUP3 DUP7 ADD PUSH2 0x1CA5 JUMP JUMPDEST SWAP2 POP POP SWAP3 POP SWAP3 SWAP1 POP JUMP JUMPDEST PUSH1 0x0 DUP2 SWAP1 POP SWAP2 SWAP1 POP JUMP JUMPDEST PUSH2 0x1E64 DUP2 PUSH2 0x1E51 JUMP JUMPDEST DUP3 MSTORE POP POP JUMP JUMPDEST PUSH1 0x0 PUSH1 0x20 DUP3 ADD SWAP1 POP PUSH2 0x1E7F PUSH1 0x0 DUP4 ADD DUP5 PUSH2 0x1E5B JUMP JUMPDEST SWAP3 SWAP2 POP POP JUMP JUMPDEST PUSH1 0x0 PUSH1 0x20 DUP3 DUP5 SUB SLT ISZERO PUSH2 0x1E9B JUMPI PUSH2 0x1E9A PUSH2 0x1588 JUMP JUMPDEST JUMPDEST PUSH1 0x0 PUSH2 0x1EA9 DUP5 DUP3 DUP6 ADD PUSH2 0x15DB JUMP JUMPDEST SWAP2 POP POP SWAP3 SWAP2 POP POP JUMP JUMPDEST PUSH1 0x0 DUP1 PUSH1 0x80 DUP4 DUP6 SUB SLT ISZERO PUSH2 0x1EC9 JUMPI PUSH2 0x1EC8 PUSH2 0x1588 JUMP JUMPDEST JUMPDEST PUSH1 0x0 PUSH2 0x1ED7 DUP6 DUP3 DUP7 ADD PUSH2 0x15DB JUMP JUMPDEST SWAP3 POP POP PUSH1 0x20 PUSH2 0x1EE8 DUP6 DUP3 DUP7 ADD PUSH2 0x1C41 JUMP JUMPDEST SWAP2 POP POP SWAP3 POP SWAP3 SWAP1 POP JUMP JUMPDEST PUSH1 0x0 DUP1 PUSH1 0x0 PUSH1 0x60 DUP5 DUP7 SUB SLT ISZERO PUSH2 0x1F0B JUMPI PUSH2 0x1F0A PUSH2 0x1588 JUMP JUMPDEST JUMPDEST PUSH1 0x0 PUSH2 0x1F19 DUP7 DUP3 DUP8 ADD PUSH2 0x15DB JUMP JUMPDEST SWAP4 POP POP PUSH1 0x20 PUSH2 0x1F2A DUP7 DUP3 DUP8 ADD PUSH2 0x15DB JUMP JUMPDEST SWAP3 POP POP PUSH1 0x40 PUSH2 0x1F3B DUP7 DUP3 DUP8 ADD PUSH2 0x19A9 JUMP JUMPDEST SWAP2 POP POP SWAP3 POP SWAP3 POP SWAP3 JUMP JUMPDEST PUSH1 0x0 DUP1 PUSH1 0x40 DUP4 DUP6 SUB SLT ISZERO PUSH2 0x1F5C JUMPI PUSH2 0x1F5B PUSH2 0x1588 JUMP JUMPDEST JUMPDEST PUSH1 0x0 PUSH2 0x1F6A DUP6 DUP3 DUP7 ADD PUSH2 0x15DB JUMP JUMPDEST SWAP3 POP POP PUSH1 0x20 PUSH2 0x1F7B DUP6 DUP3 DUP7 ADD PUSH2 0x15DB JUMP JUMPDEST SWAP2 POP POP SWAP3 POP SWAP3 SWAP1 POP JUMP JUMPDEST PUSH1 0x0 DUP1 PUSH1 0x0 DUP1 PUSH1 0x0 PUSH1 0xA0 DUP7 DUP9 SUB SLT ISZERO PUSH2 0x1FA1 JUMPI PUSH2 0x1FA0 PUSH2 0x1588 JUMP JUMPDEST JUMPDEST PUSH1 0x0 DUP7 ADD CALLDATALOAD PUSH8 0xFFFFFFFFFFFFFFFF DUP2 GT ISZERO PUSH2 0x1FBF JUMPI PUSH2 0x1FBE PUSH2 0x158D JUMP JUMPDEST JUMPDEST PUSH2 0x1FCB DUP9 DUP3 DUP10 ADD PUSH2 0x192C JUMP JUMPDEST SWAP6 POP POP PUSH1 0x20 DUP7 ADD CALLDATALOAD PUSH8 0xFFFFFFFFFFFFFFFF DUP2 GT ISZERO PUSH2 0x1FEC JUMPI PUSH2 0x1FEB PUSH2 0x158D JUMP JUMPDEST JUMPDEST PUSH2 0x1FF8 DUP9 DUP3 DUP10 ADD PUSH2 0x192C JUMP JUMPDEST SWAP5 POP POP PUSH1 0x40 DUP7 ADD CALLDATALOAD PUSH8 0xFFFFFFFFFFFFFFFF DUP2 GT ISZERO PUSH2 0x2019 JUMPI PUSH2 0x2018 PUSH2 0x158D JUMP JUMPDEST JUMPDEST PUSH2 0x2025 DUP9 DUP3 DUP10 ADD PUSH2 0x192C JUMP JUMPDEST SWAP4 POP POP PUSH1 0x60 PUSH2 0x2036 DUP9 DUP3 DUP10 ADD PUSH2 0x19A9 JUMP JUMPDEST SWAP3 POP POP PUSH1 0x80 PUSH2 0x2047 DUP9 DUP3 DUP10 ADD PUSH2 0x1C2C JUMP JUMPDEST SWAP2 POP POP SWAP3 SWAP6 POP SWAP3 SWAP6 SWAP1 SWAP4 POP JUMP JUMPDEST PUSH2 0x205D DUP2 PUSH2 0x15B2 JUMP JUMPDEST DUP3 MSTORE POP POP JUMP JUMPDEST PUSH1 0x0 PUSH1 0x20 DUP3 ADD SWAP1 POP PUSH2 0x2078 PUSH1 0x0 DUP4 ADD DUP5 PUSH2 0x2054 JUMP JUMPDEST SWAP3 SWAP2 POP POP JUMP JUMPDEST PUSH2 0x2087 DUP2 PUSH2 0x1C05 JUMP JUMPDEST DUP3 MSTORE POP POP JUMP JUMPDEST PUSH2 0x2096 DUP2 PUSH2 0x15B2 JUMP JUMPDEST DUP3 MSTORE POP POP JUMP JUMPDEST PUSH1 0x60 DUP3 ADD PUSH1 0x0 DUP3 ADD MLOAD PUSH2 0x20B2 PUSH1 0x0 DUP6 ADD DUP3 PUSH2 0x207E JUMP JUMPDEST POP PUSH1 0x20 DUP3 ADD MLOAD PUSH2 0x20C5 PUSH1 0x20 DUP6 ADD DUP3 PUSH2 0x208D JUMP JUMPDEST POP PUSH1 0x40 DUP3 ADD MLOAD PUSH2 0x20D8 PUSH1 0x40 DUP6 ADD DUP3 PUSH2 0x207E JUMP JUMPDEST POP POP POP POP JUMP JUMPDEST PUSH1 0x0 PUSH1 0x80 DUP3 ADD SWAP1 POP PUSH2 0x20F3 PUSH1 0x0 DUP4 ADD DUP6 PUSH2 0x1E5B JUMP JUMPDEST PUSH2 0x2100 PUSH1 0x20 DUP4 ADD DUP5 PUSH2 0x209C JUMP JUMPDEST SWAP4 SWAP3 POP POP POP JUMP JUMPDEST PUSH2 0x2110 DUP2 PUSH2 0x195A JUMP JUMPDEST DUP3 MSTORE POP POP JUMP JUMPDEST PUSH1 0x0 PUSH1 0x40 DUP3 ADD SWAP1 POP PUSH2 0x212B PUSH1 0x0 DUP4 ADD DUP6 PUSH2 0x1885 JUMP JUMPDEST PUSH2 0x2138 PUSH1 0x20 DUP4 ADD DUP5 PUSH2 0x2107 JUMP JUMPDEST SWAP4 SWAP3 POP POP POP JUMP JUMPDEST PUSH1 0x0 DUP3 DUP3 MSTORE PUSH1 0x20 DUP3 ADD SWAP1 POP SWAP3 SWAP2 POP POP JUMP JUMPDEST PUSH32 0x4661696C656420746F206D696E74206E6F6E2D66756E6769626C6520746F6B65 PUSH1 0x0 DUP3 ADD MSTORE PUSH32 0x6E00000000000000000000000000000000000000000000000000000000000000 PUSH1 0x20 DUP3 ADD MSTORE POP JUMP JUMPDEST PUSH1 0x0 PUSH2 0x21AC PUSH1 0x21 DUP4 PUSH2 0x213F JUMP JUMPDEST SWAP2 POP PUSH2 0x21B7 DUP3 PUSH2 0x2150 JUMP JUMPDEST PUSH1 0x40 DUP3 ADD SWAP1 POP SWAP2 SWAP1 POP JUMP JUMPDEST PUSH1 0x0 PUSH1 0x20 DUP3 ADD SWAP1 POP DUP2 DUP2 SUB PUSH1 0x0 DUP4 ADD MSTORE PUSH2 0x21DB DUP2 PUSH2 0x219F JUMP JUMPDEST SWAP1 POP SWAP2 SWAP1 POP JUMP JUMPDEST PUSH32 0x4E487B7100000000000000000000000000000000000000000000000000000000 PUSH1 0x0 MSTORE PUSH1 0x32 PUSH1 0x4 MSTORE PUSH1 0x24 PUSH1 0x0 REVERT JUMPDEST PUSH1 0x0 DUP2 MLOAD SWAP1 POP SWAP2 SWAP1 POP JUMP JUMPDEST PUSH1 0x0 DUP3 DUP3 MSTORE PUSH1 0x20 DUP3 ADD SWAP1 POP SWAP3 SWAP2 POP POP JUMP JUMPDEST PUSH1 0x0 JUMPDEST DUP4 DUP2 LT ISZERO PUSH2 0x224B JUMPI DUP1 DUP3 ADD MLOAD DUP2 DUP5 ADD MSTORE PUSH1 0x20 DUP2 ADD SWAP1 POP PUSH2 0x2230 JUMP JUMPDEST PUSH1 0x0 DUP5 DUP5 ADD MSTORE POP POP POP POP JUMP JUMPDEST PUSH1 0x0 PUSH2 0x2262 DUP3 PUSH2 0x2211 JUMP JUMPDEST PUSH2 0x226C DUP2 DUP6 PUSH2 0x221C JUMP JUMPDEST SWAP4 POP PUSH2 0x227C DUP2 DUP6 PUSH1 0x20 DUP7 ADD PUSH2 0x222D JUMP JUMPDEST PUSH2 0x2285 DUP2 PUSH2 0x15F5 JUMP JUMPDEST DUP5 ADD SWAP2 POP POP SWAP3 SWAP2 POP POP JUMP JUMPDEST PUSH2 0x2299 DUP2 PUSH2 0x195A JUMP JUMPDEST DUP3 MSTORE POP POP JUMP JUMPDEST PUSH2 0x22A8 DUP2 PUSH2 0x1878 JUMP JUMPDEST DUP3 MSTORE POP POP JUMP JUMPDEST PUSH1 0x0 DUP2 MLOAD SWAP1 POP SWAP2 SWAP1 POP JUMP JUMPDEST PUSH1 0x0 DUP3 DUP3 MSTORE PUSH1 0x20 DUP3 ADD SWAP1 POP SWAP3 SWAP2 POP POP JUMP JUMPDEST PUSH1 0x0 DUP2 SWAP1 POP PUSH1 0x20 DUP3 ADD SWAP1 POP SWAP2 SWAP1 POP JUMP JUMPDEST PUSH2 0x22E3 DUP2 PUSH2 0x19EA JUMP JUMPDEST DUP3 MSTORE POP POP JUMP JUMPDEST PUSH1 0x0 DUP2 MLOAD SWAP1 POP SWAP2 SWAP1 POP JUMP JUMPDEST PUSH1 0x0 DUP3 DUP3 MSTORE PUSH1 0x20 DUP3 ADD SWAP1 POP SWAP3 SWAP2 POP POP JUMP JUMPDEST PUSH1 0x0 PUSH2 0x2310 DUP3 PUSH2 0x22E9 JUMP JUMPDEST PUSH2 0x231A DUP2 DUP6 PUSH2 0x22F4 JUMP JUMPDEST SWAP4 POP PUSH2 0x232A DUP2 DUP6 PUSH1 0x20 DUP7 ADD PUSH2 0x222D JUMP JUMPDEST PUSH2 0x2333 DUP2 PUSH2 0x15F5 JUMP JUMPDEST DUP5 ADD SWAP2 POP POP SWAP3 SWAP2 POP POP JUMP JUMPDEST PUSH1 0x0 PUSH1 0xA0 DUP4 ADD PUSH1 0x0 DUP4 ADD MLOAD PUSH2 0x2356 PUSH1 0x0 DUP7 ADD DUP3 PUSH2 0x2290 JUMP JUMPDEST POP PUSH1 0x20 DUP4 ADD MLOAD PUSH2 0x2369 PUSH1 0x20 DUP7 ADD DUP3 PUSH2 0x208D JUMP JUMPDEST POP PUSH1 0x40 DUP4 ADD MLOAD DUP5 DUP3 SUB PUSH1 0x40 DUP7 ADD MSTORE PUSH2 0x2381 DUP3 DUP3 PUSH2 0x2305 JUMP JUMPDEST SWAP2 POP POP PUSH1 0x60 DUP4 ADD MLOAD DUP5 DUP3 SUB PUSH1 0x60 DUP7 ADD MSTORE PUSH2 0x239B DUP3 DUP3 PUSH2 0x2305 JUMP JUMPDEST SWAP2 POP POP PUSH1 0x80 DUP4 ADD MLOAD PUSH2 0x23B0 PUSH1 0x80 DUP7 ADD DUP3 PUSH2 0x208D JUMP JUMPDEST POP DUP1 SWAP2 POP POP SWAP3 SWAP2 POP POP JUMP JUMPDEST PUSH1 0x0 PUSH1 0x40 DUP4 ADD PUSH1 0x0 DUP4 ADD MLOAD PUSH2 0x23D3 PUSH1 0x0 DUP7 ADD DUP3 PUSH2 0x22DA JUMP JUMPDEST POP PUSH1 0x20 DUP4 ADD MLOAD DUP5 DUP3 SUB PUSH1 0x20 DUP7 ADD MSTORE PUSH2 0x23EB DUP3 DUP3 PUSH2 0x233E JUMP JUMPDEST SWAP2 POP POP DUP1 SWAP2 POP POP SWAP3 SWAP2 POP POP JUMP JUMPDEST PUSH1 0x0 PUSH2 0x2404 DUP4 DUP4 PUSH2 0x23BB JUMP JUMPDEST SWAP1 POP SWAP3 SWAP2 POP POP JUMP JUMPDEST PUSH1 0x0 PUSH1 0x20 DUP3 ADD SWAP1 POP SWAP2 SWAP1 POP JUMP JUMPDEST PUSH1 0x0 PUSH2 0x2424 DUP3 PUSH2 0x22AE JUMP JUMPDEST PUSH2 0x242E DUP2 DUP6 PUSH2 0x22B9 JUMP JUMPDEST SWAP4 POP DUP4 PUSH1 0x20 DUP3 MUL DUP6 ADD PUSH2 0x2440 DUP6 PUSH2 0x22CA JUMP JUMPDEST DUP1 PUSH1 0x0 JUMPDEST DUP6 DUP2 LT ISZERO PUSH2 0x247C JUMPI DUP5 DUP5 SUB DUP10 MSTORE DUP2 MLOAD PUSH2 0x245D DUP6 DUP3 PUSH2 0x23F8 JUMP JUMPDEST SWAP5 POP PUSH2 0x2468 DUP4 PUSH2 0x240C JUMP JUMPDEST SWAP3 POP PUSH1 0x20 DUP11 ADD SWAP10 POP POP PUSH1 0x1 DUP2 ADD SWAP1 POP PUSH2 0x2444 JUMP JUMPDEST POP DUP3 SWAP8 POP DUP8 SWAP6 POP POP POP POP POP POP SWAP3 SWAP2 POP POP JUMP JUMPDEST PUSH1 0x60 DUP3 ADD PUSH1 0x0 DUP3 ADD MLOAD PUSH2 0x24A4 PUSH1 0x0 DUP6 ADD DUP3 PUSH2 0x207E JUMP JUMPDEST POP PUSH1 0x20 DUP3 ADD MLOAD PUSH2 0x24B7 PUSH1 0x20 DUP6 ADD DUP3 PUSH2 0x208D JUMP JUMPDEST POP PUSH1 0x40 DUP3 ADD MLOAD PUSH2 0x24CA PUSH1 0x40 DUP6 ADD DUP3 PUSH2 0x207E JUMP JUMPDEST POP POP POP POP JUMP JUMPDEST PUSH1 0x0 PUSH2 0x160 DUP4 ADD PUSH1 0x0 DUP4 ADD MLOAD DUP5 DUP3 SUB PUSH1 0x0 DUP7 ADD MSTORE PUSH2 0x24EE DUP3 DUP3 PUSH2 0x2257 JUMP JUMPDEST SWAP2 POP POP PUSH1 0x20 DUP4 ADD MLOAD DUP5 DUP3 SUB PUSH1 0x20 DUP7 ADD MSTORE PUSH2 0x2508 DUP3 DUP3 PUSH2 0x2257 JUMP JUMPDEST SWAP2 POP POP PUSH1 0x40 DUP4 ADD MLOAD PUSH2 0x251D PUSH1 0x40 DUP7 ADD DUP3 PUSH2 0x208D JUMP JUMPDEST POP PUSH1 0x60 DUP4 ADD MLOAD DUP5 DUP3 SUB PUSH1 0x60 DUP7 ADD MSTORE PUSH2 0x2535 DUP3 DUP3 PUSH2 0x2257 JUMP JUMPDEST SWAP2 POP POP PUSH1 0x80 DUP4 ADD MLOAD PUSH2 0x254A PUSH1 0x80 DUP7 ADD DUP3 PUSH2 0x2290 JUMP JUMPDEST POP PUSH1 0xA0 DUP4 ADD MLOAD PUSH2 0x255D PUSH1 0xA0 DUP7 ADD DUP3 PUSH2 0x229F JUMP JUMPDEST POP PUSH1 0xC0 DUP4 ADD MLOAD PUSH2 0x2570 PUSH1 0xC0 DUP7 ADD DUP3 PUSH2 0x2290 JUMP JUMPDEST POP PUSH1 0xE0 DUP4 ADD MLOAD DUP5 DUP3 SUB PUSH1 0xE0 DUP7 ADD MSTORE PUSH2 0x2588 DUP3 DUP3 PUSH2 0x2419 JUMP JUMPDEST SWAP2 POP POP PUSH2 0x100 DUP4 ADD MLOAD PUSH2 0x259F PUSH2 0x100 DUP7 ADD DUP3 PUSH2 0x248E JUMP JUMPDEST POP DUP1 SWAP2 POP POP SWAP3 SWAP2 POP POP JUMP JUMPDEST PUSH1 0x0 PUSH1 0x40 DUP3 ADD SWAP1 POP PUSH2 0x25BF PUSH1 0x0 DUP4 ADD DUP6 PUSH2 0x2054 JUMP JUMPDEST DUP2 DUP2 SUB PUSH1 0x20 DUP4 ADD MSTORE PUSH2 0x25D1 DUP2 DUP5 PUSH2 0x24D0 JUMP JUMPDEST SWAP1 POP SWAP4 SWAP3 POP POP POP JUMP JUMPDEST PUSH1 0x0 DUP2 SWAP1 POP SWAP3 SWAP2 POP POP JUMP JUMPDEST PUSH1 0x0 PUSH2 0x25F0 DUP3 PUSH2 0x22E9 JUMP JUMPDEST PUSH2 0x25FA DUP2 DUP6 PUSH2 0x25DA JUMP JUMPDEST SWAP4 POP PUSH2 0x260A DUP2 DUP6 PUSH1 0x20 DUP7 ADD PUSH2 0x222D JUMP JUMPDEST DUP1 DUP5 ADD SWAP2 POP POP SWAP3 SWAP2 POP POP JUMP JUMPDEST PUSH1 0x0 PUSH2 0x2622 DUP3 DUP5 PUSH2 0x25E5 JUMP JUMPDEST SWAP2 POP DUP2 SWAP1 POP SWAP3 SWAP2 POP POP JUMP JUMPDEST PUSH1 0x0 DUP2 PUSH1 0x3 SIGNEXTEND SWAP1 POP SWAP2 SWAP1 POP JUMP JUMPDEST PUSH2 0x2643 DUP2 PUSH2 0x262D JUMP JUMPDEST DUP2 EQ PUSH2 0x264E JUMPI PUSH1 0x0 DUP1 REVERT JUMPDEST POP JUMP JUMPDEST PUSH1 0x0 DUP2 MLOAD SWAP1 POP PUSH2 0x2660 DUP2 PUSH2 0x263A JUMP JUMPDEST SWAP3 SWAP2 POP POP JUMP JUMPDEST PUSH1 0x0 PUSH1 0x20 DUP3 DUP5 SUB SLT ISZERO PUSH2 0x267C JUMPI PUSH2 0x267B PUSH2 0x1588 JUMP JUMPDEST JUMPDEST PUSH1 0x0 PUSH2 0x268A DUP5 DUP3 DUP6 ADD PUSH2 0x2651 JUMP JUMPDEST SWAP2 POP POP SWAP3 SWAP2 POP POP JUMP JUMPDEST PUSH1 0x0 PUSH1 0x80 DUP3 ADD SWAP1 POP PUSH2 0x26A8 PUSH1 0x0 DUP4 ADD DUP6 PUSH2 0x2054 JUMP JUMPDEST PUSH2 0x26B5 PUSH1 0x20 DUP4 ADD DUP5 PUSH2 0x209C JUMP JUMPDEST SWAP4 SWAP3 POP POP POP JUMP JUMPDEST PUSH32 0x4661696C656420746F207472616E73666572206E6F6E2D66756E6769626C6520 PUSH1 0x0 DUP3 ADD MSTORE PUSH32 0x746F6B656E000000000000000000000000000000000000000000000000000000 PUSH1 0x20 DUP3 ADD MSTORE POP JUMP JUMPDEST PUSH1 0x0 PUSH2 0x2718 PUSH1 0x25 DUP4 PUSH2 0x213F JUMP JUMPDEST SWAP2 POP PUSH2 0x2723 DUP3 PUSH2 0x26BC JUMP JUMPDEST PUSH1 0x40 DUP3 ADD SWAP1 POP SWAP2 SWAP1 POP JUMP JUMPDEST PUSH1 0x0 PUSH1 0x20 DUP3 ADD SWAP1 POP DUP2 DUP2 SUB PUSH1 0x0 DUP4 ADD MSTORE PUSH2 0x2747 DUP2 PUSH2 0x270B JUMP JUMPDEST SWAP1 POP SWAP2 SWAP1 POP JUMP JUMPDEST PUSH1 0x0 PUSH1 0x40 DUP3 ADD SWAP1 POP PUSH2 0x2763 PUSH1 0x0 DUP4 ADD DUP6 PUSH2 0x2054 JUMP JUMPDEST PUSH2 0x2770 PUSH1 0x20 DUP4 ADD DUP5 PUSH2 0x2054 JUMP JUMPDEST SWAP4 SWAP3 POP POP POP JUMP JUMPDEST PUSH32 0x4661696C656420746F20637265617465206E6F6E2D66756E6769626C6520746F PUSH1 0x0 DUP3 ADD MSTORE PUSH32 0x6B656E0000000000000000000000000000000000000000000000000000000000 PUSH1 0x20 DUP3 ADD MSTORE POP JUMP JUMPDEST PUSH1 0x0 PUSH2 0x27D3 PUSH1 0x23 DUP4 PUSH2 0x213F JUMP JUMPDEST SWAP2 POP PUSH2 0x27DE DUP3 PUSH2 0x2777 JUMP JUMPDEST PUSH1 0x40 DUP3 ADD SWAP1 POP SWAP2 SWAP1 POP JUMP JUMPDEST PUSH1 0x0 PUSH1 0x20 DUP3 ADD SWAP1 POP DUP2 DUP2 SUB PUSH1 0x0 DUP4 ADD MSTORE PUSH2 0x2802 DUP2 PUSH2 0x27C6 JUMP JUMPDEST SWAP1 POP SWAP2 SWAP1 POP JUMP JUMPDEST PUSH1 0x0 DUP2 MLOAD SWAP1 POP PUSH2 0x2818 DUP2 PUSH2 0x1C15 JUMP JUMPDEST SWAP3 SWAP2 POP POP JUMP JUMPDEST PUSH1 0x0 DUP2 MLOAD SWAP1 POP PUSH2 0x282D DUP2 PUSH2 0x15C4 JUMP JUMPDEST SWAP3 SWAP2 POP POP JUMP JUMPDEST PUSH1 0x0 PUSH1 0x60 DUP3 DUP5 SUB SLT ISZERO PUSH2 0x2849 JUMPI PUSH2 0x2848 PUSH2 0x18AF JUMP JUMPDEST JUMPDEST PUSH2 0x2853 PUSH1 0x60 PUSH2 0x1666 JUMP JUMPDEST SWAP1 POP PUSH1 0x0 PUSH2 0x2863 DUP5 DUP3 DUP6 ADD PUSH2 0x2809 JUMP JUMPDEST PUSH1 0x0 DUP4 ADD MSTORE POP PUSH1 0x20 PUSH2 0x2877 DUP5 DUP3 DUP6 ADD PUSH2 0x281E JUMP JUMPDEST PUSH1 0x20 DUP4 ADD MSTORE POP PUSH1 0x40 PUSH2 0x288B DUP5 DUP3 DUP6 ADD PUSH2 0x2809 JUMP JUMPDEST PUSH1 0x40 DUP4 ADD MSTORE POP SWAP3 SWAP2 POP POP JUMP JUMPDEST PUSH1 0x0 DUP1 PUSH1 0x80 DUP4 DUP6 SUB SLT ISZERO PUSH2 0x28AE JUMPI PUSH2 0x28AD PUSH2 0x1588 JUMP JUMPDEST JUMPDEST PUSH1 0x0 PUSH2 0x28BC DUP6 DUP3 DUP7 ADD PUSH2 0x2651 JUMP JUMPDEST SWAP3 POP POP PUSH1 0x20 PUSH2 0x28CD DUP6 DUP3 DUP7 ADD PUSH2 0x2833 JUMP JUMPDEST SWAP2 POP POP SWAP3 POP SWAP3 SWAP1 POP JUMP JUMPDEST PUSH1 0x0 DUP2 MLOAD SWAP1 POP PUSH2 0x28E6 DUP2 PUSH2 0x1966 JUMP JUMPDEST SWAP3 SWAP2 POP POP JUMP JUMPDEST PUSH1 0x0 DUP1 PUSH1 0x40 DUP4 DUP6 SUB SLT ISZERO PUSH2 0x2903 JUMPI PUSH2 0x2902 PUSH2 0x1588 JUMP JUMPDEST JUMPDEST PUSH1 0x0 PUSH2 0x2911 DUP6 DUP3 DUP7 ADD PUSH2 0x2651 JUMP JUMPDEST SWAP3 POP POP PUSH1 0x20 PUSH2 0x2922 DUP6 DUP3 DUP7 ADD PUSH2 0x28D7 JUMP JUMPDEST SWAP2 POP POP SWAP3 POP SWAP3 SWAP1 POP JUMP JUMPDEST PUSH1 0x0 PUSH8 0xFFFFFFFFFFFFFFFF DUP3 AND SWAP1 POP SWAP2 SWAP1 POP JUMP JUMPDEST PUSH2 0x2949 DUP2 PUSH2 0x292C JUMP JUMPDEST DUP3 MSTORE POP POP JUMP JUMPDEST PUSH1 0x0 DUP2 MLOAD SWAP1 POP SWAP2 SWAP1 POP JUMP JUMPDEST PUSH1 0x0 DUP3 DUP3 MSTORE PUSH1 0x20 DUP3 ADD SWAP1 POP SWAP3 SWAP2 POP POP JUMP JUMPDEST PUSH1 0x0 DUP2 SWAP1 POP PUSH1 0x20 DUP3 ADD SWAP1 POP SWAP2 SWAP1 POP JUMP JUMPDEST PUSH1 0x0 PUSH2 0x2987 DUP4 DUP4 PUSH2 0x2305 JUMP JUMPDEST SWAP1 POP SWAP3 SWAP2 POP POP JUMP JUMPDEST PUSH1 0x0 PUSH1 0x20 DUP3 ADD SWAP1 POP SWAP2 SWAP1 POP JUMP JUMPDEST PUSH1 0x0 PUSH2 0x29A7 DUP3 PUSH2 0x294F JUMP JUMPDEST PUSH2 0x29B1 DUP2 DUP6 PUSH2 0x295A JUMP JUMPDEST SWAP4 POP DUP4 PUSH1 0x20 DUP3 MUL DUP6 ADD PUSH2 0x29C3 DUP6 PUSH2 0x296B JUMP JUMPDEST DUP1 PUSH1 0x0 JUMPDEST DUP6 DUP2 LT ISZERO PUSH2 0x29FF JUMPI DUP5 DUP5 SUB DUP10 MSTORE DUP2 MLOAD PUSH2 0x29E0 DUP6 DUP3 PUSH2 0x297B JUMP JUMPDEST SWAP5 POP PUSH2 0x29EB DUP4 PUSH2 0x298F JUMP JUMPDEST SWAP3 POP PUSH1 0x20 DUP11 ADD SWAP10 POP POP PUSH1 0x1 DUP2 ADD SWAP1 POP PUSH2 0x29C7 JUMP JUMPDEST POP DUP3 SWAP8 POP DUP8 SWAP6 POP POP POP POP POP POP SWAP3 SWAP2 POP POP JUMP JUMPDEST PUSH1 0x0 PUSH1 0x60 DUP3 ADD SWAP1 POP PUSH2 0x2A26 PUSH1 0x0 DUP4 ADD DUP7 PUSH2 0x2054 JUMP JUMPDEST PUSH2 0x2A33 PUSH1 0x20 DUP4 ADD DUP6 PUSH2 0x2940 JUMP JUMPDEST DUP2 DUP2 SUB PUSH1 0x40 DUP4 ADD MSTORE PUSH2 0x2A45 DUP2 DUP5 PUSH2 0x299C JUMP JUMPDEST SWAP1 POP SWAP5 SWAP4 POP POP POP POP JUMP JUMPDEST PUSH2 0x2A58 DUP2 PUSH2 0x292C JUMP JUMPDEST DUP2 EQ PUSH2 0x2A63 JUMPI PUSH1 0x0 DUP1 REVERT JUMPDEST POP JUMP JUMPDEST PUSH1 0x0 DUP2 MLOAD SWAP1 POP PUSH2 0x2A75 DUP2 PUSH2 0x2A4F JUMP JUMPDEST SWAP3 SWAP2 POP POP JUMP JUMPDEST PUSH1 0x0 PUSH8 0xFFFFFFFFFFFFFFFF DUP3 GT ISZERO PUSH2 0x2A96 JUMPI PUSH2 0x2A95 PUSH2 0x1606 JUMP JUMPDEST JUMPDEST PUSH1 0x20 DUP3 MUL SWAP1 POP PUSH1 0x20 DUP2 ADD SWAP1 POP SWAP2 SWAP1 POP JUMP JUMPDEST PUSH1 0x0 DUP2 MLOAD SWAP1 POP PUSH2 0x2AB6 DUP2 PUSH2 0x1992 JUMP JUMPDEST SWAP3 SWAP2 POP POP JUMP JUMPDEST PUSH1 0x0 PUSH2 0x2ACF PUSH2 0x2ACA DUP5 PUSH2 0x2A7B JUMP JUMPDEST PUSH2 0x1666 JUMP JUMPDEST SWAP1 POP DUP1 DUP4 DUP3 MSTORE PUSH1 0x20 DUP3 ADD SWAP1 POP PUSH1 0x20 DUP5 MUL DUP4 ADD DUP6 DUP2 GT ISZERO PUSH2 0x2AF2 JUMPI PUSH2 0x2AF1 PUSH2 0x16AD JUMP JUMPDEST JUMPDEST DUP4 JUMPDEST DUP2 DUP2 LT ISZERO PUSH2 0x2B1B JUMPI DUP1 PUSH2 0x2B07 DUP9 DUP3 PUSH2 0x2AA7 JUMP JUMPDEST DUP5 MSTORE PUSH1 0x20 DUP5 ADD SWAP4 POP POP PUSH1 0x20 DUP2 ADD SWAP1 POP PUSH2 0x2AF4 JUMP JUMPDEST POP POP POP SWAP4 SWAP3 POP POP POP JUMP JUMPDEST PUSH1 0x0 DUP3 PUSH1 0x1F DUP4 ADD SLT PUSH2 0x2B3A JUMPI PUSH2 0x2B39 PUSH2 0x15F0 JUMP JUMPDEST JUMPDEST DUP2 MLOAD PUSH2 0x2B4A DUP5 DUP3 PUSH1 0x20 DUP7 ADD PUSH2 0x2ABC JUMP JUMPDEST SWAP2 POP POP SWAP3 SWAP2 POP POP JUMP JUMPDEST PUSH1 0x0 DUP1 PUSH1 0x0 PUSH1 0x60 DUP5 DUP7 SUB SLT ISZERO PUSH2 0x2B6C JUMPI PUSH2 0x2B6B PUSH2 0x1588 JUMP JUMPDEST JUMPDEST PUSH1 0x0 PUSH2 0x2B7A DUP7 DUP3 DUP8 ADD PUSH2 0x2651 JUMP JUMPDEST SWAP4 POP POP PUSH1 0x20 PUSH2 0x2B8B DUP7 DUP3 DUP8 ADD PUSH2 0x2A66 JUMP JUMPDEST SWAP3 POP POP PUSH1 0x40 DUP5 ADD MLOAD PUSH8 0xFFFFFFFFFFFFFFFF DUP2 GT ISZERO PUSH2 0x2BAC JUMPI PUSH2 0x2BAB PUSH2 0x158D JUMP JUMPDEST JUMPDEST PUSH2 0x2BB8 DUP7 DUP3 DUP8 ADD PUSH2 0x2B25 JUMP JUMPDEST SWAP2 POP POP SWAP3 POP SWAP3 POP SWAP3 JUMP JUMPDEST PUSH1 0x0 PUSH1 0x80 DUP3 ADD SWAP1 POP PUSH2 0x2BD7 PUSH1 0x0 DUP4 ADD DUP8 PUSH2 0x2054 JUMP JUMPDEST PUSH2 0x2BE4 PUSH1 0x20 DUP4 ADD DUP7 PUSH2 0x2054 JUMP JUMPDEST PUSH2 0x2BF1 PUSH1 0x40 DUP4 ADD DUP6 PUSH2 0x2054 JUMP JUMPDEST PUSH2 0x2BFE PUSH1 0x60 DUP4 ADD DUP5 PUSH2 0x1885 JUMP JUMPDEST SWAP6 SWAP5 POP POP POP POP POP JUMP JUMPDEST PUSH1 0x0 PUSH1 0x20 DUP3 ADD SWAP1 POP DUP2 DUP2 SUB PUSH1 0x0 DUP4 ADD MSTORE PUSH2 0x2C21 DUP2 DUP5 PUSH2 0x24D0 JUMP JUMPDEST SWAP1 POP SWAP3 SWAP2 POP POP JUMP JUMPDEST PUSH1 0x0 PUSH2 0x2C34 DUP3 PUSH2 0x1592 JUMP JUMPDEST SWAP1 POP SWAP2 SWAP1 POP JUMP JUMPDEST PUSH2 0x2C44 DUP2 PUSH2 0x2C29 JUMP JUMPDEST DUP2 EQ PUSH2 0x2C4F JUMPI PUSH1 0x0 DUP1 REVERT JUMPDEST POP JUMP JUMPDEST PUSH1 0x0 DUP2 MLOAD SWAP1 POP PUSH2 0x2C61 DUP2 PUSH2 0x2C3B JUMP JUMPDEST SWAP3 SWAP2 POP POP JUMP JUMPDEST PUSH1 0x0 DUP1 PUSH1 0x40 DUP4 DUP6 SUB SLT ISZERO PUSH2 0x2C7E JUMPI PUSH2 0x2C7D PUSH2 0x1588 JUMP JUMPDEST JUMPDEST PUSH1 0x0 PUSH2 0x2C8C DUP6 DUP3 DUP7 ADD PUSH2 0x2651 JUMP JUMPDEST SWAP3 POP POP PUSH1 0x20 PUSH2 0x2C9D DUP6 DUP3 DUP7 ADD PUSH2 0x2C52 JUMP JUMPDEST SWAP2 POP POP SWAP3 POP SWAP3 SWAP1 POP JUMP JUMPDEST PUSH32 0x4E487B7100000000000000000000000000000000000000000000000000000000 PUSH1 0x0 MSTORE PUSH1 0x21 PUSH1 0x4 MSTORE PUSH1 0x24 PUSH1 0x0 REVERT INVALID LOG2 PUSH5 0x6970667358 0x22 SLT KECCAK256 PUSH3 0x23574B 0xD5 MOD 0xA9 JUMP 0x2D SWAP10 CALLDATALOAD 0xDB 0xED DUP7 PUSH4 0xC96CF5C7 0xC9 0xAE 0xE4 0x27 COINBASE 0xBC 0x23 PUSH31 0x467B92FE0264736F6C63430008120033000000000000000000000000000000 "
		},
		"gasEstimates": {
			"creation": {
				"codeDepositCost": "2306400",
				"executionCost": "158191",
				"totalCost": "2464591"
			},
			"external": {
				"createNft(string,string,string,int64,uint32)": "infinite",
				"getTokenExpiryInfo(address)": "infinite",
				"grantTokenKyc(address,address)": "infinite",
				"isKyc(address,address)": "infinite",
				"mintNft(address,bytes[])": "infinite",
				"pauseToken(address)": "infinite",
				"revokeTokenKyc(address,address)": "infinite",
				"transferNft(address,address,int64)": "infinite",
				"unpauseToken(address)": "infinite",
				"updateTokenExpiryInfo(address,(uint32,address,uint32))": "infinite",
				"updateTokenInfo(address,(string,string,address,string,bool,int64,bool,(uint256,(bool,address,bytes,bytes,address))[],(uint32,address,uint32)))": "infinite"
			}
		},
		"methodIdentifiers": {
			"createNft(string,string,string,int64,uint32)": "c783fe25",
			"getTokenExpiryInfo(address)": "d614cdb8",
			"grantTokenKyc(address,address)": "8f8d7f99",
			"isKyc(address,address)": "f2c31ff4",
			"mintNft(address,bytes[])": "0a284cb6",
			"pauseToken(address)": "7c41ad2c",
			"revokeTokenKyc(address,address)": "af99c633",
			"transferNft(address,address,int64)": "82b562aa",
			"unpauseToken(address)": "3b3bff0f",
			"updateTokenExpiryInfo(address,(uint32,address,uint32))": "593d6e82",
			"updateTokenInfo(address,(string,string,address,string,bool,int64,bool,(uint256,(bool,address,bytes,bytes,address))[],(uint32,address,uint32)))": "18370d34"
		}
	},
	"abi": [
		{
			"inputs": [
				{
					"internalType": "string",
					"name": "name",
					"type": "string"
				},
				{
					"internalType": "string",
					"name": "symbol",
					"type": "string"
				},
				{
					"internalType": "string",
					"name": "memo",
					"type": "string"
				},
				{
					"internalType": "int64",
					"name": "maxSupply",
					"type": "int64"
				},
				{
					"internalType": "uint32",
					"name": "autoRenewPeriod",
					"type": "uint32"
				}
			],
			"name": "createNft",
			"outputs": [
				{
					"internalType": "address",
					"name": "",
					"type": "address"
				}
			],
			"stateMutability": "payable",
			"type": "function"
		},
		{
			"inputs": [
				{
					"internalType": "address",
					"name": "token",
					"type": "address"
				}
			],
			"name": "getTokenExpiryInfo",
			"outputs": [
				{
					"internalType": "int256",
					"name": "responseCode",
					"type": "int256"
				},
				{
					"components": [
						{
							"internalType": "uint32",
							"name": "second",
							"type": "uint32"
						},
						{
							"internalType": "address",
							"name": "autoRenewAccount",
							"type": "address"
						},
						{
							"internalType": "uint32",
							"name": "autoRenewPeriod",
							"type": "uint32"
						}
					],
					"internalType": "struct IHederaTokenService.Expiry",
					"name": "expiryInfo",
					"type": "tuple"
				}
			],
			"stateMutability": "nonpayable",
			"type": "function"
		},
		{
			"inputs": [
				{
					"internalType": "address",
					"name": "token",
					"type": "address"
				},
				{
					"internalType": "address",
					"name": "account",
					"type": "address"
				}
			],
			"name": "grantTokenKyc",
			"outputs": [
				{
					"internalType": "int64",
					"name": "responseCode",
					"type": "int64"
				}
			],
			"stateMutability": "nonpayable",
			"type": "function"
		},
		{
			"inputs": [
				{
					"internalType": "address",
					"name": "token",
					"type": "address"
				},
				{
					"internalType": "address",
					"name": "account",
					"type": "address"
				}
			],
			"name": "isKyc",
			"outputs": [
				{
					"internalType": "int64",
					"name": "responseCode",
					"type": "int64"
				},
				{
					"internalType": "bool",
					"name": "kycGranted",
					"type": "bool"
				}
			],
			"stateMutability": "nonpayable",
			"type": "function"
		},
		{
			"inputs": [
				{
					"internalType": "address",
					"name": "token",
					"type": "address"
				},
				{
					"internalType": "bytes[]",
					"name": "metadata",
					"type": "bytes[]"
				}
			],
			"name": "mintNft",
			"outputs": [
				{
					"internalType": "int64",
					"name": "",
					"type": "int64"
				}
			],
			"stateMutability": "nonpayable",
			"type": "function"
		},
		{
			"inputs": [
				{
					"internalType": "address",
					"name": "token",
					"type": "address"
				}
			],
			"name": "pauseToken",
			"outputs": [
				{
					"internalType": "int256",
					"name": "responseCode",
					"type": "int256"
				}
			],
			"stateMutability": "nonpayable",
			"type": "function"
		},
		{
			"inputs": [
				{
					"internalType": "address",
					"name": "token",
					"type": "address"
				},
				{
					"internalType": "address",
					"name": "account",
					"type": "address"
				}
			],
			"name": "revokeTokenKyc",
			"outputs": [
				{
					"internalType": "int64",
					"name": "responseCode",
					"type": "int64"
				}
			],
			"stateMutability": "nonpayable",
			"type": "function"
		},
		{
			"inputs": [
				{
					"internalType": "address",
					"name": "token",
					"type": "address"
				},
				{
					"internalType": "address",
					"name": "receiver",
					"type": "address"
				},
				{
					"internalType": "int64",
					"name": "serial",
					"type": "int64"
				}
			],
			"name": "transferNft",
			"outputs": [
				{
					"internalType": "int256",
					"name": "",
					"type": "int256"
				}
			],
			"stateMutability": "nonpayable",
			"type": "function"
		},
		{
			"inputs": [
				{
					"internalType": "address",
					"name": "token",
					"type": "address"
				}
			],
			"name": "unpauseToken",
			"outputs": [
				{
					"internalType": "int256",
					"name": "responseCode",
					"type": "int256"
				}
			],
			"stateMutability": "nonpayable",
			"type": "function"
		},
		{
			"inputs": [
				{
					"internalType": "address",
					"name": "token",
					"type": "address"
				},
				{
					"components": [
						{
							"internalType": "uint32",
							"name": "second",
							"type": "uint32"
						},
						{
							"internalType": "address",
							"name": "autoRenewAccount",
							"type": "address"
						},
						{
							"internalType": "uint32",
							"name": "autoRenewPeriod",
							"type": "uint32"
						}
					],
					"internalType": "struct IHederaTokenService.Expiry",
					"name": "expiryInfo",
					"type": "tuple"
				}
			],
			"name": "updateTokenExpiryInfo",
			"outputs": [
				{
					"internalType": "int256",
					"name": "responseCode",
					"type": "int256"
				}
			],
			"stateMutability": "nonpayable",
			"type": "function"
		},
		{
			"inputs": [
				{
					"internalType": "address",
					"name": "token",
					"type": "address"
				},
				{
					"components": [
						{
							"internalType": "string",
							"name": "name",
							"type": "string"
						},
						{
							"internalType": "string",
							"name": "symbol",
							"type": "string"
						},
						{
							"internalType": "address",
							"name": "treasury",
							"type": "address"
						},
						{
							"internalType": "string",
							"name": "memo",
							"type": "string"
						},
						{
							"internalType": "bool",
							"name": "tokenSupplyType",
							"type": "bool"
						},
						{
							"internalType": "int64",
							"name": "maxSupply",
							"type": "int64"
						},
						{
							"internalType": "bool",
							"name": "freezeDefault",
							"type": "bool"
						},
						{
							"components": [
								{
									"internalType": "uint256",
									"name": "keyType",
									"type": "uint256"
								},
								{
									"components": [
										{
											"internalType": "bool",
											"name": "inheritAccountKey",
											"type": "bool"
										},
										{
											"internalType": "address",
											"name": "contractId",
											"type": "address"
										},
										{
											"internalType": "bytes",
											"name": "ed25519",
											"type": "bytes"
										},
										{
											"internalType": "bytes",
											"name": "ECDSA_secp256k1",
											"type": "bytes"
										},
										{
											"internalType": "address",
											"name": "delegatableContractId",
											"type": "address"
										}
									],
									"internalType": "struct IHederaTokenService.KeyValue",
									"name": "key",
									"type": "tuple"
								}
							],
							"internalType": "struct IHederaTokenService.TokenKey[]",
							"name": "tokenKeys",
							"type": "tuple[]"
						},
						{
							"components": [
								{
									"internalType": "uint32",
									"name": "second",
									"type": "uint32"
								},
								{
									"internalType": "address",
									"name": "autoRenewAccount",
									"type": "address"
								},
								{
									"internalType": "uint32",
									"name": "autoRenewPeriod",
									"type": "uint32"
								}
							],
							"internalType": "struct IHederaTokenService.Expiry",
							"name": "expiry",
							"type": "tuple"
						}
					],
					"internalType": "struct IHederaTokenService.HederaToken",
					"name": "tokenInfo",
					"type": "tuple"
				}
			],
			"name": "updateTokenInfo",
			"outputs": [
				{
					"internalType": "int256",
					"name": "responseCode",
					"type": "int256"
				}
			],
			"stateMutability": "nonpayable",
			"type": "function"
		}
	]
}